S01200004C6162375F50617274312E73726563A5
S11300000C940B030C9428030C9428030C942803DD
S11300100C94220E0C944B0E0C94740E0C949D0EA6
S11300200C9428030C94030D0C942C0D0C94550D76
S11300300C94D00D0C947E0D0C94A70D0C94F90D1A
S11300400C94880C0C94B10C0C94DA0C0C942803CA
S11300500C9428030C9428030C9428030C94280370
S11300600C9428030C9428030C9428030C94280360
S11300700C9428030C9428030C9428030763423639
S1130080B79BD8A71A39685618AEBAAB558C1D3C25
S1130090B7CC5763BD6DEDFD753EF6177231BF00E9
S11300A00000803F08000000BE922449123EABAA23
S11300B0AA2ABECDCCCC4C3E00000080BEABAAAA7E
S11300C0AA3E00000000BF000000803F00000000C6
S11300D000084178D3BB4387D1133D190E3CC3BDFF
S11300E04282AD2B3E68EC8276BED98FE1A93E4CAC
S11300F080EFFFBE01C4FF7F3F00000000006E617F
S11301006E00696E660000407A10F35A00A0724EC9
S113011018090010A5D4E80000E87648170000E4A8
S11301200B54020000CA9A3B000000E1F5050000F0
S113013080969800000040420F000000A086010055
S11301400000102700000000E80300000000640025
S1130150000000000A000000000001000000000090
S11301602C76D888DC674F0823DFC1DFAE59E1B1B4
S1130170B796E5E3E453C63AE651997696E8E6C2C3
S11301808426EB898C9B62ED407C6FFCEFBC9C9FCA
S113019040F2BAA56FA5F490055A2AF75C936B6CEC
S11301A0F9676DC11BFCE0E40D47FEF520E6B500E0
S11301B0D0ED902E0300943577050080841E08004E
S11301C000204E0A000000C80C333333330F986EFE
S11301D012831141EF8D2114893BE65516CFFEE6BB
S11301E0DB18D1844B381BF77C1D901DA4BBE42481
S11301F0203284725E228100C9F124ECA1E53D27FE
S113020016050100000000000000FA000000E000F4
S1130210E00028FE28FE282454FE5448C4C81026B2
S1130220466C92AA44A000A0C0000000384482009A
S1130230008244380028107C102810107C10100014
S11302400A0C00001010101010000606000004082C
S11302501020407C8A92A27C0042FE020042868AE0
S113026092628482A2D28C182848FE08E4A2A2A238
S11302709C3C5292920C808E90A0C06C9292926C94
S11302806092929478006C6C0000006A6C0000101C
S113029028448200282828282800824428104080E6
S11302A08A90604C929E827C7E8888887EFE9292A0
S11302B0926C7C82828244FE82824438FE929292C4
S11302C082FE909090807C8292925EFE101010FECE
S11302D00082FE8200040282FC80FE10284482FE1A
S11302E002020202FE403040FEFE201008FE7C8224
S11302F082827CFE909090607C828A847AFE9098C0
S11303009462629292928C8080FE8080FC0202024F
S1130310FCF8040204F8FC021C02FCC6281028C6DF
S1130320E0100E10E0868A92A2C200FE8282004093
S113033020100804008282FE002040804020020237
S11303400202020080402000042A2A2A1EFE1222F1
S1130350221C1C222222041C222212FE1C2A2A2ACB
S113036018107E908040304A4A4A7CFE1020201E9D
S11303700022BE0200040222BC00FE081422000077
S113038082FE02003E2018201E3E1020201E1C2249
S113039022221C3E28282810102828183E3E10200F
S11303A02010122A2A2A0420FC2202043C020204FD
S11303B03E38040204383C020C023C221408142285
S11303C0300A0A0A3C22262A322200106C820000DB
S11303D000FE000000826C100008101008100000DD
S11303E00000007F8181817F7F8383837F7F878774
S11303F0877F7F8F8F8F7F7F9F9F9F7F7FBFBFBFB1
S11304007F7FFFFFFF7F2040FF40206215171565A7
S113041000FBFB00000000000000C0FF0300E0FF41
S11304200700F0FF0F00F8FF1F0078001E0078009F
S11304301E0078001E0078001E0078001E00780060
S11304401E0078001E0078001E0078001E000000C8
S113045000000000000080FF0300E0FF0700F0FF41
S11304600F00F8FF1F00F83C1F00783C1E00783C8A
S11304701E00783C1E00783C1E00783C1E00783C30
S11304801E00783C1E00783C1E00783C1E00783C20
S11304901E000000000000000000E0FF0300F0FF69
S11304A00700F8FF0F00F8FF1F00783C1E00783C9F
S11304B01E00783C1E00783C1E00783C1E00783CF0
S11304C01E00783C1E00783C1E00783C1E00783CE0
S11304D01E000000000000000000F8FF0300F8FF09
S11304E00F00F8FF1F00F8FF1F0000001E000000AF
S11304F01E0000801F0000F01F0000FF0F00E0FF3F
S11305000700F0FF0000F80F0000F800000078007A
S1130510000078000000F8FF1F00F8FF1F00F0FF44
S11305201F00E0FF1F000000000000000000F8FFB3
S11305301F00F8FF1F00F8FF1F00F8FF1F007800DE
S11305401E00783C1E00783C1E00783C1E00783C5F
S11305501E00783C1E00783C1E00F87E1F00F8FF49
S11305601F00F0FF0F00E0E70300000000000000A0
S11305703800EEFF6C002A8045003A0047FC03FF78
S11305806CFC83FF3900DEFF0B7CD0810BFCD08137
S11305900BC0D0810BFCD0810B7CDEFF0B0082FFF3
S11305A0397002FF6CF83A0047DC2A8045CCEEFF34
S11305B06CCC000038000000000C00001E0C000091
S11305C01E0000001E0000001E0000001E00F8FFB8
S11305D01F00F8FF1F00F8FF1F00F8FF1F000000B6
S11305E01E0000001E0000001E0000001E0000008F
S11305F05E000000400000007C000000400000009D
S1130600400000007C0000003000000010000000EA
S1130610300000007C0011241FBECFEFD8E0DEBF05
S1130620CDBF11E0A0E0B1E0E4EEFAE402C0059031
S11306300D92A239B107D9F722E0A2E9B1E001C0D5
S11306401D92A03BB207E1F70E949F030C94702512
S11306500C9400008FE00E94340A882311F082E099
S113066008950E94940381E008958FE00E94410A56
S1130670882319F420E030E013C080917A0080646C
S113068080937A0080917A0086FDFCCF30917800C7
S113069020917900922F80E0232F30E0282B392BF2
S11306A0C9010895ECE7F0E090818295880F880FE6
S11306B0807C9F73982B90830895582F809100011C
S11306C08830D8F440917E0021E030E0B90102C0C6
S11306D0660F771F8A95E2F7CB0180958423809378
S11306E07E0080917E00052E02C0220F331F0A94E3
S11306F0E2F7822B80937E000DC020917E0081E082
S113070090E0052E02C0880F991F0A94E2F7282B67
S113071020937E005093000180917C005F71807E65
S1130720852B80937C0008958FE180937C00EAE719
S1130730F0E087E0808380818068808308950E9450
S1130740860C0E94780C0E94681A80E090E008955C
S11307500F931F9385E00E94410A8823C1F080E42F
S113076060E00E94A50400E0802F60E00E94500435
S113077010E080E061E00E94A5041F5F1038C9F713
S11307800F5F043089F783E060E00E9493041F91B7
S11307900F9108950F931F9385E00E94340A8823D4
S11307A011F082E07AC00E94F004182F0E94B30A6C
S11307B01150123008F06DC08150823008F069C0C9
S11307C00E94C0048EEA60E00E94A50482EA60E010
S11307D00E94A50480EA60E00E94A50400E513ECF1
S11307E0C8010197F1F780EC60E00E94A5048FE254
S11307F060E00E94A50481E860E00E94A50486E10F
S113080060E00E94A50482E260E00E94A504C801A1
S11308100197F1F78FEA60E00E94A50486EA60E0A0
S11308200E94A50485EA60E00E94A50480E090E0AF
S113083028E833E1F9013197F1F7019643E0883E66
S11308409407C1F783EB60E00E94A50480E460E0B4
S11308500E94A50483E060E00E94500483E060E00D
S11308600E9493041092460210924802109247028A
S113087085E091E09093AD028093AC0288E10E9400
S113088072040E94A80384EA60E00E94A50481E047
S113089004C085E00E94240A87E01F910F91089507
S11308A0FF920F931F93082FF62E85E00E94410AB2
S11308B08823A1F01F2D1F770370802F806B60E0C9
S11308C00E94A50412951F70812F806160E00E9430
S11308D0A5048F2D8F7060E00E94A5041F910F91D5
S11308E0FF9008951F93182F85E00E94410A8823E2
S11308F0C1F087E00E94320582E06AE00E9483052D
S113090082E061EB0E948305612F113208F060E2FE
S113091082E00E94830589EE8A95F1F787E00E94C0
S113092032051F9108950F931F93082F162F85E00A
S11309300E94410A882331F003701F771093440208
S1130940009345021F910F9108950F931F93082F51
S1130950162F85E00E94410A882379F0112319F0AB
S1130960113021F402C02B9801C02B9A86E08A959D
S1130970F1F780E0602F0E9483051F910F91089585
S1130980239A089586E00E94340A882311F082E0B5
S113099008950E94D90481E008951F93182F86E0DA
S11309A00E94410A882319F0812F0E94E2041F91BA
S11309B00895559A569A80E20E94840F80E40E941A
S11309C0840F0895282F85FF04C08BB190E28927F6
S11309D08BB926FF04C08BB190E489278BB90895A5
S11309E082E00E94340A882311F082E008950E9474
S11309F0920580E06BE070E10E94290581E063E0EC
S1130A0070E10E94290582E06BEF7FE00E942905D6
S1130A1086E063E170E10E94290583E063EF7FE0F3
S1130A200E94290584E063EF7FE00E94290585E0A8
S1130A3063EF7FE00E94290587E063EF7FE00E9477
S1130A4029058FEF8093490287E00E94320581E0F7
S1130A500895E82FF0E0EE0FFF1FEF51FE4F718372
S1130A60608308951F93182F82E00E94410A88230F
S1130A7009F447C0912F977080914902981709F49F
S1130A8040C09093490285B1887F892B85B9933002
S1130A9011F1943028F4913051F0923090F40CC05C
S1130AA0953019F19530E0F0963021F50FC0E091C2
S1130AB0E301F091E40122C0E091E101F091E2014F
S1130AC01DC0E091E501F091E60118C0E091ED014F
S1130AD0F091EE0113C0E091E701F091E8010EC03E
S1130AE0E091E901F091EA0109C0E091EB01F09194
S1130AF0EC0104C0E091EF01F091F001309709F0AE
S1130B0009951F9108951F93162F0E94320582E0C4
S1130B100E94410A882321F01EBD0DB407FEFDCFBB
S1130B201F910895259A2698279A209A219A229A05
S1130B3008952F923F924F925F926F927F928F927D
S1130B409F92AF92BF92CF92DF92EF92FF920F9358
S1130B501F93DF93CF930F92CDB7DEB7582E962E07
S1130B60442E3901C9821501CE88DF88A88CB98C3E
S1130B706A8D7B8D81E0981619F1981628F092E021
S1130B80991609F070C03EC080E0B7010E94CA0700
S1130B9080E0642DA30198010981EE24E39471E8B7
S1130BA0C72E72E0D72E0E948A08552009F05BC038
S1130BB000D00F92EDB7FEB71182338222821CC09F
S1130BC081E00E94CA0781E0682DA60195010C8D81
S1130BD0EE24E39491E8C92E92E0D92E0E948A086B
S1130BE0552009F040C000D00F92EDB7FEB79182B6
S1130BF08D8D9E8D938382830E94C7090F900F90E1
S1130C000F9031C0C7010E94EC0700D081E892E048
S1130C10EDB7FEB792838183842DB301A8012981A6
S1130C20082D76016501AC8C882483940E941D09EB
S1130C300F900F905520B9F400D000D00F92ADB7AB
S1130C40BEB71196EDB7FEB79182FD0132822182C3
S1130C508D8D9E8D948383830E94C7090F900F907E
S1130C600F900F900F900F90CF91DF911F910F91E4
S1130C70FF90EF90DF90CF90BF90AF909F908F90B8
S1130C807F906F905F904F903F902F9008954F9278
S1130C905F927F928F929F92AF92BF92CF92DF9298
S1130CA0EF92FF920F931F93DF93CF93CDB7DEB7ED
S1130CB0562F942E7C2CAA89BB89CC88DD886E891A
S1130CC07F89988D813009F445C0813030F18230BC
S1130CD009F066C0513071F0513020F0523009F003
S1130CE05FC011C080E0B7010E94CA0780E0692D8F
S1130CF0A80106C081E00E94CA0781E0682DA60110
S1130D000E9455074DC0C7010E94EC07892DB80108
S1130D10482D96010E946C0743C0EDB7FEB7399782
S1130D200FB6F894FEBF0FBEEDBF4DB65EB6089485
S1130D30411C511CB283A183F201D382C282758308
S1130D4064839683898D9A8D9087878380E0652F4D
S1130D50C72C1CC0EDB7FEB739970FB6F894FEBF89
S1130D600FBEEDBFADB6BEB60894A11CB11CB283D4
S1130D70A183F501D382C28275836483968310862E
S1130D80178281E0652FC72CAA24BB240E949905F1
S1130D908DB79EB709960FB6F8949EBF0FBE8DBF50
S1130DA0CF91DF911F910F91FF90EF90DF90CF9043
S1130DB0BF90AF909F908F907F905F904F900895D9
S1130DC087E00E94340A882311F082E008950E948B
S1130DD01A0A81E08093800210924A0210924B0218
S1130DE010924D0210924C0210924F0210924E0239
S1130DF01092510210925002109253021092520219
S1130E0010925502109254021092570210925602F8
S1130E10109259021092580210925B0210925A02D8
S1130E2010925D0210925C0210925F0210925E02B8
S1130E301092610210926002109263021092620298
S1130E40109268021092690210926A0210926B0268
S1130E5010926D0210926E0210926F021092700244
S1130E601092710210927202109273021092750223
S1130E701092740210927702109276021092790204
S1130E801092780210927B0210927A0210926502FC
S1130E9010926402109267021092660210927F020E
S1130EA010927E02109280020895EF92FF920F93A7
S1130EB01F93182F062F7A0160E00E942908812FC2
S1130EC0602F0E940A08812FB7010E943E081F91DB
S1130ED00F91FF90EF900895CF92DF92EF92FF92DF
S1130EE00F931F93C82E7B01D42E890182E060E00A
S1130EF00E9429088C2D6D2D0E941F08C701B8017E
S1130F000E946B081F910F91FF90EF90DF90CF909C
S1130F1008952EEF8037920714F480E79EEFFC01CA
S1130F2081E0E139F80714F0E0E9F1E09B018EEF8C
S1130F306037780714F420E73EEFA90121E0413936
S1130F40520714F040E951E08F2F881F8827881F2B
S1130F50252F221F2227221F91E090938002809345
S1130F606D0220936E02CF01F7FF03C09095819527
S1130F709F4F9A0157FF03C0309521953F4F90939F
S1130F804D0280934C0230934F0220934E021092F4
S1130F9080020895482F81E080938002CB0123E0F2
S1130FA0693E720710F088EE93E0413071F04130F1
S1130FB018F0423071F405C09093550280935402A6
S1130FC008C09093550280935402909357028093E3
S1130FD0560210928002089521E020938002AC0111
S1130FE083E0493E580710F048EE53E09B0183E04C
S1130FF0693E780710F028EE33E0F89450935502D8
S113100040935402309357022093560278941092DE
S113101080020895982F81E080938002913051F0EE
S1131020913018F0923041F403C060936D0204C013
S113103060936D0260936E0210928002089591E0B5
S113104090938002EDE6F2E0819360831092800237
S11310500895982F81E080938002913051F091306F
S113106018F0923041F403C060934A0204C06093C4
S11310704A0260934B02109280020895482F81E047
S113108080938002CB0121E06139720710F080E97E
S113109091E0413061F0413018F04230C9F40EC0A3
S11310A0F89490934D0280934C02789411C0F89474
S11310B090934F0280934E0278940AC0F8949093D0
S11310C04D0280934C0290934F0280934E02789489
S11310D0109280020895AC0181E080938002F8941C
S11310E0CB0121E06139720710F080E991E090931F
S11310F04F0280934E029A0181E04139580710F063
S113110020E931E030934D0220934C027894109200
S1131110800208958F929F92AF92BF92CF92DF92F6
S1131120EF92FF920F931F93CF93DF93182FF62E16
S11311304A015901E60187E00E94410A882309F423
S11311406FC0812F61E00E942908812FB401A5019D
S11311500E94ED11812F6F2D0E940A08812F602FAC
S11311600E94D811812FB4010E94B011C114D1047E
S113117099F0113049F0113018F0123069F406C0BA
S1131180188210927C0208C0198204C01882198245
S113119010927C0210927D02D0937F02C0937E0253
S11311A0EE20B9F582E991E090937F0280937E026C
S11311B0812FB5010E943E08812F0E949B1111309E
S11311C071F0113018F0123059F512C010929201DA
S11311D010927C02809192018823E1F321C0109245
S11311E0930110927D02809193018823E1F318C04A
S11311F0109292011092930110927C0210927D023F
S1131200809192018823E1F3809193018823C1F3B3
S113121007C0812FB5010E943E08812F0E949B11B7
S1131220DF91CF911F910F91FF90EF90DF90CF90BE
S1131230BF90AF909F908F9008953F924F925F928E
S11312406F927F928F929F92AF92BF92CF92DF92D2
S1131250EF92FF920F931F93DF93CF93CDB7DEB737
S1131260982E2B013A01322EB02E0C891D8987E06D
S11312700E94410A882309F453C082E061E00E947D
S1131280290880E0B201A3010E94ED1181E0B701B9
S1131290A6010E94ED11892D6B2D0E941F0880E08C
S11312A0632D0E94D81181E06A2D0E94D811C201D9
S11312B0B7010E94CB110115110539F0F801108214
S11312C0118210927C0210927D0210937F0200938F
S11312D07E028820F1F484E991E090937F02809368
S11312E07E02C301B6010E946B0882E00E949B113A
S11312F0109294011092950110927C0210927D023A
S1131300809194018823E1F3809195018823C1F3AE
S113131007C0C301B6010E946B0882E00E949B11C2
S1131320CF91DF911F910F91FF90EF90DF90CF90BD
S1131330BF90AF909F908F907F906F905F904F90F1
S11313403F9008950F931F93182F062F662349F497
S113135060E070E00E943E08812F60E070E00E942F
S1131360B01181E080938002113051F0113018F0F7
S1131370123041F403C00093680204C00093680271
S113138000936902109280021F910F910895CF92E9
S1131390DF92EF92FF920F931F93DF93CF93CDB71A
S11313A0DEB71B8587E00E94410A8823D1F1113002
S11313B061F0113018F01230A1F511C0EC85FD85F3
S11313C0809181028823E1F306C0EC85FD8580913C
S11313D082028823E1F3309721F1099522C0CC845D
S11313E0DD84EE84FF8400E010E0002351F480915A
S11313F08102882331F0C114D10411F0F60109955A
S113140001E0112351F480918202882331F0E11428
S1131410F10411F0F701099511E0002331F31123D0
S113142021F3CF91DF911F910F91FF90EF90DF9007
S1131430CF9008953A9A3B9A3C9A3D9A3E9A3F9AA5
S113144088B1837088B90895853160F4E82FF0E09D
S1131450E15DFD4F8081882329F080818150808364
S1131460808108958FEF0895853110F080E008950C
S1131470E82FF0E0E15DFD4F80818F5F8083815034
S11314800895853110F080E00895E82FF0E0E15DE3
S1131490FD4F8081811181E008951F93182F809161
S11314A09701882341F080919E01882399F010923E
S11314B0970110929E010E94820A8093960188E906
S11314C091E061E040E028E230E00E94450B81E0D9
S11314D08093970190919601133018F0133079F4AA
S11314E009C0E12FF0E0EF5FFE4F8081892341F0D6
S11314F081E006C091FF03C0892F817001C080E0A4
S11315001F9108950F931F9381E00E94410A88233D
S113151011F400E024C087E00E94320582E06AE012
S11315200E94830582E062EB0E94830518EC812F00
S11315308A95F1F782E060E00E941C10082F812F49
S11315408A95F1F782E060E00E941C101A95F1F789
S113155087E00E94320588E893E10197F1F7802F34
S11315601F910F910895DF93CF9300D00F92CDB7C1
S1131570DEB781E00E94340A882311F082E011C0B2
S11315800E94F0048150823040F40E94D70ACE01B8
S113159001960E94A51281E004C081E00E94240A01
S11315A087E00F900F900F90CF91DF9108951092E4
S11315B09A021092990210929C0210929B0210922D
S11315C09E0210929D021092A00210929F0210920D
S11315D0A2021092A10280E991E090938602809386
S11315E08502909388028093870290938A02809365
S11315F0890290938C0280938B0290938E02809345
S11316008D0284E398E09093900280938F029093EC
S11316109202809391029093940280939302909308
S1131620960280939502909398028093970208956E
S11316300F931F93DF93CF93CDB7DEB729970FB6E0
S1131640F894DEBF0FBECDBF8C0188E00E94410A32
S1131650882311F491E00DC0CE01019661E040E0D1
S113166098010E94450B982F882319F48F818823B1
S1131670E9F3892F29960FB6F894DEBF0FBECDBFCC
S1131680CF91DF911F910F910895EF92FF920F93E5
S11316901F93CF93DF93EC01F62EE42E890188E0AB
S11316A00E94410A882311F481E026C084E090E07E
S11316B00E948F22FC01009711F482E01DC0F98280
S11316C0F0FC1E8281E0E81619F489818460898324
S11316D08981886089831B830A831D830C83D1835A
S11316E0C0831382128281E080930102CF010E94A1
S11316F0830B1092010280E0DF91CF911F910F9133
S1131700FF90EF900895CF92DF92EF92FF920F93A4
S11317101F93CF93DF93EC018091A302882339F4C4
S1131720D093A502C093A4020E941F1347C0C09087
S1131730A402D090A50200E010E0EE24FF2437C0FC
S1131740A881B981FD0164817581F60140815181CF
S1131750FA01848195819B01281B390B37FF0FC047
S1131760861B970B95838483DB82CA82012B29F421
S1131770D093A502C093A40221C0F7010CC0F601C6
S1131780828193812115310549F4FD01158214826A
S11317909B838A83F601D383C28310C0FD01358302
S11317A024830097B9F30F5F1F4F76016C0180917A
S11317B0A30290E00817190718F2ECCF8091A30256
S11317C08F5F8093A302DF91CF911F910F91FF90C0
S11317D0EF90DF90CF9008958CE00E94340A882324
S11317E011F082E008958BE00E94410A8823A1F45D
S11317F00E943012813081F480E00E94E21288EE6F
S113180093E024EF31E0F9013197F1F70197D9F72B
S11318100E94750C81E008958CE00E94240A87E000
S11318200895EF92FF920F931F938CE00E94410A58
S1131830882309F452C00E944E12139A81E28A95B9
S1131840F1F713980B98EE24FF2487010CC0039B37
S11318500AC082E48A95F1F780B1869586958695CB
S113186080FF26C00FC00894E11CF11C011D111D4E
S113187080E2E81681EAF80687E0080780E01807A6
S113188031F722C00E945812EE24FF24870102C0BF
S1131890039B0EC00894E11CF11C011D111D90E274
S11318A0E91691EAF90697E0090790E0190781F72C
S11318B00E94601280E090E2E91691EAF90697E04E
S11318C0090790E0190708F081E00B9A139881301A
S11318D021F00E942A129C0102C020E030E0C901DC
S11318E01F910F91FF90EF9008950B9A139808950C
S11318F00E948E120E94950F0E94C60E0E9403132E
S11319000E94F0040E94B30A789408950000089598
S11319101F920F920FB60F9211242F933F934F9360
S11319205F936F937F938F939F93AF93BF93EF9343
S1131930FF93E091C101F091C201309709F009953C
S1131940FF91EF91BF91AF919F918F917F916F9193
S11319505F914F913F912F910F900FBE0F901F9069
S113196018951F920F920FB60F9211242F933F9345
S11319704F935F936F937F938F939F93AF93BF9393
S1131980EF93FF93E091C301F091C401309709F004
S11319900995FF91EF91BF91AF919F918F917F91A5
S11319A06F915F914F913F912F910F900FBE0F90C8
S11319B01F9018951F920F920FB60F9211242F9318
S11319C03F934F935F936F937F938F939F93AF93C3
S11319D0BF93EF93FF93E091C501F091C601309757
S11319E009F00995FF91EF91BF91AF919F918F916C
S11319F07F916F915F914F913F912F910F900FBE07
S1131A000F901F9018951F920F920FB60F921124EA
S1131A102F933F934F935F936F937F938F939F93F2
S1131A20AF93BF93EF93FF93E091B301F091B401AF
S1131A30309709F00995FF91EF91BF91AF919F9174
S1131A408F917F916F915F914F913F912F910F9063
S1131A500FBE0F901F9018951F920F920FB60F9202
S1131A6011242F933F934F935F936F937F938F939F
S1131A709F93AF93BF93EF93FF93E091B501F091E0
S1131A80B601309709F00995FF91EF91BF91AF919D
S1131A909F918F917F916F915F914F913F912F9182
S1131AA00F900FBE0F901F9018951F920F920FB6B4
S1131AB00F9211242F933F934F935F936F937F93D0
S1131AC08F939F93AF93BF93EF93FF93E091B701ED
S1131AD0F091B801309709F00995FF91EF91BF910A
S1131AE0AF919F918F917F916F915F914F913F91B2
S1131AF02F910F900FBE0F901F9018951F920F9269
S1131B000FB60F9211242F933F934F935F936F93CC
S1131B107F938F939F93AF93BF93EF93FF93E09142
S1131B20BB01F091BC01309709F00995FF91EF9149
S1131B30BF91AF919F918F917F916F915F914F91E1
S1131B403F912F910F900FBE0F901F9018951F92E9
S1131B500F920FB60F9211242F933F934F935F93DD
S1131B606F937F938F939F93AF93BF93EF93FF9361
S1131B70E091BD01F091BE01309709F00995FF9104
S1131B80EF91BF91AF919F918F917F916F915F91F1
S1131B904F913F912F910F900FBE0F901F9018956A
S1131BA01F920F920FB60F9211242F933F934F93CE
S1131BB05F936F937F938F939F93AF93BF93EF93B1
S1131BC0FF93E091B901F091BA01309709F00995BA
S1131BD0FF91EF91BF91AF919F918F917F916F9101
S1131BE05F914F913F912F910F900FBE0F901F90D7
S1131BF018951F920F920FB60F9211242F933F93B3
S1131C004F935F936F937F938F939F93AF93BF9300
S1131C10EF93FF93E091BF01F091C001309709F079
S1131C200995FF91EF91BF91AF919F918F917F9112
S1131C306F915F914F913F912F910F900FBE0F9035
S1131C401F9018951F920F920FB60F9211242F9385
S1131C503F934F935F936F937F938F939F93AF9330
S1131C60BF93EF93FF93E091A901F091AA013097FC
S1131C7009F00995FF91EF91BF91AF919F918F91D9
S1131C807F916F915F914F913F912F910F900FBE74
S1131C900F901F9018951F920F920FB60F92112458
S1131CA02F933F934F935F936F937F938F939F9360
S1131CB0AF93BF93EF93FF93E091AB01F091AC012D
S1131CC0309709F00995FF91EF91BF91AF919F91E2
S1131CD08F917F916F915F914F913F912F910F90D1
S1131CE00FBE0F901F9018951F920F920FB60F9270
S1131CF011242F933F934F935F936F937F938F930D
S1131D009F93AF93BF93EF93FF93E091AD01F09155
S1131D10AE01309709F00995FF91EF91BF91AF9112
S1131D209F918F917F916F915F914F913F912F91EF
S1131D300F900FBE0F901F9018951F920F920FB621
S1131D400F9211242F933F934F935F936F937F933D
S1131D508F939F93AF93BF93EF93FF93E091AF0162
S1131D60F091B001309709F00995FF91EF91BF917F
S1131D70AF919F918F917F916F915F914F913F911F
S1131D802F910F900FBE0F901F90189580E10E9425
S1131D90340A882311F082E00895E1EAF1E0119217
S1131DA0119281E0E13EF807D1F781E00895FF92B6
S1131DB00F931F93CF93DF93F82E8AE0F816B1F0B8
S1131DC08F1548F0E8E0FE16B9F1EF1538F1F7E0A9
S1131DD0FF1651F43BC08DE0F81659F0EBE1FE1606
S1131DE089F0FCE0FF1641F001E041C0109244028A
S1131DF003C0109244023AC08091450281508093FE
S1131E00450234C00E94A80314C080E061E00E942F
S1131E10A504809144028F5F809344028091440220
S1131E2087FFF3CF10924402809145028150809342
S1131E30450200E011E01CC0809144028823B1F007
S1131E408091440286508093440210C081E00E9435
S1131E50ED1064EF71E080E090E04DE750E024E69F
S1131E6030E00E94F91081E00E94541000E010E07C
S1131E7080914502609144020E945004002351F174
S1131E8085E0F89EC0011124EC01CD59DE4F8C0190
S1131E9008591E4FFE01849161E00E94A504219619
S1131EA0C017D107B9F780E061E00E94A5048091D2
S1131EB044028A5F809344028091440290E08C370C
S1131EC091053CF010924402809145028150809328
S1131ED0450211E0809145028370809345021130E0
S1131EE059F480914602813039F4E0914702F0912F
S1131EF04802309709F0099580E090E0DF91CF9196
S1131F001F910F91FF9008951F93182F86E00E9450
S1131F10410A882319F0812F0E94900F1F91089580
S1131F2085FD5D9886FD5E980895F8940E94F00FF3
S1131F3081E00E949D0F81E00895813049F0F8947A
S1131F40813020F18230B1F0833009F045C017C0F0
S1131F502C9A80E8809361001092610080E090E008
S1131F600000019688329105D9F71092680010920A
S1131F706B00089580E88093610083E004C080E8EA
S1131F808093610088E08093610028C080E090E045
S1131F90000001962DE680369207D1F72C9880E058
S1131FA090E0000001962DE680369207D1F710925A
S1131FB07A008FEF80936400809168008160809341
S1131FC0680080916B00846080936B00789483B781
S1131FD0816083BF88950895823008F078940895CD
S1131FE0249A2C9A089583E58CBD81E08DBD8DE003
S1131FF08A95F1F7089583E58CBD1DBC84EF91E0CB
S11320000197F1F708958FE78CBD1DBC84EF91E033
S11320100197F1F7089583E58CBD81E08DBD8DE0D6
S11320208A95F1F7089583E58CBD81E08DBD84EF39
S113203091E00197F1F708951F93162F0E9432053E
S113204082E00E94410A882329F01EBD0DB407FED8
S1132050FDCF8EB51F9108958AE00E94240A88233B
S113206029F481E00E944F111092F201089589E051
S11320700E94240A8823B9F48091F101882311F085
S11320800E94951182E00E944F118091FF0190916E
S11320900002009731F00E94242310920002109253
S11320A0FF011092F1010895813029F0823029F462
S11320B00E94371008950E942C1008950F931F93C7
S11320C0CF93DF9380E291E00E948F229C01909352
S11320D000028093FF01892B11F480E039C089014B
S11320E0C0E0D0E0BE0180E090E00E94261F20E026
S11320F030E040EA51E40E94B41E27EF35E740E0A7
S11321005FE30E941A209B01AC0160E070E080E272
S113211091E40E9487209B01AC01CA01B9012DEC16
S11321203CEC42E851E40E941A200E94DD1F2AE0A0
S113213030E040E050E00E940C22F801619371937A
S1132140819391938F012196C834D10559F681E08A
S1132150DF91CF911F910F9108958AE00E94340A74
S1132160882311F082E008951092FC011092FB0183
S113217081E00E946B1181E08093F20108951F9326
S113218089E00E94340A882311F082E024C08BE0A5
S11321900E94410A8823D9F40E945E10182F8130CE
S11321A011F086E018C01092F3011092F40110921D
S11321B0F5011092F6018DE067E573E10E94321398
S11321C082E00E946B111093F10181E004C089E068
S11321D00E94240A87E01F910895813021F0823003
S11321E029F084E008950E94AD1008950E94BF1064
S11321F008956F927F928F929F92AF92BF92CF92E7
S1132200DF92EF92FF920F931F93CF93DF933B01E3
S11322104C015A01E9018AE00E94410A882381F1B4
S1132220209741F19501442737FD4095542FBE0175
S1132230C536D10510F064E670E080E090E00E94BD
S11322400C2224E630E040E050E00E941C22790198
S11322508A01C401B3010E945A13C7010E94180BDA
S113226060E070E080E090E00E945A13C5018E198E
S11322709F0904C0A114B10419F0C5010E94180BF0
S1132280DF91CF911F910F91FF90EF90DF90CF904E
S1132290BF90AF909F908F907F906F900895823001
S11322A029F4809181008E7F809381008091F101D7
S11322B0813031F48091F201813011F400000895ED
S11322C08091F101813021F08091F201813011F48B
S11322D05F9857980895982F8091F101882331F4DD
S11322E08091F201882311F4579A5F988091F1014B
S11322F08823D1F49230C1F41092800010928100AE
S11323008091810088608093810080918100816048
S113231080938100109285001092840081E0809364
S1132320890080E9809388000895EFE6F0E08081D9
S11323308D7F80830895982F81E08093800291306F
S113234051F0913018F0923041F403C010926802B9
S113235004C01092680210926902109280020895DB
S1132360982F81E080938002913071F0913018F0C1
S1132370923071F405C070935D0260935C0208C0F2
S113238070935D0260935C0270935F0260935E02DF
S113239010928002089521E020938002ECE5F2E09F
S11323A091838083329671836083109280020895B2
S11323B0982F81E080938002913051F0913018F091
S11323C0923041F403C060936A0204C060936A02CD
S11323D060936B021092800208950F931F93CF9322
S11323E0DF93EB018A01813001F1813018F08230F2
S11323F061F50DC08091540290915502892B11F022
S113240080E01AC010926102109260021EC0809196
S1132410540290915502892B21F080E00E94BF1351
S113242004C0109261021092600280915602909151
S11324305702892B31F081E0BE01A8010E94BF132D
S113244004C01092630210926202DF91CF911F9137
S11324500F9108952091830230918402C901089557
S11324608BE00E94340A882311F082E0089589E009
S11324700E94410A882369F4109284021092830214
S11324808DE06CE274E10E9432130E946D1281E0CF
S113249008958BE00E94240A82E00895209183022B
S11324A0309184021092840210928302C90108952B
S11324B08BE00E94410A882311F00E948212089541
S11324C08BE00E94410A882311F00E948812209117
S11324D0830230918402C901089510928000E1E8DA
S11324E0F0E01082808188608083808181608083B5
S11324F010928500109284001092890088EC8093D9
S113250088000895EFE6F0E080818260808308957A
S1132510EFE6F0E080818D7F80830895CF93DF9391
S1132520C0E0D0E08C2F60E00E949D122196C5315E
S1132530D105C1F7DF91CF910895853128F4E82FB3
S1132540F0E0E15DFD4F608308951F93CF93DF9327
S1132550EC01009799F181E00E94410A882351F12E
S113256087E00E94320518EC812F8A95F1F782E00A
S11325706AE00E94830582E064EB0E948305812F58
S11325808A95F1F782E060E00E941C108883812F15
S11325908A95F1F782E060E00E941C1089831A9505
S11325A0F1F782E060E00E941C108A8387E00E94B9
S11325B0320504C0188219828DE28A83DF91CF919B
S11325C01F9108951F93182F81E00E94410A8823C8
S11325D0C1F087E00E94320588EC8A95F1F782E029
S11325E06AE00E94830582E065EB0E94830582E035
S11325F0612F0E94830589EE8A95F1F787E00E9496
S113260032051F91089588E00E94340A882311F04E
S113261082E008951092A3021092A5021092A402DF
S1132620109201021092020280E16FE274E10E94B2
S113263046130E9423130E942C1381E0089581E025
S113264080930202089584B5826084BD85B5846058
S113265085BD8EE487BD0895EEE6F0E0808182605A
S113266080830895E82F803268F48051833050F0DD
S1132670F0E0EE0FFF1FEF55FE4F20813181718393
S1132680608302C020E030E0C9010895803218F070
S113269020E030E00AC0E82FF0E0EE0FFF1FEF5516
S11326A0FE4F2081318171836083C90108950E94A6
S11326B07E130895EF92FF920F931F937B018C0179
S11326C08AE00E94410A8823A1F08091F2018823C4
S11326D081F0D801C701880F991FAA1FBB1F9093CF
S11326E0FE018093FD01E114F1040105110509F4D3
S11326F05F981F910F91FF90EF9008958091F301DF
S11327009091F401A091F501B091F6012091F701A7
S11327103091F8014091F9015091FA01280F391FC5
S11327204A1F5B1F2093F3013093F4014093F5019A
S11327305093F6018091F3019091F401A091F50179
S1132740B091F6018851964FA040B040BCF08BB1D7
S113275080588BB98091F3019091F401A091F50117
S1132760B091F6018851964FA040B0408093F30198
S11327709093F401A093F501B093F6010895EF92BC
S1132780FF920F931F93CF93DF93EB01882321F0E4
S1132790813009F05AC02DC09A0140E050E0CA01CE
S11327A0B9010E940C222091540230915502220F4B
S11327B0331F40E050E00E941C2279018A01A801E5
S11327C09701220F331F441F551FCE01A0E0B0E034
S11327D082179307A407B50728F0F0926102E092EC
S11327E0600233C0D695C795D0936102C09360024E
S11327F02CC09A0140E050E0CA01B9010E940C22A9
S11328002091560230915702220F331F40E050E0CE
S11328100E941C2279018A01A8019701220F331F0B
S1132820441F551FCE01A0E0B0E082179307A40710
S1132830B50728F0F0926302E092620206C0D695D2
S1132840C795D0936302C0936202DF91CF911F9129
S11328500F91FF90EF9008950E944F1408950E94E5
S113286036140E9482140E945B14089588E00E942A
S1132870410A882311F484E0089580910202882398
S113288011F483E0089580910102882311F082E01D
S113289008950E94CF168130E1F380E00895CF932C
S11328A0DF93C3E8D2E08881998101968883998374
S11328B0DF91CF9108958091F201813011F58091DB
S11328C0FB019091FC012091FD013091FE01280F44
S11328D0391F3093FC012093FB018091FB019091FF
S11328E0FC01885E93406CF08BB180588BB9809169
S11328F0FB019091FC01885E93409093FC018093CE
S1132900FB01089587E00E94410A882309F4AAC0C4
S11329108091540290915502892B09F1809178029B
S1132920909179022091540230915502820F931FA5
S11329309093790280937802809178029091790241
S1132940885E9340A4F08091780290917902885E29
S11329509340909379028093780241E009C080917A
S11329604C0290914D02909351028093500240E0AA
S11329708091560290915702892B09F180917A0235
S113298090917B022091560230915702820F931F3F
S113299090937B0280937A0280917A0290917B02D9
S11329A0885E9340A4F080917A0290917B02885EC5
S11329B0934090937B0280937A0261E009C08091F6
S11329C04E0290914F02909353028093520260E022
S11329D0842F0E9433158091740290917502209186
S11329E0500230915102280F391F30937502209301
S11329F074028091740290917502885E934014F47D
S1132A0040E00BC08091740290917502885E9340FF
S1132A10909375028093740241E0809176029091C4
S1132A2077022091520230915302280F391F3093BC
S1132A307702209376028091760290917702885EE5
S1132A40934014F460E00BC0809176029091770279
S1132A50885E9340909377028093760261E0842F9E
S1132A600E94781508958823F1F020914C0230914A
S1132A704D028091500290915102281B390B12167D
S1132A80130634F48091500290915102019607C0CC
S1132A90232B49F080915002909151020197909319
S1132AA0510280935002662311F120914E0230911D
S1132AB04F028091520290915302281B390B121637
S1132AC0130654F48091520290915302019690930C
S1132AD05302809352020895232B49F080915202AD
S1132AE09091530201979093530280935202089558
S1132AF00F931F93182F062F80918002882309F0CB
S1132B00E7C080916802882309F05AC0809150027E
S1132B1090915102892BE9F480910302837E809382
S1132B2003021092710280917C02882309F45DC033
S1132B3060916A0280E00E94A209E0917E02F09115
S1132B407F02309709F451C081E0808310927C02A7
S1132B504CC080914A02813041F480915C02909192
S1132B605D02019711F411E002C01123F1F1E0912B
S1132B706F02F0E0ED5EFE4F90910302937E808140
S1132B80892B8093030280916D02882321F4809124
S1132B906F028F5F03C080916F02815080936F0238
S1132BA080916F02837080936F0281E08093710241
S1132BB080914A028130C9F480E00E947B1615C0DE
S1132BC090910302937E90930302E0916F02F0E0F0
S1132BD0ED5EFE4F8081892B8093030282E0809317
S1132BE0710210925102109250028091690288235E
S1132BF009F059C08091520290915302892BE9F453
S1132C00809103028F71809303021092720280916B
S1132C107D02882309F45CC060916B0281E00E940C
S1132C20A209E0917E02F0917F02309709F450C02E
S1132C3081E0818310927D024BC080914B028130F0
S1132C4041F480915E0290915F02019711F401E0DA
S1132C5002C00023E9F1E0917002F0E0E95EFE4F6A
S1132C60909103029F718081892B8093030280914C
S1132C706E02882321F4809170028F5F03C08091DB
S1132C8070028150809370028091700283708093EF
S1132C90700281E08093720280914B028130C1F412
S1132CA00E947B1615C0909103029F7190930302BA
S1132CB0E0917002F0E0E95EFE4F8081892B809301
S1132CC0030282E080937202109253021092520225
S1132CD080917302882331F483E092E0612F402FC6
S1132CE00E943D1788B1837090910302892B88B9A3
S1132CF01F910F910895882321F0813009F04EC06F
S1132D0027C080915C0290915D02892B49F08091EB
S1132D105C0290915D02019790935D0280935C0246
S1132D2080917C028823D1F520915C0230915D0270
S1132D3080916002909161022817390779F580E04B
S1132D4060E070E00E943E0881E080937C02089578
S1132D5080915E0290915F02892B49F080915E021E
S1132D6090915F02019790935F0280935E0280913D
S1132D707D02882399F420915E0230915F02809154
S1132D806202909163022817390741F481E060E000
S1132D9070E00E943E0881E080937D020895FF92D6
S1132DA00F931F93CF93DF938091A302882309F499
S1132DB059C00091A4021091A502F801C081D181EB
S1132DC08C819D8101979D838C83181619060CF4C0
S1132DD049C0898180FF05C08E81882311F481E078
S1132DE08E83898181FF03C0EF81F88509958091E5
S1132DF0A3028230A8F0F801828193819093A50206
S1132E008093A40213821282E0910000F0910100E9
S1132E1084819581181619063CF0FF24F39405C0AB
S1132E201092A5021092A402FF248091A302815063
S1132E308093A3028091A302882311F40E943A177D
S1132E40898182FF08C08A819B819D838C83C8010C
S1132E500E94830B08C0C8010E94242389818F7EAD
S1132E60898301C0FF248F2DDF91CF911F910F9192
S1132E70FF900895109202020895FC01809171025E
S1132E80823069F48091070291E0892780930702D8
S1132E90882309F03EC08081837E80833AC080917C
S1132EA0500290915102C397A4F56623D1F020916A
S1132EB050023091510280E690E0BC01269FC0018F
S1132EC0279F900D369F900D1124880F892F881FFE
S1132ED0990B909365028093640281E080930502CC
S1132EE018C0809105028823A1F08091640290911A
S1132EF06502019790936502809364028091640255
S1132F0090916502892B29F48081837E80831092BD
S1132F10050280917202823069F48091060291E088
S1132F20892780930602882309F03EC080818F712F
S1132F30808308958091520290915302C397A4F51F
S1132F404423D1F0209152023091530280E690E064
S1132F50AC01249FC001259F900D349F900D112436
S1132F60880F892F881F990B9093670280936602BC
S1132F7081E0809304020895809104028823A1F0E3
S1132F808091660290916702019790936702809303
S1132F9066028091660290916702892B29F48081F0
S1132FA08F718083109204020895CF93DF93FC0104
S1132FB0308120912502321303C02081211129C0C0
S1132FC0EC010E94A80398819230B1F038F499235F
S1132FD069F09130B9F48DE291E016C0943079F043
S1132FE040F0953079F484E691E00EC081E291E0FE
S1132FF00BC089E391E008C088E491E005C082E554
S113300091E002C086E791E00E94E22488818093E7
S11330102502DF91CF910895DC01FB019C91808111
S1133020981325C011962D913C911297818192811C
S113303028173907E1F413962D913C911497838155
S113304094812817390799F415962D913C91169778
S1133050858196812817390751F417964D915C9113
S113306018972781308581E04217530709F080E0E3
S11330700895CF93DF93EC019B0180912402811189
S11330800AC041E061E08BE192E00E94450B81E0DF
S11330908093240211C080912102882369F080E486
S11330A00E94CD0480E00E944D0A888381E00E9442
S11330B04D0A898310922102DF91CF910895CF9315
S11330C0DF93EC019B0180911A0281110AC041E057
S11330D061E081E192E00E94450B81E080931A0255
S11330E021C0809117028823E9F084E690E00E94D1
S11330F0180B0E94110C9C01AAE0B0E00E943E2231
S11331000E94261F27EE3AE34DE85CE30E941A2052
S11331106A8B7B8B8C8B9D8B84E690E00E94180BD2
S113312010921702DF91CF910895CF93DF93EC01B2
S113313080E20E94CD0486E00E945D030E94350374
S1133140BC0180E090E00E94261F20E030E040EACD
S113315050E40E941A2020E030E040E85AE30E9444
S11331601A206A877B878C879D8784E00E945D0391
S11331700E943503BC0180E090E00E94261F20E0FD
S113318030E040EA50E40E941A2020E030E040E8B9
S11331905AE30E941A206E877F87888B998BDF9170
S11331A0CF910895FC0181E0808388EC90E09283C4
S11331B081839483838380E991E0968385839087D8
S11331C0878308956F927F928F929F92AF92BF925E
S11331D0CF92DF92EF92FF920F931F93CF93DF93DF
S11331E0EC01FB018181813009F058C0D080D812F4
S11331F055C0E3E09E2E98820E94A80388E591E0E2
S11332000E94E22460E082E00E94A2091F921F92C1
S11332101F92DF92F0E96F2E6F921F92A8EC7A2E24
S11332207F92DF9284EF8F9388248394A12CB12C16
S1133230C12CB0E9EB2EFF24F39408EC10E024EF4A
S113324031E041E062E080E00E9447061F921F9255
S11332501F92DF926F921F927F921F928FEA8F9339
S1133260812C2FEA30E041E062E080E00E944706D2
S1133270988288EC90E09A8389839C838B8380E98D
S113328091E09E838D8398878F838DB79EB74296F6
S11332900FB6F8949EBF0FBE8DBFB0C0D08091E032
S11332A0D91254C043E0942E98820E94A80388E562
S11332B091E00E94E22460E082E00E94A2091F9251
S11332C01F921F92DF9250E9652E6F921F9268EC55
S11332D0762E7F921F928AEF8F9388248394A12C59
S11332E0B12CC12C70E9E72EFF24F39408EC10E014
S11332F02AEF30E041E062E080E00E9447061F923E
S11333001F921F92DF926F921F927F921F9287E803
S11333108F9327E830E040E062E080E00E944706B7
S1133320988288EC90E09A8389839C838B8380E9DC
S113333091E09E838D8398878F838DB79EB7429645
S11333400FB6F8949EBF0FBE8DBF58C0D18091E0D8
S1133350D91254C083E0982E98820E94A80388E56D
S113336091E00E94E22460E082E00E94A2091F92A0
S11333701F921F92DF9290E9692E6F921F9228ECA0
S1133380722E7F921F928AEF8F9388248394A12CAC
S1133390B12CC12C30E9E32EFF24F39408EC10E0A7
S11333A02AEF30E041E062E080E00E9447061F928D
S11333B01F921F92DF926F921F927F921F9287E853
S11333C08F93812C27E830E041E062E080E00E94A6
S11333D04706988288EC90E09A8389839C838B8348
S11333E080E991E09E838D8398878F838DB79EB704
S11333F042960FB6F8949EBF0FBE8DBFDF91CF915A
S11334001F910F91FF90EF90DF90CF90BF90AF90FE
S11334109F908F907F906F900895CF92DF92EF925C
S1133420FF92CF93DF93EC01FB01C288D388E48839
S1133430F5882BED39EF43E052E4C701B6010E9451
S1133440AF1E87FF07C086E990E09A83898384EBE7
S113345090E015C027E339E84AE152E4C701B60118
S11334600E94D81F18163CF484EB90E09A83898359
S113347086E990E004C086E990E09A8389839C837E
S11334808B83DF91CF91FF90EF90DF90CF900895E1
S1133490CF93DF93EC0168E072E00E940C18811175
S11334A014C06F8178858D819E810E94EC076B81A9
S11334B07C8189819A810E94890789E0FE01A8E0C4
S11334C0B2E001900D928A95E1F7DF91CF910895D2
S11334D0CF93DF93CDB7DEB766970FB6F894DEBF10
S11334E00FBECDBF0E94C2040E94CA030E94E00620
S11334F00E942A0381E00E9452030E94EC0B109266
S113350028021092270210922A0210922902109285
S11335102C0210922B0210922E0210922D02109265
S1133520260285E891E00E94E22488EB9BE00E9459
S1133530180BCE0101960E9495180E94A8036DE70E
S113354070E0CE0101960E9439186DE770E0CE015B
S113355001960E945F1886E292E00E94D218BE0192
S11335606F5F7F4F86E292E00E940D1ABE016F5F8B
S11335707F4F86E292E00E94E21886E292E00E9487
S1133580481A86E292E00E94D517D9CFA3E1B0E0B1
S1133590ECECFAE10C9458226C014B012A01FC0179
S11335A017821682838181FF43C3AE014F5F5F4F51
S11335B03A01F6019381F40193FD859193FF819182
S11335C04F01882309F430C3853239F493FD859182
S11335D093FF81914F01853239F4B60190E00E9446
S11335E0AA2452012501E5CF10E0F12C20E020327D
S11335F0A0F48B3269F030F4803259F0833269F4EC
S113360020612CC08D3239F0803339F4216026C01A
S11336102260246023C0286021C027FD27C030ED2C
S1133620380F3A3078F426FF06C0FAE01F9F300DB9
S11336301124132F13C04AE0F49E300D1124F32EED
S113364020620CC08E3221F426FDEEC2206406C036
S11336508C3611F4206802C0883641F4F40193FDDD
S1133660859193FF81914F018111C1CF9BEB980FFD
S1133670933018F42061805E06C09BE9980F933064
S113368008F071C12F7E26FF16E02F73322E853687
S113369019F42064322E08C0863621F4F22FF06823
S11336A03F2E02C01111115037FE07C01C3350F4D5
S11336B0EE24E394E10E27E00BC0183038F027E045
S11336C017E005C027E04CE3E42E02C0212FE12CD3
S11336D0520144E0A40EB11CF20160817181828127
S11336E093810E2DA3010E94BC232C01098100FFAC
S11336F002C003FF07C031FC08C032FE09C030E23B
S1133700232E07C02DE2222E04C09BE2292E01C0E5
S1133710212C802F8C7019F0211068C2A8C237FEAA
S11337200FC0E40C04FF04C08A81813309F4EA94D5
S11337301E1474F5F8E0FE1578F588E0E82E2CC028
S113374036FC2AC0812F90E0841595059CF02CEF5F
S113375042162FEF520674F0432D4068342E0AC0EF
S1133760E2E0F0E0EC0FFD1FE10FF11D80818033FA
S113377019F411501111F4CF37FE0EC0EE24E39466
S1133780E10E812F90E0481659062CF4141904C058
S1133790EE24E39401C010E037FE06C014141504AF
S11337A034F4C201019605C085E090E002C081E0D6
S11337B090E021100196112331F0212F30E02F5F8A
S11337C03F4F820F931F2F2D30E08217930714F47D
S11337D0F81A01C0F12C832D897049F4FF2039F0C7
S11337E0B60180E290E00E94AA24FA94F7CF222046
S11337F029F0B601822D90E00E94AA2433FC09C06E
S1133800FF2039F0B60180E390E00E94AA24FA94E4
S1133810F7CF37FE5AC0942D852D57FE02C090E095
S113382080E0292E382E20E030E0A2014E19510903
S11338305D874C87A201421953095F874E87612F28
S113384070E044275527461B570B598B488B5FEF75
S11338502516350649F4B6018EE290E02A8B3B8B9F
S11338600E94AA243B892A89421453046CF04C8593
S11338705D854215530544F4EE85FF85E20FF31F81
S1133880E60DF71D818101C080E351E0251A31085E
S11338902F5F3F4F48895989241635064CF0B601ED
S11338A090E02A8B3B8B0E94AA242A893B89CFCFA4
S11338B02414350439F49A81963318F4953311F4A9
S11338C004FF81E3B60190E04BC08A81813309F0A3
S11338D00F7EB60190E00E94AA24111105C034FCA9
S11338E018C085E690E017C0B6018EE290E00E9411
S11338F0AA2482E0EE24E394E80EF301E80FF11D1C
S11339008081B60190E00E94AA2411508E2D91F777
S1133910E6CF85E490E0B6010E94AA2457FC05C0D6
S11339204114510439F404FF05C0519441945108E1
S11339308DE201C08BE2B60190E00E94AA2480E3EC
S11339409AE0491651042CF08F5F5AE0451A510849
S1133950F7CFB60190E00E94AA24B601C201C09636
S11339600E94AA2457C1833631F0833779F0833516
S113397009F058C021C05201E2E0AE0EB11CF201C0
S11339808081898301E010E0230114C05201F2E038
S1133990AF0EB11CF2014080518026FF03C0612F9D
S11339A070E002C06FEF7FEFC2012A8B0E949F2458
S11339B08C012A892F7715C05201F2E0AF0EB11C99
S11339C0F2014080518026FF03C0612F70E002C0E5
S11339D06FEF7FEFC2012A8B0E9494248C012A8905
S11339E02068322E23FD1AC08F2D90E00817190786
S11339F0A8F4B60180E290E00E94AA24FA94F4CFDD
S1133A00F20137FC859137FE81912F01B60190E0D8
S1133A100E94AA24F110FA9401501109011511050C
S1133A2079F7F8C0843611F0893659F5520127FF29
S1133A3009C0F4E0AF0EB11CF20160817181828192
S1133A4093810AC0F2E0AF0EB11CF2016081718172
S1133A50072E000C880B990B2F76322E97FF09C086
S1133A6090958095709561957F4F8F4F9F4F2068FB
S1133A70322E2AE030E0A3010E941225E82EE61837
S1133A803FC0022F853721F40F7E2AE030E01DC0AD
S1133A90097F8F3691F018F4883559F0C5C0803706
S1133AA019F0883711F0C0C0006104FF09C0046038
S1133AB007C024FF08C0066006C028E030E005C047
S1133AC020E130E002C020E132E0520107FF09C0EA
S1133AD0F4E0AF0EB11CF2016081718182819381A7
S1133AE008C0F2E0AF0EB11CF2016081718180E088
S1133AF090E0A3010E941225E82EE6180F77302EDD
S1133B0036FE0BC0332D3E7FE11650F434FE0AC05E
S1133B1032FC08C0332D3E7E05C00E2D332D03C06C
S1133B200E2D01C0012F34FF0CC0FE01EE0DF11D5E
S1133B308081803311F4397E08C032FF05C00E5FE6
S1133B4004C0832F867809F00F5F33FD13C030FF64
S1133B5006C01E2D0F1518F41F0D101B0F2D0F1569
S1133B6068F4B60180E290E03B8B0E94AA240F5FC8
S1133B703B89F5CF0F1510F4F01A01C0F12C34FF76
S1133B8012C0B60180E390E03B8B0E94AA243B89DB
S1133B9032FF17C031FD03C088E790E002C088E51A
S1133BA090E0B6010CC0832F867859F031FF02C033
S1133BB08BE201C080E237FD8DE2B60190E00E9405
S1133BC0AA24E11638F4B60180E390E00E94AA2406
S1133BD01150F7CFEA94F301EE0DF11D8081B60187
S1133BE090E00E94AA24E110F5CF14C0F4E0FF1580
S1133BF058F584E0F81A33FE1EC0211026C003FFD6
S1133C002AC00EEF10E0F32DF0713F2EF8018491DD
S1133C10811124C0FF2009F4E5CCB60180E290E0D4
S1133C200E94AA24FA94F6CFF6018681978126C0D1
S1133C308FEF9FEF23C0B60180E290E00E94AA2498
S1133C40FA94F110F8CFD9CFF12CB601822D90E07F
S1133C500E94AA24D4CF02E011E0D5CF31108052C3
S1133C60B60190E00E94AA240F5F1F4FCFCF23E03C
S1133C702F1510F483E0BECFF12CC1CF6396E2E19F
S1133C800C9474225058BB27AA270E945A1E0C94E5
S1133C909E1F0E94901F38F00E94971F20F039F455
S1133CA09F3F19F426F40C948D1F0EF4E095E7FB66
S1133CB00C94871FE92F0E94AF1F58F3BA176207AD
S1133CC073078407950720F079F4A6F50C94D11FA7
S1133CD00EF4E0950B2EBA2FA02D0B01B901900123
S1133CE00C01CA01A0011124FF27591B99F0593F67
S1133CF050F4503E68F11A16F040A22F232F342FAF
S1133D004427585FF3CF469537952795A795F040FC
S1133D105395C9F77EF41F16BA0B620B730B840B11
S1133D20BAF09150A1F0FF0FBB1F661F771F881FC9
S1133D30C2F70EC0BA0F621F731F841F48F4879521
S1133D4077956795B795F7959E3F08F0B0CF939513
S1133D50880F08F09927EE0F9795879508950E948C
S1133D60631F08F481E008950E94C81E0C949E1FEE
S1133D700E94971F58F00E94901F40F029F45F3F63
S1133D8029F00C94871F51110C94D21F0C948D1F91
S1133D900E94AF1F68F39923B1F3552391F3951B48
S1133DA0550BBB27AA2762177307840738F09F5F58
S1133DB05F4F220F331F441FAA1FA9F335D00E2EC5
S1133DC03AF0E0E832D091505040E695001CCAF732
S1133DD02BD0FE2F29D0660F771F881FBB1F2617F5
S1133DE037074807AB07B0E809F0BB0B802DBF01CC
S1133DF0FF2793585F4F3AF09E3F510578F00C949B
S1133E00871F0C94D21F5F3FE4F3983ED4F386954A
S1133E1077956795B795F7959F5FC9F7880F911DBB
S1133E209695879597F90895E1E0660F771F881FA7
S1133E30BB1F621773078407BA0720F0621B730B5A
S1133E40840BBA0BEE1F88F7E0950895E89409C037
S1133E5097FB3EF490958095709561957F4F8F4FB9
S1133E609F4F9923A9F0F92F96E9BB279395F695CF
S1133E70879577956795B795F111F8CFFAF4BB0F4D
S1133E8011F460FF1BC06F5F7F4F8F4F9F4F16C0B1
S1133E90882311F096E911C0772321F09EE8872F3B
S1133EA0762F05C0662371F096E8862F70E060E0F7
S1133EB02AF09A95660F771F881FDAF7880F969570
S1133EC0879597F90895990F0008550FAA0BE0E814
S1133ED0FEEF16161706E807F907C0F012161306C8
S1133EE0E407F50798F0621B730B840B950B39F408
S1133EF00A2661F0232B242B252B21F408950A266E
S1133F0009F4A140A6958FEF811D811D089597F9AD
S1133F109F6780E870E060E008959FEF80EC08956B
S1133F2000240A9416161706180609060895002494
S1133F300A9412161306140605060895092E03940E
S1133F40000C11F4882352F0BB0F40F4BF2B11F482
S1133F5060FF04C06F5F7F4F8F4F9F4F089557FDE1
S1133F609058440F551F59F05F3F71F04795880FE3
S1133F7097FB991F61F09F3F79F08795089512167A
S1133F8013061406551FF2CF4695F1DF08C0161626
S1133F9017061806991FF1CF8695710561050894D7
S1133FA00895E894BB2766277727CB0197F90895EE
S1133FB00E94631F08F48FEF08950E94B71FA8F1B1
S1133FC09E57B0F1985160F039F1983070F5092E90
S1133FD09927660F771F881F991F0A94D1F71CC071
S1133FE0BB27993F4CF4B111B1E0B62B672F782F62
S1133FF08827985FB1F708C0869577956795B79538
S113400008F4B1609395C1F7BB0F30F411F460FF6D
S113401003C06F5F7F4F8F4F3EF4909580957095EE
S113402061957F4F8F4F9F4F089568940C94D21FD2
S11340300C94D11F0E942D200C949E1F0E94901F4F
S113404038F00E94971F20F0952311F00C94871FDD
S11340500C948D1F11240C94D21F0E94AF1F70F377
S1134060959FC1F3950F50E0551F629FF001729F19
S1134070BB27F00DB11D639FAA27F00DB11DAA1F28
S1134080649F6627B00DA11D661F829F2227B00D75
S1134090A11D621F739FB00DA11D621F839FA00D00
S11340A0611D221F749F3327A00D611D231F849F50
S11340B0600D211D822F762F6A2F11249F575040A7
S11340C09AF0F1F088234AF0EE0FFF1FBB1F661F22
S11340D0771F881F91505040A9F79E3F510580F0EB
S11340E00C94871F0C94D21F5F3FE4F3983ED4F3E3
S11340F0869577956795B795F795E7959F5FC1F78F
S1134100FE2B880F911D9695879597F90895FA01CE
S1134110EE0FFF1F309621053105A1F161157105E0
S113412061F48038BFE39B0749F1689490388105B6
S113413061F08038BFEF9B0741F099234AF5FF3FB8
S1134140E1053105210519F1E8940894E795D901B1
S1134150AA2329F4AB2FBE2FF85FD0F310C0FF5F62
S113416070F4A695E0F7F73950F019F0FF3A38F4F7
S11341709F779F930DD00F9007FC9058089546F0B9
S11341800C948D1F60E070E080E89FE308954FE792
S11341909F775F934F933F932F930E9482212F9198
S11341A03F914F915F910E941A200C94DF2029F4D3
S11341B016F00C94871F0C94D11F0C948D1F0E9431
S11341C0B71FA8F39638A0F707F80F92E8942BE3EB
S11341D03AEA48EB5FE70E9430200F920F920F9269
S11341E04DB75EB70F920E94CA21ECE7F0E00E943F
S11341F011214F915F91EF91FF91E595EE1FFF1F04
S113420049F0FE57E0684427EE0F441FFA95E1F7A2
S11342104195550B0E9444210F9007FE0C943821C0
S11342200895DF93CF931F930F93FF92EF92DF9242
S11342307B018C01689406C0DA2EEF010E942D20C8
S1134240FE01E894A5912591359145915591A6F3E8
S1134250EF010E945A1EFE019701A801DA9469F742
S1134260DF90EF90FF900F911F91CF91DF91089510
S11342709B01AC0160E070E080E89FE30C94B41E05
S11342800C94871F0C94FE210E94B71FD8F3992326
S1134290C9F3940F511DA3F39150504094F059F079
S11342A0882332F0660F771F881F91505040C1F762
S11342B09E3F51052CF7880F911D9695879597F988
S11342C008955F3FACF0983E9CF0BB2786957795A8
S11342D06795B79508F4B1609395C1F7BB0F58F78C
S11342E011F460FFE8CF6F5F7F4F8F4F9F4FE3CF95
S11342F00C94D21F16F00C94FE210C948D1F68941C
S11343000C94871F0E94B71FA8F39923C1F3AEF33F
S1134310DF93CF931F930F93FF92C92FDD27882339
S11343202AF02197660F771F881FDAF720E030E024
S113433040E85FEB9FE3883920F0803E38F0219617
S11343408F770E94431EE4EAF0E004C00E94431EFB
S1134350E1EDF0E00E9411218B01BE01EC01FB2E86
S11343606F5771097595771F880B990B0E94281F49
S113437028E132E741E35FE30E942D20AF2D98014D
S1134380AE01FF900F911F91CF91DF910E945A1EB1
S11343900C949E1FFA01DC01AA0FBB1F9B01AC0108
S11343A0BF5728F4222733274427507820C0B75119
S11343B090F4AB2F0024469537952795011CA395BF
S11343C0D2F3002071F0220F331F441FB395DAF3A8
S11343D00ED00C94421E61307105A0E88A07B946DC
S11343E030F49B01AC0166277727882790783096B4
S11343F021F0208331834283538308959F3F31F01A
S1134400915020F4879577956795B795880F911DFE
S11344109695879597F90895DB018F939F930E9452
S11344204D22BF91AF91A29F800D911DA39F900D2E
S1134430B29F900D11240895A1E21A2EAA1BBB1B52
S1134440FD010DC0AA1FBB1FEE1FFF1FA217B3075C
S1134450E407F50720F0A21BB30BE40BF50B661F72
S1134460771F881F991F1A9469F760957095809536
S113447090959B01AC01BD01CF010895A29FB001AD
S1134480B39FC001A39F700D811D1124911DB29F84
S1134490700D811D1124911D08950E943E22A59F37
S11344A0900DB49F900DA49F800D911D112408952B
S11344B02F923F924F925F926F927F928F929F9230
S11344C0AF92BF92CF92DF92EF92FF920F931F931E
S11344D0CF93DF93CDB7DEB7CA1BDB0B0FB6F894CF
S11344E0DEBF0FBECDBF09942A88398848885F840F
S11344F06E847D848C849B84AA84B984C884DF8080
S1134500EE80FD800C811B81AA81B981CE0FD11D63
S11345100FB6F894DEBF0FBECDBFED010895CF9363
S1134520DF938230910510F482E090E0E091A802DC
S1134530F091A90220E030E0C0E0D0E0309711F122
S11345404081518148175907C0F04817590761F451
S113455082819381209719F09B838A832BC0909347
S1134560A9028093A80226C02115310519F042172B
S1134570530718F49A01BE01DF01EF010280F381B1
S1134580E02DDCCF2115310509F1281B390B24302E
S1134590310590F412968D919C91139761157105D4
S11345A021F0FB019383828304C09093A90280933A
S11345B0A802FD01329644C0FD01E20FF31F81936E
S11345C09193225031092D933C933AC02091A60235
S11345D03091A702232B41F420911D0130911E013B
S11345E03093A7022093A60220911B0130911C0155
S11345F02115310541F42DB73EB740911F0150916B
S11346002001241B350BE091A602F091A702E217CA
S1134610F307A0F42E1B3F0B2817390778F0AC01E1
S11346204E5F5F4F2417350748F04E0F5F1F5093BE
S1134630A7024093A6028193919302C0E0E0F0E0C8
S1134640CF01DF91CF9108950F931F93CF93DF9301
S1134650009709F48CC0FC013297138212820091F6
S1134660A8021091A9020115110581F4208131815C
S1134670820F931F2091A6023091A70228173907B1
S113468079F5F093A702E093A60271C0D80140E047
S113469050E0AE17BF0750F412962D913C9113973A
S11346A0AD012115310509F1D901F3CF9D01DA01DD
S11346B03383228360817181860F971F821793074A
S11346C069F4EC0128813981260F371F2E5F3F4F93
S11346D0318320838A819B8193838283452B29F4B0
S11346E0F093A902E093A80242C01396FC93EE93C0
S11346F01297ED01499159919E01240F351FE2173C
S1134700F30771F480819181840F951F02961196AD
S11347109C938E938281938113969C938E9312978C
S1134720E0E0F0E0D80112968D919C9113970097E8
S113473019F0F8018C01F6CF8D919C9198012E5FB0
S11347403F4F820F931F2091A6023091A702281792
S1134750390769F4309729F41092A9021092A8023B
S113476002C0138212821093A7020093A602DF9163
S1134770CF911F910F910895283008F027E0332737
S1134780DA01990F311D87FD91600096610571056D
S113479039F432602E5F3D9330E32A95E1F70895B2
S11347A09F3F30F080387105610509F03C5F3C5F44
S11347B03D93913008F08068911DDF93CF931F9350
S11347C00F93FF92EF92192F987F9695E92F969564
S11347D09695E90FFF27E05AFE4F99273327EE24D9
S11347E0FF24A701E70105900894079428F4360FE5
S11347F0E71EF81E491F511D660F771F881F991F5A
S11348000694A1F70590079428F4E70EF81E491FB3
S1134810561FC11D770F881F991F661F0694A1F7A5
S11348200590079428F4F80E491F561FC71FD11D81
S1134830880F991F661F771F0694A1F705900794A8
S113484020F4490F561FC71FD81F990F661F771FE3
S1134850881F0694A9F784911095177041F0D69596
S1134860C79557954795F794E7941A95C1F7E6E0ED
S1134870F1E06894159015913591659195910590A5
S11348807FE27395E118F10A430B560BC90BD0096B
S1134890C0F7E10CF11E431F561FC91FD01D7EF443
S11348A0703311F48A95E6CFE894015030F0080F84
S11348B00AF40027021708F4202F2395022F7A33D5
S11348C028F079E37D932A95E9F710C07D932A9522
S11348D089F6069497956795379517951794E11877
S11348E0F10A430B560BC90BD00998F023957E911E
S11348F073957A3308F070E37C932013B8F77E91B4
S113490070617D9330F0839571E37D9370E32A9514
S1134910E1F71124EF90FF900F911F91CF91DF9158
S1134920992787FD90950895FC010590615070408A
S11349300110D8F7809590958E0F9F1F0895FC0164
S11349406150704001900110D8F7809590958E0FBA
S11349509F1F08950F931F93CF93DF93FB01238130
S113496021FD03C08FEF9FEF28C022FF16C04681B0
S11349705781248135814217530744F4A081B181C2
S11349809D012F5F3F4F318320838C932681378194
S11349902F5F3F4F3783268310C0EB01092F182F59
S11349A00084F185E02D0995892BE1F68E819F81A4
S11349B001969F838E83812F902FDF91CF911F913A
S11349C00F9108950F931F93CF93DF93E091AC025F
S11349D0F091AD02238121FF1BC08C01D0E0C0E027
S11349E0F80181918F016091AC027091AD02DB01FD
S11349F01896ED91FC911997882331F00995892B2C
S1134A0079F3DFEFCFEFECCF8AE00995892B19F02A
S1134A108FEF9FEF02C08D2F9C2FDF91CF911F91BD
S1134A200F910895FA01AA27283051F1203181F11C
S1134A30E8946F936E7F6E5F7F4F8F4F9F4FAF4FA2
S1134A40B1E03ED0B4E03CD0670F781F891F9A1FB5
S1134A50A11D680F791F8A1F911DA11D6A0F711D69
S1134A60811D911DA11D20D009F468943F912AE075
S1134A70269F11243019305D3193DEF6CF0108955D
S1134A80462F4770405D4193B3E00FD0C9F7F6CF8E
S1134A90462F4F70405D4A3318F0495D31FD405256
S1134AA0419302D0A9F7EACFB4E0A69597958795EC
S1134AB077956795BA95C9F70097610571050895CB
S1134AC09B01AC010A2E0694579547953795279577
S1134AD0BA95C9F7620F731F841F951FA01D08950F
S1074AE0F894FFCF74
S1134AE41F020103030000000200000000D70E00AF
S1134AF4000000180C041060C080200000B00220E4
S1134B04005354415254494E472E2E2E00435255BD
S1134B144953494E472E2E2E0049522041564F499F
S1134B2444494E472E2E2E00484F4D494E472E2EB3
S1134B342E00534F4E41522041564F4944494E474B
S1134B442E2E2E0057414C4C20464F4C4C4F574967
S1134B544E472E2E2E00556E6B6E6F776E20737437
S1134B6461746521005374617274696E672E2E2E0C
S1054B7400003B
S9030000FC
