S00C00004C6162392E73726563D0
S11300000C940B030C9428030C9428030C942803DD
S11300100C94D10D0C94FA0D0C94230E0C944C0EEC
S11300200C9428030C94B20C0C94DB0C0C94040D6B
S11300300C947F0D0C942D0D0C94560D0C94A80D5E
S11300400C94370C0C94600C0C94890C0C942803BD
S11300500C9428030C9428030C9428030C94280370
S11300600C9428030C9428030C9428030C94280360
S11300700C9455140C9428030C94280307634236FB
S1130080B79BD8A71A39685618AEBAAB558C1D3C25
S1130090B7CC5763BD6DEDFD753EF6177231BF00E9
S11300A00000803F08000000BE922449123EABAA23
S11300B0AA2ABECDCCCC4C3E00000080BEABAAAA7E
S11300C0AA3E00000000BF000000803F00000000C6
S11300D000084178D3BB4387D1133D190E3CC3BDFF
S11300E04282AD2B3E68EC8276BED98FE1A93E4CAC
S11300F080EFFFBE01C4FF7F3F00000000006E617F
S11301006E00696E660000407A10F35A00A0724EC9
S113011018090010A5D4E80000E87648170000E4A8
S11301200B54020000CA9A3B000000E1F5050000F0
S113013080969800000040420F000000A086010055
S11301400000102700000000E80300000000640025
S1130150000000000A000000000001000000000090
S11301602C76D888DC674F0823DFC1DFAE59E1B1B4
S1130170B796E5E3E453C63AE651997696E8E6C2C3
S11301808426EB898C9B62ED407C6FFCEFBC9C9FCA
S113019040F2BAA56FA5F490055A2AF75C936B6CEC
S11301A0F9676DC11BFCE0E40D47FEF520E6B500E0
S11301B0D0ED902E0300943577050080841E08004E
S11301C000204E0A000000C80C333333330F986EFE
S11301D012831141EF8D2114893BE65516CFFEE6BB
S11301E0DB18D1844B381BF77C1D901DA4BBE42481
S11301F0203284725E228100C9F124ECA1E53D27FE
S113020016050100000000000000FA000000E000F4
S1130210E00028FE28FE282454FE5448C4C81026B2
S1130220466C92AA44A000A0C0000000384482009A
S1130230008244380028107C102810107C10100014
S11302400A0C00001010101010000606000004082C
S11302501020407C8A92A27C0042FE020042868AE0
S113026092628482A2D28C182848FE08E4A2A2A238
S11302709C3C5292920C808E90A0C06C9292926C94
S11302806092929478006C6C0000006A6C0000101C
S113029028448200282828282800824428104080E6
S11302A08A90604C929E827C7E8888887EFE9292A0
S11302B0926C7C82828244FE82824438FE929292C4
S11302C082FE909090807C8292925EFE101010FECE
S11302D00082FE8200040282FC80FE10284482FE1A
S11302E002020202FE403040FEFE201008FE7C8224
S11302F082827CFE909090607C828A847AFE9098C0
S11303009462629292928C8080FE8080FC0202024F
S1130310FCF8040204F8FC021C02FCC6281028C6DF
S1130320E0100E10E0868A92A2C200FE8282004093
S113033020100804008282FE002040804020020237
S11303400202020080402000042A2A2A1EFE1222F1
S1130350221C1C222222041C222212FE1C2A2A2ACB
S113036018107E908040304A4A4A7CFE1020201E9D
S11303700022BE0200040222BC00FE081422000077
S113038082FE02003E2018201E3E1020201E1C2249
S113039022221C3E28282810102828183E3E10200F
S11303A02010122A2A2A0420FC2202043C020204FD
S11303B03E38040204383C020C023C221408142285
S11303C0300A0A0A3C22262A322200106C820000DB
S11303D000FE000000826C100008101008100000DD
S11303E00000007F8181817F7F8383837F7F878774
S11303F0877F7F8F8F8F7F7F9F9F9F7F7FBFBFBFB1
S11304007F7FFFFFFF7F2040FF40206215171565A7
S113041000FBFB00000000000000C0FF0300E0FF41
S11304200700F0FF0F00F8FF1F0078001E0078009F
S11304301E0078001E0078001E0078001E00780060
S11304401E0078001E0078001E0078001E000000C8
S113045000000000000080FF0300E0FF0700F0FF41
S11304600F00F8FF1F00F83C1F00783C1E00783C8A
S11304701E00783C1E00783C1E00783C1E00783C30
S11304801E00783C1E00783C1E00783C1E00783C20
S11304901E000000000000000000E0FF0300F0FF69
S11304A00700F8FF0F00F8FF1F00783C1E00783C9F
S11304B01E00783C1E00783C1E00783C1E00783CF0
S11304C01E00783C1E00783C1E00783C1E00783CE0
S11304D01E000000000000000000F8FF0300F8FF09
S11304E00F00F8FF1F00F8FF1F0000001E000000AF
S11304F01E0000801F0000F01F0000FF0F00E0FF3F
S11305000700F0FF0000F80F0000F800000078007A
S1130510000078000000F8FF1F00F8FF1F00F0FF44
S11305201F00E0FF1F000000000000000000F8FFB3
S11305301F00F8FF1F00F8FF1F00F8FF1F007800DE
S11305401E00783C1E00783C1E00783C1E00783C5F
S11305501E00783C1E00783C1E00F87E1F00F8FF49
S11305601F00F0FF0F00E0E70300000000000000A0
S11305703800EEFF6C002A8045003A0047FC03FF78
S11305806CFC83FF3900DEFF0B7CD0810BFCD08137
S11305900BC0D0810BFCD0810B7CDEFF0B0082FFF3
S11305A0397002FF6CF83A0047DC2A8045CCEEFF34
S11305B06CCC000038000000000C00001E0C000091
S11305C01E0000001E0000001E0000001E00F8FFB8
S11305D01F00F8FF1F00F8FF1F00F8FF1F000000B6
S11305E01E0000001E0000001E0000001E0000008F
S11305F05E000000400000007C000000400000009D
S1130600400000007C0000003000000010000000EA
S1130610300000007C0011241FBECFEFD8E0DEBF05
S1130620CDBF11E0A0E0B1E0E4E1FEE402C005903A
S11306300D92AE3BB107D9F723E0AEEBB1E001C0B8
S11306401D92A530B207E1F70E942A030C940827F3
S11306500C9400000E94350C0E94270C0E94171C69
S113066080E090E008950F931F9385E00E94DD09D8
S11306708823C1F080E460E00E94300400E0802F11
S113068060E00E94DB0310E080E061E00E9430043F
S11306901F5F1038C9F70F5F043089F783E060E00B
S11306A00E941E041F910F9108950F931F9385E0DC
S11306B00E94D009882311F082E07AC00E948C0441
S11306C0182F0E944F0A1150123008F06DC081504B
S11306D0823008F069C00E944B048EEA60E00E94F8
S11306E0300482EA60E00E94300480EA60E00E9404
S11306F0300400E513ECC8010197F1F780EC60E0E9
S11307000E9430048FE260E00E94300481E860E0DF
S11307100E94300486E160E00E94300482E260E0DE
S11307200E943004C8010197F1F78FEA60E00E944B
S1130730300486EA60E00E94300485EA60E00E94AA
S1130740300480E090E028E833E1F9013197F1F7D3
S1130750019643E0883E9407C1F783EB60E00E9472
S1130760300480E460E00E94300483E060E00E9492
S1130770DB0383E060E00E941E0410926802109282
S11307806A021092690284E091E0909302038093DC
S1130790010388E10E94FD030E94330384EA60E0C0
S11307A00E94300481E004C085E00E94C00987E013
S11307B01F910F910895FF920F931F93082FF62E08
S11307C085E00E94DD098823A1F01F2D1F770370A7
S11307D0802F806B60E00E94300412951F70812F7F
S11307E0806160E00E9430048F2D8F7060E00E9471
S11307F030041F910F91FF9008951F93182F85E0E7
S11308000E94DD098823C1F087E00E94CE0482E0C3
S11308106AE00E941F0582E061EB0E941F05612FC0
S1130820113208F060E282E00E941F0589EE8A9589
S1130830F1F787E00E94CE041F9108950F931F9350
S1130840082F162F85E00E94DD09882331F00370FC
S11308501F7710936602009367021F910F9108950A
S11308600F931F93082F162F85E00E94DD0988231C
S113087079F0112319F0113021F402C02B9801C032
S11308802B9A86E08A95F1F780E0602F0E941F057D
S11308901F910F910895239A08951F93182F86E0AE
S11308A00E94DD09882319F0812F0E9470041F9192
S11308B0089586E00E94D009882311F082E008950B
S11308C00E94750481E008951F93182F86E00E940A
S11308D0DD09882319F0812F0E947E041F91089559
S11308E085FD5D9886FD5E980895559A569A80E236
S11308F00E944D0480E40E944D040895282F85FF32
S113090004C08BB190E289278BB926FF04C08BB158
S113091090E489278BB9089582E00E94D009882346
S113092011F082E008950E942E0580E069EA7FE0DC
S11309300E94C50481E061EA7FE00E94C50482E070
S113094069E97FE00E94C50486E061EB7FE00E94D4
S1130950C50483E061E97FE00E94C50484E061E9A5
S11309607FE00E94C50485E061E97FE00E94C50440
S113097087E061E97FE00E94C5048FEF80936B02FA
S113098087E00E94CE0481E00895E82FF0E0EE0FA6
S1130990FF1FE35FFD4F7183608308951F93182F3A
S11309A082E00E94DD09882309F447C0912F9770E3
S11309B080916B02981709F440C090936B0285B143
S11309C0887F892B85B9933011F1943028F49130C4
S11309D051F0923090F40CC0953019F19530E0F05C
S11309E0963021F50FC0E0910F02F091100222C061
S11309F0E0910D02F0910E021DC0E0911102F09100
S1130A00120218C0E0911902F0911A0213C0E09189
S1130A101302F09114020EC0E0911502F091160237
S1130A2009C0E0911702F091180204C0E0911B0282
S1130A30F0911C02309709F009951F9108951F93B6
S1130A40162F0E94CE0482E00E94DD09882321F043
S1130A501EBD0DB407FEFDCF1F910895259A26985B
S1130A60279A209A219A229A08952F923F924F9280
S1130A705F926F927F928F929F92AF92BF92CF922A
S1130A80DF92EF92FF920F931F93DF93CF930F9216
S1130A90CDB7DEB7582E962E442E3901C9821501E2
S1130AA0CE88DF88A88CB98C6A8D7B8D81E09816FE
S1130AB019F1981628F092E0991609F070C03EC01A
S1130AC080E0B7010E94660780E0642DA3019801CD
S1130AD00981EE24E39473EAC72E72E0D72E0E94B4
S1130AE02608552009F05BC000D00F92EDB7FEB781
S1130AF01182338222821CC081E00E94660781E059
S1130B00682DA60195010C8DEE24E39493EAC92E79
S1130B1092E0D92E0E942608552009F040C000D04A
S1130B200F92EDB7FEB791828D8D9E8D9383828354
S1130B300E9463090F900F900F9031C0C7010E946B
S1130B40880700D083EA92E0EDB7FEB792838183F1
S1130B50842DB301A8012981082D76016501AC8C8F
S1130B60882483940E94B9080F900F905520B9F4FB
S1130B7000D000D00F92ADB7BEB71196EDB7FEB757
S1130B809182FD01328221828D8D9E8D9483838397
S1130B900E9463090F900F900F900F900F900F9089
S1130BA0CF91DF911F910F91FF90EF90DF90CF9045
S1130BB0BF90AF909F908F907F906F905F904F9079
S1130BC03F902F9008954F925F927F928F929F92C1
S1130BD0AF92BF92CF92DF92EF92FF920F931F9347
S1130BE0DF93CF93CDB7DEB7562F942E7C2CAA89F2
S1130BF0BB89CC88DD886E897F89988D813009F422
S1130C0045C0813030F1823009F066C0513071F056
S1130C10513020F0523009F05FC011C080E0B701BC
S1130C200E94660780E0692DA80106C081E00E9449
S1130C30660781E0682DA6010E94F1064DC0C70138
S1130C400E948807892DB801482D96010E94080743
S1130C5043C0EDB7FEB739970FB6F894FEBF0FBE89
S1130C60EDBF4DB65EB60894411C511CB283A183FE
S1130C70F201D382C282758364839683898D9A8DAF
S1130C809087878380E0652FC72C1CC0EDB7FEB723
S1130C9039970FB6F894FEBF0FBEEDBFADB6BEB622
S1130CA00894A11CB11CB283A183F501D382C28232
S1130CB07583648396831086178281E0652FC72C21
S1130CC0AA24BB240E9435058DB79EB709960FB69A
S1130CD0F8949EBF0FBE8DBFCF91DF911F910F91EE
S1130CE0FF90EF90DF90CF90BF90AF909F908F9048
S1130CF07F905F904F90089587E00E94D0098823E9
S1130D0011F082E008950E94B60981E08093A20266
S1130D1010926C0210926D0210926F0210926E0289
S1130D201092710210927002109273021092720269
S1130D301092750210927402109277021092760249
S1130D40109279021092780210927B0210927A0229
S1130D5010927D0210927C0210927F0210927E0209
S1130D6010928102109280021092830210928202E9
S1130D70109285021092840210928A0210928B02C1
S1130D8010928C0210928D0210928F021092900297
S1130D901092910210929202109293021092940275
S1130DA01092950210929702109296021092990254
S1130DB01092980210929B0210929A0210929D0235
S1130DC010929C021092870210928602109289025D
S1130DD0109288021092A1021092A0021092A20214
S1130DE00895EF92FF920F931F93182F062F7A0105
S1130DF060E00E94C507812F602F0E94A607812F03
S1130E00B7010E94DA071F910F91FF90EF900895A8
S1130E10CF92DF92EF92FF920F931F93C82E7B0124
S1130E20D42E890182E060E00E94C5078C2D6D2DCF
S1130E300E94BB07C701B8010E9407081F910F91C8
S1130E40FF90EF90DF90CF9008952EEF80379207B8
S1130E5014F480E79EEFFC0181E0E139F80714F017
S1130E60E0E9F1E09B018EEF6037780714F420E7A6
S1130E703EEFA90121E04139520714F040E951E065
S1130E808F2F881F8827881F252F221F2227221F84
S1130E9091E09093A20280938F0220939002CF015D
S1130EA0F7FF03C0909581959F4F9A0157FF03C0A8
S1130EB0309521953F4F90936F0280936E0230934B
S1130EC07102209370021092A2020895482F81E0CB
S1130ED08093A202CB0123E0693E720710F088EEF2
S1130EE093E0413071F0413018F0423071F405C0A4
S1130EF0909377028093760208C090937702809350
S1130F00760290937902809378021092A202089557
S1130F1021E02093A202AC0183E0493E580710F07F
S1130F2048EE53E09B0183E0693E780710F028EE19
S1130F3033E0F89450937702409376023093790229
S1130F402093780278941092A2020895982F81E059
S1130F508093A202913051F0913018F0923041F414
S1130F6003C060938F0204C060938F026093900269
S1130F701092A202089591E09093A202EFE8F2E0A9
S1130F80819360831092A2020895982F81E0809348
S1130F90A202913051F0913018F0923041F403C024
S1130FA060936C0204C060936C0260936D021092B3
S1130FB0A2020895482F81E08093A202CB0121E090
S1130FC06139720710F080E991E0413061F04130FD
S1130FD018F04230C9F40EC0F89490936F028093D5
S1130FE06E02789411C0F894909371028093700209
S1130FF078940AC0F89490936F0280936E02909351
S113100071028093700278941092A2020895AC0148
S113101081E08093A202F894CB0121E06139720748
S113102010F080E991E090937102809370029A012C
S113103081E04139580710F020E931E030936F0224
S113104020936E0278941092A20208958F929F9238
S1131050AF92BF92CF92DF92EF92FF920F931F93C2
S1131060CF93DF93182FF62E4A015901E60187E04A
S11310700E94DD09882309F46FC0812F61E00E947A
S1131080C507812FB401A5010E948B11812F6F2DFB
S11310900E94A607812F602F0E947611812FB40130
S11310A00E944E11C114D10499F0113049F011304D
S11310B018F0123069F406C0188210929E0208C01B
S11310C0198204C01882198210929E0210929F0203
S11310D0D093A102C093A002EE20B9F58EEB91E06B
S11310E09093A1028093A002812FB5010E94DA0798
S11310F0812F0E943911113071F0113018F0123023
S113110059F512C01092BE0110929E028091BE0148
S11311108823E1F321C01092BF0110929F028091B5
S1131120BF018823E1F318C01092BE011092BF01E1
S113113010929E0210929F028091BE018823E1F3D7
S11311408091BF018823C1F307C0812FB5010E949C
S1131150DA07812F0E943911DF91CF911F910F91EE
S1131160FF90EF90DF90CF90BF90AF909F908F90C3
S113117008953F924F925F926F927F928F929F92C7
S1131180AF92BF92CF92DF92EF92FF920F931F9391
S1131190DF93CF93CDB7DEB7982E2B013A01322ED1
S11311A0B02E0C891D8987E00E94DD09882309F48B
S11311B053C082E061E00E94C50780E0B201A30150
S11311C00E948B1181E0B701A6010E948B11892D29
S11311D06B2D0E94BB0780E0632D0E94761181E095
S11311E06A2D0E947611C201B7010E94691101158E
S11311F0110539F0F8011082118210929E021092AA
S11312009F021093A1020093A0028820F1F480ECC5
S113121091E09093A1028093A002C301B6010E94C1
S1131220070882E00E9439111092C0011092C10196
S113123010929E0210929F028091C0018823E1F3D4
S11312408091C1018823C1F307C0C301B6010E9484
S1131250070882E00E943911CF91DF911F910F910D
S1131260FF90EF90DF90CF90BF90AF909F908F90C2
S11312707F906F905F904F903F9008950F931F93CE
S1131280182F062F662349F460E070E00E94DA0705
S1131290812F60E070E00E944E1181E08093A202F1
S11312A0113051F0113018F0123041F403C00093A2
S11312B08A0204C000938A0200938B021092A20255
S11312C01F910F910895CF92DF92EF92FF920F93A7
S11312D01F93DF93CF93CDB7DEB71B8587E00E94C2
S11312E0DD098823D1F1113061F0113018F012308A
S11312F0A1F511C0EC85FD858091A3028823E1F35B
S113130006C0EC85FD858091A4028823E1F3309723
S113131021F1099522C0CC84DD84EE84FF8400E0B1
S113132010E0002351F48091A302882331F0C1140A
S1131330D10411F0F601099501E0112351F48091D3
S1131340A402882331F0E114F10411F0F7010995A6
S113135011E0002331F3112321F3CF91DF911F9189
S11313600F91FF90EF90DF90CF9008953A9A3B9AB7
S11313703C9A3D9A3E9A3F9A88B1837088B9089501
S1131380853160F4E82FF0E0EF5AFD4F8081882327
S113139029F0808181508083808108958FEF0895A2
S11313A0853110F080E00895E82FF0E0EF5AFD4F0A
S11313B080818F5F808381500895853110F080E0B3
S11313C00895E82FF0E0EF5AFD4F8081811181E00C
S11313D008951F93182F8091C301882341F08091B1
S11313E0CA01882399F01092C3011092CA010E9485
S11313F01E0A8093C20184EC91E061E040E028E29F
S113140030E00E94E10A81E08093C3019091C2011F
S1131410133018F0133079F409C0E12FF0E0E050F4
S1131420FF4F8081892341F081E006C091FF03C012
S1131430892F817001C080E01F9108950F931F933D
S113144081E00E94DD09882311F400E024C087E0D4
S11314500E94CE0482E06AE00E941F0582E062EBF3
S11314600E941F0518EC812F8A95F1F782E060E055
S11314700E94BA0F082F812F8A95F1F782E060E06D
S11314800E94BA0F1A95F1F787E00E94CE0488E80B
S113149093E10197F1F7802F1F910F910895DF9346
S11314A0CF9300D00F92CDB7DEB781E00E94D00970
S11314B0882311F082E011C00E948C048150823094
S11314C040F40E94730ACE0101960E94DF1181E06C
S11314D004C081E00E94C00987E00F900F900F9034
S11314E0CF91DF9108951092BA021092B90210922E
S11314F0BC021092BB021092BE021092BD02109266
S1131500C0021092BF021092C2021092C10280E97E
S113151091E09093A6028093A5029093A8028093F1
S1131520A7029093AA028093A9029093AC0280939D
S1131530AB029093AE028093AD0284E398E0909363
S1131540B0028093AF029093B2028093B102909361
S1131550B4028093B3029093B6028093B502909341
S1131560B8028093B70208950F931F93DF93CF932C
S1131570CDB7DEB729970FB6F894DEBF0FBECDBF47
S11315808C0188E00E94DD09882311F491E00DC0EC
S1131590CE01019661E040E098010E94E10A982F93
S11315A0882319F48F818823E9F3892F29960FB6AC
S11315B0F894DEBF0FBECDBFCF91DF911F910F9185
S11315C00895EF92FF920F931F93CF93DF93EC0153
S11315D0F62EE42E890188E00E94DD09882311F4A7
S11315E081E026C084E090E00E942724FC0100975B
S11315F011F482E01DC0F982F0FC1E8281E0E8163D
S113160019F48981846089838981886089831B8333
S11316100A831D830C83D183C0831382128281E0E9
S113162080932D02CF010E941F0B10922D0280E0A7
S1131630DF91CF911F910F91FF90EF900895CF927A
S1131640DF92EF92FF920F931F93CF93DF93EC01FE
S11316508091C302882339F4D093C502C093C40295
S11316600E94381247C0C090C402D090C50200E066
S113167010E0EE24FF2437C0A881B981FD01648104
S11316807581F60140815181FA01848195819B0124
S1131690281B390B37FF0FC0861B970B9583848358
S11316A0DB82CA82012B29F4D093C502C093C40201
S11316B021C0F7010CC0F601828193812115310507
S11316C049F4FD01158214829B838A83F601D38336
S11316D0C28310C0FD01358324830097B9F30F5FE3
S11316E01F4F76016C018091C30290E0081719071F
S11316F018F2ECCF8091C3028F5F8093C302DF9115
S1131700CF911F910F91FF90EF90DF90CF900895AC
S1131710E091F602F091F702309711F480E0089519
S113172084850895EF92FF920F931F930E945314A0
S113173084E10E94D009882311F082E026C08EE063
S11317400E94DD098823E9F481E00E945813813066
S1131750C1F40E94130C0E94140C81E063E040E089
S113176020E0E12C92ECF92E91E0092F112D0E943A
S1131770B0120E94E50B882311F486E006C081E0D4
S113178004C084E10E94C00987E01F910F91FF907B
S1131790EF900895E091F602F091F702309709F086
S11317A0148608959093F5028093F4027093F702DF
S11317B06093F6020E94CA0B089581E00E944713C9
S11317C081E061E00E94E6130895EF92FF920F9387
S11317D01F93DF93CF930F92CDB7DEB781E061E023
S11317E00E94E61300E010E07E010894E11CF11C65
S11317F081E0B7010E949213882311F010E006C023
S11318000F5F1F4F0A30110599F711E081E060E086
S11318100E94E613812F0F90CF91DF911F910F91BA
S1131820FF90EF90089508951092F2021092F3023F
S11318301092F5021092F4021092F7021092F6023E
S11318401092F8021092FA021092F90208950E947E
S1131850C8110E94330F0E94750E0E941C120E9430
S11318608C040E944F0A78940895000008951F92F2
S11318700F920FB60F9211242F933F934F935F93C0
S11318806F937F938F939F93AF93BF93EF93FF9344
S1131890E091ED01F091EE01309709F00995FF9187
S11318A0EF91BF91AF919F918F917F916F915F91D4
S11318B04F913F912F910F900FBE0F901F9018954D
S11318C01F920F920FB60F9211242F933F934F93B1
S11318D05F936F937F938F939F93AF93BF93EF9394
S11318E0FF93E091EF01F091F001309709F0099531
S11318F0FF91EF91BF91AF919F918F917F916F91E4
S11319005F914F913F912F910F900FBE0F901F90B9
S113191018951F920F920FB60F9211242F933F9395
S11319204F935F936F937F938F939F93AF93BF93E3
S1131930EF93FF93E091F101F091F201309709F0F8
S11319400995FF91EF91BF91AF919F918F917F91F5
S11319506F915F914F913F912F910F900FBE0F9018
S11319601F9018951F920F920FB60F9211242F9368
S11319703F934F935F936F937F938F939F93AF9313
S1131980BF93EF93FF93E091DF01F091E001309773
S113199009F00995FF91EF91BF91AF919F918F91BC
S11319A07F916F915F914F913F912F910F900FBE57
S11319B00F901F9018951F920F920FB60F9211243B
S11319C02F933F934F935F936F937F938F939F9343
S11319D0AF93BF93EF93FF93E091E101F091E201A4
S11319E0309709F00995FF91EF91BF91AF919F91C5
S11319F08F917F916F915F914F913F912F910F90B4
S1131A000FBE0F901F9018951F920F920FB60F9252
S1131A1011242F933F934F935F936F937F938F93EF
S1131A209F93AF93BF93EF93FF93E091E301F09102
S1131A30E401309709F00995FF91EF91BF91AF91BF
S1131A409F918F917F916F915F914F913F912F91D2
S1131A500F900FBE0F901F9018951F920F920FB604
S1131A600F9211242F933F934F935F936F937F9320
S1131A708F939F93AF93BF93EF93FF93E091E7010D
S1131A80F091E801309709F00995FF91EF91BF912A
S1131A90AF919F918F917F916F915F914F913F9102
S1131AA02F910F900FBE0F901F9018951F920F92B9
S1131AB00FB60F9211242F933F934F935F936F931D
S1131AC07F938F939F93AF93BF93EF93FF93E09193
S1131AD0E901F091EA01309709F00995FF91EF913E
S1131AE0BF91AF919F918F917F916F915F914F9132
S1131AF03F912F910F900FBE0F901F9018951F923A
S1131B000F920FB60F9211242F933F934F935F932D
S1131B106F937F938F939F93AF93BF93EF93FF93B1
S1131B20E091E501F091E601309709F00995FF9104
S1131B30EF91BF91AF919F918F917F916F915F9141
S1131B404F913F912F910F900FBE0F901F901895BA
S1131B501F920F920FB60F9211242F933F934F931E
S1131B605F936F937F938F939F93AF93BF93EF9301
S1131B70FF93E091EB01F091EC01309709F00995A6
S1131B80FF91EF91BF91AF919F918F917F916F9151
S1131B905F914F913F912F910F900FBE0F901F9027
S1131BA018951F920F920FB60F9211242F933F9303
S1131BB04F935F936F937F938F939F93AF93BF9351
S1131BC0EF93FF93E091D501F091D601309709F09E
S1131BD00995FF91EF91BF91AF919F918F917F9163
S1131BE06F915F914F913F912F910F900FBE0F9086
S1131BF01F9018951F920F920FB60F9211242F93D6
S1131C003F934F935F936F937F938F939F93AF9380
S1131C10BF93EF93FF93E091D701F091D8013097F0
S1131C2009F00995FF91EF91BF91AF919F918F9129
S1131C307F916F915F914F913F912F910F900FBEC4
S1131C400F901F9018951F920F920FB60F921124A8
S1131C502F933F934F935F936F937F938F939F93B0
S1131C60AF93BF93EF93FF93E091D901F091DA0121
S1131C70309709F00995FF91EF91BF91AF919F9132
S1131C808F917F916F915F914F913F912F910F9021
S1131C900FBE0F901F9018951F920F920FB60F92C0
S1131CA011242F933F934F935F936F937F938F935D
S1131CB09F93AF93BF93EF93FF93E091DB01F09178
S1131CC0DC01309709F00995FF91EF91BF91AF9135
S1131CD09F918F917F916F915F914F913F912F9140
S1131CE00F900FBE0F901F90189580E10E94D009AD
S1131CF0882311F082E00895EDECF1E01192119245
S1131D0082E0ED30F807D1F781E00895FF920F9358
S1131D101F93CF93DF93F82E8AE0F816B1F08F1556
S1131D2048F0E8E0FE16B9F1EF1538F1F7E0FF16D8
S1131D3051F43BC08DE0F81659F0EBE1FE1689F042
S1131D40FCE0FF1641F001E041C01092660203C0BE
S1131D50109266023AC080916702815080936702B4
S1131D6034C00E94330314C080E061E00E94300458
S1131D70809166028F5F809366028091660287FF7E
S1131D80F3CF1092660280916702815080936702BC
S1131D9000E011E01CC0809166028823B1F08091BC
S1131DA0660286508093660210C081E00E948B1008
S1131DB064EF71E080E090E04DE750E024E630E02D
S1131DC00E94971081E00E94F20F00E010E08091E1
S1131DD06702609166020E94DB03002351F185E0F3
S1131DE0F89EC0011124EC01CD59DE4F8C01085935
S1131DF01E4FFE01849161E00E9430042196C017B9
S1131E00D107B9F780E061E00E9430048091660256
S1131E108A5F809366028091660290E08C37910518
S1131E203CF01092660280916702815080936702B1
S1131E3011E080916702837080936702113059F436
S1131E4080916802813039F4E0916902F0916A026C
S1131E50309709F0099580E090E0DF91CF911F91D0
S1131E600F91FF900895F8940E948E0F81E00E94D4
S1131E703B0F81E00895813049F0F894813020F1DE
S1131E808230B1F0833009F045C017C02C9A80E845
S1131E90809361001092610080E090E00000019660
S1131EA088329105D9F71092680010926B0008955A
S1131EB080E88093610083E004C080E8809361003F
S1131EC088E08093610028C080E090E000000196E3
S1131ED02DE680369207D1F72C9880E090E0000040
S1131EE001962DE680369207D1F710927A008FEF93
S1131EF08093640080916800816080936800809181
S1131F006B00846080936B00789483B7816083BF97
S1131F1088950895823008F078940895249A2C9A2C
S1131F20089583E58CBD81E08DBD8DE08A95F1F740
S1131F30089583E58CBD1DBC84EF91E00197F1F712
S1131F4008958FE78CBD1DBC84EF91E00197F1F7F4
S1131F50089583E58CBD81E08DBD8DE08A95F1F710
S1131F60089583E58CBD81E08DBD84EF91E00197F8
S1131F70F1F708951F93162F0E94CE0482E00E9469
S1131F80DD09882329F01EBD0DB407FEFDCF8EB5F3
S1131F901F9108958AE00E94C009882329F481E0F2
S1131FA00E94ED1010921E02089589E00E94C0095B
S1131FB08823B9F480911D02882311F00E94331103
S1131FC082E00E94ED1080912B0290912C020097E8
S1131FD031F00E94BC2410922C0210922B02109219
S1131FE01D020895813029F0823029F40E94D50F12
S1131FF008950E94CA0F08950F931F93CF93DF9300
S113200080E291E00E9427249C0190932C0280930B
S11320102B02892B11F480E039C08901C0E0D0E0A3
S1132020BE0180E090E00E947A2020E030E040EAA7
S113203051E40E94082027EF35E740E05FE30E9467
S113204045219B01AC0160E070E080E291E40E94D4
S1132050B2219B01AC01CA01B9012DEC3CEC42E870
S113206051E40E9445210E9408212AE030E040E02A
S113207050E00E94A423F80161937193819391939A
S11320808F012196C834D10559F681E0DF91CF91B3
S11320901F910F9108958AE00E94D009882311F0BE
S11320A082E00895109228021092270281E00E9493
S11320B0091181E080931E0208951F9389E00E9414
S11320C0D009882311F082E024C08BE00E94DD094E
S11320D08823D9F40E94FC0F182F813011F086E078
S11320E018C010921F021092200210922102109226
S11320F022028DE06CEF74E10E94D71482E00E940A
S1132100091110931D0281E004C089E00E94C009F6
S113211087E01F910895813021F0823029F084E016
S113212008950E944B1008950E945D1008956F92C7
S11321307F928F929F92AF92BF92CF92DF92EF9253
S1132140FF920F931F93CF93DF933B014C015A01EE
S1132150E9018AE00E94DD09882381F1209741F199
S11321609501442737FD4095542FBE01C536D1054E
S113217010F064E670E080E090E00E94A42324E67E
S113218030E040E050E00E94B42379018A01C401A8
S1132190B3010E94FF14C7010E94B40A60E070E01A
S11321A080E090E00E94FF14C5018E199F0904C0CD
S11321B0A114B10419F0C5010E94B40ADF91CF91B2
S11321C01F910F91FF90EF90DF90CF90BF90AF9051
S11321D09F908F907F906F900895823029F4809122
S11321E081008E7F8093810080911D02813031F4C3
S11321F080911E02813011F40000089580911D0227
S1132200813021F080911E02813011F45F9857983B
S11322100895982F80911D02882331F480911E0225
S1132220882311F4579A5F9880911D028823D1F472
S11322309230C1F41092800010928100809181004C
S11322408860809381008091810081608093810007
S1132250109285001092840081E08093890080E9C7
S1132260809388000895EFE6F0E080818D7F80837D
S11322700895982F81E08093A202913051F091301B
S113228018F0923041F403C010928A0204C01092F4
S11322908A0210928B021092A2020895982F81E074
S11322A08093A202913071F0913018F0923071F461
S11322B005C070937F0260937E0208C070937F0212
S11322C060937E0270938102609380021092A20256
S11322D0089521E02093A202EEE7F2E09183808347
S11322E03296718360831092A2020895982F81E040
S11322F08093A202913051F0913018F0923041F461
S113230003C060938C0204C060938C0260938D02BE
S11323101092A20208950F931F93CF93DF93EB01C2
S11323208A01813001F1813018F0823061F50DC0ED
S11323308091760290917702892B11F080E01AC087
S113234010928302109282021EC0809176029091B4
S11323507702892B21F080E00E94641504C010925A
S11323608302109282028091780290917902892BE3
S113237031F081E0BE01A8010E94641504C01092EE
S1132380850210928402DF91CF911F910F910895DD
S1132390CF93DF93C0E0D0E08C2F60E00E94D71190
S11323A02196C531D105C1F7DF91CF9108958531CB
S11323B028F4E82FF0E0EF5AFD4F608308951F934F
S11323C0CF93DF93EC01009799F181E00E94DD093E
S11323D0882351F187E00E94CE0418EC812F8A955E
S11323E0F1F782E06AE00E941F0582E064EB0E943C
S11323F01F05812F8A95F1F782E060E00E94BA0FF1
S11324008883812F8A95F1F782E060E00E94BA0FF9
S113241089831A95F1F782E060E00E94BA0F8A83FB
S113242087E00E94CE0404C0188219828DE28A8358
S1132430DF91CF911F91089588E00E94D0098823ED
S113244011F082E008951092C3021092C502109216
S1132450C40210922D0210922E0280E161ED75E10A
S11324600E94EB140E943C120E94451281E00895E0
S113247081E080932E02089584B5826084BD85B581
S1132480846085BD8EE487BD0895EEE6F0E080812A
S1132490826080830895CF92DF92EF92FF920F9330
S11324A01F93CF93DF937B018C01EA01690181E0E3
S11324B0E81681EEF80680E0080780E0180740F48B
S11324C044E0EE0CFF1C001F111F4A95D1F707C012
S11324D033E0EE0CFF1C001F111F3A95D1F760E0AA
S11324E072EC8BEE9BE0A80197010E94B423790162
S11324F08A0186EF9FEFAFEFBFEFE80EF91E0A1FC8
S11325001B1FC801B7012AE030E040E050E00E9400
S1132510B423653071058105910540F08AE090E0AF
S1132520A0E0B0E0E80EF91E0A1F1B1FC801B701A6
S11325302AE030E040E050E00E94B423C901DA010F
S11325402883892F9A2FAB2FBB27F6018083DF9135
S1132550CF911F910F91FF90EF90DF90CF9008954E
S1132560BF92CF92DF92EF92FF920F931F93DF936C
S1132570CF9300D0CDB7DEB7B62EC42ED22E88238B
S113258021F0813009F077C03CC08DE00E94DD0964
S1132590882309F470C01A8219821092C000109224
S11325A0C1001092C200C801B701AE014E5F5F4F77
S11325B09E012F5F3F4F0E944B12BB0CDD0CDD0CC4
S11325C0DD0CDD0CDB28CC0CCC0CCC0CCD288A81AA
S11325D08093C40089818093C500C092C20081E0C9
S11325E0E81681EEF80680E0080780E0180728F076
S11325F08091C00082608093C00081E08093DA0201
S11326003AC08EE00E94DD098823A9F119821A825A
S11326101092C8001092C9001092CA00C801B701F4
S1132620AE014F5F5F4F9E012E5F3F4F0E944B12E2
S1132630BB0CDD0CDD0CDD0CDD0CDB28CC0CCC0C78
S1132640CC0CCD2889818093CC008A818093CD00E5
S1132650C092CA0081E0E81681EEF80680E008071F
S113266080E0180728F08091C80082608093C80039
S113267081E08093DF020F900F90CF91DF911F9143
S11326800F91FF90EF90DF90CF90BF900895882333
S113269019F0813061F406C08091C1008068809394
S11326A0C10008958091C90080688093C90008958D
S11326B0882321F08130B9F084E008958DE00E94F0
S11326C0D009882369F51092DA021092D802109288
S11326D0D9020E94461480E065E070E00E942D1447
S11326E08FEC92E015C08EE00E94D0098823C1F4DB
S11326F01092DF021092DD021092DE0281E00E944D
S1132700461481E065E070E00E942D1486EC92E0AE
S113271061E041E028EE33E00E94E10A81E008959F
S113272082E00895CF93DF93EB01882321F0813079
S113273009F046C022C08DE00E94DD09882309F417
S11327403FC02091DB023091DC028091D9028130BC
S1132750B9F50FC08091D502882321F02150304073
S11327601092D5028091C00087FF03C08091C600FB
S113277020C01216130674F325C08EE00E94DD09F2
S11327808823F1F02091E0023091E1028091DE0291
S11327908130B1F411C08091CC02882321F0215002
S11327A030401092CC028091C80087FF05C0809110
S11327B0CE00888380E007C01216130664F302C0BB
S11327C081E001C083E0DF91CF9108950F931F93BF
S11327D0182F062F882311F48DE003C0813029F4CB
S11327E08EE00E94DD098823A9F10023F9F001306D
S11327F089F5112319F0113069F50CC08091DA02C2
S1132800813041F58091C10080618093C1000093C3
S1132810D90220C08091DF028130E1F48091C900A7
S113282080618093C9000093DE0214C0112319F063
S1132830113081F408C08091C1008F7E8093C10063
S11328401092D90207C08091C9008F7E8093C9007D
S11328501092DE021F910F91089577FF03C060E08C
S113286070E005C06F31710514F06EE170E08823EB
S113287019F0813051F405C07093DC026093DB02DF
S113288008957093E1026093E0020895882319F09B
S1132890813041F404C0519A5098599A0895539A3A
S11328A052985B9A0895000008951F920F920FB6F4
S11328B00F9211242F933F934F935F936F937F93C2
S11328C08F939F93AF93BF93EF93FF93DF93CF9334
S11328D00F92CDB7DEB781E00E94F115789481E0C4
S11328E0BE016F5F7F4F0E949213882319F4898180
S11328F00E94911481E00E9447130F90CF91DF91C1
S1132900FF91EF91BF91AF919F918F917F916F91C3
S11329105F914F913F912F910F900FBE0F901F9099
S113292018951F93282F853519F08A3A89F404C025
S113293081E08093F30233C01091F302113069F502
S113294082E08093F3020E9481161093F20227C062
S11329508091F302823009F58091F9029091FA0294
S11329604097C0F48091F9029091FA02FC01EE5173
S1132970FD4F208301969093FA028093F90280918F
S1132980F9029091FA020C9751F41092F3020E940A
S1132990021605C081E08093F8021092F302809140
S11329A0F302882311F41092F2021F910895E82F84
S11329B0803268F48051833050F0F0E0EE0FFF1F56
S11329C0E353FE4F208131817183608302C020E094
S11329D030E0C9010895803218F020E030E00AC0E8
S11329E0E82FF0E0EE0FFF1FE353FE4F208131810B
S11329F071836083C90108950E9423150895EF929D
S1132A00FF920F931F937B018C018AE00E94DD09E2
S1132A108823A1F080911E02882381F0D801C70188
S1132A20880F991FAA1FBB1F90932A028093290223
S1132A30E114F1040105110509F45F981F910F9148
S1132A40FF90EF90089580911F0290912002A09131
S1132A502102B0912202209123023091240240915C
S1132A60250250912602280F391F4A1F5B1F20930D
S1132A701F0230932002409321025093220280913E
S1132A801F0290912002A0912102B091220288514C
S1132A90964FA040B040BCF08BB180588BB9809168
S1132AA01F0290912002A0912102B091220288512C
S1132AB0964FA040B04080931F0290932002A093B1
S1132AC02102B09322020895EF92FF920F931F9375
S1132AD0CF93DF93EB01882321F0813009F05AC0B2
S1132AE02DC09A0140E050E0CA01B9010E94A4231C
S1132AF02091760230917702220F331F40E050E09C
S1132B000E94B42379018A01A8019701220F331F7F
S1132B10441F551FCE01A0E0B0E082179307A4071D
S1132B20B50728F0F0928302E092820233C0D69572
S1132B30C795D0938302C09382022CC09A0140E0CF
S1132B4050E0CA01B9010E94A42320917802309177
S1132B507902220F331F40E050E00E94B423790130
S1132B608A01A8019701220F331F441F551FCE016C
S1132B70A0E0B0E082179307A407B50728F0F0920D
S1132B808502E092840206C0D695C795D09385024B
S1132B90C0938402DF91CF911F910F91FF90EF902A
S1132BA008950E94D8150E94AD160E9486160895B5
S1132BB088E00E94DD09882311F484E0089580915F
S1132BC02E02882311F483E0089580912D02882336
S1132BD011F082E008950E94FA188130E1F380E058
S1132BE00895882319F0813061F406C08091C100F2
S1132BF08F778093C10008958091C9008F77809367
S1132C00C9000895E2EEF2E020E030E08281938191
S1132C10280F391F329682E0EC3EF807B9F72115E8
S1132C20310509F46DC08091E2029091E302281706
S1132C30390709F065C08091F4029091F502892B5F
S1132C4059F5E091F602F091F702309729F1848565
S1132C50882311F5318320838091E4029091E50269
S1132C60938382838091E6029091E7029583848323
S1132C708091E8029091E902978386838091EA0229
S1132C809091EB02918780878091EC029091ED0204
S1132C909387828781E084872091F4023091F50242
S1132CA02115310569F1E091F602F091F7023097B0
S1132CB039F18091E2029091E302918380838091C3
S1132CC0E4029091E502938382838091E6029091DD
S1132CD0E702958384838091E8029091E9029783C7
S1132CE086838091EA029091EB029187808780919C
S1132CF0EC029091ED0293878287CF01F901099547
S1132D0008951092FA021092F902089580911E0219
S1132D10813011F580912702909128022091290297
S1132D2030912A02280F391F30932802209327025A
S1132D308091270290912802885E93406CF08BB1B9
S1132D4080588BB98091270290912802885E934025
S1132D509093280280932702089587E00E94DD095A
S1132D60882309F4AAC08091760290917702892B76
S1132D7009F180919A0290919B0220917602309100
S1132D807702820F931F90939B0280939A02809103
S1132D909A0290919B02885E9340A4F080919A02DB
S1132DA090919B02885E934090939B0280939A0239
S1132DB041E009C080916E0290916F02909373027A
S1132DC08093720240E08091780290917902892B7D
S1132DD009F180919C0290919D022091780230919A
S1132DE07902820F931F90939D0280939C0280919D
S1132DF09C0290919D02885E9340A4F080919C0275
S1132E0090919D02885E934090939D0280939C02D2
S1132E1061E009C0809170029091710290937502F3
S1132E208093740260E0842F0E945E178091960262
S1132E30909197022091720230917302280F391FEA
S1132E403093970220939602809196029091970274
S1132E50885E934014F440E00BC0809196029091F8
S1132E609702885E9340909397028093960241E084
S1132E708091980290919902209174023091750288
S1132E80280F391F30939902209398028091980259
S1132E9090919902885E934014F460E00BC0809195
S1132EA0980290919902885E93409093990280933E
S1132EB0980261E0842F0E94A31708958823F1F0FB
S1132EC020916E0230916F02809172029091730290
S1132ED0281B390B1216130634F480917202909158
S1132EE07302019607C0232B49F0809172029091DE
S1132EF0730201979093730280937202662311F117
S1132F002091700230917102809174029091750247
S1132F10281B390B1216130654F4809174029091F5
S1132F207502019690937502809374020895232B81
S1132F3049F0809174029091750201979093750203
S1132F408093740208950F931F93182F062F809176
S1132F50A202882309F0E7C080918A02882309F03D
S1132F605AC08091720290917302892BE9F4809186
S1132F702F02837E80932F021092930280919E02EF
S1132F80882309F45DC060918C0280E00E943E09B0
S1132F90E091A002F091A102309709F451C081E0C0
S1132FA0808310929E024CC080916C02813041F467
S1132FB080917E0290917F02019711F411E002C08A
S1132FC01123F1F1E0919102F0E0EE5EFE4F909159
S1132FD02F02937E8081892B80932F0280918F0210
S1132FE0882321F4809191028F5F03C08091910224
S1132FF08150809391028091910283708093910219
S113300081E08093930280916C028130C9F480E066
S11330100E94A61815C090912F02937E90932F02C0
S1133020E0919102F0E0EE5EFE4F8081892B809367
S11330302F0282E080939302109273021092720224
S113304080918B02882309F059C080917402909179
S11330507502892BE9F480912F028F7180932F02DE
S11330601092940280919F02882309F45CC06091BD
S11330708D0281E00E943E09E091A002F091A1023C
S1133080309709F450C081E0818310929F024BC0B5
S113309080916D02813041F480918002909181028F
S11330A0019711F401E002C00023E9F1E0919202DA
S11330B0F0E0EA5EFE4F90912F029F718081892B90
S11330C080932F0280919002882321F480919202B0
S11330D08F5F03C08091920281508093920280910D
S11330E0920283708093920281E080939402809193
S11330F06D028130C1F40E94A61815C090912F0270
S11331009F7190932F02E0919202F0E0EA5EFE4FED
S11331108081892B80932F0282E080939402109205
S113312075021092740280919502882331F48FE223
S113313092E0612F402F0E94681988B183709091AA
S11331402F02892B88B91F910F910895882321F0AC
S1133150813009F04EC027C080917E0290917F0299
S1133160892B49F080917E0290917F020197909380
S11331707F0280937E0280919E028823D1F5209164
S11331807E0230917F0280918202909183022817FF
S1133190390779F580E060E070E00E94DA0781E0A9
S11331A080939E0208958091800290918102892BE0
S11331B049F080918002909181020197909381025D
S11331C08093800280919F02882399F42091800249
S11331D030918102809184029091850228173907E9
S11331E041F481E060E070E00E94DA0781E08093BE
S11331F09F020895FF920F931F93CF93DF938091C3
S1133200C302882309F459C00091C4021091C50275
S1133210F801C081D1818C819D8101979D838C832C
S1133220181619060CF449C0898180FF05C08E81E7
S1133230882311F481E08E83898181FF03C0EF81AB
S1133240F88509958091C3028230A8F0F801828143
S113325093819093C5028093C40213821282E091F9
S11332600000F091010084819581181619063CF044
S1133270FF24F39405C01092C5021092C402FF24E7
S11332808091C30281508093C3028091C30288233A
S113329011F40E946519898182FF08C08A819B818B
S11332A09D838C83C8010E941F0B08C0C8010E9423
S11332B0BC2489818F7E898301C0FF248F2DDF91F7
S11332C0CF911F910F91FF90089510922E020895AF
S11332D0FC0180919302823069F48091330291E081
S11332E0892780933302882309F03EC08081837E3E
S11332F080833AC08091720290917302C397A4F5BF
S11333006623D1F0209172023091730280E690E03E
S1133310BC01269FC001279F900D369F900D11245C
S1133320880F892F881F990B9093870280938602B8
S113333081E08093310218C0809131028823A1F08A
S113334080918602909187020197909387028093DF
S113335086028091860290918702892B29F48081CC
S1133360837E80831092310280919402823069F4CA
S11333708091320291E0892780933202882309F0F8
S11333803EC080818F7180830895809174029091F2
S11333907502C397A4F54423D1F0209174023091AF
S11333A0750280E690E0AC01249FC001259F900D3A
S11333B0349F900D1124880F892F881F990B9093A7
S11333C089028093880281E080933002089580917D
S11333D030028823A1F0809188029091890201979C
S11333E09093890280938802809188029091890247
S11333F0892B29F480818F71808310923002089583
S1133400CF93DF93FC01308120914702321303C034
S1133410208121111EC0EC010E9433038881813078
S113342059F038F0823059F0833061F485E491E04A
S11334300BC080E291E008C08CE291E005C089E312
S113344091E002C082E591E00E947A26888180930F
S11334504702DF91CF910895DC01FB019C918081AB
S1133460981325C011962D913C91129781819281D8
S113347028173907E1F413962D913C911497838111
S113348094812817390799F415962D913C91169734
S1133490858196812817390751F417964D915C91CF
S11334A018972781308581E04217530709F080E09F
S11334B00895CF93DF93EC019B0180914602811123
S11334C00AC041E061E08DE392E00E94E10A81E0FC
S11334D08093460211C080914302882369F080E4FE
S11334E00E94640480E00E94E909888381E00E94CC
S11334F0E909898310924302DF91CF910895FC0179
S113350081E0808384E690E0928381839483838343
S113351080E991E0968385839087878308950F934C
S11335201F93CF93DF93EC018B010E94880B8823B8
S1133530A9F183E08883F80146815781405A5109F3
S11335408085918528E730E0281B390BCA0157FF95
S113355004C088279927841B950B409714F440E0F6
S113356050E0C90137FF04C088279927821B930BB9
S113357040971CF0220F331F02C020E030E0C90145
S1133580840F951F9A838983241B350B3C832B83DB
S1133590DF91CF911F910F910C94CA0BDF91CF91C2
S11335A01F910F9108957F928F929F92AF92BF9235
S11335B0CF92DF92EF92FF920F931F93CF93DF93FB
S11335C0EC01FB018181813009F056C0D080D81212
S11335D053C082E088830E9433038CE891E00E9408
S11335E07A2660E082E00E943E091F921F921F9299
S11335F0DF9260E9762E7F921F9278EC972E9F924D
S11336001F928AEF8F9388248394A12CB12CC12C10
S1133610E0E9EE2EFF24F39408EC10E02AEF30E00A
S113362041E062E080E00E94E3051F921F921F9236
S1133630DF927F921F929F921F9286E98F93812C33
S113364026E930E041E062E080E00E94E30588EC96
S113365090E09A8389839C838B8380E991E09E83A5
S11336608D8398878F838DB79EB742960FB6F89453
S11336709EBF0FBE8DBFADC0D08091E0D91253C0A4
S113368082E088830E9433038CE891E00E947A26CA
S113369060E082E00E943E091F921F921F92DF9217
S11336A030E9732E7F921F9248EC942E9F921F92C2
S11336B08AEF8F9388248394A12CB12CC12C50E9D8
S11336C0E52EFF24F39408EC10E02AEF30E041E00B
S11336D062E080E00E94E3051F921F921F92DF9236
S11336E07F921F929F921F9286E98F93812C26E9E5
S11336F030E041E062E080E00E94E30588EC90E085
S11337009A8389839C838B8380E991E09E838D8354
S113371098878F838DB79EB742960FB6F8949EBF55
S11337200FBE8DBF56C0D18091E0D91252C082E045
S113373088830E9433038CE891E00E947A2660E03B
S113374082E00E943E091F921F921F92DF9280E93D
S1133750782E7F921F9298EC992E9F921F928AEF57
S11337608F9388248394A12CB12CC12C20E9E22EC0
S1133770FF24F39408EC10E02AEF30E041E062E02B
S113378080E00E94E3051F921F921F92DF927F92B6
S11337901F929F921F9286E98F93812C26E930E035
S11337A041E062E080E00E94E30588EC90E09A83C7
S11337B089839C838B8380E991E09E838D839887A2
S11337C08F838DB79EB742960FB6F8949EBF0FBEF7
S11337D08DBFDF91CF911F910F91FF90EF90DF90FC
S11337E0CF90BF90AF909F908F907F900895CF938C
S11337F0DF93EC0164E372E00E942C1A811114C07F
S11338006F8178858D819E810E9488076B817C8180
S113381089819A810E94250789E0FE01A4E3B2E030
S113382001900D928A95E1F7DF91CF910895CF939E
S1133830DF93CDB7DEB72F970FB6F894DEBF0FBE78
S1133840CDBF0E9459040E9455030E947C060E9429
S1133850920B813051F5BE016D5F7F4F80E090E0A7
S11338600E94D20B0E94DD0B10924A021092490270
S113387010924C0210924B0210924E0210924D0282
S11338801092500210924F021092480280E291E08E
S11338900E947A2688EB9BE00E94B40A0E943303BC
S11338A088E991E00E947A2607C00E9433038AEADD
S11338B091E00E947A26FFCF0E941E0A84FFFCCF6B
S11338C00E9433036DE770E0CE0101960E94591AFD
S11338D088E492E00E947F1ABE016F5F7F4F88E404
S11338E092E00E948F1ABE016F5F7F4F88E492E0DE
S11338F00E94D31A88E492E00E94F71B88E492E0C5
S11339000E94001A2FE788E391E021508040904004
S1133910E1F700C00000D6CFA3E1B0E0E2E9FCE1AA
S11339200C94E1236C014B012A01FC0117821682DD
S1133930838181FF43C3AE014F5F5F4F3A01F601BC
S11339409381F40193FD859193FF81914F01882325
S113395009F430C3853239F493FD859193FF819145
S11339604F01853239F4B60190E00E94422652019B
S11339702501E5CF10E0F12C20E02032A0F48B32B9
S113398069F030F4803259F0833269F420612CC03C
S11339908D3239F0803339F4216026C022602460EE
S11339A023C0286021C027FD27C030ED380F3A30EE
S11339B078F426FF06C0FAE01F9F300D1124132F60
S11339C013C04AE0F49E300D1124F32E20620CC083
S11339D08E3221F426FDEEC2206406C08C3611F42A
S11339E0206802C0883641F4F40193FD859193FF69
S11339F081914F018111C1CF9BEB980F933018F443
S1133A002061805E06C09BE9980F933008F071C175
S1133A102F7E26FF16E02F73322E853619F420648C
S1133A20322E08C0863621F4F22FF0683F2E02C0F1
S1133A301111115037FE07C01C3350F4EE24E394E7
S1133A40E10E27E00BC0183038F027E017E005C07E
S1133A5027E04CE3E42E02C0212FE12C520144E084
S1133A60A40EB11CF20160817181828193810E2DBB
S1133A70A3010E9454252C01098100FF02C003FF09
S1133A8007C031FC08C032FE09C030E2232E07C053
S1133A902DE2222E04C09BE2292E01C0212C802F6E
S1133AA08C7019F0211068C2A8C237FE0FC0E40C54
S1133AB004FF04C08A81813309F4EA941E1474F566
S1133AC0F8E0FE1578F588E0E82E2CC036FC2AC014
S1133AD0812F90E0841595059CF02CEF42162FEF72
S1133AE0520674F0432D4068342E0AC0E2E0F0E040
S1133AF0EC0FFD1FE10FF11D8081803319F411508B
S1133B001111F4CF37FE0EC0EE24E394E10E812FA1
S1133B1090E0481659062CF4141904C0EE24E394DA
S1133B2001C010E037FE06C01414150434F4C201B9
S1133B30019605C085E090E002C081E090E021108C
S1133B400196112331F0212F30E02F5F3F4F820F78
S1133B50931F2F2D30E08217930714F4F81A01C035
S1133B60F12C832D897049F4FF2039F0B60180E2ED
S1133B7090E00E944226FA94F7CF222029F0B60161
S1133B80822D90E00E94422633FC09C0FF2039F0C8
S1133B90B60180E390E00E944226FA94F7CF37FE04
S1133BA05AC0942D852D57FE02C090E080E0292E46
S1133BB0382E20E030E0A2014E1951095D874C8770
S1133BC0A201421953095F874E87612F70E0442791
S1133BD05527461B570B598B488B5FEF2516350627
S1133BE049F4B6018EE290E02A8B3B8B0E94422678
S1133BF03B892A89421453046CF04C855D85421537
S1133C00530544F4EE85FF85E20FF31FE60DF71D1F
S1133C10818101C080E351E0251A31082F5F3F4FB5
S1133C2048895989241635064CF0B60190E02A8B50
S1133C303B8B0E9442262A893B89CFCF241435042A
S1133C4039F49A81963318F4953311F404FF81E31F
S1133C50B60190E04BC08A81813309F00F7EB60132
S1133C6090E00E944226111105C034FC18C085E67C
S1133C7090E017C0B6018EE290E00E94422682E0F6
S1133C80EE24E394E80EF301E80FF11D8081B60100
S1133C9090E00E94422611508E2D91F7E6CF85E4E4
S1133CA090E0B6010E94422657FC05C0411451041D
S1133CB039F404FF05C05194419451088DE201C0C8
S1133CC08BE2B60190E00E94422680E39AE0491616
S1133CD051042CF08F5F5AE0451A5108F7CFB60112
S1133CE090E00E944226B601C201C0960E9442267C
S1133CF057C1833631F0833779F0833509F058C0E2
S1133D0021C05201E2E0AE0EB11CF2018081898330
S1133D1001E010E0230114C05201F2E0AF0EB11C27
S1133D20F2014080518026FF03C0612F70E002C081
S1133D306FEF7FEFC2012A8B0E9437268C012A89FC
S1133D402F7715C05201F2E0AF0EB11CF201408092
S1133D50518026FF03C0612F70E002C06FEF7FEF38
S1133D60C2012A8B0E942C268C012A892068322EBB
S1133D7023FD1AC08F2D90E008171907A8F4B60187
S1133D8080E290E00E944226FA94F4CFF20137FCDC
S1133D90859137FE81912F01B60190E00E94422661
S1133DA0F110FA94015011090115110579F7F8C0C1
S1133DB0843611F0893659F5520127FF09C0F4E021
S1133DC0AF0EB11CF20160817181828193810AC0BE
S1133DD0F2E0AF0EB11CF20160817181072E000C7C
S1133DE0880B990B2F76322E97FF09C090958095FA
S1133DF0709561957F4F8F4F9F4F2068322E2AE038
S1133E0030E0A3010E94AA26E82EE6183FC0022F44
S1133E10853721F40F7E2AE030E01DC0097F8F36FC
S1133E2091F018F4883559F0C5C0803719F08837F7
S1133E3011F0C0C0006104FF09C0046007C024FF82
S1133E4008C0066006C028E030E005C020E130E08C
S1133E5002C020E132E0520107FF09C0F4E0AF0ED6
S1133E60B11CF201608171818281938108C0F2E00A
S1133E70AF0EB11CF2016081718180E090E0A3017A
S1133E800E94AA26E82EE6180F77302E36FE0BC0C5
S1133E90332D3E7FE11650F434FE0AC032FC08C0D4
S1133EA0332D3E7E05C00E2D332D03C00E2D01C0D3
S1133EB0012F34FF0CC0FE01EE0DF11D8081803313
S1133EC011F4397E08C032FF05C00E5F04C0832F91
S1133ED0867809F00F5F33FD13C030FF06C01E2D36
S1133EE00F1518F41F0D101B0F2D0F1568F4B601D4
S1133EF080E290E03B8B0E9442260F5F3B89F5CF26
S1133F000F1510F4F01A01C0F12C34FF12C0B601E1
S1133F1080E390E03B8B0E9442263B8932FF17C02E
S1133F2031FD03C088E790E002C088E590E0B60167
S1133F300CC0832F867859F031FF02C08BE201C098
S1133F4080E237FD8DE2B60190E00E944226E11640
S1133F5038F4B60180E390E00E9442261150F7CF76
S1133F60EA94F301EE0DF11D8081B60190E00E9408
S1133F704226E110F5CF14C0F4E0FF1558F584E0B3
S1133F80F81A33FE1EC0211026C003FF2AC00EEF0C
S1133F9010E0F32DF0713F2EF8018491811124C0BB
S1133FA0FF2009F4E5CCB60180E290E00E944226AD
S1133FB0FA94F6CFF6018681978126C08FEF9FEFA2
S1133FC023C0B60180E290E00E944226FA94F110E8
S1133FD0F8CFD9CFF12CB601822D90E00E94422671
S1133FE0D4CF02E011E0D5CF31108052B60190E079
S1133FF00E9442260F5F1F4FCFCF23E02F1510F4EE
S113400083E0BECFF12CC1CF6396E2E10C94FD2393
S11340100E941C200C94CE200E94C72058F00E94BD
S1134020C02040F029F45F3F29F00C94B7205111CF
S11340300C9402210C94BD200E94DF2068F3992384
S1134040B1F3552391F3951B550BBB27AA27621790
S11340507307840738F09F5F5F4F220F331F441F9D
S1134060AA1FA9F335D00E2E3AF0E0E832D09150D1
S11340705040E695001CCAF72BD0FE2F29D0660FBE
S1134080771F881FBB1F261737074807AB07B0E801
S113409009F0BB0B802DBF01FF2793585F4F3AF007
S11340A09E3F510578F00C94B7200C9402215F3F99
S11340B0E4F3983ED4F3869577956795B795F7958D
S11340C09F5FC9F7880F911D9695879597F9089575
S11340D0E1E0660F771F881FBB1F62177307840711
S11340E0BA0720F0621B730B840BBA0BEE1F88F720
S11340F0E0950895E89409C097FB3EF49095809567
S1134100709561957F4F8F4F9F4F9923A9F0F92F99
S113411096E9BB279395F695879577956795B79517
S1134120F111F8CFFAF4BB0F11F460FF1BC06F5FFD
S11341307F4F8F4F9F4F16C0882311F096E911C00F
S1134140772321F09EE8872F762F05C0662371F030
S113415096E8862F70E060E02AF09A95660F771F44
S1134160881FDAF7880F9695879597F9089597F938
S11341709F6780E870E060E008959FEF80EC089509
S113418000240A9416161706180609060895002432
S11341900A9412161306140605060895092E0394AC
S11341A0000C11F4882352F0BB0F40F4BF2B11F420
S11341B060FF04C06F5F7F4F8F4F9F4F089557FD7F
S11341C09058440F551F59F05F3F71F04795880F81
S11341D097FB991F61F09F3F79F087950895121618
S11341E013061406551FF2CF4695F1DF08C01616C4
S11341F017061806991FF1CF869571056105089475
S11342000895E894BB2766277727CB0197F908958B
S11342100E94E720A8F19E57B0F1985160F039F15F
S1134220983070F5092E9927660F771F881F991FFC
S11342300A94D1F71CC0BB27993F4CF4B111B1E0EB
S1134240B62B672F782F8827985FB1F708C086951B
S113425077956795B79508F4B1609395C1F7BB0F4F
S113426030F411F460FF03C06F5F7F4F8F4F3EF453
S113427090958095709561957F4F8F4F9F4F0895CE
S113428068940C9402210C9401210E9458210C94EE
S1134290CE200E94C02038F00E94C72020F0952331
S11342A011F00C94B7200C94BD2011240C9402211D
S11342B00E94DF2070F3959FC1F3950F50E0551FC6
S11342C0629FF001729FBB27F00DB11D639FAA2767
S11342D0F00DB11DAA1F649F6627B00DA11D661FB6
S11342E0829F2227B00DA11D621F739FB00DA11DD7
S11342F0621F839FA00D611D221F749F3327A00D91
S1134300611D231F849F600D211D822F762F6A2F2C
S113431011249F5750409AF0F1F088234AF0EE0F91
S1134320FF1FBB1F661F771F881F91505040A9F7BE
S11343309E3F510580F00C94B7200C9402215F3FFE
S1134340E4F3983ED4F3869577956795B795F795FA
S1134350E7959F5FC1F7FE2B880F911D9695879572
S113436097F90895FA01EE0FFF1F309621053105E4
S1134370A1F16115710561F48038BFE39B0749F130
S113438068949038810561F08038BFEF9B0741F055
S113439099234AF5FF3FE1053105210519F1E89418
S11343A00894E795D901AA2329F4AB2FBE2FF85F0F
S11343B0D0F310C0FF5F70F4A695E0F7F73950F022
S11343C019F0FF3A38F49F779F930DD00F9007FCB4
S11343D09058089546F00C94BD2060E070E080E8A9
S11343E09FE308954FE79F775F934F933F932F93F6
S11343F00E94AD222F913F914F915F910E944521E0
S11344000C940A2229F416F00C94B7200C94012180
S11344100C94BD200E94E720A8F39638A0F707F873
S11344200F92E8942BE33AEA48EB5FE70E945B21A2
S11344300F920F920F924DB75EB70F920E94F52222
S1134440ECE7F0E00E943C224F915F91EF91FF91E5
S1134450E595EE1FFF1F49F0FE57E0684427EE0F75
S1134460441FFA95E1F74195550B0E946F220F9076
S113447007FE0C9463220895DF93CF931F930F9349
S1134480FF92EF92DF927B018C01689406C0DA2ED2
S1134490EF010E945821FE01E894A59125913591E0
S11344A045915591A6F3EF010E944123FE01970126
S11344B0A801DA9469F7DF90EF90FF900F911F91B4
S11344C0CF91DF9108959B01AC0160E070E080E83A
S11344D09FE30C9408200C94B7200C9496230E941C
S11344E0E720D8F39923C9F3940F511DA3F39150F6
S11344F0504094F059F0882332F0660F771F881FDC
S113450091505040C1F79E3F51052CF7880F911DE3
S11345109695879597F908955F3FACF0983E9CF087
S1134520BB27869577956795B79508F4B160939501
S1134530C1F7BB0F58F711F460FFE8CF6F5F7F4FEF
S11345408F4F9F4FE3CF0C94022116F00C949623C7
S11345500C94BD2068940C94B7200E94E720A8F323
S11345609923C1F3AEF3DF93CF931F930F93FF927D
S1134570C92FDD2788232AF02197660F771F881F0C
S1134580DAF720E030E040E85FEB9FE3883920F081
S1134590803E38F021968F770E942A23E4EAF0E0E7
S11345A004C00E942A23E1EDF0E00E943C228B012A
S11345B0BE01EC01FB2E6F5771097595771F880BAF
S11345C0990B0E947C2028E132E741E35FE30E94DB
S11345D05821AF2D9801AE01FF900F911F91CF91FB
S11345E0DF910E9441230C94CE20FA01DC01AA0F32
S11345F0BB1F9B01AC01BF5728F422273327442754
S1134600507820C0B75190F4AB2F002446953795CD
S11346102795011CA395D2F3002071F0220F331FBC
S1134620441FB395DAF30ED00C942923613071053D
S1134630A0E88A07B94630F49B01AC0166277727C6
S113464088279078309621F02083318342835383E6
S113465008955058BB27AA270E9441230C94CE20CA
S11346600E94C02038F00E94C72020F039F49F3FF8
S113467019F426F40C94BD200EF4E095E7FB0C9499
S1134680B720E92F0E94DF2058F3BA176207730797
S11346908407950720F079F4A6F50C9401210EF413
S11346A0E0950B2EBA2FA02D0B01B90190010C013E
S11346B0CA01A0011124FF27591B99F0593F50F456
S11346C0503E68F11A16F040A22F232F342F4427AE
S11346D0585FF3CF469537952795A795F0405395A6
S11346E0C9F77EF41F16BA0B620B730B840BBAF076
S11346F09150A1F0FF0FBB1F661F771F881FC2F7E1
S11347000EC0BA0F621F731F841F48F487957795F4
S11347106795B795F7959E3F08F0B0CF9395880FAE
S113472008F09927EE0F9795879508959F3F31F0EC
S1134730915020F4879577956795B795880F911DCB
S11347409695879597F90895DB018F939F930E941F
S1134750D623BF91AF91A29F800D911DA39F900D71
S1134760B29F900D11240895A1E21A2EAA1BBB1B1F
S1134770FD010DC0AA1FBB1FEE1FFF1FA217B30729
S1134780E407F50720F0A21BB30BE40BF50B661F3F
S1134790771F881F991F1A9469F760957095809503
S11347A090959B01AC01BD01CF0108950E9418248E
S11347B0A59F900DB49F900DA49F800D911D112471
S11347C008952F923F924F925F926F927F928F92B1
S11347D09F92AF92BF92CF92DF92EF92FF920F938C
S11347E01F93CF93DF93CDB7DEB7CA1BDB0B0FB696
S11347F0F894DEBF0FBECDBF09942A883988488853
S11348005F846E847D848C849B84AA84B984C884E8
S1134810DF80EE80FD800C811B81AA81B981CE0FDF
S1134820D11D0FB6F894DEBF0FBECDBFED010895C4
S1134830A29FB001B39FC001A39F700D811D1124DD
S1134840911DB29F700D811D1124911D0895CF9368
S1134850DF938230910510F482E090E0E091FD0254
S1134860F091FE0220E030E0C0E0D0E0309711F19A
S11348704081518148175907C0F04817590761F41E
S113488082819381209719F09B838A832BC0909314
S1134890FE028093FD0226C02115310519F042174E
S11348A0530718F49A01BE01DF01EF010280F3817E
S11348B0E02DDCCF2115310509F1281B390B2430FB
S11348C0310590F412968D919C91139761157105A1
S11348D021F0FB019383828304C09093FE028093B2
S11348E0FD02FD01329644C0FD01E20FF31F8193E6
S11348F09193225031092D933C933AC02091FB02AD
S11349003091FC02232B41F420911C0130911D01B4
S11349103093FC022093FB0220911A0130911B0179
S11349202115310541F42DB73EB740911E01509138
S11349301F01241B350BE091FB02F091FC02E217EE
S1134940F307A0F42E1B3F0B2817390778F0AC01AE
S11349504E5F5F4F2417350748F04E0F5F1F50938B
S1134960FC024093FB028193919302C0E0E0F0E0EB
S1134970CF01DF91CF9108950F931F93CF93DF93CE
S1134980009709F48CC0FC013297138212820091C3
S1134990FD021091FE020115110581F4208131817F
S11349A0820F931F2091FB023091FC0228173907D4
S11349B079F5F093FC02E093FB0271C0D80140E06A
S11349C050E0AE17BF0750F412962D913C91139707
S11349D0AD012115310509F1D901F3CF9D01DA01AA
S11349E03383228360817181860F971F8217930717
S11349F069F4EC0128813981260F371F2E5F3F4F60
S1134A00318320838A819B8193838283452B29F47C
S1134A10F093FE02E093FD0242C01396FC93EE93E2
S1134A201297ED01499159919E01240F351FE21708
S1134A30F30771F480819181840F951F029611967A
S1134A409C938E938281938113969C938E93129759
S1134A50E0E0F0E0D80112968D919C9113970097B5
S1134A6019F0F8018C01F6CF8D919C9198012E5F7D
S1134A703F4F820F931F2091FB023091FC022817B5
S1134A80390769F4309729F41092FE021092FD025E
S1134A9002C0138212821093FC020093FB02DF9186
S1134AA0CF911F910F910895283008F027E0332704
S1134AB0DA01990F311D87FD91600096610571053A
S1134AC039F432602E5F3D9330E32A95E1F708957F
S1134AD09F3F30F080387105610509F03C5F3C5F11
S1134AE03D93913008F08068911DDF93CF931F931D
S1134AF00F93FF92EF92192F987F9695E92F969531
S1134B009695E90FFF27E05AFE4F99273327EE24A5
S1134B10FF24A701E70105900894079428F4360FB1
S1134B20E71EF81E491F511D660F771F881F991F26
S1134B300694A1F70590079428F4E70EF81E491F80
S1134B40561FC11D770F881F991F661F0694A1F772
S1134B500590079428F4F80E491F561FC71FD11D4E
S1134B60880F991F661F771F0694A1F70590079475
S1134B7020F4490F561FC71FD81F990F661F771FB0
S1134B80881F0694A9F784911095177041F0D69563
S1134B90C79557954795F794E7941A95C1F7E6E0BA
S1134BA0F1E0689415901591359165919591059072
S1134BB07FE27395E118F10A430B560BC90BD00938
S1134BC0C0F7E10CF11E431F561FC91FD01D7EF410
S1134BD0703311F48A95E6CFE894015030F0080F51
S1134BE00AF40027021708F4202F2395022F7A33A2
S1134BF028F079E37D932A95E9F710C07D932A95EF
S1134C0089F6069497956795379517951794E11843
S1134C10F10A430B560BC90BD00998F023957E91EA
S1134C2073957A3308F070E37C932013B8F77E9180
S1134C3070617D9330F0839571E37D9370E32A95E1
S1134C40E1F71124EF90FF900F911F91CF91DF9125
S1134C50992787FD90950895FC0105906150704057
S1134C600110D8F7809590958E0F9F1F0895FC0131
S1134C706150704001900110D8F7809590958E0F87
S1134C809F1F08950F931F93CF93DF93FB012381FD
S1134C9021FD03C08FEF9FEF28C022FF16C046817D
S1134CA05781248135814217530744F4A081B1818F
S1134CB09D012F5F3F4F318320838C932681378161
S1134CC02F5F3F4F3783268310C0EB01092F182F26
S1134CD00084F185E02D0995892BE1F68E819F8171
S1134CE001969F838E83812F902FDF91CF911F9107
S1134CF00F9108950F931F93CF93DF93E0910103D6
S1134D00F0910203238121FF1BC08C01D0E0C0E09D
S1134D10F80181918F016091010370910203DB011D
S1134D201896ED91FC911997882331F00995892BF8
S1134D3079F3DFEFCFEFECCF8AE00995892B19F0F7
S1134D408FEF9FEF02C08D2F9C2FDF91CF911F918A
S1134D500F910895FA01AA27283051F1203181F1E9
S1134D60E8946F936E7F6E5F7F4F8F4F9F4FAF4F6F
S1134D70B1E03ED0B4E03CD0670F781F891F9A1F82
S1134D80A11D680F791F8A1F911DA11D6A0F711D36
S1134D90811D911DA11D20D009F468943F912AE042
S1134DA0269F11243019305D3193DEF6CF0108952A
S1134DB0462F4770405D4193B3E00FD0C9F7F6CF5B
S1134DC0462F4F70405D4A3318F0495D31FD405223
S1134DD0419302D0A9F7EACFB4E0A69597958795B9
S1134DE077956795BA95C9F7009761057105089598
S1134DF09B01AC010A2E0694579547953795279544
S1134E00BA95C9F7620F731F841F951FA01D0895DB
S1074E10F894FFCF40
S1134E14020103030000000200000000860E0000EB
S1134E240000180C041060C080200000050320005A
S1134E345374617274696E672E2E2E004578706CFB
S1134E446F72696E672E2E2E0041766F6964696EE7
S1134E54672E2E2E00466F6C6C6F77696E672E2E4C
S1134E642E00556E6B6E6F776E20737461746521BA
S1134E740043656E74203D20282025642C2025647D
S1134E8420290900773A2025642C20683A202564D7
S1134E940900736967233A202564090041564F4980
S1134EA444494E472E2E2E0050726573732053339B
S1134EB420746F20626567696E00464154414C3A20
S1114EC42050697879206661696C656421006C
S9030000FC
