S00C00004C6162352E73726563D4
S11300000C940B030C9428030C9428030C942803DD
S11300100C94B90D0C94E20D0C940B0E0C94340E4C
S11300200C9428030C949A0C0C94C30C0C94EC0CB4
S11300300C94670D0C94150D0C943E0D0C94900DBE
S11300400C941F0C0C94480C0C94710C0C94280305
S11300500C9428030C9428030C9428030C94280370
S11300600C9428030C9428030C9428030C94280360
S11300700C9428030C9428030C9428030763423639
S1130080B79BD8A71A39685618AEBAAB558C1D3C25
S1130090B7CC5763BD6DEDFD753EF6177231BF00E9
S11300A00000803F08000000BE922449123EABAA23
S11300B0AA2ABECDCCCC4C3E00000080BEABAAAA7E
S11300C0AA3E00000000BF000000803F00000000C6
S11300D000084178D3BB4387D1133D190E3CC3BDFF
S11300E04282AD2B3E68EC8276BED98FE1A93E4CAC
S11300F080EFFFBE01C4FF7F3F00000000006E617F
S11301006E00696E660000407A10F35A00A0724EC9
S113011018090010A5D4E80000E87648170000E4A8
S11301200B54020000CA9A3B000000E1F5050000F0
S113013080969800000040420F000000A086010055
S11301400000102700000000E80300000000640025
S1130150000000000A000000000001000000000090
S11301602C76D888DC674F0823DFC1DFAE59E1B1B4
S1130170B796E5E3E453C63AE651997696E8E6C2C3
S11301808426EB898C9B62ED407C6FFCEFBC9C9FCA
S113019040F2BAA56FA5F490055A2AF75C936B6CEC
S11301A0F9676DC11BFCE0E40D47FEF520E6B500E0
S11301B0D0ED902E0300943577050080841E08004E
S11301C000204E0A000000C80C333333330F986EFE
S11301D012831141EF8D2114893BE65516CFFEE6BB
S11301E0DB18D1844B381BF77C1D901DA4BBE42481
S11301F0203284725E228100C9F124ECA1E53D27FE
S113020016050100000000000000FA000000E000F4
S1130210E00028FE28FE282454FE5448C4C81026B2
S1130220466C92AA44A000A0C0000000384482009A
S1130230008244380028107C102810107C10100014
S11302400A0C00001010101010000606000004082C
S11302501020407C8A92A27C0042FE020042868AE0
S113026092628482A2D28C182848FE08E4A2A2A238
S11302709C3C5292920C808E90A0C06C9292926C94
S11302806092929478006C6C0000006A6C0000101C
S113029028448200282828282800824428104080E6
S11302A08A90604C929E827C7E8888887EFE9292A0
S11302B0926C7C82828244FE82824438FE929292C4
S11302C082FE909090807C8292925EFE101010FECE
S11302D00082FE8200040282FC80FE10284482FE1A
S11302E002020202FE403040FEFE201008FE7C8224
S11302F082827CFE909090607C828A847AFE9098C0
S11303009462629292928C8080FE8080FC0202024F
S1130310FCF8040204F8FC021C02FCC6281028C6DF
S1130320E0100E10E0868A92A2C200FE8282004093
S113033020100804008282FE002040804020020237
S11303400202020080402000042A2A2A1EFE1222F1
S1130350221C1C222222041C222212FE1C2A2A2ACB
S113036018107E908040304A4A4A7CFE1020201E9D
S11303700022BE0200040222BC00FE081422000077
S113038082FE02003E2018201E3E1020201E1C2249
S113039022221C3E28282810102828183E3E10200F
S11303A02010122A2A2A0420FC2202043C020204FD
S11303B03E38040204383C020C023C221408142285
S11303C0300A0A0A3C22262A322200106C820000DB
S11303D000FE000000826C100008101008100000DD
S11303E00000007F8181817F7F8383837F7F878774
S11303F0877F7F8F8F8F7F7F9F9F9F7F7FBFBFBFB1
S11304007F7FFFFFFF7F2040FF40206215171565A7
S113041000FBFB00000000000000C0FF0300E0FF41
S11304200700F0FF0F00F8FF1F0078001E0078009F
S11304301E0078001E0078001E0078001E00780060
S11304401E0078001E0078001E0078001E000000C8
S113045000000000000080FF0300E0FF0700F0FF41
S11304600F00F8FF1F00F83C1F00783C1E00783C8A
S11304701E00783C1E00783C1E00783C1E00783C30
S11304801E00783C1E00783C1E00783C1E00783C20
S11304901E000000000000000000E0FF0300F0FF69
S11304A00700F8FF0F00F8FF1F00783C1E00783C9F
S11304B01E00783C1E00783C1E00783C1E00783CF0
S11304C01E00783C1E00783C1E00783C1E00783CE0
S11304D01E000000000000000000F8FF0300F8FF09
S11304E00F00F8FF1F00F8FF1F0000001E000000AF
S11304F01E0000801F0000F01F0000FF0F00E0FF3F
S11305000700F0FF0000F80F0000F800000078007A
S1130510000078000000F8FF1F00F8FF1F00F0FF44
S11305201F00E0FF1F000000000000000000F8FFB3
S11305301F00F8FF1F00F8FF1F00F8FF1F007800DE
S11305401E00783C1E00783C1E00783C1E00783C5F
S11305501E00783C1E00783C1E00F87E1F00F8FF49
S11305601F00F0FF0F00E0E70300000000000000A0
S11305703800EEFF6C002A8045003A0047FC03FF78
S11305806CFC83FF3900DEFF0B7CD0810BFCD08137
S11305900BC0D0810BFCD0810B7CDEFF0B0082FFF3
S11305A0397002FF6CF83A0047DC2A8045CCEEFF34
S11305B06CCC000038000000000C00001E0C000091
S11305C01E0000001E0000001E0000001E00F8FFB8
S11305D01F00F8FF1F00F8FF1F00F8FF1F000000B6
S11305E01E0000001E0000001E0000001E0000008F
S11305F05E000000400000007C000000400000009D
S1130600400000007C0000003000000010000000EA
S1130610300000007C0011241FBECFEFD8E0DEBF05
S1130620CDBF11E0A0E0B1E0E0ECFBE402C0059036
S11306300D92AA36B107D9F722E0AAE6B1E001C0CB
S11306401D92A638B207E1F70E94A3030C94DE259D
S11306500C9400008FE00E94490A882311F082E084
S113066003C00E94980381E0992708958FE00E94B7
S1130670570A882319F480E090E0089580917A0065
S1130680806480937A0080917A008295869586951D
S1130690837080FDF8CF20917800809179009927AC
S11306A0982F88273327822B932B0895ECE7F0E0CB
S11306B090819F738295880F880F807C982B9083FC
S11306C00895582F80910001652F77278830D0F442
S11306D040917E0021E030E0F90102C0EE0FFF1FDF
S11306E08A95E2F7CF018095842380937E008091E0
S11306F07E0002C0220F331F6A95E2F7822B80939B
S11307007E000CC020917E0081E090E002C0880F42
S1130710991F6A95E2F7282B20937E0050930001DD
S113072080917C00807E5F71852B80937C0008958E
S11307308FE180937C00EAE7F0E087E080838081AA
S11307408068808308950E941D0C0E940F0C0E94F3
S1130750A71A80E090E008951F93CF93DF9385E07C
S11307600E94570A8823D1F060E080E40E94AF041D
S1130770C0E0D0E060E08C2F0E945A0410E061E0F9
S113078080E00E94AF041F5F1038C9F72196C4307F
S1130790D10581F760E083E00E949D04DF91CF9151
S11307A01F9108950F931F9385E00E94490A88239F
S11307B011F082E07BC00E94FC04182F0E94CC0A36
S11307C01150123008F06EC08150823008F06AC0B7
S11307D00E94CA0460E08EEA0E94AF0460E082EAEC
S11307E00E94AF0460E080EA0E94AF0400E513ECCD
S11307F0C8010197F1F760E080EC0E94AF0460E06B
S11308008FE20E94AF0460E081E80E94AF0460E0E0
S113081086E10E94AF0460E082E20E94AF04C80156
S11308200197F1F760E08FEA0E94AF0460E086EA86
S11308300E94AF0460E085EA0E94AF0420E030E04B
S1130840E8E8F3E1CF010197F1F72F5F3F4F93E021
S1130850283E3907B9F760E083EB0E94AF0460E0FB
S113086080E40E94AF0460E083E00E945A0460E0E8
S113087083E00E949D0410921E02109220021092A6
S11308801F0285E091E0909383028093820288E1C5
S11308900E947C040E94AC0360E084EA0E94AF04DE
S11308A081E004C085E00E94380A87E099271F91FF
S11308B00F910895FF920F931F93082FF62E85E052
S11308C00E94570A8823A1F01F2D1F77037060E050
S11308D0802F806B0E94AF0412951F7060E0812FFF
S11308E080610E94AF0460E08F2D8F700E94AF047E
S11308F01F910F91FF9008951F93182F85E00E9478
S1130900570A8823C1F087E00E943F056AE082E02D
S11309100E949E0561EB82E00E949E05612F1132C8
S113092008F060E282E00E949E0589EE8A95F1F764
S113093087E00E943F051F9108950F931F93082F8E
S1130940162F85E00E94570A882331F003701F7721
S113095010931C0200931D021F910F9108950F9391
S11309601F93082F162F85E00E94570A882379F0D9
S1130970112319F0113021F402C02B9801C02B9AD5
S113098086E08A95F1F7602F80E00E949E051F9112
S11309900F910895239A089586E00E94490A8823B6
S11309A011F082E003C00E94E40481E099270895D5
S11309B01F93182F86E00E94570A882319F0812F6D
S11309C00E94ED041F910895559A569A80E20E9460
S11309D0230F80E40E94230F0895282F332725FF37
S11309E004C08BB190E289278BB926FF04C08BB178
S11309F090E489278BB9089582E00E94490A8823EC
S1130A0011F082E031C00E94AD0568EB7FE080E028
S1130A100E94360560EB7FE081E00E94360568EABB
S1130A207FE082E00E94360567E97FE086E00E946D
S1130A30360560EA7FE083E00E94360560EA7FE0E5
S1130A4084E00E94360560EA7FE085E00E94360576
S1130A5060EA7FE087E00E9436058FEF80932102F1
S1130A6087E00E943F0581E099270895E82FFF273A
S1130A70EE0FFF1FE754FE4F7183608308951F93A9
S1130A80182F82E00E94570A882309F455C0912F39
S1130A90977080912102981709F44EC09093210217
S1130AA085B1887F892B85B9933051F1943028F42E
S1130AB0913051F09230B0F40EC0953079F1953008
S1130AC030F1963091F515C0E091BB01F091BC0175
S1130AD0309791F130C0E091B901F091BA013097AB
S1130AE059F129C0E091BD01F091BE01309721F187
S1130AF022C0E091C501F091C6013097E9F01BC016
S1130B00E091BF01F091C0013097B1F014C0E091C1
S1130B10C101F091C201309779F00DC0E091C30199
S1130B20F091C401309741F006C0E091C701F09103
S1130B30C801309709F009951F9108951F93162F46
S1130B400E943F0582E00E94570A882321F01EBDBF
S1130B500DB407FEFDCF1F910895259A2698279A74
S1130B60209A219A229A08952F923F924F925F924F
S1130B706F927F928F929F92AF92BF92CF92DF92A9
S1130B80EF92FF920F931F93CF93DF93CDB7DEB70E
S1130B9022970FB6F894DEBF0FBECDBF382E962E27
S1130BA0242E290138011C2DBA82A982B82C6B8D00
S1130BB07C8DAD8C81E0981609F1981628F092E0AE
S1130BC0991609F062C039C0B70180E00E94C807D5
S1130BD049E5C42E42E0D42E31E0E32E012F9301E7
S1130BE0A201622D80E00E948308332009F04DC0E9
S1130BF089819A819F938F931F9219C081E00E94EB
S1130C00C80729E5C22E22E0D22E91E0E92E0A2D52
S1130C10298D3A8D4F89588D682D81E00E94830873
S1130C20332099F58E8D9F8D9F938F939F920E9471
S1130C30BF090F900F900F9028C0C7010E94E907C9
S1130C4089E592E09F938F9381E0882EC98CDA8C9A
S1130C50EF88F88C0B2D212FA301B201822D0E9465
S1130C6015090F900F90332081F48E8D9F8D9F93E3
S1130C708F9389819A819F938F939F920E94BF093A
S1130C800F900F900F900F900F9022960FB6F8943C
S1130C90DEBF0FBECDBFDF91CF911F910F91FF90AB
S1130CA0EF90DF90CF90BF90AF909F908F907F9008
S1130CB06F905F904F903F902F9008958F929F92E6
S1130CC0AF92BF92CF92DF92EF92FF920F931F9356
S1130CD0CF93DF93CDB7DEB7562F942EAC2DEF858F
S1130CE0F889C988DA886B897C894D898130C1F19A
S1130CF0813030F1823009F04CC0513071F0513004
S1130D0020F0523009F045C011C0B70180E00E94C4
S1130D10C807A801692D80E006C081E00E94C807C9
S1130D20A601682D81E00E944C0733C0C7010E94D0
S1130D30E9079601482DB801892D0E94630729C04F
S1130D408E899F899F938F934F937F936F93DF92A5
S1130D50CF92FF93EF93CA2E492D652F80E00FC0E9
S1130D601F921F924F937F936F93DF92CF92FF93C3
S1130D70EF93AA24BB24CA2E492D652F81E00E943B
S1130D80B4058DB79EB709960FB6F8949EBF0FBEF3
S1130D908DBFDF91CF911F910F91FF90EF90DF9066
S1130DA0CF90BF90AF909F908F90089587E00E945E
S1130DB0490A882311F082E06DC00E942E0A81E066
S1130DC0809358021092220210922302109225025C
S1130DD010922402109227021092260210922902E5
S1130DE01092280210922B0210922A0210922D02C5
S1130DF010922C0210922F0210922E0210923102A5
S1130E001092300210923302109232021092350284
S1130E101092340210923702109236021092390264
S1130E201092380210923B0210923A021092400241
S1130E301092410210924202109243021092450213
S1130E4010924602109247021092480210924902F0
S1130E5010924A0210924B0210924D0210924C02D0
S1130E6010924F0210924E021092510210925002B0
S1130E70109253021092520210923D0210923C02C0
S1130E8010923F0210923E021092570210925602A4
S1130E901092580299270895EF92FF920F931F938F
S1130EA0182F062F7A0160E00E942408602F812FFA
S1130EB00E940508B701812F0E9439081F910F91E4
S1130EC0FF90EF900895CF92DF92EF92FF920F93ED
S1130ED01F93C82E7B01D42E890160E082E00E941A
S1130EE024086D2D8C2D0E941A08B801C7010E9498
S1130EF065081F910F91FF90EF90DF90CF900895B8
S1130F002EEF8037920714F480E79EEF9C0181E076
S1130F102139380714F020E931E08EEF6037780783
S1130F2014F460E77EEF81E06139780714F060E93A
S1130F3071E091E0909358021092450237FD02C08F
S1130F40909345028091450289278093450210922F
S1130F50460277FD02C0909346028091460289279B
S1130F6080934602C90137FF03C0909581959F4F36
S1130F70909325028093240277FF03C070956195B6
S1130F807F4F7093270260932602109258020895AF
S1130F90982F81E08093580283E0693E780710F02F
S1130FA068EE73E0913071F0913018F0923071F482
S1130FB005C070932D0260932C0208C070932D021B
S1130FC060932C0270932F0260932E0210925802A9
S1130FD0089521E020935802F89423E0893E920773
S1130FE010F088EE93E090932D0280932C0283E01E
S1130FF0693E780710F068EE73E070932F026093F7
S11310002E027894109258020895982F81E08093CC
S11310105802913051F0913018F0923041F403C0ED
S11310206093450204C060934502609346021092A7
S11310305802089591E0909358028093450260937A
S11310404602109258020895982F81E08093580226
S1131050913051F0913018F0923041F403C0609314
S1131060220204C060932202609323021092580269
S11310700895982F81E08093580281E061397807C0
S113108010F060E971E0913061F0913018F0923025
S1131090C9F40EC0F89470932502609324027894E6
S11310A011C0F894709327026093260278940AC0C2
S11310B0F89470932502609324027093270260933E
S11310C0260278941092580208959C0181E080933E
S11310D05802F89481E06139780710F060E971E012
S11310E07093270260932602C90121E08139920797
S11310F010F080E991E09093250280932402789483
S11311001092580208958F929F92AF92BF92CF92FD
S1131110DF92EF92FF920F931F93CF93DF93182FD9
S1131120F62E4A015901E60187E00E94570A8823F6
S113113009F46EC061E0812F0E942408A501B40166
S1131140812F0E94AA116F2D812F0E940508602F04
S1131150812F0E949511B401812F0E946C11CD281A
S113116099F0113049F0113018F0123069F406C0CA
S113117018821092540208C0198204C0188219827D
S11311801092540210925502D0935702C093560203
S1131190EE20B9F58AE691E09093570280935602C7
S11311A0B501812F0E943908812F0E9457111130F7
S11311B071F0113018F0123059F512C010926A0112
S11311C01092540280916A01882311F5FBCF10928A
S11311D06B011092550280916B018823C9F4FBCFF7
S11311E010926A0110926B011092540210925502EF
S11311F080916A018823E1F380916B018823C1F314
S113120007C0B501812F0E943908812F0E94571110
S1131210DF91CF911F910F91FF90EF90DF90CF90CE
S1131220BF90AF909F908F9008953F924F925F929E
S11312306F927F928F929F92AF92BF92CF92DF92E2
S1131240EF92FF920F931F93CF93DF93CDB7DEB747
S1131250382E2B013A01922EB02E0C891D8987E07D
S11312600E94570A882309F453C061E082E00E9477
S11312702408A301B20180E00E94AA11A601B701CB
S113128081E00E94AA116B2D832D0E941A08692DFA
S113129080E00E9495116A2D81E00E949511B701AA
S11312A0C2010E9487110115110539F0F80110825D
S11312B01182109254021092550210935702009317
S11312C056028820F1F48CE691E0909357028093C3
S11312D05602B601C3010E94650882E00E945711BC
S11312E010926C0110926D011092540210925502EA
S11312F080916C018823E1F380916D018823C1F30F
S113130007C0B601C3010E94650882E00E9457111C
S1131310DF91CF911F910F91FF90EF90DF90CF90CD
S1131320BF90AF909F908F907F906F905F904F9001
S11313303F9008950F931F93182F062F662349F4A7
S113134060E070E00E94390860E070E0812F0E9444
S11313506C1181E080935802113051F0113018F073
S1131360123041F403C00093400204C000934002D1
S113137000934102109258021F910F910895CF9249
S1131380DF92EF92FF920F931F93CF93DF93CDB72A
S1131390DEB722970FB6F894DEBF0FBECDBF1D8512
S11313A087E00E94570A882309F449C0113099F054
S11313B0113020F0123009F042C01BC0CE0140961B
S11313C09A838983EE85FF85809159028823E1F30E
S11313D03097A9F10CC0CE0140969A838983EE859B
S11313E0FF8580915A028823E1F3309741F10995F2
S11313F026C0CE84DF84CE0142969A838983E8880E
S1131400F98800E010E0002351F480915902882308
S113141031F0C114D10411F0F601099501E0112352
S113142051F480915A02882331F0E114F10411F04F
S1131430F701099511E0002331F3112321F32296DA
S11314400FB6F894DEBF0FBECDBFDF91CF911F91D1
S11314500F91FF90EF90DF90CF9008953A9A3B9AC6
S11314603C9A3D9A3E9A3F9A88B1837088B9089510
S1131470853160F4E82FFF27E95FFD4F80818823E1
S113148029F0808181508083808101C08FEF99276A
S11314900895853110F080E008C0E82FFF27E95F48
S11314A0FD4F80818F5F8083815099270895853116
S11314B010F080E007C0E82FFF27E95FFD4F80812F
S11314C0811181E0992708951F93182F80916F014E
S11314D0882341F080917601882399F010926F015E
S11314E0109276010E949A0A80936E0128E230E0FD
S11314F040E061E080E791E00E94670B81E0809327
S11315006F0190916E01133018F0133079F409C013
S1131510E12FFF27EF5FFE4F8081892341F081E0B7
S113152006C091FF03C0892F817001C080E0992714
S11315301F9108950F931F9381E00E94570A8823F7
S113154011F400E024C087E00E943F056AE082E0D5
S11315500E949E0562EB82E00E949E0518EC812F9A
S11315608A95F1F760E082E00E94C00F082F812F76
S11315708A95F1F760E082E00E94C00F1A95F1F7B6
S113158087E00E943F0588E893E10197F1F7802FF7
S113159099271F910F910895CF93DF93CDB7DEB7AD
S11315A023970FB6F894DEBF0FBECDBF81E00E9433
S11315B0490A882311F082E011C00E94FC04815082
S11315C0823040F40E94F80ACE0101960E94FE1176
S11315D081E004C081E00E94380A87E099272396BD
S11315E00FB6F894DEBF0FBECDBFDF91CF91089543
S11315F01092700210926F02109272021092710295
S11316001092740210927302109276021092750274
S1131610109278021092770280E991E090935C0234
S113162080935B0290935E0280935D0290936002CC
S113163080935F02909362028093610290936402AC
S11316408093630284E398E090936602809365023A
S1131650909368028093670290936A028093690270
S113166090936C0280936B0290936E0280936D0250
S113167008950F931F93CF93DF93CDB7DEB72997C8
S11316800FB6F894DEBF0FBECDBF8C0188E00E9478
S1131690570A882311F491E00DC0980140E061E0FD
S11316A0CE0101960E94670B982F882319F48F812D
S11316B08823E9F3892F992729960FB6F894DEBF7A
S11316C00FBECDBFDF91CF911F910F910895EF927F
S11316D0FF920F931F93CF93DF93EC01F62EE42E2A
S11316E0890188E00E94570A882311F481E026C00A
S11316F084E090E00E94FD22FC01892B11F482E039
S11317001DC0F982F0FC1E8281E0E81619F489817B
S1131710846089838981886089831B830A831D830C
S11317200C83D183C0831382128281E08093D90118
S1131730CF010E94A60B1092D90180E09927DF9176
S1131740CF911F910F91FF90EF900895CF92DF9268
S1131750EF92FF920F931F93CF93DF93EC0180914D
S11317607902882339F4D0937B02C0937A020E94D1
S1131770581247C0C0907A02D0907B0200E010E07B
S1131780EE24FF2429C0A881B981FD0164817581FB
S1131790F60140815181FA01848195819B01281BC6
S11317A0390B37FF0AC0861B970B95838483DB8232
S11317B0CA82012BF1F0F70122C0F60182819381E4
S11317C02115310581F0FD01358324830097B1F0A3
S11317D00F5F1F4F76016C018091790299270817DA
S11317E0190788F20BC0FD01158214829B838A833A
S11317F005C0D0937B02C0937A0203C0F601D38361
S1131800C283809179028F5F80937902DF91CF91B7
S11318101F910F91FF90EF90DF90CF9008950E9459
S1131820E7110E94350F0E945D0E0E943B120E9438
S1131830FC040E94CC0A78940895000008951F9235
S11318400F920FB60F9211242F933F934F935F93F0
S11318506F937F938F939F93AF93BF93EF93FF9374
S1131860E0919901F0919A01309709F00995FF915F
S1131870EF91BF91AF919F918F917F916F915F9104
S11318804F913F912F910F900FBE0F901F9018957D
S11318901F920F920FB60F9211242F933F934F93E1
S11318A05F936F937F938F939F93AF93BF93EF93C4
S11318B0FF93E0919B01F0919C01309709F0099509
S11318C0FF91EF91BF91AF919F918F917F916F9114
S11318D05F914F913F912F910F900FBE0F901F90EA
S11318E018951F920F920FB60F9211242F933F93C6
S11318F04F935F936F937F938F939F93AF93BF9314
S1131900EF93FF93E0919D01F0919E01309709F0D0
S11319100995FF91EF91BF91AF919F918F917F9125
S11319206F915F914F913F912F910F900FBE0F9048
S11319301F9018951F920F920FB60F9211242F9398
S11319403F934F935F936F937F938F939F93AF9343
S1131950BF93EF93FF93E0918B01F0918C0130974B
S113196009F00995FF91EF91BF91AF919F918F91EC
S11319707F916F915F914F913F912F910F900FBE87
S11319800F901F9018951F920F920FB60F9211246B
S11319902F933F934F935F936F937F938F939F9373
S11319A0AF93BF93EF93FF93E0918D01F0918E017C
S11319B0309709F00995FF91EF91BF91AF919F91F5
S11319C08F917F916F915F914F913F912F910F90E4
S11319D00FBE0F901F9018951F920F920FB60F9283
S11319E011242F933F934F935F936F937F938F9320
S11319F09F93AF93BF93EF93FF93E0918F01F09187
S1131A009001309709F00995FF91EF91BF91AF9143
S1131A109F918F917F916F915F914F913F912F9102
S1131A200F900FBE0F901F9018951F920F920FB634
S1131A300F9211242F933F934F935F936F937F9350
S1131A408F939F93AF93BF93EF93FF93E091930191
S1131A50F0919401309709F00995FF91EF91BF91AE
S1131A60AF919F918F917F916F915F914F913F9132
S1131A702F910F900FBE0F901F9018951F920F92E9
S1131A800FB60F9211242F933F934F935F936F934D
S1131A907F938F939F93AF93BF93EF93FF93E091C3
S1131AA09501F0919601309709F00995FF91EF9116
S1131AB0BF91AF919F918F917F916F915F914F9162
S1131AC03F912F910F900FBE0F901F9018951F926A
S1131AD00F920FB60F9211242F933F934F935F935E
S1131AE06F937F938F939F93AF93BF93EF93FF93E2
S1131AF0E0919101F0919201309709F00995FF91DD
S1131B00EF91BF91AF919F918F917F916F915F9171
S1131B104F913F912F910F900FBE0F901F901895EA
S1131B201F920F920FB60F9211242F933F934F934E
S1131B305F936F937F938F939F93AF93BF93EF9331
S1131B40FF93E0919701F0919801309709F009957E
S1131B50FF91EF91BF91AF919F918F917F916F9181
S1131B605F914F913F912F910F900FBE0F901F9057
S1131B7018951F920F920FB60F9211242F933F9333
S1131B804F935F936F937F938F939F93AF93BF9381
S1131B90EF93FF93E0918101F0918201309709F076
S1131BA00995FF91EF91BF91AF919F918F917F9193
S1131BB06F915F914F913F912F910F900FBE0F90B6
S1131BC01F9018951F920F920FB60F9211242F9306
S1131BD03F934F935F936F937F938F939F93AF93B1
S1131BE0BF93EF93FF93E0918301F09184013097C9
S1131BF009F00995FF91EF91BF91AF919F918F915A
S1131C007F916F915F914F913F912F910F900FBEF4
S1131C100F901F9018951F920F920FB60F921124D8
S1131C202F933F934F935F936F937F938F939F93E0
S1131C30AF93BF93EF93FF93E0918501F0918601F9
S1131C40309709F00995FF91EF91BF91AF919F9162
S1131C508F917F916F915F914F913F912F910F9051
S1131C600FBE0F901F9018951F920F920FB60F92F0
S1131C7011242F933F934F935F936F937F938F938D
S1131C809F93AF93BF93EF93FF93E0918701F091FC
S1131C908801309709F00995FF91EF91BF91AF91B9
S1131CA09F918F917F916F915F914F913F912F9170
S1131CB00F900FBE0F901F90189580E10E94490A63
S1131CC0882311F082E009C0E9E7F1E01192119252
S1131CD081E0E93BF807D1F781E0992708950F9354
S1131CE01F93CF93DF93082F11278A3091F08B3005
S1131CF040F4883091F1893020F5873009F049C0EB
S1131D0037C08D3049F08B3181F08C3009F041C0FF
S1131D1006C010921C0203C010921C027AC080916B
S1131D201D02815080931D0274C00E94AC037DC0CB
S1131D3061E080E00E94AF0480911C028F5F809379
S1131D401C0280911C0287FFF3CF10921C02809129
S1131D501D02815080931D0268C080911C0288235B
S1131D6009F457C080911C02865080931C0251C014
S1131D7081E00E94A81024E630E04DE750E064EFD3
S1131D8071E080E090E00E94B51081E00E94F90FBC
S1131D9040C060911C0280911D020E945A04E80117
S1131DA0CC0FDD1FCC0FDD1FC00FD11FCD59DE4F6F
S1131DB010E0FE01849161E00E94AF041F5F219650
S1131DC01530B9F761E080E00E94AF0480911C02F5
S1131DD08A5F80931C0280911C0299278C3791059D
S1131DE03CF010921C0280911D02815080931D02D0
S1131DF080911D02837080931D0280911E028130A8
S1131E00D9F4E0911F02F09120023097A9F00995CE
S1131E1013C060911C0280911D020E945A0480919B
S1131E201D02837080931D0207C060911C02809183
S1131E301D020E945A04DCCF80E090E0DF91CF9134
S1131E401F910F9108951F93182F86E00E94570A3F
S1131E50882319F0812F0E942F0F1F91089599272D
S1131E6085FD5D9886FD5E980895F8940E94940F10
S1131E7081E00E943E0F81E090E00895813071F08E
S1131E80F894813059F0813030F08230C9F08330D9
S1131E9009F046C01AC080E090E020C02C9A80E887
S1131EA0809361001092610080E090E00000019650
S1131EB088329105D9F71092680010926B0008954A
S1131EC080E88093610083E004C080E8809361002F
S1131ED088E08093610026C0000001962DE68036DC
S1131EE09207D1F72C9880E090E0000001962DE64F
S1131EF080369207D1F710927A008FEF80936400B6
S1131F008091680081608093680080916B00846098
S1131F1080936B00789483B7816083BF889508951C
S1131F20823008F078940895249A2C9A089583E5D1
S1131F308CBD81E08DBD84EF91E00197F1F70895A8
S1131F4083E58CBD81E08DBD8DE08A95F1F7089520
S1131F5083E58CBD1DBC84EF91E00197F1F70895F2
S1131F608FE78CBD1DBC84EF91E00197F1F70895D4
S1131F7083E58CBD81E08DBD8DE08A95F1F70895F0
S1131F801F93162F0E943F0582E00E94570A882360
S1131F9029F01EBD0DB407FEFDCF8EB599271F9104
S1131FA008958AE00E94380A882329F481E00E9477
S1131FB00B111092CA01089589E00E94380A8823FF
S1131FC0B9F48091C901882311F00E94511182E073
S1131FD00E940B118091D7019091D801009731F0A4
S1131FE00E9492231092D8011092D7011092C90135
S1131FF00895813029F0823029F40E94DC0F08957D
S11320000E94D10F0895CF92DF92EF92FF920F9327
S11320101F93CF93DF9380E291E00E94FD22EC01B5
S11320209093D8018093D701892B11F480E044C0A8
S1132030CC24DD24EE24FF248701C801B7010E94CB
S1132040961FD7FE06C020E030E040E857E40E9427
S1132050801E20E030E040EA51E40E94EC1E27EFAD
S113206035E740E05FE30E9464209B01AC0160E03F
S113207070E080E291E40E94D1202DEC3CEC42E837
S113208051E40E9464200E9427202AE030E040E0CE
S113209050E00E947A2269937993899399930894E2
S11320A0C11CD11C0894E11CF11C011D111D88E404
S11320B0C816D10411F681E09927DF91CF911F91C1
S11320C00F91FF90EF90DF90CF9008958AE00E94E7
S11320D0490A882311F082E00AC01092D4011092B8
S11320E0D30181E00E94271181E08093CA019927DE
S11320F008951F9389E00E94490A882311F082E021
S113210024C08BE00E94570A8823D9F40E9403104C
S1132110182F813011F086E018C01092CB01109274
S1132120CC011092CD011092CE016EE872E18DE0E7
S11321300E946B1282E00E9427111093C90181E072
S113214004C089E00E94380A87E099271F91089506
S1132150813021F0823029F084E005C00E946610AD
S113216002C00E947910992708956F927F928F92EE
S11321709F92AF92BF92CF92DF92EF92FF920F9312
S11321801F93CF93DF933B014C015A01E9018AE08D
S11321900E94570A882381F1209741F1B5018827CD
S11321A077FD8095982F9E01C536D10510F024E661
S11321B030E0442755270E947A2224E630E040E0AC
S11321C050E00E948A2279018A01C401B3010E946D
S11321D09112C7010E94390B60E070E080E090E04A
S11321E00E949112C5018E199F0904C0A114B10463
S11321F019F0C5010E94390BDF91CF911F910F9106
S1132200FF90EF90DF90CF90BF90AF909F908F9012
S11322107F906F900895823029F4809181008E7FA1
S1132220809381008091C901813031F48091CA0189
S1132230813011F4000008958091C901813021F0AA
S11322408091CA01813011F45F9857980895982FAE
S11322508091C901882331F48091CA01882311F443
S1132260579A5F988091C9018823D1F49230C1F4C0
S11322701092800010928100809181008860809388
S1132280810080918100816080938100109285009B
S11322901092840081E08093890080E98093880013
S11322A00895EFE6F0E080818D7F80830895982F74
S11322B081E080935802913051F0913018F09230BF
S11322C041F403C01092400204C0109240021092E4
S11322D04102109258020895982F81E08093580289
S11322E0913071F0913018F0923071F405C0709310
S11322F035026093340208C070933502609334024F
S1132300709337026093360210925802089521E0C8
S113231020935802909335028093340270933702CD
S113232060933602109258020895982F81E08093AA
S11323305802913051F0913018F0923041F403C0BA
S11323406093420204C0609342026093430210927D
S1132350580208950F931F93CF93DF938B01EA01E3
S1132360813031F1813018F0823061F513C08091F1
S11323702C0290912D02892B11F080E008C010925C
S11323803902109238021EC0AE01B80181E00E94E9
S1132390F61218C080912C0290912D02892B21F005
S11323A080E00E94F61204C01092390210923802A2
S11323B080912E0290912F02892B31F710923B02CB
S11323C010923A02DF91CF911F910F910895CF930C
S11323D0DF93C0E0D0E060E08C2F0E94F6112196DC
S11323E0C531D105C1F7DF91CF910895853128F426
S11323F0E82FFF27E95FFD4F608308951F93CF9374
S1132400DF93EC01892B99F181E00E94570A88231C
S113241051F187E00E943F0518EC812F8A95F1F76E
S11324206AE082E00E949E0564EB82E00E949E05C1
S1132430812F8A95F1F760E082E00E94C00F8883C3
S1132440812F8A95F1F760E082E00E94C00F8983B2
S11324501A95F1F760E082E00E94C00F8A8387E05A
S11324600E943F0504C0188219828DE28A83DF919D
S1132470CF911F91089588E00E94490A882311F0A2
S113248082E014C01092790210927B0210927A02B8
S11324901092D9011092DA0161E673E180E10E94A1
S11324A07E120E945C120E94651281E099270895B1
S11324B081E08093DA01089584B5826084BD85B596
S11324C0846085BD8EE487BD0895EEE6F0E08081EA
S11324D0826080830895E82F803268F480518330CD
S11324E050F0FF27EE0FFF1FE758FE4F80819181C8
S11324F071836083089580E090E00895803218F03D
S113250080E090E00895E82FFF27EE0FFF1FE758C3
S1132510FE4F808191817183608308950E94B5127A
S11325200895EF92FF920F931F937B018C018AE031
S11325300E94570A8823A1F08091CA01882381F060
S1132540D801C701880F991FAA1FBB1F9093D601FA
S11325508093D501E114F1040105110509F45F9894
S11325601F910F91FF90EF9008958091CB0190916E
S1132570CC01A091CD01B091CE012091CF01309139
S1132580D0014091D1015091D201820F931FA41F19
S1132590B51F8093CB019093CC01A093CD01B09350
S11325A0CE018091CB019091CC01A091CD01B0914D
S11325B0CE018851964FA040B040BCF08BB18058FA
S11325C08BB98091CB019091CC01A091CD01B091B8
S11325D0CE018851964FA040B0408093CB01909398
S11325E0CC01A093CD01B093CE010895EF92FF9258
S11325F00F931F93CF93DF93EB01882321F0813056
S113260009F058C02CC0CA019C0144275527CA01AF
S1132610B9010E947A2220912C0230912D02220FBE
S1132620331F442755270E948A2279018A01220FE9
S1132630331F441F551FCE01AA27BB2782179307B8
S1132640A407B50728F0F0923902E092380232C0AC
S1132650D695C795D0933902C09338022BC0CA01CE
S11326609C0144275527CA01B9010E947A2220916E
S11326702E0230912F02220F331F442755270E9428
S11326808A2279018A01220F331F441F551FCE016C
S1132690AA27BB2782179307A407B50728F0F0924F
S11326A03B02E0923A0206C0D695C795D0933B020E
S11326B0C0933A02DF91CF911F910F91FF90EF9059
S11326C008950E9468130E94A9130E94821308951A
S11326D088E00E94570A882311F484E011C0809195
S11326E0DA01882311F483E00BC08091D901882397
S11326F011F082E005C00E94F4158130E1F380E01E
S1132700992708958091CA01813011F58091D301F0
S11327109091D4012091D5013091D601820F931F5D
S11327209093D4018093D3018091D3019091D401EB
S1132730885E93406CF08BB180588BB98091D30143
S11327409091D401885E93409093D4018093D301F7
S1132750089587E00E94570A882309F4AAC080914B
S11327602C0290912D02892B09F1809150029091B5
S1132770510220912C0230912D02820F931F9093CD
S11327805102809350028091500290915102885ED0
S11327909340A4F08091500290915102885E93403E
S11327A0909351028093500241E009C08091240229
S11327B090912502909329028093280240E0809111
S11327C02E0290912F02892B09F18091520290914F
S11327D0530220912E0230912F02820F931F909367
S11327E05302809352028091520290915302885E68
S11327F09340A4F08091520290915302885E9340DA
S1132800909353028093520261E009C080912602A2
S11328109091270290932B0280932A0260E0842FE8
S11328200E945A1480914C0290914D0220912802EA
S113283030912902820F931F90934D0280934C0292
S113284080914C0290914D02885E934014F440E0D4
S11328500BC080914C0290914D02885E93409093FE
S11328604D0280934C0241E080914E0290914F02C0
S113287020912A0230912B02820F931F90934F02D2
S113288080934E0280914E0290914F02885E934055
S113289014F460E00BC080914E0290914F02885E68
S11328A0934090934F0280934E0261E0842F0E94E4
S11328B09F1408958823F1F0209124023091250279
S11328C08091280290912902281B390B12161306B5
S11328D034F48091280290912902019607C0232B99
S11328E049F080912802909129020197909329023E
S11328F080932802662311F1209126023091270249
S113290080912A0290912B02281B390B1216130670
S113291054F480912A0290912B02019690932B02F9
S113292080932A020895232B49F080912A029091E2
S11329302B02019790932B0280932A0208950F9300
S11329401F93082F162F80915802882309F0E3C0A3
S113295080914002882309F05AC080912802909106
S11329602902892BE9F48091DB01837E8093DB01CA
S11329701092490280915402882309F45BC060914B
S1132980420280E00E949A09E0915602F0915702B7
S1132990309709F44FC081E08083109254024AC0FA
S11329A080912202813041F4809134029091350269
S11329B0019711F401E002C00023E1F19091DB01E1
S11329C0937EE0914702FF27ED5EFE4F8081982BB6
S11329D09093DB0180914502882321F48091470282
S11329E08F5F03C08091470281508093470280919A
S11329F0470283708093470281E08093490280916B
S1132A0022028130B9F480E00E949E1513C0909197
S1132A10DB01937EE0914702FF27ED5EFE4F80814C
S1132A20982B9093DB0182E0809349021092290253
S1132A301092280280914102882309F059C08091A4
S1132A402A0290912B02892BE9F48091DB018F718A
S1132A508093DB0110924A0280915502882309F485
S1132A605AC06091430281E00E949A09E0915602A3
S1132A70F0915702309709F44EC081E0818310929F
S1132A80550249C080912302813041F4809136027D
S1132A9090913702019711F411E002C01123D9F18A
S1132AA09091DB019F71E0914802FF27E95EFE4FA0
S1132AB08081982B9093DB0180914602882321F436
S1132AC0809148028F5F03C08091480281508093B7
S1132AD048028091480283708093480281E0809389
S1132AE04A02809123028130B1F40E949E1513C0E2
S1132AF09091DB019F71E0914802FF27E95EFE4F50
S1132B008081982B9093DB0182E080934A0210929B
S1132B102B0210922A0280914B02882331F4412F18
S1132B20602F8BED91E00E94631688B183709091C1
S1132B30DB01892B88B91F910F9108951F93182FDA
S1132B40882321F0813009F04DC027C080913402E0
S1132B5090913502892B49F080913402909135028D
S1132B600197909335028093340280915402882314
S1132B70C9F5209134023091350280913802909148
S1132B8039022817390771F560E070E080E00E948F
S1132B90390881E08093540225C0809136029091D7
S1132BA03702892B49F080913602909137020197C0
S1132BB0909337028093360280915502882391F4D2
S1132BC0209136023091370280913A0290913B0273
S1132BD02817390739F460E070E081E00E94390871
S1132BE0109355021F910895FF920F931F93CF9353
S1132BF0DF9380917902882309F459C000917A0205
S1132C0010917B02F801C081D1818C819D81019753
S1132C109D838C83181619060CF449C0898180FFA2
S1132C2005C08E81882311F481E08E83898181FF20
S1132C3003C0EF81F8850995809179028230A8F06C
S1132C40F8018281938190937B0280937A021382AC
S1132C501282E0910000F0910100848195811816A0
S1132C6019063CF081E0F82E05C010927B02109208
S1132C707A02FF24809179028150809379028091B5
S1132C807902882311F40E946016898182FF08C0AA
S1132C908A819B819D838C83C8010E94A60B08C0F6
S1132CA0C8010E94922389818F7E898301C0FF24F9
S1132CB08F2D9927DF91CF911F910F91FF90089548
S1132CC01092DA010895FC0180914902823069F47E
S1132CD08091DF0191E089278093DF01882309F047
S1132CE03EC08081837E80833AC080912802909187
S1132CF02902C397A4F56623D1F0209128023091CC
S1132D00290280E690E0BC01269FC001279F900D18
S1132D10369F900D1124880F892F881F990B90934B
S1132D203D0280933C0281E08093DD0118C08091D4
S1132D30DD018823A1F080913C0290913D0201972E
S1132D4090933D0280933C0280913C0290913D021D
S1132D50892B29F48081837E80831092DD01809108
S1132D604A02823069F48091DE0191E089278093E0
S1132D70DE01882309F03EC080818F71808308952D
S1132D8080912A0290912B02C397A4F54423D1F099
S1132D9020912A0230912B0280E690E0AC01249F1E
S1132DA0C001259F900D349F900D1124880F892F09
S1132DB0881F990B90933F0280933E0281E0809399
S1132DC0DC0108958091DC018823A1F080913E020A
S1132DD090913F02019790933F0280933E0280912D
S1132DE03E0290913F02892B29F480818F71808368
S1132DF01092DC010895CF93DF93FC013081209180
S1132E00FD01321303C0208121111EC0EC010E9478
S1132E10AC038881813059F038F0823059F0833026
S1132E2061F489E391E00BC081E291E008C08DE296
S1132E3091E005C085E491E002C08FE491E00E9436
S1132E40502588818093FD01DF91CF910895DC01A5
S1132E50FB019C918081981325C011962D913C9182
S1132E6012978181928128173907E1F413962D91E5
S1132E703C911497838194812817390799F4159606
S1132E802D913C911697858196812817390751F425
S1132E9017964D915C9118972781308581E04217F0
S1132EA0530709F080E00895CF93DF93EC019B0171
S1132EB08091FC0181110AC041E061E083EF91E05F
S1132EC00E94670B81E08093FC0111C08091F9019D
S1132ED0882369F080E40E94D80480E00E94640A98
S1132EE0888381E00E94640A89831092F901DF914A
S1132EF0CF910895CF93DF93EC019B018091F20170
S1132F0081110AC041E061E089EE91E00E94670B03
S1132F1081E08093F2013DC08091EF018823C9F1E3
S1132F2080E20E94D80483E00E9461030E94360379
S1132F30BC0180E090E00E94941F20E030E040EA71
S1132F4050E40E94642020E030E040E85AE30E940C
S1132F5064206A837B838C839D8384E00E94610365
S1132F600E943603BC0180E090E00E94941F20E0A0
S1132F7030E040EA50E40E94642020E030E040E881
S1132F805AE30E9464206E837F8388879987109216
S1132F90EF01DF91CF910895CF93DF93EC0180E2AD
S1132FA00E94D80483E00E9461030E943603BC019E
S1132FB080E090E00E94941F20E030E040EA50E47A
S1132FC00E94642020E030E040E85AE30E9464203C
S1132FD06A877B878C879D8784E00E9461030E94B7
S1132FE03603BC0180E090E00E94941F20E030E0B2
S1132FF040EA50E40E94642020E030E040E85AE3D4
S11330000E9464206E877F87888B998BDF91CF9194
S11330100895FC0181E0808388EC90E092838183B1
S11330209483838380E991E0968385839087878363
S113303008954F925F926F927F928F929F92AF9278
S1133040BF92CF92DF92EF92FF920F931F93CF9391
S1133050DF93EC013B01FB01D080F1E0DF124DC0B6
S1133060E3E09E2E988260E082E00E949A091F921B
S11330701F921F92DF92F0E94F2E4F921F92A8ECFD
S11330805A2E5F921F928AEF8F9388248394A12CE7
S1133090B12CC12CB0E9EB2EFF24F39408EC10E022
S11330A02AEF30E041E062E080E00E945E061F9279
S11330B01F921F92DF924F921F925F921F9287E896
S11330C08F9327E830E040E062E080E00E945E06F3
S11330D0988288EC90E09A8389839C838B8380E92F
S11330E091E09E838D8398878F838DB79EB7429698
S11330F00FB6F8949EBF0FBE8DBFF301D180F1E0EF
S1133100DF124EC043E0942E988260E082E00E9479
S11331109A091F921F921F92DF9250E9452E4F92F7
S11331201F9268EC562E5F921F928AEF8F93882429
S11331308394A12CB12CC12C70E9E72EFF24F394C5
S113314008EC10E02AEF30E041E062E080E00E9409
S11331505E061F921F921F92DF924F921F925F9200
S11331601F9287E88F93812C27E830E041E062E0EA
S113317080E00E945E06988288EC90E09A838983BE
S11331809C838B8380E991E09E838D8398878F83D2
S11331908DB79EB742960FB6F8949EBF0FBE8DBFF3
S11331A0F3018181813009F052C0D080F1E0DF1257
S11331B04EC083E0782E788260E082E00E949A0913
S11331C01F921F921F92DF9290E9992E9F921F9255
S11331D028EC622E6F92DF9284EF8F93882483947D
S11331E0A12CB12CC12C30E9E32EFF24F39408EC7C
S11331F010E024EF31E041E062E080E00E945E06EE
S11332001F921F921F92DF929F921F926F921F92A2
S11332108FEA8F93812C2FEA30E041E062E080E076
S11332200E945E06788288EC90E09A8389839C836E
S11332308B8380E991E09E838D8398878F838DB7FC
S11332409EB742960FB6F8949EBF0FBE8DBFDF9116
S1133250CF911F910F91FF90EF90DF90CF90BF908F
S1133260AF909F908F907F906F905F904F90089554
S11332704F925F926F927F928F929F92AF92BF9282
S1133280CF92DF92EF92FF920F931F93CF93DF932E
S1133290CDB7DEB7A0970FB6F894DEBF0FBECDBF93
S11332A08C01DB011A968D909D90AD90BC901D977A
S11332B01E964D905D906D907C9051971A968D91CD
S11332C09D910D90BC91A02D89839A83AB83BC837F
S11332D0DB011E968D919D910D90BC91A02D8D8347
S11332E09E83AF83B887DB0112968D919D910D90DB
S11332F0BC91A02D89879A87AB87BC87DB011A967E
S11333008D919D910D90BC91A02D8D879E87AF8747
S1133310B88BDB0116968D919D910D90BC91A02DDB
S1133320898B9A8BAB8BBC8BDB011E968D919D9107
S11333300D90BC91A02D8D8B9E8BAF8BB88FDB0134
S11333401A968D919D910D90BC91A02D898F9A8F85
S1133350AB8FBC8FDB011E968D919D910D90BC911E
S1133360A02D8D8F9E8FAF8FB8A3FB0162817381D7
S11333708481958126813781408551850E94801EF4
S113338020E030E040E05FE30E9464206B017C01B8
S1133390A3019201C501B4010E94801E20E030E027
S11333A040E05FE30E9464209B01AC0160E070E0B8
S11333B080EA90E40E947F1E2DEC3CEC4CE45EE33A
S11333C00E9464204B015C012D813E814F81588510
S11333D069817A818B819C810E94801E20E030E08B
S11333E040E05FE30E9464209B01AC01C501B4018D
S11333F00E94801E9B01AC01C701B6010E942220DD
S113340018160CF06DC02D893E894F89588D698935
S11334107A898B899C890E947F1E6B017C012D8D8A
S11334203E8D4F8D58A160E070E080EA90E40E94E8
S11334307F1E9B01AC01C701B6010E94EC1E6B010B
S11334407C012D853E854F85588969857A858B85D4
S11334509C850E947F1E4B015C01298D3A8D4B8D0A
S11334605C8D60E070E080EA90E40E947F1E9B0126
S1133470AC01C501B4010E94EC1E9B01AC01C70163
S1133480B6010E947F1E6B017C0182E0D8018C93FF
S113349020E030E040E85FE3C701B6010E94801EEF
S11334A020E030E048E453E40E9464200E945E1F60
S11334B0F80172836183A701960160E070E080E8FF
S11334C09FE30E947F1E20E030E048E453E40E9422
S11334D064200E945E1FD80114967C936E93139708
S11334E0A0960FB6F894DEBF0FBECDBFDF91CF918B
S11334F01F910F91FF90EF90DF90CF90BF90AF900E
S11335009F908F907F906F905F904F900895CF938E
S1133510DF93EC0160EE71E00E942717811114C063
S11335206F8178858D819E810E94E9076B817C8102
S113353089819A810E94800789E0FE01A0EEB1E0B2
S113354001900D928A95E1F7DF91CF910895CF9381
S1133550DF93CDB7DEB762970FB6F894DEBF0FBE28
S1133560CDBF0E94CC040E94D2030E94D6060E94C2
S11335702A0381E00E945603109200021092FF0178
S1133580109202021092010210920402109203029D
S113359010920602109205021092FE018EE591E04F
S11335A00E94502588EB9BE00E94390BCE010196C6
S11335B00E94CC170E94AC036DE770E0CE01019627
S11335C00E9454176AEF70E0CE0101960E947A17A8
S11335D08EEF91E00E940918BE016F5F7F4F8EEF5E
S11335E091E00E943819BE016F5F7F4F8EEF91E02A
S11335F00E9419188EEF91E00E94871A8EEF91E0D5
S11336000E94FB16D9CFA3E1B0E0E9E0FBE10C9402
S1133610B7226C014B012A01FC01178216828381B7
S113362081FF43C3AE014F5F5F4F3A01F6019381BF
S1133630F40193FD859193FF81914F01882309F44F
S113364030C3853239F493FD859193FF81914F0105
S1133650853239F4B60190E00E9418255201250103
S1133660E5CF10E0F12C20E02032A0F48B3269F099
S113367030F4803259F0833269F420612CC08D32E9
S113368039F0803339F4216026C02260246023C0DD
S1133690286021C027FD27C030ED380F3A3078F478
S11336A026FF06C0FAE01F9F300D1124132F13C00C
S11336B04AE0F49E300D1124F32E20620CC08E32A9
S11336C021F426FDEEC2206406C08C3611F4206875
S11336D002C0883641F4F40193FD859193FF8191F2
S11336E04F018111C1CF9BEB980F933018F42061E7
S11336F0805E06C09BE9980F933008F071C12F7E5D
S113370026FF16E02F73322E853619F42064322EEC
S113371008C0863621F4F22FF0683F2E02C0111142
S1133720115037FE07C01C3350F4EE24E394E10E2D
S113373027E00BC0183038F027E017E005C027E079
S11337404CE3E42E02C0212FE12C520144E0A40EEC
S1133750B11CF20160817181828193810E2DA301DC
S11337600E942A242C01098100FF02C003FF07C024
S113377031FC08C032FE09C030E2232E07C02DE21E
S1133780222E04C09BE2292E01C0212C802F8C7094
S113379019F0211068C2A8C237FE0FC0E40C04FF60
S11337A004C08A81813309F4EA941E1474F5F8E0A4
S11337B0FE1578F588E0E82E2CC036FC2AC0812F4F
S11337C090E0841595059CF02CEF42162FEF5206DD
S11337D074F0432D4068342E0AC0E2E0F0E0EC0FB0
S11337E0FD1FE10FF11D8081803319F41150111177
S11337F0F4CF37FE0EC0EE24E394E10E812F90E067
S1133800481659062CF4141904C0EE24E39401C09C
S113381010E037FE06C01414150434F4C2010196F6
S113382005C085E090E002C081E090E0211001969F
S1133830112331F0212F30E02F5F3F4F820F931F70
S11338402F2D30E08217930714F4F81A01C0F12CDD
S1133850832D897049F4FF2039F0B60180E290E0AD
S11338600E941825FA94F7CF222029F0B601822D60
S113387090E00E94182533FC09C0FF2039F0B601FE
S113388080E390E00E941825FA94F7CF37FE5AC0DF
S1133890942D852D57FE02C090E080E0292E382E0D
S11338A020E030E0A2014E1951095D874C87A20146
S11338B0421953095F874E87612F70E044275527CB
S11338C0461B570B598B488B5FEF2516350649F479
S11338D0B6018EE290E02A8B3B8B0E9418253B892F
S11338E02A89421453046CF04C855D8542155305B6
S11338F044F4EE85FF85E20FF31FE60DF71D818189
S113390001C080E351E0251A31082F5F3F4F4889F9
S11339105989241635064CF0B60190E02A8B3B8B6E
S11339200E9418252A893B89CFCF2414350439F401
S11339309A81963318F4953311F404FF81E3B601A8
S113394090E04BC08A81813309F00F7EB60190E08C
S11339500E941825111105C034FC18C085E690E0BA
S113396017C0B6018EE290E00E94182582E0EE2492
S1133970E394E80EF301E80FF11D8081B60190E0B5
S11339800E94182511508E2D91F7E6CF85E490E022
S1133990B6010E94182557FC05C04114510439F49E
S11339A004FF05C05194419451088DE201C08BE29B
S11339B0B60190E00E94182580E39AE0491651046C
S11339C02CF08F5F5AE0451A5108F7CFB60190E00A
S11339D00E941825B601C201C0960E94182557C13D
S11339E0833631F0833779F0833509F058C021C02C
S11339F05201E2E0AE0EB11CF2018081898301E044
S1133A0010E0230114C05201F2E0AF0EB11CF20128
S1133A104080518026FF03C0612F70E002C06FEF29
S1133A207FEFC2012A8B0E940D258C012A892F77F2
S1133A3015C05201F2E0AF0EB11CF201408051807A
S1133A4026FF03C0612F70E002C06FEF7FEFC20159
S1133A502A8B0E9402258C012A892068322E23FD9C
S1133A601AC08F2D90E008171907A8F4B60180E258
S1133A7090E00E941825FA94F4CFF20137FC859166
S1133A8037FE81912F01B60190E00E941825F110B4
S1133A90FA94015011090115110579F7F8C084361B
S1133AA011F0893659F5520127FF09C0F4E0AF0E31
S1133AB0B11CF20160817181828193810AC0F2E0BC
S1133AC0AF0EB11CF20160817181072E000C880BCE
S1133AD0990B2F76322E97FF09C09095809570959B
S1133AE061957F4F8F4F9F4F2068322E2AE030E040
S1133AF0A3010E948025E82EE6183FC0022F8537D7
S1133B0021F40F7E2AE030E01DC0097F8F3691F04A
S1133B1018F4883559F0C5C0803719F0883711F08A
S1133B20C0C0006104FF09C0046007C024FF08C0CE
S1133B30066006C028E030E005C020E130E002C0A5
S1133B4020E132E0520107FF09C0F4E0AF0EB11CDE
S1133B50F201608171818281938108C0F2E0AF0E2D
S1133B60B11CF2016081718180E090E0A3010E94A8
S1133B708025E82EE6180F77302E36FE0BC0332D45
S1133B803E7FE11650F434FE0AC032FC08C0332DE7
S1133B903E7E05C00E2D332D03C00E2D01C0012F16
S1133BA034FF0CC0FE01EE0DF11D8081803311F451
S1133BB0397E08C032FF05C00E5F04C0832F8678AB
S1133BC009F00F5F33FD13C030FF06C01E2D0F1523
S1133BD018F41F0D101B0F2D0F1568F4B60180E2A9
S1133BE090E03B8B0E9418250F5F3B89F5CF0F15A2
S1133BF010F4F01A01C0F12C34FF12C0B60180E3B6
S1133C0090E03B8B0E9418253B8932FF17C031FDA1
S1133C1003C088E790E002C088E590E0B6010CC0DC
S1133C20832F867859F031FF02C08BE201C080E215
S1133C3037FD8DE2B60190E00E941825E11638F4B4
S1133C40B60180E390E00E9418251150F7CFEA9462
S1133C50F301EE0DF11D8081B60190E00E9418255C
S1133C60E110F5CF14C0F4E0FF1558F584E0F81A1C
S1133C7033FE1EC0211026C003FF2AC00EEF10E041
S1133C80F32DF0713F2EF8018491811124C0FF209F
S1133C9009F4E5CCB60180E290E00E941825FA947C
S1133CA0F6CFF6018681978126C08FEF9FEF23C060
S1133CB0B60180E290E00E941825FA94F110F8CF42
S1133CC0D9CFF12CB601822D90E00E941825D4CFD3
S1133CD002E011E0D5CF31108052B60190E00E948D
S1133CE018250F5F1F4FCFCF23E02F1510F483E06B
S1133CF0BECFF12CC1CF6396E2E10C94D32250588D
S1133D00BB27AA270E94971E0C94E81F0E94DA1F63
S1133D1038F00E94E11F20F039F49F3F19F426F493
S1133D200C94D71F0EF4E095E7FB0C94D11FE92FF8
S1133D300E94F91F58F3BA1762077307840795079F
S1133D4020F079F4A6F50C941B200EF4E0950B2ECC
S1133D50BA2FA02D0B01B90190010C01CA01A001D9
S1133D601124FF27591B99F0593F50F4503E68F134
S1133D701A16F040A22F232F342F4427585FF3CF75
S1133D80469537952795A795F0405395C9F77EF446
S1133D901F16BA0B620B730B840BBAF09150A1F08F
S1133DA0FF0FBB1F661F771F881FC2F70EC0BA0F15
S1133DB0621F731F841F48F4879577956795B7959D
S1133DC0F7959E3F08F0B0CF9395880F08F0992798
S1133DD0EE0F9795879508950E94001F0C94E81F95
S1133DE00E94E11F58F00E94DA1F40F029F45F3F5F
S1133DF029F00C94D11F51110C941C200C94D71F42
S1133E000E94F91F68F39923B1F3552391F3951B8D
S1133E10550BBB27AA2762177307840738F09F5FE7
S1133E205F4F220F331F441FAA1FA9F335D00E2E54
S1133E303AF0E0E832D091505040E695001CCAF7C1
S1133E402BD0FE2F29D0660F771F881FBB1F261784
S1133E5037074807AB07B0E809F0BB0B802DBF015B
S1133E60FF2793585F4F3AF09E3F510578F00C942A
S1133E70D11F0C941C205F3FE4F3983ED4F3869545
S1133E8077956795B795F7959F5FC9F7880F911D4B
S1133E909695879597F90895E1E0660F771F881F37
S1133EA0BB1F621773078407BA0720F0621B730BEA
S1133EB0840BBA0BEE1F88F7E09508950E94651FE6
S1133EC06894B1110C941C2008950E94012088F07C
S1133ED09F5798F0B92F9927B751B0F0E1F0660FCA
S1133EE0771F881F991F1AF0BA95C9F714C0B1300B
S1133EF091F00E941B20B1E008950C941B20672FC1
S1133F00782F8827B85F39F0B93FCCF38695779539
S1133F106795B395D9F73EF4909580957095619522
S1133F207F4F8F4F9F4F0895E89409C097FB3EF44D
S1133F3090958095709561957F4F8F4F9F4F9923F2
S1133F40A9F0F92F96E9BB279395F6958795779570
S1133F506795B795F111F8CFFAF4BB0F11F460FF30
S1133F601BC06F5F7F4F8F4F9F4F16C0882311F088
S1133F7096E911C0772321F09EE8872F762F05C09C
S1133F80662371F096E8862F70E060E02AF09A9537
S1133F90660F771F881FDAF7880F9695879597F92C
S1133FA0089597F99F6780E870E060E008959FEFB7
S1133FB080EC089500240A941616170618060906BC
S1133FC0089500240A94121613061406050608958B
S1133FD0092E0394000C11F4882352F0BB0F40F413
S1133FE0BF2B11F460FF04C06F5F7F4F8F4F9F4F53
S1133FF0089557FD9058440F551F59F05F3F71F0D5
S11340004795880F97FB991F61F09F3F79F087953B
S11340100895121613061406551FF2CF4695F1DFC4
S113402008C0161617061806991FF1CF8695710554
S1134030610508940895E894BB2766277727CB0188
S113404097F908950E945B2108F48FEF08950E9468
S11340500120A8F19E57B0F1985160F039F19830E1
S113406070F5092E9927660F771F881F991F0A94E8
S1134070D1F71CC0BB27993F4CF4B111B1E0B62B6A
S1134080672F782F8827985FB1F708C086957795B2
S11340906795B79508F4B1609395C1F7BB0F30F4F9
S11340A011F460FF03C06F5F7F4F8F4F3EF4909514
S11340B08095709561957F4F8F4F9F4F08956894B9
S11340C00C941C200C941B200E9477200C94E81F55
S11340D00E94DA1F38F00E94E11F20F0952311F0AE
S11340E00C94D11F0C94D71F11240C941C200E94F3
S11340F0F91F70F3959FC1F3950F50E0551F629F10
S1134100F001729FBB27F00DB11D639FAA27F00D2C
S1134110B11DAA1F649F6627B00DA11D661F829F53
S11341202227B00DA11D621F739FB00DA11D621F38
S1134130839FA00D611D221F749F3327A00D611D55
S1134140231F849F600D211D822F762F6A2F112437
S11341509F5750409AF0F1F088234AF0EE0FFF1F6A
S1134160BB1F661F771F881F91505040A9F79E3FC1
S1134170510580F00C94D11F0C941C205F3FE4F394
S1134180983ED4F3869577956795B795F795E79517
S11341909F5FC1F7FE2B880F911D9695879597F920
S11341A00895FA01EE0FFF1F309621053105A1F1A4
S11341B06115710561F48038BFE39B0749F1689488
S11341C09038810561F08038BFEF9B0741F0992357
S11341D04AF5FF3FE1053105210519F1E8940894FA
S11341E0E795D901AA2329F4AB2FBE2FF85FD0F3AA
S11341F010C0FF5F70F4A695E0F7F73950F019F09E
S1134200FF3A38F49F779F930DD00F9007FC905896
S1134210089546F00C94D71F60E070E080E89FE3B7
S113422008954FE79F775F934F933F932F930E9497
S1134230F0212F913F914F915F910E9464200C9443
S1134240292129F416F00C94D11F0C941B200C94F2
S1134250D71F0E940120A8F39638A0F707F80F9201
S1134260E8942BE33AEA48EB5FE70E947A200F9246
S11342700F920F924DB75EB70F920E943822ECE76F
S1134280F0E00E947F214F915F91EF91FF91E595BE
S1134290EE1FFF1F49F0FE57E0684427EE0F441F4E
S11342A0FA95E1F74195550B0E94B2210F9007FE54
S11342B00C94A6210895990F0008550FAA0BE0E865
S11342C0FEEF16161706E807F907C0F012161306D4
S11342D0E407F50798F0621B730B840B950B39F414
S11342E00A2661F0232B242B252B21F408950A267A
S11342F009F4A140A6958FEF811D811D0895DF93D8
S1134300CF931F930F93FF92EF92DF927B018C0167
S1134310689406C0DA2EEF010E947720FE01E8942B
S1134320A5912591359145915591A6F3EF010E94F0
S1134330971EFE019701A801DA9469F7DF90EF90C8
S1134340FF900F911F91CF91DF9108959B01AC01D4
S113435060E070E080E89FE30C94EC1E0C94D11FA5
S11343600C946C220E940120D8F39923C9F3940F72
S1134370511DA3F39150504094F059F0882332F02A
S1134380660F771F881F91505040C1F79E3F51051B
S11343902CF7880F911D9695879597F908955F3F9F
S11343A0ACF0983E9CF0BB27869577956795B795BA
S11343B008F4B1609395C1F7BB0F58F711F460FF8F
S11343C0E8CF6F5F7F4F8F4F9F4FE3CF0C941C203C
S11343D016F00C946C220C94D71F68940C94D11F83
S11343E00E940120A8F39923C1F3AEF3DF93CF9386
S11343F01F930F93FF92C92FDD2788232AF021975B
S1134400660F771F881FDAF720E030E040E85FEBA3
S11344109FE3883920F0803E38F021968F770E9400
S1134420801EE4EAF0E004C00E94801EE1EDF0E0AA
S11344300E947F218B01BE01EC01FB2E6F57710995
S11344407595771F880B990B0E94961F28E132E718
S113445041E35FE30E947720AF2D9801AE01FF9006
S11344600F911F91CF91DF910E94971E0C94E81F2A
S1134470FA01DC01AA0FBB1F9B01AC01BF5728F452
S1134480222733274427507820C0B75190F4AB2F0C
S11344900024469537952795011CA395D2F3002057
S11344A071F0220F331F441FB395DAF30ED00C942E
S11344B07F1E61307105A0E88A07B94630F49B017C
S11344C0AC016627772788279078309621F02083DF
S11344D031834283538308959F3F31F0915020F4F8
S11344E0879577956795B795880F911D96958795CC
S11344F097F90895DB018F939F930E94AC22BF919B
S1134500AF91A29F800D911DA39F900DB29F900D1E
S113451011240895A1E21A2EAA1BBB1BFD010DC094
S1134520AA1FBB1FEE1FFF1FA217B307E407F5075F
S113453020F0A21BB30BE40BF50B661F771F881F3B
S1134540991F1A9469F760957095809590959B01D1
S1134550AC01BD01CF0108950E94EE22A59F900DEC
S1134560B49F900DA49F800D911D112408952F9246
S11345703F924F925F926F927F928F929F92AF92EF
S1134580BF92CF92DF92EF92FF920F931F93CF933C
S1134590DF93CDB7DEB7CA1BDB0B0FB6F894DEBFD3
S11345A00FBECDBF09942A88398848885F846E84F9
S11345B07D848C849B84AA84B984C884DF80EE8043
S11345C0FD800C811B81AA81B981CE0FD11D0FB64C
S11345D0F894DEBF0FBECDBFED010895A29FB001D8
S11345E0B39FC001A39F700D811D1124911DB29F23
S11345F0700D811D1124911D0895CF93DF93823096
S1134600910510F482E090E0E0917E02F0917F0247
S113461020E030E0C0E0D0E0309711F140815181DA
S113462048175907C0F04817590761F482819381EC
S1134630209719F09B838A832BC090937F028093E9
S11346407E0226C02115310519F04217530718F4CC
S11346509A01BE01DF01EF010280F381E02DDCCF7E
S11346602115310509F1281B390B2430310590F44B
S113467012968D919C9113976115710521F0FB01A0
S11346809383828304C090937F0280937E02FD0112
S1134690329644C0FD01E20FF31F8193919322509F
S11346A031092D933C933AC020917C0230917D02D4
S11346B0232B41F420911D0130911E0130937D0282
S11346C020937C0220911B0130911C01211531059E
S11346D041F42DB73EB740911F0150912001241B96
S11346E0350BE0917C02F0917D02E217F307A0F410
S11346F02E1B3F0B2817390778F0AC014E5F5F4F34
S11347002417350748F04E0F5F1F50937D024093E6
S11347107C028193919302C0E0E0F0E0CF01DF914D
S1134720CF9108950F931F93CF93DF93009709F4CC
S11347308CC0FC0132971382128200917E02109188
S11347407F020115110581F420813181820F931FAD
S113475020917C0230917D022817390779F5F09376
S11347607D02E0937C0271C0D80140E050E0AE17B6
S1134770BF0750F412962D913C911397AD0121156A
S1134780310509F1D901F3CF9D01DA013383228385
S113479060817181860F971F8217930769F4EC017A
S11347A028813981260F371F2E5F3F4F31832083A5
S11347B08A819B8193838283452B29F4F0937F0222
S11347C0E0937E0242C01396FC93EE931297ED01A0
S11347D0499159919E01240F351FE217F30771F493
S11347E080819181840F951F029611969C938E93DC
S11347F08281938113969C938E931297E0E0F0E06C
S1134800D80112968D919C911397009719F0F80195
S11348108C01F6CF8D919C9198012E5F3F4F820FB2
S1134820931F20917C0230917D022817390769F487
S1134830309729F410927F0210927E0202C01382F4
S1134840128210937D0200937C02DF91CF911F911D
S11348500F910895283008F027E03327DA01990FE3
S1134860311D87FD916000966105710539F4326050
S11348702E5F3D9330E32A95E1F708959F3F30F092
S113488080387105610509F03C5F3C5F3D939130D0
S113489008F08068911DDF93CF931F930F93FF92CD
S11348A0EF92192F987F9695E92F96959695E90F93
S11348B0FF27E05AFE4F99273327EE24FF24A70150
S11348C0E70105900894079428F4360FE71EF81EB4
S11348D0491F511D660F771F881F991F0694A1F762
S11348E00590079428F4E70EF81E491F561FC11DB2
S11348F0770F881F991F661F0694A1F705900794E8
S113490028F4F80E491F561FC71FD11D880F991F81
S1134910661F771F0694A1F70590079420F4490FAA
S1134920561FC71FD81F990F661F771F881F06942D
S1134930A9F784911095177041F0D695C7955795AE
S11349404795F794E7941A95C1F7E6E0F1E0689487
S11349501590159135916591959105907FE2739528
S1134960E118F10A430B560BC90BD009C0F7E10C4F
S1134970F11E431F561FC91FD01D7EF4703311F45E
S11349808A95E6CFE894015030F0080F0AF4002726
S1134990021708F4202F2395022F7A3328F079E3A5
S11349A07D932A95E9F710C07D932A9589F606949C
S11349B097956795379517951794E118F10A430B66
S11349C0560BC90BD00998F023957E9173957A33D1
S11349D008F070E37C932013B8F77E9170617D93A7
S11349E030F0839571E37D9370E32A95E1F7112408
S11349F0EF90FF900F911F91CF91DF91992787FD41
S1134A0090950895FC010590615070400110D8F70D
S1134A10809590958E0F9F1F0895FC016150704002
S1134A2001900110D8F7809590958E0F9F1F0895DF
S1134A300F931F93CF93DF93FB01238121FD03C0C9
S1134A408FEF9FEF28C022FF16C046815781248133
S1134A5035814217530744F4A081B1819D012F5F32
S1134A603F4F318320838C93268137812F5F3F4FC3
S1134A703783268310C0EB01092F182F0084F1859A
S1134A80E02D0995892BE1F68E819F8101969F8304
S1134A908E83812F902FDF91CF911F910F910895D5
S1134AA00F931F93CF93DF93E0918202F0918302DF
S1134AB0238121FF1BC08C01D0E0C0E0F80181916B
S1134AC08F016091820270918302DB011896ED914F
S1134AD0FC911997882331F00995892B79F3DFEF3D
S1134AE0CFEFECCF8AE00995892B19F08FEF9FEF78
S1134AF002C08D2F9C2FDF91CF911F910F910895AC
S1134B00FA01AA27283051F1203181F1E8946F93FA
S1134B106E7F6E5F7F4F8F4F9F4FAF4FB1E03ED0A0
S1134B20B4E03CD0670F781F891F9A1FA11D680F3E
S1134B30791F8A1F911DA11D6A0F711D811D911D71
S1134B40A11D20D009F468943F912AE0269F1124E6
S1134B503019305D3193DEF6CF010895462F47704A
S1134B60405D4193B3E00FD0C9F7F6CF462F4F70A5
S1134B70405D4A3318F0495D31FD4052419302D003
S1134B80A9F7EACFB4E0A6959795879577956795A9
S1134B90BA95C9F700976105710508959B01AC01A9
S1134BA00A2E06945795479537952795BA95C9F7D0
S1134BB0620F731F841F951FA01D0895F894FFCFE3
S1134BC01F0201030300000002000000006F0E003A
S1134BD0000000180C041060C08020000086022031
S1134BE0005354415254494E472E2E2E00435255E1
S1134BF04953494E472E2E2E0041564F4944494EA3
S1134C00472E2E2E00484F4D494E472E2E2E00552E
S1134C106E6B6E6F776E20737461746521005374CC
S10D4C20617274696E672E2E2E0077
S9030000FC
