S00C00004C6162352E73726563D4
S11300000C940B030C9428030C9428030C942803DD
S11300100C94400D0C94690D0C94920D0C94BB0D32
S11300200C9428030C94210C0C944A0C0C94730C1F
S11300300C94EE0C0C949C0C0C94C50C0C94170DA5
S11300400C94A60B0C94CF0B0C94F80B0C94280373
S11300500C9428030C9428030C9428030C94280370
S11300600C9428030C9428030C9428030C94280360
S11300700C9428030C9428030C9428030763423639
S1130080B79BD8A71A39685618AEBAAB558C1D3C25
S1130090B7CC5763BD6DEDFD753EF6177231BF00E9
S11300A00000803F08000000BE922449123EABAA23
S11300B0AA2ABECDCCCC4C3E00000080BEABAAAA7E
S11300C0AA3E00000000BF000000803F00000000C6
S11300D000084178D3BB4387D1133D190E3CC3BDFF
S11300E04282AD2B3E68EC8276BED98FE1A93E4CAC
S11300F080EFFFBE01C4FF7F3F00000000006E617F
S11301006E00696E660000407A10F35A00A0724EC9
S113011018090010A5D4E80000E87648170000E4A8
S11301200B54020000CA9A3B000000E1F5050000F0
S113013080969800000040420F000000A086010055
S11301400000102700000000E80300000000640025
S1130150000000000A000000000001000000000090
S11301602C76D888DC674F0823DFC1DFAE59E1B1B4
S1130170B796E5E3E453C63AE651997696E8E6C2C3
S11301808426EB898C9B62ED407C6FFCEFBC9C9FCA
S113019040F2BAA56FA5F490055A2AF75C936B6CEC
S11301A0F9676DC11BFCE0E40D47FEF520E6B500E0
S11301B0D0ED902E0300943577050080841E08004E
S11301C000204E0A000000C80C333333330F986EFE
S11301D012831141EF8D2114893BE65516CFFEE6BB
S11301E0DB18D1844B381BF77C1D901DA4BBE42481
S11301F0203284725E228100C9F124ECA1E53D27FE
S113020016050100000000000000FA000000E000F4
S1130210E00028FE28FE282454FE5448C4C81026B2
S1130220466C92AA44A000A0C0000000384482009A
S1130230008244380028107C102810107C10100014
S11302400A0C00001010101010000606000004082C
S11302501020407C8A92A27C0042FE020042868AE0
S113026092628482A2D28C182848FE08E4A2A2A238
S11302709C3C5292920C808E90A0C06C9292926C94
S11302806092929478006C6C0000006A6C0000101C
S113029028448200282828282800824428104080E6
S11302A08A90604C929E827C7E8888887EFE9292A0
S11302B0926C7C82828244FE82824438FE929292C4
S11302C082FE909090807C8292925EFE101010FECE
S11302D00082FE8200040282FC80FE10284482FE1A
S11302E002020202FE403040FEFE201008FE7C8224
S11302F082827CFE909090607C828A847AFE9098C0
S11303009462629292928C8080FE8080FC0202024F
S1130310FCF8040204F8FC021C02FCC6281028C6DF
S1130320E0100E10E0868A92A2C200FE8282004093
S113033020100804008282FE002040804020020237
S11303400202020080402000042A2A2A1EFE1222F1
S1130350221C1C222222041C222212FE1C2A2A2ACB
S113036018107E908040304A4A4A7CFE1020201E9D
S11303700022BE0200040222BC00FE081422000077
S113038082FE02003E2018201E3E1020201E1C2249
S113039022221C3E28282810102828183E3E10200F
S11303A02010122A2A2A0420FC2202043C020204FD
S11303B03E38040204383C020C023C221408142285
S11303C0300A0A0A3C22262A322200106C820000DB
S11303D000FE000000826C100008101008100000DD
S11303E00000007F8181817F7F8383837F7F878774
S11303F0877F7F8F8F8F7F7F9F9F9F7F7FBFBFBFB1
S11304007F7FFFFFFF7F2040FF40206215171565A7
S113041000FBFB00000000000000C0FF0300E0FF41
S11304200700F0FF0F00F8FF1F0078001E0078009F
S11304301E0078001E0078001E0078001E00780060
S11304401E0078001E0078001E0078001E000000C8
S113045000000000000080FF0300E0FF0700F0FF41
S11304600F00F8FF1F00F83C1F00783C1E00783C8A
S11304701E00783C1E00783C1E00783C1E00783C30
S11304801E00783C1E00783C1E00783C1E00783C20
S11304901E000000000000000000E0FF0300F0FF69
S11304A00700F8FF0F00F8FF1F00783C1E00783C9F
S11304B01E00783C1E00783C1E00783C1E00783CF0
S11304C01E00783C1E00783C1E00783C1E00783CE0
S11304D01E000000000000000000F8FF0300F8FF09
S11304E00F00F8FF1F00F8FF1F0000001E000000AF
S11304F01E0000801F0000F01F0000FF0F00E0FF3F
S11305000700F0FF0000F80F0000F800000078007A
S1130510000078000000F8FF1F00F8FF1F00F0FF44
S11305201F00E0FF1F000000000000000000F8FFB3
S11305301F00F8FF1F00F8FF1F00F8FF1F007800DE
S11305401E00783C1E00783C1E00783C1E00783C5F
S11305501E00783C1E00783C1E00F87E1F00F8FF49
S11305601F00F0FF0F00E0E70300000000000000A0
S11305703800EEFF6C002A8045003A0047FC03FF78
S11305806CFC83FF3900DEFF0B7CD0810BFCD08137
S11305900BC0D0810BFCD0810B7CDEFF0B0082FFF3
S11305A0397002FF6CF83A0047DC2A8045CCEEFF34
S11305B06CCC000038000000000C00001E0C000091
S11305C01E0000001E0000001E0000001E00F8FFB8
S11305D01F00F8FF1F00F8FF1F00F8FF1F000000B6
S11305E01E0000001E0000001E0000001E0000008F
S11305F05E000000400000007C000000400000009D
S1130600400000007C0000003000000010000000EA
S1130610300000007C0011241FBECFEFD8E0DEBF05
S1130620CDBF11E0A0E0B1E0EEE0F6E402C0059039
S11306300D92A435B107D9F722E0A4E5B1E001C0D9
S11306401D92A636B207E1F70E942A030C940523F3
S11306500C9400000E94A40B0E94960B0E94481860
S113066080E090E008951F93CF93DF9385E00E948C
S1130670DE098823D1F060E080E40E943604C0E003
S1130680D0E060E08C2F0E94E10310E061E080E0A4
S11306900E9436041F5F1038C9F72196C430D10573
S11306A081F760E083E00E942404DF91CF911F91E1
S11306B008950F931F9385E00E94D009882311F0B9
S11306C082E07BC00E948304182F0E94530A1150B9
S11306D0123008F06EC08150823008F06AC00E9467
S11306E0510460E08EEA0E94360460E082EA0E94CF
S11306F0360460E080EA0E94360400E513ECC80189
S11307000197F1F760E080EC0E94360460E08FE22C
S11307100E94360460E081E80E94360460E086E1CD
S11307200E94360460E082E20E943604C801019708
S1130730F1F760E08FEA0E94360460E086EA0E94E6
S1130740360460E085EA0E94360420E030E0E8E800
S1130750F3E1CF010197F1F72F5F3F4F93E0283E7C
S11307603907B9F760E083EB0E94360460E080E467
S11307700E94360460E083E00E94E10360E083E0CD
S11307800E9424041092FE01109200021092FF01B4
S113079084E091E0909363028093620288E10E9476
S11307A003040E94330360E084EA0E94360481E07B
S11307B004C085E00E94BF0987E099271F910F912B
S11307C00895FF920F931F93082FF62E85E00E9441
S11307D0DE098823A1F01F2D1F77037060E0802FAE
S11307E0806B0E94360412951F7060E0812F806137
S11307F00E94360460E08F2D8F700E9436041F9192
S11308000F91FF9008951F93182F85E00E94DE0931
S11308108823C1F087E00E94C6046AE082E00E9457
S1130820250561EB82E00E942505612F113208F055
S113083060E282E00E94250589EE8A95F1F787E05F
S11308400E94C6041F9108950F931F93082F162F1B
S113085085E00E94DE09882331F003701F7710932E
S1130860FC010093FD011F910F9108950F931F93B5
S1130870082F162F85E00E94DE09882379F01123C2
S113088019F0113021F402C02B9801C02B9A86E094
S11308908A95F1F7602F80E00E9425051F910F9142
S11308A00895239A089586E00E94D009882311F0C0
S11308B082E003C00E946B0481E0992708951F938E
S11308C0182F86E00E94DE09882319F0812F0E94E8
S11308D074041F910895559A569A80E20E94AA0EB4
S11308E080E40E94AA0E0895282F332725FF04C010
S11308F08BB190E289278BB926FF04C08BB190E4B9
S113090089278BB9089582E00E94D009882311F0C9
S113091082E031C00E9434056FE37FE080E00E94F2
S1130920BD0467E37FE081E00E94BD046FE27FE0E5
S113093082E00E94BD046EE17FE086E00E94BD0477
S113094067E27FE083E00E94BD0467E27FE084E029
S11309500E94BD0467E27FE085E00E94BD0467E277
S11309607FE087E00E94BD048FEF8093010287E05F
S11309700E94C60481E099270895E82FFF27EE0F0F
S1130980FF1FED55FE4F7183608308951F93182F49
S113099082E00E94DE09882309F455C0912F9770E4
S11309A080910102981709F44EC09093010285B119
S11309B0887F892B85B9933051F1943028F4913094
S11309C051F09230B0F40EC0953079F1953030F199
S11309D0963091F515C0E091A501F091A6013097EC
S11309E091F130C0E091A301F091A401309759F145
S11309F029C0E091A701F091A801309721F122C00C
S1130A00E091AF01F091B0013097E9F01BC0E091A3
S1130A10A901F091AA013097B1F014C0E091AB01A3
S1130A20F091AC01309779F00DC0E091AD01F091F7
S1130A30AE01309741F006C0E091B101F091B201EE
S1130A40309709F009951F9108951F93162F0E945E
S1130A50C60482E00E94DE09882321F01EBD0DB485
S1130A6007FEFDCF1F910895259A2698279A209A6C
S1130A70219A229A08952F923F924F925F926F92F9
S1130A807F928F929F92AF92BF92CF92DF92EF921A
S1130A90FF920F931F93CF93DF93CDB7DEB72297C7
S1130AA00FB6F894DEBF0FBECDBF382E962E242E7F
S1130AB0290138011C2DBA82A982B82C6B8D7C8D3A
S1130AC0AD8C81E0981609F1981628F092E09916F9
S1130AD009F062C039C0B70180E00E944F0749E3C2
S1130AE0C42E42E0D42E31E0E32E012F9301A20163
S1130AF0622D80E00E940A08332009F04DC08981EC
S1130B009A819F938F931F9219C081E00E944F078F
S1130B1029E3C22E22E0D22E91E0E92E0A2D298D5E
S1130B203A8D4F89588D682D81E00E940A08332040
S1130B3099F58E8D9F8D9F938F939F920E94460966
S1130B400F900F900F9028C0C7010E94700789E38F
S1130B5092E09F938F9381E0882EC98CDA8CEF8882
S1130B60F88C0B2D212FA301B201822D0E949C0829
S1130B700F900F90332081F48E8D9F8D9F938F93D0
S1130B8089819A819F938F939F920E9446090F9027
S1130B900F900F900F900F9022960FB6F894DEBF2F
S1130BA00FBECDBFDF91CF911F910F91FF90EF90BA
S1130BB0DF90CF90BF90AF909F908F907F906F9079
S1130BC05F904F903F902F9008958F929F92AF9295
S1130BD0BF92CF92DF92EF92FF920F931F93CF9326
S1130BE0DF93CDB7DEB7562F942EAC2DEF85F88961
S1130BF0C988DA886B897C894D898130C1F181305B
S1130C0030F1823009F04CC0513071F0513020F095
S1130C10523009F045C011C0B70180E00E944F076F
S1130C20A801692D80E006C081E00E944F07A6015B
S1130C30682D81E00E94D30633C0C7010E9470076B
S1130C409601482DB801892D0E94EA0629C08E8993
S1130C509F899F938F934F937F936F93DF92CF924C
S1130C60FF93EF93CA2E492D652F80E00FC01F928A
S1130C701F924F937F936F93DF92CF92FF93EF93E3
S1130C80AA24BB24CA2E492D652F81E00E943B056E
S1130C908DB79EB709960FB6F8949EBF0FBE8DBF51
S1130CA0DF91CF911F910F91FF90EF90DF90CF9044
S1130CB0BF90AF909F908F90089587E00E94D009D5
S1130CC0882311F082E06DC00E94B50981E0809311
S1130CD0380210920202109203021092050210923E
S1130CE00402109207021092060210920902109256
S1130CF0080210920B0210920A0210920D02109236
S1130D000C0210920F0210920E0210921102109215
S1130D1010021092130210921202109215021092F5
S1130D2014021092170210921602109219021092D5
S1130D30180210921B0210921A02109220021092B2
S1130D402102109222021092230210922502109284
S1130D502602109227021092280210922902109261
S1130D602A0210922B0210922D0210922C02109241
S1130D702F0210922E021092310210923002109221
S1130D8033021092320210921D0210921C02109231
S1130D901F0210921E021092370210923602109215
S1130DA0380299270895EF92FF920F931F93182FFB
S1130DB0062F7A0160E00E94AB07602F812F0E940A
S1130DC08C07B701812F0E94C0071F910F91FF90DC
S1130DD0EF900895CF92DF92EF92FF920F931F93BB
S1130DE0C82E7B01D42E890160E082E00E94AB070B
S1130DF06D2D8C2D0E94A107B801C7010E94EC073C
S1130E001F910F91FF90EF90DF90CF9008952EEFF8
S1130E108037920714F480E79EEF9C0181E021392A
S1130E20380714F020E931E08EEF6037780714F4C6
S1130E3060E77EEF81E06139780714F060E971E0E2
S1130E4091E0909338021092250237FD02C09093EE
S1130E50250280912502892780932502109226027B
S1130E6077FD02C090932602809126028927809301
S1130E702602C90137FF03C0909581959F4F909337
S1130E8005028093040277FF03C0709561957F4F3C
S1130E907093070260930602109238020895982F07
S1130EA081E08093380283E0693E780710F068EEB1
S1130EB073E0913071F0913018F0923071F405C004
S1130EC070930D0260930C0208C070930D0260933E
S1130ED00C0270930F0260930E0210923802089570
S1130EE021E020933802F89423E0893E920710F021
S1130EF088EE93E090930D0280930C0283E0693EA8
S1130F00780710F068EE73E070930F0260930E029E
S1130F107894109238020895982F81E080933802D3
S1130F20913051F0913018F0923041F403C0609345
S1130F30250204C0609325026093260210923802B1
S1130F40089591E0909338028093250260932602DD
S1130F50109238020895982F81E0809338029130DE
S1130F6051F0913018F0923041F403C060930202C2
S1130F7004C0609302026093030210923802089541
S1130F80982F81E08093380281E06139780710F06E
S1130F9060E971E0913061F0913018F09230C9F459
S1130FA00EC0F8947093050260930402789411C003
S1130FB0F894709307026093060278940AC0F89438
S1130FC07093050260930402709307026093060213
S1130FD078941092380208959C0181E0809338023D
S1130FE0F89481E06139780710F060E971E070935A
S1130FF0070260930602C90121E08139920710F0CB
S113100080E991E090930502809304027894109211
S1131010380208958F929F92AF92BF92CF92DF923F
S1131020EF92FF920F931F93CF93DF93182FF62E17
S11310304A015901E60187E00E94DE09882309F488
S11310406EC061E0812F0E94AB07A501B401812F1E
S11310500E9431116F2D812F0E948C07602F812FE8
S11310600E941C11B401812F0E94F310CD2899F025
S1131070113049F0113018F0123069F406C01882AA
S11310801092340208C0198204C018821982109286
S1131090340210923502D0933702C0933602EE2008
S11310A0B9F584E591E09093370280933602B50157
S11310B0812F0E94C007812F0E94DE10113071F031
S11310C0113018F0123059F512C0109254011092D8
S11310D0340280915401882311F5FBCF10925501FD
S11310E010923502809155018823C9F4FBCF1092E8
S11310F054011092550110923402109235028091DD
S113110054018823E1F3809155018823C1F307C07A
S1131110B501812F0E94C007812F0E94DE10DF914C
S1131120CF911F910F91FF90EF90DF90CF90BF90E0
S1131130AF909F908F9008953F924F925F926F92DD
S11311407F928F929F92AF92BF92CF92DF92EF9253
S1131150FF920F931F93CF93DF93CDB7DEB7382E53
S11311602B013A01922EB02E0C891D8987E00E9432
S1131170DE09882309F453C061E082E00E94AB07D2
S1131180A301B20180E00E943111A601B70181E000
S11311900E9431116B2D832D0E94A107692D80E0DF
S11311A00E941C116A2D81E00E941C11B701C2012A
S11311B00E940E110115110539F0F80110821182F7
S11311C010923402109235021093370200933602C3
S11311D08820F1F486E591E09093370280933602FB
S11311E0B601C3010E94EC0782E00E94DE10109257
S11311F056011092570110923402109235028091D8
S113120056018823E1F3809157018823C1F307C075
S1131210B601C3010E94EC0782E00E94DE10DF9158
S1131220CF911F910F91FF90EF90DF90CF90BF90DF
S1131230AF909F908F907F906F905F904F903F9072
S113124008950F931F93182F062F662349F460E027
S113125070E00E94C00760E070E0812F0E94F310EC
S113126081E080933802113051F0113018F01230BF
S113127041F403C00093200204C0009320020093B1
S11312802102109238021F910F910895CF92DF929C
S1131290EF92FF920F931F93CF93DF93CDB7DEB7F7
S11312A022970FB6F894DEBF0FBECDBF1D8587E031
S11312B00E94DE09882309F449C0113099F01130E5
S11312C020F0123009F042C01BC0CE0140969A8330
S11312D08983EE85FF85809139028823E1F3309775
S11312E0A9F10CC0CE0140969A838983EE85FF85CF
S11312F080913A028823E1F3309741F1099526C0A1
S1131300CE84DF84CE0142969A838983E888F98863
S113131000E010E0002351F480913902882331F079
S1131320C114D10411F0F601099501E0112351F41F
S113133080913A02882331F0E114F10411F0F701AD
S1131340099511E0002331F3112321F322960FB6FE
S1131350F894DEBF0FBECDBFDF91CF911F910F91E7
S1131360FF90EF90DF90CF9008953A9A3B9A3C9A81
S11313703D9A3E9A3F9A88B1837088B90895853121
S113138060F4E82FFF27E951FE4F8081882329F07C
S1131390808181508083808101C08FEF99270895D7
S11313A0853110F080E008C0E82FFF27E951FE4F97
S11313B080818F5F8083815099270895853110F053
S11313C080E007C0E82FFF27E951FE4F808181119B
S11313D081E0992708951F93182F8091590188233C
S11313E041F080916001882399F010925901109284
S11313F060010E94210A8093580128E230E040E015
S113140061E08AE591E00E94EE0A81E0809359014F
S113141090915801133018F0133079F409C0E12F7A
S1131420FF27E050FF4F8081892341F081E006C00F
S113143091FF03C0892F817001C080E099271F911B
S113144008950F931F9381E00E94DE09882311F40D
S113145000E024C087E00E94C6046AE082E00E94A3
S1131460250562EB82E00E94250518EC812F8A9500
S1131470F1F760E082E00E94470F082F812F8A95E0
S1131480F1F760E082E00E94470F1A95F1F787E0D8
S11314900E94C60488E893E10197F1F7802F992709
S11314A01F910F910895CF93DF93CDB7DEB72397A4
S11314B00FB6F894DEBF0FBECDBF81E00E94D00905
S11314C0882311F082E011C00E948304815082308D
S11314D040F40E947F0ACE0101960E94851181E0AA
S11314E004C081E00E94BF0987E0992723960FB6C4
S11314F0F894DEBF0FBECDBFDF91CF910895109257
S1131500500210924F021092520210925102109205
S113151054021092530210925602109255021092E5
S113152058021092570280E991E090933C02809314
S11315303B0290933E0280933D029093400280933D
S11315403F0290934202809341029093440280931D
S1131550430284E398E0909346028093450290937B
S113156048028093470290934A02809349029093E1
S11315704C0280934B0290934E0280934D02089547
S11315800F931F93CF93DF93CDB7DEB729970FB691
S1131590F894DEBF0FBECDBF8C0188E00E94DE0947
S11315A0882311F491E00DC0980140E061E0CE0180
S11315B001960E94EE0A982F882319F48F818823BC
S11315C0E9F3892F992729960FB6F894DEBF0FBE49
S11315D0CDBFDF91CF911F910F910895EF92FF92AC
S11315E00F931F93CF93DF93EC01F62EE42E890122
S11315F088E00E94DE09882311F481E026C084E09B
S113160090E00E942420FC01892B11F482E01DC08B
S1131610F982F0FC1E8281E0E81619F48981846065
S113162089838981886089831B830A831D830C8352
S1131630D183C0831382128281E08093C301CF01DE
S11316400E942D0B1092C30180E09927DF91CF9166
S11316501F910F91FF90EF900895CF92DF92EF9238
S1131660FF920F931F93CF93DF93EC018091590264
S1131670882339F4D0935B02C0935A020E94DF118D
S113168047C0C0905A02D0905B0200E010E0EE2404
S1131690FF2429C0A881B981FD0164817581F60107
S11316A040815181FA01848195819B01281B390B6A
S11316B037FF0AC0861B970B95838483DB82CA821B
S11316C0012BF1F0F70122C0F601828193812115EB
S11316D0310581F0FD01358324830097B1F00F5F5C
S11316E01F4F76016C018091590299270817190739
S11316F088F20BC0FD01158214829B838A8305C086
S1131700D0935B02C0935A0203C0F601D383C28311
S1131710809159028F5F80935902DF91CF911F917D
S11317200F91FF90EF90DF90CF9008950E946E117B
S11317300E94BC0E0E94E40D0E94C2110E94830408
S11317400E94530A78940895000008951F920F92FE
S11317500FB60F9211242F933F934F935F936F9380
S11317607F938F939F93AF93BF93EF93FF93E091F6
S11317708301F0918401309709F00995FF91EF916D
S1131780BF91AF919F918F917F916F915F914F9195
S11317903F912F910F900FBE0F901F9018951F929D
S11317A00F920FB60F9211242F933F934F935F9391
S11317B06F937F938F939F93AF93BF93EF93FF9315
S11317C0E0918501F0918601309709F00995FF9128
S11317D0EF91BF91AF919F918F917F916F915F91A5
S11317E04F913F912F910F900FBE0F901F9018951E
S11317F01F920F920FB60F9211242F933F934F9382
S11318005F936F937F938F939F93AF93BF93EF9364
S1131810FF93E0918701F0918801309709F00995D1
S1131820FF91EF91BF91AF919F918F917F916F91B4
S11318305F914F913F912F910F900FBE0F901F908A
S113184018951F920F920FB60F9211242F933F9366
S11318504F935F936F937F938F939F93AF93BF93B4
S1131860EF93FF93E0917501F0917601309709F0C1
S11318700995FF91EF91BF91AF919F918F917F91C6
S11318806F915F914F913F912F910F900FBE0F90E9
S11318901F9018951F920F920FB60F9211242F9339
S11318A03F934F935F936F937F938F939F93AF93E4
S11318B0BF93EF93FF93E0917701F0917801309714
S11318C009F00995FF91EF91BF91AF919F918F918D
S11318D07F916F915F914F913F912F910F900FBE28
S11318E00F901F9018951F920F920FB60F9211240C
S11318F02F933F934F935F936F937F938F939F9314
S1131900AF93BF93EF93FF93E0917901F0917A0144
S1131910309709F00995FF91EF91BF91AF919F9195
S11319208F917F916F915F914F913F912F910F9084
S11319300FBE0F901F9018951F920F920FB60F9223
S113194011242F933F934F935F936F937F938F93C0
S11319509F93AF93BF93EF93FF93E0917D01F09139
S11319607E01309709F00995FF91EF91BF91AF91F6
S11319709F918F917F916F915F914F913F912F91A3
S11319800F900FBE0F901F9018951F920F920FB6D5
S11319900F9211242F933F934F935F936F937F93F1
S11319A08F939F93AF93BF93EF93FF93E0917F0146
S11319B0F0918001309709F00995FF91EF91BF9163
S11319C0AF919F918F917F916F915F914F913F91D3
S11319D02F910F900FBE0F901F9018951F920F928A
S11319E00FB60F9211242F933F934F935F936F93EE
S11319F07F938F939F93AF93BF93EF93FF93E09164
S1131A007B01F0917C01309709F00995FF91EF91EA
S1131A10BF91AF919F918F917F916F915F914F9102
S1131A203F912F910F900FBE0F901F9018951F920A
S1131A300F920FB60F9211242F933F934F935F93FE
S1131A406F937F938F939F93AF93BF93EF93FF9382
S1131A50E0918101F0918201309709F00995FF919D
S1131A60EF91BF91AF919F918F917F916F915F9112
S1131A704F913F912F910F900FBE0F901F9018958B
S1131A801F920F920FB60F9211242F933F934F93EF
S1131A905F936F937F938F939F93AF93BF93EF93D2
S1131AA0FF93E0916B01F0916C01309709F0099577
S1131AB0FF91EF91BF91AF919F918F917F916F9122
S1131AC05F914F913F912F910F900FBE0F901F90F8
S1131AD018951F920F920FB60F9211242F933F93D4
S1131AE04F935F936F937F938F939F93AF93BF9322
S1131AF0EF93FF93E0916D01F0916E01309709F03F
S1131B000995FF91EF91BF91AF919F918F917F9133
S1131B106F915F914F913F912F910F900FBE0F9056
S1131B201F9018951F920F920FB60F9211242F93A6
S1131B303F934F935F936F937F938F939F93AF9351
S1131B40BF93EF93FF93E0916F01F0917001309791
S1131B5009F00995FF91EF91BF91AF919F918F91FA
S1131B607F916F915F914F913F912F910F900FBE95
S1131B700F901F9018951F920F920FB60F92112479
S1131B802F933F934F935F936F937F938F939F9381
S1131B90AF93BF93EF93FF93E0917101F0917201C2
S1131BA0309709F00995FF91EF91BF91AF919F9103
S1131BB08F917F916F915F914F913F912F910F90F2
S1131BC00FBE0F901F90189580E10E94D0098823C2
S1131BD011F082E009C0E3E6F1E01192119281E094
S1131BE0E33AF807D1F781E0992708950F931F93FB
S1131BF0CF93DF93082F11278A3091F08B3040F474
S1131C00883091F1893020F5873009F049C037C018
S1131C108D3049F08B3181F08C3009F041C006C021
S1131C201092FC0103C01092FC017AC08091FD0166
S1131C3081508093FD0174C00E9433037DC061E034
S1131C4080E00E9436048091FC018F5F8093FC0148
S1131C508091FC0187FFF3CF1092FC018091FD017C
S1131C6081508093FD0168C08091FC01882309F4B0
S1131C7057C08091FC0186508093FC0151C081E0E3
S1131C800E942F1024E630E04DE750E064EF71E04D
S1131C9080E090E00E943C1081E00E94800F40C0F0
S1131CA06091FC018091FD010E94E103E801CC0FE9
S1131CB0DD1FCC0FDD1FC00FD11FCD59DE4F10E04B
S1131CC0FE01849161E00E9436041F5F2196153065
S1131CD0B9F761E080E00E9436048091FC018A5FDC
S1131CE08093FC018091FC0199278C3791053CF08D
S1131CF01092FC018091FD0181508093FD0180913F
S1131D00FD0183708093FD018091FE018130D9F43F
S1131D10E091FF01F09100023097A9F0099513C0FA
S1131D206091FC018091FD010E94E1038091FD011D
S1131D3083708093FD0107C06091FC018091FD01D7
S1131D400E94E103DCCF80E090E0DF91CF911F910E
S1131D500F9108951F93182F86E00E94DE098823AF
S1131D6019F0812F0E94B60E1F910895992785FDC1
S1131D705D9886FD5E980895F8940E941B0F81E09B
S1131D800E94C50E81E090E00895813071F0F894CE
S1131D90813059F0813030F08230C9F0833009F05D
S1131DA046C01AC080E090E020C02C9A80E880935E
S1131DB061001092610080E090E00000019688329A
S1131DC09105D9F71092680010926B00089580E88D
S1131DD08093610083E004C080E88093610088E020
S1131DE08093610026C0000001962DE6803692079C
S1131DF0D1F72C9880E090E0000001962DE6803623
S1131E009207D1F710927A008FEF8093640080914B
S1131E10680081608093680080916B008460809387
S1131E206B00789483B7816083BF8895089582306E
S1131E3008F078940895249A2C9A089583E58CBD2B
S1131E4081E08DBD84EF91E00197F1F7089583E57A
S1131E508CBD81E08DBD8DE08A95F1F7089583E511
S1131E608CBD1DBC84EF91E00197F1F708958FE7D5
S1131E708CBD1DBC84EF91E00197F1F7089583E5D3
S1131E808CBD81E08DBD8DE08A95F1F708951F9397
S1131E90162F0E94C60482E00E94DE09882329F0DE
S1131EA01EBD0DB407FEFDCF8EB599271F91089571
S1131EB08AE00E94BF09882329F481E00E949210DD
S1131EC01092B401089589E00E94BF098823B9F4EF
S1131ED08091B301882311F00E94D81082E00E94FF
S1131EE092108091C1019091C201009731F00E943B
S1131EF0B9201092C2011092C1011092B301089549
S1131F00813029F0823029F40E94630F08950E94E1
S1131F10580F0895CF92DF92EF92FF920F931F9381
S1131F20CF93DF9380E291E00E942420EC01909310
S1131F30C2018093C101892B11F480E044C0CC24F8
S1131F40DD24EE24FF248701C801B7010E94E61CAA
S1131F50D7FE06C020E030E040E857E40E94061CAB
S1131F6020E030E040EA51E40E94721C27EF35E79C
S1131F7040E05FE30E94AF1D9B01AC0160E070E0B4
S1131F8080E291E40E941C1E2DEC3CEC42E851E4FA
S1131F900E94AF1D0E94721D2AE030E040E050E034
S1131FA00E94A11F69937993899399930894C11C02
S1131FB0D11C0894E11CF11C011D111D88E4C816F4
S1131FC0D10411F681E09927DF91CF911F910F91F0
S1131FD0FF90EF90DF90CF9008958AE00E94D0099F
S1131FE0882311F082E00AC01092BE011092BD0154
S1131FF081E00E94AE1081E08093B4019927089596
S11320001F9389E00E94D009882311F082E024C044
S11320108BE00E94DE098823D9F40E948A0F182FCE
S1132020813011F086E018C01092B5011092B6010B
S11320301092B7011092B80165E172E18DE00E943F
S1132040F21182E00E94AE101093B30181E004C04B
S113205089E00E94BF0987E099271F910895813084
S113206021F0823029F084E005C00E94ED0F02C007
S11320700E940010992708956F927F928F929F92E9
S1132080AF92BF92CF92DF92EF92FF920F931F9382
S1132090CF93DF933B014C015A01E9018AE00E948E
S11320A0DE09882381F1209741F1B501882777FD66
S11320B08095982F9E01C536D10510F024E630E0B6
S11320C0442755270E94A11F24E630E040E050E059
S11320D00E94B11F79018A01C401B3010E94181240
S11320E0C7010E94C00A60E070E080E090E00E94B6
S11320F01812C5018E199F0904C0A114B10419F066
S1132100C5010E94C00ADF91CF911F910F91FF90EA
S1132110EF90DF90CF90BF90AF909F908F907F9083
S11321206F900895823029F4809181008E7F80938E
S113213081008091B301813031F48091B401813008
S113214011F4000008958091B301813021F0809151
S1132150B401813011F45F9857980895982F8091B5
S1132160B301882331F48091B401882311F4579A80
S11321705F988091B3018823D1F49230C1F4109216
S1132180800010928100809181008860809381009A
S1132190809181008160809381001092850010926B
S11321A0840081E08093890080E980938800089509
S11321B0EFE6F0E080818D7F80830895982F81E0A1
S11321C080933802913051F0913018F0923041F4FC
S11321D003C01092200204C0109220021092210227
S11321E0109238020895982F81E08093380291303C
S11321F071F0913018F0923071F405C070931502AB
S11322006093140208C070931502609314027093D3
S113221017026093160210923802089521E0209369
S113222038029093150280931402709317026093FE
S11322301602109238020895982F81E08093380294
S1132240913051F0913018F0923041F403C0609312
S1132250220204C060932202609323021092380287
S113226008950F931F93CF93DF938B01EA0181307D
S113227031F1813018F0823061F513C080910C0285
S113228090910D02892B11F080E008C01092190280
S1132290109218021EC0AE01B80181E00E947D12A6
S11322A018C080910C0290910D02892B21F080E0DE
S11322B00E947D1204C0109219021092180280919B
S11322C00E0290910F02892B31F710921B0210928B
S11322D01A02DF91CF911F910F910895CF93DF934D
S11322E0C0E0D0E060E08C2F0E947D112196C531C2
S11322F0D105C1F7DF91CF910895853128F4E82FF6
S1132300FF27E951FE4F608308951F93CF93DF9316
S1132310EC01892B99F181E00E94DE09882351F1B7
S113232087E00E94C60418EC812F8A95F1F76AE0D1
S113233082E00E94250564EB82E00E942505812F3E
S11323408A95F1F760E082E00E94470F8883812F2D
S11323508A95F1F760E082E00E94470F89831A951D
S1132360F1F760E082E00E94470F8A8387E00E94D1
S1132370C60404C0188219828DE28A83DF91CF914A
S11323801F91089588E00E94D009882311F082E00B
S113239014C01092590210925B0210925A021092C9
S11323A0C3011092C40168EE72E180E10E9405123B
S11323B00E94E3110E94EC1181E09927089581E0C5
S11323C08093C401089584B5826084BD85B584601A
S11323D085BD8EE487BD0895EEE6F0E080818260DD
S11323E080830895E82F803268F48051833050F060
S11323F0FF27EE0FFF1FED59FE4F808191817183FE
S11324006083089580E090E00895803218F080E0C1
S113241090E00895E82FFF27EE0FFF1FED59FE4FC0
S1132420808191817183608308950E943C12089594
S1132430EF92FF920F931F937B018C018AE00E941D
S1132440DE098823A1F08091B401882381F0D801AA
S1132450C701880F991FAA1FBB1F9093C0018093C7
S1132460BF01E114F1040105110509F45F981F91FE
S11324700F91FF90EF9008958091B5019091B6016E
S1132480A091B701B091B8012091B9013091BA017E
S11324904091BB015091BC01820F931FA41FB51F33
S11324A08093B5019093B601A093B701B093B8019E
S11324B08091B5019091B601A091B701B091B80196
S11324C08851964FA040B040BCF08BB180588BB976
S11324D08091B5019091B601A091B701B091B80176
S11324E08851964FA040B0408093B5019093B601B7
S11324F0A093B701B093B8010895EF92FF920F93A0
S11325001F93CF93DF93EB01882321F0813009F0EF
S113251058C02CC0CA019C0144275527CA01B901DF
S11325200E94A11F20910C0230910D02220F331F33
S1132530442755270E94B11F79018A01220F331FB6
S1132540441F551FCE01AA27BB2782179307A40750
S1132550B50728F0F0921902E092180232C0D6951D
S1132560C795D0931902C09318022BC0CA019C01CD
S113257044275527CA01B9010E94A11F20910E02C8
S113258030910F02220F331F442755270E94B11F99
S113259079018A01220F331F441F551FCE01AA2738
S11325A0BB2782179307A407B50728F0F0921B02F4
S11325B0E0921A0206C0D695C795D0931B02C09329
S11325C01A02DF91CF911F910F91FF90EF90089520
S11325D00E94EF120E9430130E940913089588E0AC
S11325E00E94DE09882311F484E011C08091C401A3
S11325F0882311F483E00BC08091C301882311F078
S113260082E005C00E947B158130E1F380E09927C8
S113261008958091B401813011F58091BD019091AC
S1132620BE012091BF013091C001820F931F90938E
S1132630BE018093BD018091BD019091BE01885E71
S113264093406CF08BB180588BB98091BD0190910F
S1132650BE01885E93409093BE018093BD010895AE
S113266087E00E94DE09882309F4AAC080910C0245
S113267090910D02892B09F18091300290913102E1
S113268020910C0230910D02820F931F909331021E
S1132690809330028091300290913102885E9340A1
S11326A0A4F08091300290913102885E934090931F
S11326B031028093300241E009C08091040290917C
S11326C00502909309028093080240E080910E0273
S11326D090910F02892B09F180913202909133027B
S11326E020910E0230910F02820F931F90933302B8
S11326F0809332028091320290913302885E93403B
S1132700A4F08091320290913302885E93409093BA
S113271033028093320261E009C0809106029091F5
S1132720070290930B0280930A0260E0842F0E94B8
S1132730E11380912C0290912D0220910802309196
S11327400902820F931F90932D0280932C02809193
S11327502C0290912D02885E934014F440E00BC04B
S113276080912C0290912D02885E934090932D02CB
S113277080932C0241E080912E0290912F022091AF
S11327800A0230910B02820F931F90932F028093C1
S11327902E0280912E0290912F02885E934014F4B1
S11327A060E00BC080912E0290912F02885E9340CE
S11327B090932F0280932E0261E0842F0E942614AE
S11327C008958823F1F0209104023091050280914C
S11327D0080290910902281B390B1216130634F4CF
S11327E08091080290910902019607C0232B49F0B9
S11327F080910802909109020197909309028093B5
S11328000802662311F1209106023091070280919B
S11328100A0290910B02281B390B1216130654F46A
S113282080910A0290910B02019690930B0280937F
S11328300A020895232B49F080910A0290910B0219
S1132840019790930B0280930A0208950F931F93AC
S1132850082F162F80913802882309F0E3C0809155
S11328602002882309F05AC080910802909109023D
S1132870892BE9F48091C501837E8093C501109270
S1132880290280913402882309F45BC060912202FA
S113289080E00E942109E0913602F09137023097DE
S11328A009F44FC081E08083109234024AC08091C1
S11328B00202813041F48091140290911502019733
S11328C011F401E002C00023E1F19091C501937E6F
S11328D0E0912702FF27EE5EFE4F8081982B9093B4
S11328E0C50180912502882321F4809127028F5FFE
S11328F003C0809127028150809327028091270290
S113290083708093270281E08093290280910202E0
S11329108130B9F480E00E94251513C09091C5015F
S1132920937EE0912702FF27EE5EFE4F8081982B75
S11329309093C50182E080932902109209021092BB
S1132940080280912102882309F059C080910A026B
S113295090910B02892BE9F48091C5018F718093CA
S1132960C50110922A0280913502882309F45AC0C5
S11329706091230281E00E942109E0913602F091E6
S11329803702309709F44EC081E0818310923502FA
S113299049C080910302813041F4809116029091E4
S11329A01702019711F411E002C01123D9F190919B
S11329B0C5019F71E0912802FF27EA5EFE4F8081E6
S11329C0982B9093C50180912602882321F480914D
S11329D028028F5F03C080912802815080932802CF
S11329E08091280283708093280281E080932A02D8
S11329F0809103028130B1F40E94251513C0909197
S1132A00C5019F71E0912802FF27EA5EFE4F808195
S1132A10982B9093C50182E080932A0210920B02B6
S1132A2010920A0280912B02882331F4412F602FE7
S1132A3085EC91E00E94EA1588B183709091C501FC
S1132A40892B88B91F910F9108951F93182F8823FC
S1132A5021F0813009F04DC027C08091140290917B
S1132A601502892B49F08091140290911502019767
S1132A709093150280931402809134028823C9F53F
S1132A80209114023091150280911802909119023C
S1132A902817390771F560E070E080E00E94C007F4
S1132AA081E08093340225C0809116029091170230
S1132AB0892B49F080911602909117020197909307
S1132AC017028093160280913502882391F4209195
S1132AD016023091170280911A0290911B02281756
S1132AE0390739F460E070E081E00E94C007109378
S1132AF035021F910895FF920F931F93CF93DF9395
S1132B0080915902882309F459C000915A02109106
S1132B105B02F801C081D1818C819D8101979D83E5
S1132B208C83181619060CF449C0898180FF05C0EE
S1132B308E81882311F481E08E83898181FF03C013
S1132B40EF81F8850995809159028230A8F0F80147
S1132B508281938190935B0280935A021382128242
S1132B60E0910000F0910100848195811816190606
S1132B703CF081E0F82E05C010925B0210925A02DC
S1132B80FF24809159028150809359028091590207
S1132B90882311F40E94E715898182FF08C08A8185
S1132BA09B819D838C83C8010E942D0B08C0C801A2
S1132BB00E94B92089818F7E898301C0FF248F2DD3
S1132BC09927DF91CF911F910F91FF900895109253
S1132BD0C4010895FC0180912902823069F4809136
S1132BE0C90191E089278093C901882309F03EC077
S1132BF08081837E80833AC080910802909109028B
S1132C00C397A4F56623D1F02091080230910902FC
S1132C1080E690E0BC01269FC001279F900D369F5F
S1132C20900D1124880F892F881F990B90931D02F2
S1132C3080931C0281E08093C70118C08091C70172
S1132C408823A1F080911C0290911D02019790931A
S1132C501D0280931C0280911C0290911D02892BFD
S1132C6029F48081837E80831092C70180912A0297
S1132C70823069F48091C80191E089278093C8016A
S1132C80882309F03EC080818F71808308958091EC
S1132C900A0290910B02C397A4F54423D1F020912A
S1132CA00A0230910B0280E690E0AC01249FC0013F
S1132CB0259F900D349F900D1124880F892F881F14
S1132CC0990B90931F0280931E0281E08093C601AA
S1132CD008958091C6018823A1F080911E029091ED
S1132CE01F02019790931F0280931E0280911E027F
S1132CF090911F02892B29F480818F718083109217
S1132D00C6010895CF93DF93FC0130812091DD014A
S1132D10321303C02081211116C0EC010E94330339
S1132D208881813031F060F0823031F48CE291E0BE
S1132D3005C080E291E002C088E391E00E9477221E
S1132D4088818093DD01DF91CF910895DC01FB013F
S1132D509C918081981325C011962D913C911297D6
S1132D608181928128173907E1F413962D913C91C2
S1132D701497838194812817390799F415962D9116
S1132D803C911697858196812817390751F4179637
S1132D904D915C9118972781308581E04217530744
S1132DA009F080E00895CF93DF93EC019B018091BB
S1132DB0DC0181110AC041E061E083ED91E00E94F1
S1132DC0EE0A81E08093DC0111C08091D90188234F
S1132DD069F080E40E945F0480E00E94EB0988832C
S1132DE081E00E94EB0989831092D901DF91CF9190
S1132DF00895FC0181E0808388EC90E092838183D4
S1132E009483838380E991E0968385839087878385
S1132E1008954F925F926F927F928F929F92AF929A
S1132E20BF92CF92DF92EF92FF920F931F93CF93B3
S1132E30DF93EC013B01FB01D080F1E0DF124DC0D8
S1132E40E2E09E2E988260E082E00E9421091F92B7
S1132E501F921F92DF92F0E94F2E4F921F92A8EC1F
S1132E605A2E5F921F928AEF8F9388248394A12C09
S1132E70B12CC12CB0E9EB2EFF24F39408EC10E044
S1132E802AEF30E041E062E080E00E94E5051F9215
S1132E901F921F92DF924F921F925F921F9286E9B8
S1132EA08F9326E930E040E062E080E00E94E5058F
S1132EB0988288EC90E09A8389839C838B8380E951
S1132EC091E09E838D8398878F838DB79EB74296BA
S1132ED00FB6F8949EBF0FBE8DBFF301D180F1E011
S1132EE0DF124EC042E0942E988260E082E00E949D
S1132EF021091F921F921F92DF9250E9452E4F9293
S1132F001F9268EC562E5F921F928AEF8F9388244B
S1132F108394A12CB12CC12C70E9E72EFF24F394E7
S1132F2008EC10E02AEF30E041E062E080E00E942B
S1132F30E5051F921F921F92DF924F921F925F929C
S1132F401F9286E98F93812C26E930E041E062E00C
S1132F5080E00E94E505988288EC90E09A8389835A
S1132F609C838B8380E991E09E838D8398878F83F4
S1132F708DB79EB742960FB6F8949EBF0FBE8DBF15
S1132F80F3018181813009F052C0D080F1E0DF1279
S1132F904EC082E0782E788260E082E00E942109AF
S1132FA01F921F921F92DF9290E9992E9F921F9277
S1132FB028EC622E6F92DF9284EF8F93882483949F
S1132FC0A12CB12CC12C30E9E32EFF24F39408EC9E
S1132FD010E024EF31E041E062E080E00E94E5058A
S1132FE01F921F921F92DF929F921F926F921F92C5
S1132FF08FEA8F93812C2FEA30E041E062E080E099
S11330000E94E505788288EC90E09A8389839C830A
S11330108B8380E991E09E838D8398878F838DB71E
S11330209EB742960FB6F8949EBF0FBE8DBFDF9138
S1133030CF911F910F91FF90EF90DF90CF90BF90B1
S1133040AF909F908F907F906F905F904F90089576
S1133050CF93DF93EC016AEC71E00E94A616811114
S113306014C06F8178858D819E810E9470076B8169
S11330707C8189819A810E94070789E0FE01AAEC7C
S1133080B1E001900D928A95E1F7DF91CF91089517
S1133090CF93DF9300D0CDB7DEB70E9453040E94D4
S11330A059030E945D061092E0011092DF01109214
S11330B0E2011092E1011092E4011092E3011092F6
S11330C0E6011092E5011092DE0187E491E00E948E
S11330D0772288EB9BE00E94C00A0E9433036DE7CD
S11330E070E0CE0101960E94D3168EED91E00E940D
S11330F0F916BE016F5F7F4F8EED91E00E940917B4
S11331008EED91E00E9428188EED91E00E948216C7
S1133110E6CFA3E1B0E0EFE8F8E10C94DE1F6C0128
S11331204B012A01FC0117821682838181FF43C36C
S1133130AE014F5F5F4F3A01F6019381F40193FDB5
S1133140859193FF81914F01882309F430C385321F
S113315039F493FD859193FF81914F01853239F4C0
S1133160B60190E00E943F2252012501E5CF10E014
S1133170F12C20E02032A0F48B3269F030F480325C
S113318059F0833269F420612CC08D3239F08033D8
S113319039F4216026C02260246023C0286021C045
S11331A027FD27C030ED380F3A3078F426FF06C0EB
S11331B0FAE01F9F300D1124132F13C04AE0F49E30
S11331C0300D1124F32E20620CC08E3221F426FD22
S11331D0EEC2206406C08C3611F4206802C0883622
S11331E041F4F40193FD859193FF81914F01811185
S11331F0C1CF9BEB980F933018F42061805E06C01A
S11332009BE9980F933008F071C12F7E26FF16E0DA
S11332102F73322E853619F42064322E08C0863678
S113322021F4F22FF0683F2E02C01111115037FE25
S113323007C01C3350F4EE24E394E10E27E00BC0E6
S1133240183038F027E017E005C027E04CE3E42EFF
S113325002C0212FE12C520144E0A40EB11CF20162
S113326060817181828193810E2DA3010E9451217D
S11332702C01098100FF02C003FF07C031FC08C014
S113328032FE09C030E2232E07C02DE2222E04C0F4
S11332909BE2292E01C0212C802F8C7019F0211063
S11332A068C2A8C237FE0FC0E40C04FF04C08A81C0
S11332B0813309F4EA941E1474F5F8E0FE1578F5E8
S11332C088E0E82E2CC036FC2AC0812F90E08415BB
S11332D095059CF02CEF42162FEF520674F0432D07
S11332E04068342E0AC0E2E0F0E0EC0FFD1FE10F6D
S11332F0F11D8081803319F411501111F4CF37FE80
S11333000EC0EE24E394E10E812F90E04816590696
S11333102CF4141904C0EE24E39401C010E037FE29
S113332006C01414150434F4C201019605C085E0E6
S113333090E002C081E090E021100196112331F069
S1133340212F30E02F5F3F4F820F931F2F2D30E04E
S11333508217930714F4F81A01C0F12C832D897095
S113336049F4FF2039F0B60180E290E00E943F2248
S1133370FA94F7CF222029F0B601822D90E00E9422
S11333803F2233FC09C0FF2039F0B60180E390E00E
S11333900E943F22FA94F7CF37FE5AC0942D852D10
S11333A057FE02C090E080E0292E382E20E030E065
S11333B0A2014E1951095D874C87A2014219530994
S11333C05F874E87612F70E044275527461B570BB4
S11333D0598B488B5FEF2516350649F4B6018EE20A
S11333E090E02A8B3B8B0E943F223B892A8942141E
S11333F053046CF04C855D854215530544F4EE8509
S1133400FF85E20FF31FE60DF71D818101C080E304
S113341051E0251A31082F5F3F4F488959892416F6
S113342035064CF0B60190E02A8B3B8B0E943F227C
S11334302A893B89CFCF2414350439F49A819633F1
S113344018F4953311F404FF81E3B60190E04BC006
S11334508A81813309F00F7EB60190E00E943F22F9
S1133460111105C034FC18C085E690E017C0B60100
S11334708EE290E00E943F2282E0EE24E394E80E84
S1133480F301E80FF11D8081B60190E00E943F2214
S113349011508E2D91F7E6CF85E490E0B6010E949D
S11334A03F2257FC05C04114510439F404FF05C000
S11334B05194419451088DE201C08BE2B60190E031
S11334C00E943F2280E39AE0491651042CF08F5F5A
S11334D05AE0451A5108F7CFB60190E00E943F2206
S11334E0B601C201C0960E943F2257C1833631F013
S11334F0833779F0833509F058C021C05201E2E0E6
S1133500AE0EB11CF2018081898301E010E0230139
S113351014C05201F2E0AF0EB11CF20140805180A0
S113352026FF03C0612F70E002C06FEF7FEFC2017E
S11335302A8B0E9434228C012A892F7715C05201CC
S1133540F2E0AF0EB11CF2014080518026FF03C0AF
S1133550612F70E002C06FEF7FEFC2012A8B0E94DF
S113356029228C012A892068322E23FD1AC08F2D2E
S113357090E008171907A8F4B60180E290E00E94D1
S11335803F22FA94F4CFF20137FC859137FE819102
S11335902F01B60190E00E943F22F110FA940150ED
S11335A011090115110579F7F8C0843611F089362F
S11335B059F5520127FF09C0F4E0AF0EB11CF20126
S11335C060817181828193810AC0F2E0AF0EB11CE7
S11335D0F20160817181072E000C880B990B2F7604
S11335E0322E97FF09C090958095709561957F4F15
S11335F08F4F9F4F2068322E2AE030E0A3010E94B3
S1133600A722E82EE6183FC0022F853721F40F7E4B
S11336102AE030E01DC0097F8F3691F018F4883518
S113362059F0C5C0803719F0883711F0C0C0006167
S113363004FF09C0046007C024FF08C0066006C078
S113364028E030E005C020E130E002C020E132E0B3
S1133650520107FF09C0F4E0AF0EB11CF201608112
S113366071818281938108C0F2E0AF0EB11CF20136
S11336706081718180E090E0A3010E94A722E82E7E
S1133680E6180F77302E36FE0BC0332D3E7FE11641
S113369050F434FE0AC032FC08C0332D3E7E05C00F
S11336A00E2D332D03C00E2D01C0012F34FF0CC08D
S11336B0FE01EE0DF11D8081803311F4397E08C0C6
S11336C032FF05C00E5F04C0832F867809F00F5FB8
S11336D033FD13C030FF06C01E2D0F1518F41F0D47
S11336E0101B0F2D0F1568F4B60180E290E03B8BA0
S11336F00E943F220F5F3B89F5CF0F1510F4F01A9B
S113370001C0F12C34FF12C0B60180E390E03B8B82
S11337100E943F223B8932FF17C031FD03C088E776
S113372090E002C088E590E0B6010CC0832F867853
S113373059F031FF02C08BE201C080E237FD8DE217
S1133740B60190E00E943F22E11638F4B60180E30E
S113375090E00E943F221150F7CFEA94F301EE0D5E
S1133760F11D8081B60190E00E943F22E110F5CF67
S113377014C0F4E0FF1558F584E0F81A33FE1EC0B7
S1133780211026C003FF2AC00EEF10E0F32DF071C4
S11337903F2EF8018491811124C0FF2009F4E5CC67
S11337A0B60180E290E00E943F22FA94F6CFF6013F
S11337B08681978126C08FEF9FEF23C0B60180E2F8
S11337C090E00E943F22FA94F110F8CFD9CFF12C67
S11337D0B601822D90E00E943F22D4CF02E011E096
S11337E0D5CF31108052B60190E00E943F220F5F86
S11337F01F4FCFCF23E02F1510F483E0BECFF12C61
S1133800C1CF6396E2E10C94FA1F5058BB27AA2754
S11338100E941D1C0C94381D0E942A1D38F00E9421
S1133820311D20F039F49F3F19F426F40C94271D20
S11338300EF4E095E7FB0C94211DE92F0E94491D2D
S113384058F3BA17620773078407950720F079F4D1
S1133850A6F50C946B1D0EF4E0950B2EBA2FA02D3B
S11338600B01B90190010C01CA01A0011124FF2729
S1133870591B99F0593F50F4503E68F11A16F04024
S1133880A22F232F342F4427585FF3CF4695379523
S11338902795A795F0405395C9F77EF41F16BA0BE8
S11338A0620B730B840BBAF09150A1F0FF0FBB1F96
S11338B0661F771F881FC2F70EC0BA0F621F731FDF
S11338C0841F48F4879577956795B795F7959E3F3C
S11338D008F0B0CF9395880F08F09927EE0F9795CD
S11338E0879508950E94861C0C94381D0E94311DF2
S11338F058F00E942A1D40F029F45F3F29F00C94EF
S1133900211D51110C946C1D0C94271D0E94491DFE
S113391068F39923B1F3552391F3951B550BBB27FA
S1133920AA2762177307840738F09F5F5F4F220F3F
S1133930331F441FAA1FA9F335D00E2E3AF0E0E836
S113394032D091505040E695001CCAF72BD0FE2F80
S113395029D0660F771F881FBB1F26173707480714
S1133960AB07B0E809F0BB0B802DBF01FF279358CC
S11339705F4F3AF09E3F510578F00C94211D0C9452
S11339806C1D5F3FE4F3983ED4F386957795679575
S1133990B795F7959F5FC9F7880F911D9695879501
S11339A097F90895E1E0660F771F881FBB1F621720
S11339B073078407BA0720F0621B730B840BBA0BDE
S11339C0EE1F88F7E0950895E89409C097FB3EF44C
S11339D090958095709561957F4F8F4F9F4F992358
S11339E0A9F0F92F96E9BB279395F69587957795D6
S11339F06795B795F111F8CFFAF4BB0F11F460FF96
S1133A001BC06F5F7F4F8F4F9F4F16C0882311F0ED
S1133A1096E911C0772321F09EE8872F762F05C001
S1133A20662371F096E8862F70E060E02AF09A959C
S1133A30660F771F881FDAF7880F9695879597F991
S1133A40089597F99F6780E870E060E008959FEF1C
S1133A5080EC089500240A94161617061806090621
S1133A60089500240A9412161306140605060895F0
S1133A70092E0394000C11F4882352F0BB0F40F478
S1133A80BF2B11F460FF04C06F5F7F4F8F4F9F4FB8
S1133A90089557FD9058440F551F59F05F3F71F03A
S1133AA04795880F97FB991F61F09F3F79F08795A1
S1133AB00895121613061406551FF2CF4695F1DF2A
S1133AC008C0161617061806991FF1CF86957105BA
S1133AD0610508940895E894BB2766277727CB01EE
S1133AE097F908950E94511DA8F19E57B0F198517D
S1133AF060F039F1983070F5092E9927660F771F19
S1133B00881F991F0A94D1F71CC0BB27993F4CF416
S1133B10B111B1E0B62B672F782F8827985FB1F7E2
S1133B2008C0869577956795B79508F4B160939525
S1133B30C1F7BB0F30F411F460FF03C06F5F7F4F18
S1133B408F4F3EF490958095709561957F4F8F4F80
S1133B509F4F089568940C946C1D0C946B1D0E94E7
S1133B60C21D0C94381D0E942A1D38F00E94311D7C
S1133B7020F0952311F00C94211D0C94271D112481
S1133B800C946C1D0E94491D70F3959FC1F3950F11
S1133B9050E0551F629FF001729FBB27F00DB11DCD
S1133BA0639FAA27F00DB11DAA1F649F6627B00D5D
S1133BB0A11D661F829F2227B00DA11D621F739F46
S1133BC0B00DA11D621F839FA00D611D221F749F54
S1133BD03327A00D611D231F849F600D211D822F9B
S1133BE0762F6A2F11249F5750409AF0F1F08823C2
S1133BF04AF0EE0FFF1FBB1F661F771F881F9150EF
S1133C005040A9F79E3F510580F00C94211D0C945F
S1133C106C1D5F3FE4F3983ED4F3869577956795E2
S1133C20B795F795E7959F5FC1F7FE2B880F911D18
S1133C309695879597F90895FA01EE0FFF1F309630
S1133C4021053105A1F16115710561F48038BFE3E7
S1133C509B0749F168949038810561F08038BFEF83
S1133C609B0741F099234AF5FF3FE1053105210502
S1133C7019F1E8940894E795D901AA2329F4AB2F04
S1133C80BE2FF85FD0F310C0FF5F70F4A695E0F785
S1133C90F73950F019F0FF3A38F49F779F930DD01D
S1133CA00F9007FC9058089546F00C94271D60E08F
S1133CB070E080E89FE308954FE79F775F934F9309
S1133CC03F932F930E94171F2F913F914F915F9124
S1133CD00E94AF1D0C94741E29F416F00C94211D3F
S1133CE00C946B1D0C94271D0E94511DA8F396384B
S1133CF0A0F707F80F92E8942BE33AEA48EB5FE762
S1133D000E94C51D0F920F920F924DB75EB70F928E
S1133D100E945F1FECE7F0E00E94A61E4F915F91A6
S1133D20EF91FF91E595EE1FFF1F49F0FE57E06804
S1133D304427EE0F441FFA95E1F74195550B0E9475
S1133D40D91E0F9007FE0C94CD1E0895DF93CF93D8
S1133D501F930F93FF92EF92DF927B018C01689483
S1133D6006C0DA2EEF010E94C21DFE01E894A5915F
S1133D702591359145915591A6F3EF010E941D1CA3
S1133D80FE019701A801DA9469F7DF90EF90FF90A4
S1133D900F911F91CF91DF9108959B01AC0160E0D9
S1133DA070E080E89FE30C94721C0C94211D0C9429
S1133DB0931F0E94511DD8F39923C9F3940F511DE9
S1133DC0A3F39150504094F059F0882332F0660FD9
S1133DD0771F881F91505040C1F79E3F51052CF723
S1133DE0880F911D9695879597F908955F3FACF0DC
S1133DF0983E9CF0BB27869577956795B79508F410
S1133E00B1609395C1F7BB0F58F711F460FFE8CF89
S1133E106F5F7F4F8F4F9F4FE3CF0C946C1D16F055
S1133E200C94931F0C94271D68940C94211D0E94DC
S1133E30511DA8F39923C1F3AEF3DF93CF931F93DE
S1133E400F93FF92C92FDD2788232AF02197660F4D
S1133E50771F881FDAF720E030E040E85FEB9FE34C
S1133E60883920F0803E38F021968F770E94061C16
S1133E70E4EAF0E004C00E94061CE1EDF0E00E94D8
S1133E80A61E8B01BE01EC01FB2E6F5771097595BF
S1133E90771F880B990B0E94E61C28E132E741E367
S1133EA05FE30E94C21DAF2D9801AE01FF900F91F8
S1133EB01F91CF91DF910E941D1C0C94381DFA01B3
S1133EC0DC01AA0FBB1F9B01AC01BF5728F42227BA
S1133ED033274427507820C0B75190F4AB2F0024E7
S1133EE0469537952795011CA395D2F3002071F0D0
S1133EF0220F331F441FB395DAF30ED00C94051C24
S1133F0061307105A0E88A07B94630F49B01AC0121
S1133F106627772788279078309621F0208331838D
S1133F204283538308959F3F31F0915020F4879545
S1133F3077956795B795880F911D9695879597F90D
S1133F400895DB018F939F930E94D31FBF91AF917C
S1133F50A29F800D911DA39F900DB29F900D1124DF
S1133F600895A1E21A2EAA1BBB1BFD010DC0AA1FB6
S1133F70BB1FEE1FFF1FA217B307E407F50720F0CE
S1133F80A21BB30BE40BF50B661F771F881F991F49
S1133F901A9469F760957095809590959B01AC0192
S1133FA0BD01CF0108950E941520A59F900DB49FD7
S1133FB0900DA49F800D911D112408952F923F927E
S1133FC04F925F926F927F928F929F92AF92BF9225
S1133FD0CF92DF92EF92FF920F931F93CF93DF93D1
S1133FE0CDB7DEB7CA1BDB0B0FB6F894DEBF0FBE2E
S1133FF0CDBF09942A88398848885F846E847D847B
S11340008C849B84AA84B984C884DF80EE80FD807C
S11340100C811B81AA81B981CE0FD11D0FB6F894F2
S1134020DEBF0FBECDBFED010895A29FB001B39FC7
S1134030C001A39F700D811D1124911DB29F700DAD
S1134040811D1124911D0895CF93DF938230910532
S113405010F482E090E0E0915E02F0915F0220E0D3
S113406030E0C0E0D0E0309711F140815181481731
S11340705907C0F04817590761F48281938120974A
S113408019F09B838A832BC090935F0280935E0216
S113409026C02115310519F04217530718F49A0167
S11340A0BE01DF01EF010280F381E02DDCCF211599
S11340B0310509F1281B390B2430310590F412968F
S11340C08D919C9113976115710521F0FB019383E8
S11340D0828304C090935F0280935E02FD01329656
S11340E044C0FD01E20FF31F8193919322503109E3
S11340F02D933C933AC020915C0230915D02232BB6
S113410041F420911C0130911D0130935D022093F4
S11341105C0220911A0130911B012115310541F4F3
S11341202DB73EB740911E0150911F01241B350B42
S1134130E0915C02F0915D02E217F307A0F42E1BFC
S11341403F0B2817390778F0AC014E5F5F4F2417F7
S1134150350748F04E0F5F1F50935D0240935C0299
S11341608193919302C0E0E0F0E0CF01DF91CF9121
S113417008950F931F93CF93DF93009709F48CC096
S1134180FC0132971382128200915E0210915F0249
S11341900115110581F420813181820F931F209133
S11341A05C0230915D022817390779F5F0935D02BE
S11341B0E0935C0271C0D80140E050E0AE17BF0745
S11341C050F412962D913C911397AD0121153105B0
S11341D009F1D901F3CF9D01DA0133832283608190
S11341E07181860F971F8217930769F4EC01288168
S11341F03981260F371F2E5F3F4F318320838A81F9
S11342009B8193838283452B29F4F0935F02E0938F
S11342105E0242C01396FC93EE931297ED0149910E
S113422059919E01240F351FE217F30771F4808121
S11342309181840F951F029611969C938E9382818F
S1134240938113969C938E931297E0E0F0E0D8014B
S113425012968D919C911397009719F0F8018C0197
S1134260F6CF8D919C9198012E5F3F4F820F931F43
S113427020915C0230915D022817390769F4309768
S113428029F410925F0210925E0202C0138212821D
S113429010935D0200935C02DF91CF911F910F9107
S11342A00895283008F027E03327DA01990F311DEB
S11342B087FD916000966105710539F432602E5FC7
S11342C03D9330E32A95E1F708959F3F30F080381D
S11342D07105610509F03C5F3C5F3D93913008F046
S11342E08068911DDF93CF931F930F93FF92EF92FA
S11342F0192F987F9695E92F96959695E90FFF27A4
S1134300E05AFE4F99273327EE24FF24A701E70143
S113431005900894079428F4360FE71EF81E491FE9
S1134320511D660F771F881F991F0694A1F70590EA
S1134330079428F4E70EF81E491F561FC11D770F76
S1134340881F991F661F0694A1F70590079428F407
S1134350F80E491F561FC71FD11D880F991F661FCE
S1134360771F0694A1F70590079420F4490F561F70
S1134370C71FD81F990F661F771F881F0694A9F7B8
S113438084911095177041F0D695C7955795479528
S1134390F794E7941A95C1F7E6E0F1E06894159074
S11343A0159135916591959105907FE27395E1188A
S11343B0F10A430B560BC90BD009C0F7E10CF11EEF
S11343C0431F561FC91FD01D7EF4703311F48A9504
S11343D0E6CFE894015030F0080F0AF400270217E2
S11343E008F4202F2395022F7A3328F079E37D9364
S11343F02A95E9F710C07D932A9589F60694979536
S11344006795379517951794E118F10A430B560BE6
S1134410C90BD00998F023957E9173957A3308F0EF
S113442070E37C932013B8F77E9170617D9330F034
S1134430839571E37D9370E32A95E1F71124EF905E
S1134440FF900F911F91CF91DF91992787FD909550
S11344500895FC010590615070400110D8F78095D3
S113446090958E0F9F1F0895FC016150704001903C
S11344700110D8F7809590958E0F9F1F08950F9384
S11344801F93CF93DF93FB01238121FD03C08FEFA3
S11344909FEF28C022FF16C04681578124813581B1
S11344A04217530744F4A081B1819D012F5F3F4F10
S11344B0318320838C93268137812F5F3F4F37834D
S11344C0268310C0EB01092F182F0084F185E02DFD
S11344D00995892BE1F68E819F8101969F838E83B6
S11344E0812F902FDF91CF911F910F9108950F93FA
S11344F01F93CF93DF93E0916202F09163022381D3
S113450021FF1BC08C01D0E0C0E0F80181918F0134
S11345106091620270916302DB011896ED91FC9147
S11345201997882331F00995892B79F3DFEFCFEFC1
S1134530ECCF8AE00995892B19F08FEF9FEF02C029
S11345408D2F9C2FDF91CF911F910F910895FA0128
S1134550AA27283051F1203181F1E8946F936E7FBE
S11345606E5F7F4F8F4F9F4FAF4FB1E03ED0B4E0AF
S11345703CD0670F781F891F9A1FA11D680F791FF0
S11345808A1F911DA11D6A0F711D811D911DA11D01
S113459020D009F468943F912AE0269F1124301911
S11345A0305D3193DEF6CF010895462F4770405DAC
S11345B04193B3E00FD0C9F7F6CF462F4F70405D5B
S11345C04A3318F0495D31FD4052419302D0A9F7B6
S11345D0EACFB4E0A6959795879577956795BA95B0
S11345E0C9F700976105710508959B01AC010A2E76
S11345F006945795479537952795BA95C9F7620F4D
S1114600731F841F951FA01D0895F894FFCF0B
S113460E020103030000000200000000F60D00008A
S113461E0000180C041060C0802000006602200008
S113462E4352554953494E472E2E2E0041564F495B
S113463E44494E472E2E2E00556E6B6E6F776E20AC
S113464E737461746521005374617274696E672E9C
S107465E2E2E0000F8
S9030000FC
