S00C00004C6162352E73726563D4
S11300000C940B030C9428030C9428030C942803DD
S11300100C94400D0C94690D0C94920D0C94BB0D32
S11300200C9428030C94210C0C944A0C0C94730C1F
S11300300C94EE0C0C949C0C0C94C50C0C94170DA5
S11300400C94A60B0C94CF0B0C94F80B0C94280373
S11300500C9428030C9428030C9428030C94280370
S11300600C9428030C9428030C9428030C94280360
S11300700C9428030C9428030C9428030763423639
S1130080B79BD8A71A39685618AEBAAB558C1D3C25
S1130090B7CC5763BD6DEDFD753EF6177231BF00E9
S11300A00000803F08000000BE922449123EABAA23
S11300B0AA2ABECDCCCC4C3E00000080BEABAAAA7E
S11300C0AA3E00000000BF000000803F00000000C6
S11300D000084178D3BB4387D1133D190E3CC3BDFF
S11300E04282AD2B3E68EC8276BED98FE1A93E4CAC
S11300F080EFFFBE01C4FF7F3F00000000006E617F
S11301006E00696E660000407A10F35A00A0724EC9
S113011018090010A5D4E80000E87648170000E4A8
S11301200B54020000CA9A3B000000E1F5050000F0
S113013080969800000040420F000000A086010055
S11301400000102700000000E80300000000640025
S1130150000000000A000000000001000000000090
S11301602C76D888DC674F0823DFC1DFAE59E1B1B4
S1130170B796E5E3E453C63AE651997696E8E6C2C3
S11301808426EB898C9B62ED407C6FFCEFBC9C9FCA
S113019040F2BAA56FA5F490055A2AF75C936B6CEC
S11301A0F9676DC11BFCE0E40D47FEF520E6B500E0
S11301B0D0ED902E0300943577050080841E08004E
S11301C000204E0A000000C80C333333330F986EFE
S11301D012831141EF8D2114893BE65516CFFEE6BB
S11301E0DB18D1844B381BF77C1D901DA4BBE42481
S11301F0203284725E228100C9F124ECA1E53D27FE
S113020016050100000000000000FA000000E000F4
S1130210E00028FE28FE282454FE5448C4C81026B2
S1130220466C92AA44A000A0C0000000384482009A
S1130230008244380028107C102810107C10100014
S11302400A0C00001010101010000606000004082C
S11302501020407C8A92A27C0042FE020042868AE0
S113026092628482A2D28C182848FE08E4A2A2A238
S11302709C3C5292920C808E90A0C06C9292926C94
S11302806092929478006C6C0000006A6C0000101C
S113029028448200282828282800824428104080E6
S11302A08A90604C929E827C7E8888887EFE9292A0
S11302B0926C7C82828244FE82824438FE929292C4
S11302C082FE909090807C8292925EFE101010FECE
S11302D00082FE8200040282FC80FE10284482FE1A
S11302E002020202FE403040FEFE201008FE7C8224
S11302F082827CFE909090607C828A847AFE9098C0
S11303009462629292928C8080FE8080FC0202024F
S1130310FCF8040204F8FC021C02FCC6281028C6DF
S1130320E0100E10E0868A92A2C200FE8282004093
S113033020100804008282FE002040804020020237
S11303400202020080402000042A2A2A1EFE1222F1
S1130350221C1C222222041C222212FE1C2A2A2ACB
S113036018107E908040304A4A4A7CFE1020201E9D
S11303700022BE0200040222BC00FE081422000077
S113038082FE02003E2018201E3E1020201E1C2249
S113039022221C3E28282810102828183E3E10200F
S11303A02010122A2A2A0420FC2202043C020204FD
S11303B03E38040204383C020C023C221408142285
S11303C0300A0A0A3C22262A322200106C820000DB
S11303D000FE000000826C100008101008100000DD
S11303E00000007F8181817F7F8383837F7F878774
S11303F0877F7F8F8F8F7F7F9F9F9F7F7FBFBFBFB1
S11304007F7FFFFFFF7F2040FF40206215171565A7
S113041000FBFB00000000000000C0FF0300E0FF41
S11304200700F0FF0F00F8FF1F0078001E0078009F
S11304301E0078001E0078001E0078001E00780060
S11304401E0078001E0078001E0078001E000000C8
S113045000000000000080FF0300E0FF0700F0FF41
S11304600F00F8FF1F00F83C1F00783C1E00783C8A
S11304701E00783C1E00783C1E00783C1E00783C30
S11304801E00783C1E00783C1E00783C1E00783C20
S11304901E000000000000000000E0FF0300F0FF69
S11304A00700F8FF0F00F8FF1F00783C1E00783C9F
S11304B01E00783C1E00783C1E00783C1E00783CF0
S11304C01E00783C1E00783C1E00783C1E00783CE0
S11304D01E000000000000000000F8FF0300F8FF09
S11304E00F00F8FF1F00F8FF1F0000001E000000AF
S11304F01E0000801F0000F01F0000FF0F00E0FF3F
S11305000700F0FF0000F80F0000F800000078007A
S1130510000078000000F8FF1F00F8FF1F00F0FF44
S11305201F00E0FF1F000000000000000000F8FFB3
S11305301F00F8FF1F00F8FF1F00F8FF1F007800DE
S11305401E00783C1E00783C1E00783C1E00783C5F
S11305501E00783C1E00783C1E00F87E1F00F8FF49
S11305601F00F0FF0F00E0E70300000000000000A0
S11305703800EEFF6C002A8045003A0047FC03FF78
S11305806CFC83FF3900DEFF0B7CD0810BFCD08137
S11305900BC0D0810BFCD0810B7CDEFF0B0082FFF3
S11305A0397002FF6CF83A0047DC2A8045CCEEFF34
S11305B06CCC000038000000000C00001E0C000091
S11305C01E0000001E0000001E0000001E00F8FFB8
S11305D01F00F8FF1F00F8FF1F00F8FF1F000000B6
S11305E01E0000001E0000001E0000001E0000008F
S11305F05E000000400000007C000000400000009D
S1130600400000007C0000003000000010000000EA
S1130610300000007C0011241FBECFEFD8E0DEBF05
S1130620CDBF11E0A0E0B1E0E8E0F6E402C005903F
S11306300D92A834B107D9F722E0A8E4B1E001C0D3
S11306401D92AA35B207E1F70E942A030C940223F3
S11306500C9400000E94A40B0E94960B0E94451863
S113066080E090E008951F93CF93DF9385E00E948C
S1130670DE098823D1F060E080E40E943604C0E003
S1130680D0E060E08C2F0E94E10310E061E080E0A4
S11306900E9436041F5F1038C9F72196C430D10573
S11306A081F760E083E00E942404DF91CF911F91E1
S11306B008950F931F9385E00E94D009882311F0B9
S11306C082E07BC00E948304182F0E94530A1150B9
S11306D0123008F06EC08150823008F06AC00E9467
S11306E0510460E08EEA0E94360460E082EA0E94CF
S11306F0360460E080EA0E94360400E513ECC80189
S11307000197F1F760E080EC0E94360460E08FE22C
S11307100E94360460E081E80E94360460E086E1CD
S11307200E94360460E082E20E943604C801019708
S1130730F1F760E08FEA0E94360460E086EA0E94E6
S1130740360460E085EA0E94360420E030E0E8E800
S1130750F3E1CF010197F1F72F5F3F4F93E0283E7C
S11307603907B9F760E083EB0E94360460E080E467
S11307700E94360460E083E00E94E10360E083E0CD
S11307800E9424041092F2011092F4011092F301D9
S113079084E091E0909357028093560288E10E948E
S11307A003040E94330360E084EA0E94360481E07B
S11307B004C085E00E94BF0987E099271F910F912B
S11307C00895FF920F931F93082FF62E85E00E9441
S11307D0DE098823A1F01F2D1F77037060E0802FAE
S11307E0806B0E94360412951F7060E0812F806137
S11307F00E94360460E08F2D8F700E9436041F9192
S11308000F91FF9008951F93182F85E00E94DE0931
S11308108823C1F087E00E94C6046AE082E00E9457
S1130820250561EB82E00E942505612F113208F055
S113083060E282E00E94250589EE8A95F1F787E05F
S11308400E94C6041F9108950F931F93082F162F1B
S113085085E00E94DE09882331F003701F7710932E
S1130860F0010093F1011F910F9108950F931F93CD
S1130870082F162F85E00E94DE09882379F01123C2
S113088019F0113021F402C02B9801C02B9A86E094
S11308908A95F1F7602F80E00E9425051F910F9142
S11308A00895239A089586E00E94D009882311F0C0
S11308B082E003C00E946B0481E0992708951F938E
S11308C0182F86E00E94DE09882319F0812F0E94E8
S11308D074041F910895559A569A80E20E94AA0EB4
S11308E080E40E94AA0E0895282F332725FF04C010
S11308F08BB190E289278BB926FF04C08BB190E4B9
S113090089278BB9089582E00E94D009882311F0C9
S113091082E031C00E9434056FE37FE080E00E94F2
S1130920BD0467E37FE081E00E94BD046FE27FE0E5
S113093082E00E94BD046EE17FE086E00E94BD0477
S113094067E27FE083E00E94BD0467E27FE084E029
S11309500E94BD0467E27FE085E00E94BD0467E277
S11309607FE087E00E94BD048FEF8093F50187E06C
S11309700E94C60481E099270895E82FFF27EE0F0F
S1130980FF1FE956FE4F7183608308951F93182F4C
S113099082E00E94DE09882309F455C0912F9770E4
S11309A08091F501981709F44EC09093F50185B133
S11309B0887F892B85B9933051F1943028F4913094
S11309C051F09230B0F40EC0953079F1953030F199
S11309D0963091F515C0E0919901F0919A01309704
S11309E091F130C0E0919701F0919801309759F15D
S11309F029C0E0919B01F0919C01309721F122C024
S1130A00E091A301F091A4013097E9F01BC0E091BB
S1130A109D01F0919E013097B1F014C0E0919F01C7
S1130A20F091A001309779F00DC0E091A101F0910F
S1130A30A201309741F006C0E091A501F091A60112
S1130A40309709F009951F9108951F93162F0E945E
S1130A50C60482E00E94DE09882321F01EBD0DB485
S1130A6007FEFDCF1F910895259A2698279A209A6C
S1130A70219A229A08952F923F924F925F926F92F9
S1130A807F928F929F92AF92BF92CF92DF92EF921A
S1130A90FF920F931F93CF93DF93CDB7DEB72297C7
S1130AA00FB6F894DEBF0FBECDBF382E962E242E7F
S1130AB0290138011C2DBA82A982B82C6B8D7C8D3A
S1130AC0AD8C81E0981609F1981628F092E09916F9
S1130AD009F062C039C0B70180E00E944F074DE2BF
S1130AE0C42E42E0D42E31E0E32E012F9301A20163
S1130AF0622D80E00E940A08332009F04DC08981EC
S1130B009A819F938F931F9219C081E00E944F078F
S1130B102DE2C22E22E0D22E91E0E92E0A2D298D5B
S1130B203A8D4F89588D682D81E00E940A08332040
S1130B3099F58E8D9F8D9F938F939F920E94460966
S1130B400F900F900F9028C0C7010E9470078DE28C
S1130B5092E09F938F9381E0882EC98CDA8CEF8882
S1130B60F88C0B2D212FA301B201822D0E949C0829
S1130B700F900F90332081F48E8D9F8D9F938F93D0
S1130B8089819A819F938F939F920E9446090F9027
S1130B900F900F900F900F9022960FB6F894DEBF2F
S1130BA00FBECDBFDF91CF911F910F91FF90EF90BA
S1130BB0DF90CF90BF90AF909F908F907F906F9079
S1130BC05F904F903F902F9008958F929F92AF9295
S1130BD0BF92CF92DF92EF92FF920F931F93CF9326
S1130BE0DF93CDB7DEB7562F942EAC2DEF85F88961
S1130BF0C988DA886B897C894D898130C1F181305B
S1130C0030F1823009F04CC0513071F0513020F095
S1130C10523009F045C011C0B70180E00E944F076F
S1130C20A801692D80E006C081E00E944F07A6015B
S1130C30682D81E00E94D30633C0C7010E9470076B
S1130C409601482DB801892D0E94EA0629C08E8993
S1130C509F899F938F934F937F936F93DF92CF924C
S1130C60FF93EF93CA2E492D652F80E00FC01F928A
S1130C701F924F937F936F93DF92CF92FF93EF93E3
S1130C80AA24BB24CA2E492D652F81E00E943B056E
S1130C908DB79EB709960FB6F8949EBF0FBE8DBF51
S1130CA0DF91CF911F910F91FF90EF90DF90CF9044
S1130CB0BF90AF909F908F90089587E00E94D009D5
S1130CC0882311F082E06DC00E94B50981E0809311
S1130CD02C021092F6011092F7011092F901109271
S1130CE0F8011092FB011092FA011092FD0110928A
S1130CF0FC011092FF011092FE0110920102109269
S1130D000002109203021092020210920502109245
S1130D100402109207021092060210920902109225
S1130D20080210920B0210920A0210920D02109205
S1130D300C0210920F0210920E02109214021092E2
S1130D4015021092160210921702109219021092B4
S1130D501A0210921B0210921C0210921D02109291
S1130D601E0210921F021092210210922002109271
S1130D702302109222021092250210922402109251
S1130D802702109226021092110210921002109261
S1130D9013021092120210922B0210922A02109245
S1130DA02C0299270895EF92FF920F931F93182F07
S1130DB0062F7A0160E00E94AB07602F812F0E940A
S1130DC08C07B701812F0E94C0071F910F91FF90DC
S1130DD0EF900895CF92DF92EF92FF920F931F93BB
S1130DE0C82E7B01D42E890160E082E00E94AB070B
S1130DF06D2D8C2D0E94A107B801C7010E94EC073C
S1130E001F910F91FF90EF90DF90CF9008952EEFF8
S1130E108037920714F480E79EEF9C0181E021392A
S1130E20380714F020E931E08EEF6037780714F4C6
S1130E3060E77EEF81E06139780714F060E971E0E2
S1130E4091E090932C021092190237FD02C0909306
S1130E5019028091190289278093190210921A02AB
S1130E6077FD02C090931A0280911A028927809319
S1130E701A02C90137FF03C0909581959F4F909343
S1130E80F9018093F80177FF03C0709561957F4F56
S1130E907093FB016093FA0110922C020895982F2D
S1130EA081E080932C0283E0693E780710F068EEBD
S1130EB073E0913071F0913018F0923071F405C004
S1130EC0709301026093000208C070930102609362
S1130ED00002709303026093020210922C020895A0
S1130EE021E020932C02F89423E0893E920710F02D
S1130EF088EE93E0909301028093000283E0693EC0
S1130F00780710F068EE73E07093030260930202B6
S1130F10789410922C020895982F81E080932C02EB
S1130F20913051F0913018F0923041F403C0609345
S1130F30190204C06093190260931A0210922C02E1
S1130F40089591E090932C028093190260931A0201
S1130F5010922C020895982F81E080932C029130F6
S1130F6051F0913018F0923041F403C06093F601CF
S1130F7004C06093F6016093F70110922C02089567
S1130F80982F81E080932C0281E06139780710F07A
S1130F9060E971E0913061F0913018F09230C9F459
S1130FA00EC0F8947093F9016093F801789411C01D
S1130FB0F8947093FB016093FA0178940AC0F89452
S1130FC07093F9016093F8017093FB016093FA0147
S1130FD0789410922C0208959C0181E080932C0255
S1130FE0F89481E06139780710F060E971E070935A
S1130FF0FB016093FA01C90121E08139920710F0E5
S113100080E991E09093F9018093F801789410922B
S11310102C0208958F929F92AF92BF92CF92DF924B
S1131020EF92FF920F931F93CF93DF93182FF62E17
S11310304A015901E60187E00E94DE09882309F488
S11310406EC061E0812F0E94AB07A501B401812F1E
S11310500E9431116F2D812F0E948C07602F812FE8
S11310600E941C11B401812F0E94F310CD2899F025
S1131070113049F0113018F0123069F406C01882AA
S11310801092280208C0198204C018821982109292
S1131090280210922902D0932B02C0932A02EE2038
S11310A0B9F588E491E090932B0280932A02B5016C
S11310B0812F0E94C007812F0E94DE10113071F031
S11310C0113018F0123059F512C0109248011092E4
S11310D0280280914801882311F5FBCF1092490121
S11310E010922902809149018823C9F4FBCF109200
S11310F0480110924901109228021092290280910D
S113110048018823E1F3809149018823C1F307C092
S1131110B501812F0E94C007812F0E94DE10DF914C
S1131120CF911F910F91FF90EF90DF90CF90BF90E0
S1131130AF909F908F9008953F924F925F926F92DD
S11311407F928F929F92AF92BF92CF92DF92EF9253
S1131150FF920F931F93CF93DF93CDB7DEB7382E53
S11311602B013A01922EB02E0C891D8987E00E9432
S1131170DE09882309F453C061E082E00E94AB07D2
S1131180A301B20180E00E943111A601B70181E000
S11311900E9431116B2D832D0E94A107692D80E0DF
S11311A00E941C116A2D81E00E941C11B701C2012A
S11311B00E940E110115110539F0F80110821182F7
S11311C0109228021092290210932B0200932A02F3
S11311D08820F1F48AE491E090932B0280932A0210
S11311E0B601C3010E94EC0782E00E94DE10109257
S11311F04A0110924B011092280210922902809108
S11312004A018823E1F380914B018823C1F307C08D
S1131210B601C3010E94EC0782E00E94DE10DF9158
S1131220CF911F910F91FF90EF90DF90CF90BF90DF
S1131230AF909F908F907F906F905F904F903F9072
S113124008950F931F93182F062F662349F460E027
S113125070E00E94C00760E070E0812F0E94F310EC
S113126081E080932C02113051F0113018F01230CB
S113127041F403C00093140204C0009314020093C9
S1131280150210922C021F910F910895CF92DF92B4
S1131290EF92FF920F931F93CF93DF93CDB7DEB7F7
S11312A022970FB6F894DEBF0FBECDBF1D8587E031
S11312B00E94DE09882309F449C0113099F01130E5
S11312C020F0123009F042C01BC0CE0140969A8330
S11312D08983EE85FF8580912D028823E1F3309781
S11312E0A9F10CC0CE0140969A838983EE85FF85CF
S11312F080912E028823E1F3309741F1099526C0AD
S1131300CE84DF84CE0142969A838983E888F98863
S113131000E010E0002351F480912D02882331F085
S1131320C114D10411F0F601099501E0112351F41F
S113133080912E02882331F0E114F10411F0F701B9
S1131340099511E0002331F3112321F322960FB6FE
S1131350F894DEBF0FBECDBFDF91CF911F910F91E7
S1131360FF90EF90DF90CF9008953A9A3B9A3C9A81
S11313703D9A3E9A3F9A88B1837088B90895853121
S113138060F4E82FFF27E552FE4F8081882329F07F
S1131390808181508083808101C08FEF99270895D7
S11313A0853110F080E008C0E82FFF27E552FE4F9A
S11313B080818F5F8083815099270895853110F053
S11313C080E007C0E82FFF27E552FE4F808181119E
S11313D081E0992708951F93182F80914D01882348
S11313E041F080915401882399F010924D0110929C
S11313F054010E94210A80934C0128E230E040E02D
S113140061E08EE491E00E94EE0A81E080934D0158
S113141090914C01133018F0133079F409C0E12F86
S1131420FF27E050FF4F8081892341F081E006C00F
S113143091FF03C0892F817001C080E099271F911B
S113144008950F931F9381E00E94DE09882311F40D
S113145000E024C087E00E94C6046AE082E00E94A3
S1131460250562EB82E00E94250518EC812F8A9500
S1131470F1F760E082E00E94470F082F812F8A95E0
S1131480F1F760E082E00E94470F1A95F1F787E0D8
S11314900E94C60488E893E10197F1F7802F992709
S11314A01F910F910895CF93DF93CDB7DEB72397A4
S11314B00FB6F894DEBF0FBECDBF81E00E94D00905
S11314C0882311F082E011C00E948304815082308D
S11314D040F40E947F0ACE0101960E94851181E0AA
S11314E004C081E00E94BF0987E0992723960FB6C4
S11314F0F894DEBF0FBECDBFDF91CF910895109257
S11315004402109243021092460210924502109235
S113151048021092470210924A0210924902109215
S11315204C0210924B0280E991E090933002809338
S11315302F0290933202809331029093340280936D
S1131540330290933602809335029093380280934D
S1131550370284E398E090933A028093390290939F
S11315603C0280933B0290933E0280933D02909311
S1131570400280933F029093420280934102089577
S11315800F931F93CF93DF93CDB7DEB729970FB691
S1131590F894DEBF0FBECDBF8C0188E00E94DE0947
S11315A0882311F491E00DC0980140E061E0CE0180
S11315B001960E94EE0A982F882319F48F818823BC
S11315C0E9F3892F992729960FB6F894DEBF0FBE49
S11315D0CDBFDF91CF911F910F910895EF92FF92AC
S11315E00F931F93CF93DF93EC01F62EE42E890122
S11315F088E00E94DE09882311F481E026C084E09B
S113160090E00E942120FC01892B11F482E01DC08E
S1131610F982F0FC1E8281E0E81619F48981846065
S113162089838981886089831B830A831D830C8352
S1131630D183C0831382128281E08093B701CF01EA
S11316400E942D0B1092B70180E09927DF91CF9172
S11316501F910F91FF90EF900895CF92DF92EF9238
S1131660FF920F931F93CF93DF93EC0180914D0270
S1131670882339F4D0934F02C0934E020E94DF11A5
S113168047C0C0904E02D0904F0200E010E0EE241C
S1131690FF2429C0A881B981FD0164817581F60107
S11316A040815181FA01848195819B01281B390B6A
S11316B037FF0AC0861B970B95838483DB82CA821B
S11316C0012BF1F0F70122C0F601828193812115EB
S11316D0310581F0FD01358324830097B1F00F5F5C
S11316E01F4F76016C0180914D0299270817190745
S11316F088F20BC0FD01158214829B838A8305C086
S1131700D0934F02C0934E0203C0F601D383C28329
S113171080914D028F5F80934D02DF91CF911F9195
S11317200F91FF90EF90DF90CF9008950E946E117B
S11317300E94BC0E0E94E40D0E94C2110E94830408
S11317400E94530A78940895000008951F920F92FE
S11317500FB60F9211242F933F934F935F936F9380
S11317607F938F939F93AF93BF93EF93FF93E091F6
S11317707701F0917801309709F00995FF91EF9185
S1131780BF91AF919F918F917F916F915F914F9195
S11317903F912F910F900FBE0F901F9018951F929D
S11317A00F920FB60F9211242F933F934F935F9391
S11317B06F937F938F939F93AF93BF93EF93FF9315
S11317C0E0917901F0917A01309709F00995FF9140
S11317D0EF91BF91AF919F918F917F916F915F91A5
S11317E04F913F912F910F900FBE0F901F9018951E
S11317F01F920F920FB60F9211242F933F934F9382
S11318005F936F937F938F939F93AF93BF93EF9364
S1131810FF93E0917B01F0917C01309709F00995E9
S1131820FF91EF91BF91AF919F918F917F916F91B4
S11318305F914F913F912F910F900FBE0F901F908A
S113184018951F920F920FB60F9211242F933F9366
S11318504F935F936F937F938F939F93AF93BF93B4
S1131860EF93FF93E0916901F0916A01309709F0D9
S11318700995FF91EF91BF91AF919F918F917F91C6
S11318806F915F914F913F912F910F900FBE0F90E9
S11318901F9018951F920F920FB60F9211242F9339
S11318A03F934F935F936F937F938F939F93AF93E4
S11318B0BF93EF93FF93E0916B01F0916C0130972C
S11318C009F00995FF91EF91BF91AF919F918F918D
S11318D07F916F915F914F913F912F910F900FBE28
S11318E00F901F9018951F920F920FB60F9211240C
S11318F02F933F934F935F936F937F938F939F9314
S1131900AF93BF93EF93FF93E0916D01F0916E015C
S1131910309709F00995FF91EF91BF91AF919F9195
S11319208F917F916F915F914F913F912F910F9084
S11319300FBE0F901F9018951F920F920FB60F9223
S113194011242F933F934F935F936F937F938F93C0
S11319509F93AF93BF93EF93FF93E0917101F09145
S11319607201309709F00995FF91EF91BF91AF9102
S11319709F918F917F916F915F914F913F912F91A3
S11319800F900FBE0F901F9018951F920F920FB6D5
S11319900F9211242F933F934F935F936F937F93F1
S11319A08F939F93AF93BF93EF93FF93E091730152
S11319B0F0917401309709F00995FF91EF91BF916F
S11319C0AF919F918F917F916F915F914F913F91D3
S11319D02F910F900FBE0F901F9018951F920F928A
S11319E00FB60F9211242F933F934F935F936F93EE
S11319F07F938F939F93AF93BF93EF93FF93E09164
S1131A006F01F0917001309709F00995FF91EF9102
S1131A10BF91AF919F918F917F916F915F914F9102
S1131A203F912F910F900FBE0F901F9018951F920A
S1131A300F920FB60F9211242F933F934F935F93FE
S1131A406F937F938F939F93AF93BF93EF93FF9382
S1131A50E0917501F0917601309709F00995FF91B5
S1131A60EF91BF91AF919F918F917F916F915F9112
S1131A704F913F912F910F900FBE0F901F9018958B
S1131A801F920F920FB60F9211242F933F934F93EF
S1131A905F936F937F938F939F93AF93BF93EF93D2
S1131AA0FF93E0915F01F0916001309709F009958F
S1131AB0FF91EF91BF91AF919F918F917F916F9122
S1131AC05F914F913F912F910F900FBE0F901F90F8
S1131AD018951F920F920FB60F9211242F933F93D4
S1131AE04F935F936F937F938F939F93AF93BF9322
S1131AF0EF93FF93E0916101F0916201309709F057
S1131B000995FF91EF91BF91AF919F918F917F9133
S1131B106F915F914F913F912F910F900FBE0F9056
S1131B201F9018951F920F920FB60F9211242F93A6
S1131B303F934F935F936F937F938F939F93AF9351
S1131B40BF93EF93FF93E0916301F09164013097A9
S1131B5009F00995FF91EF91BF91AF919F918F91FA
S1131B607F916F915F914F913F912F910F900FBE95
S1131B700F901F9018951F920F920FB60F92112479
S1131B802F933F934F935F936F937F938F939F9381
S1131B90AF93BF93EF93FF93E0916501F0916601DA
S1131BA0309709F00995FF91EF91BF91AF919F9103
S1131BB08F917F916F915F914F913F912F910F90F2
S1131BC00FBE0F901F90189580E10E94D0098823C2
S1131BD011F082E009C0E7E5F1E01192119281E091
S1131BE0E739F807D1F781E0992708950F931F93F8
S1131BF0CF93DF93082F11278A3091F08B3040F474
S1131C00883091F1893020F5873009F049C037C018
S1131C108D3049F08B3181F08C3009F041C006C021
S1131C201092F00103C01092F0017AC08091F1018A
S1131C3081508093F10174C00E9433037DC061E040
S1131C4080E00E9436048091F0018F5F8093F00160
S1131C508091F00187FFF3CF1092F0018091F101A0
S1131C6081508093F10168C08091F001882309F4C8
S1131C7057C08091F00186508093F00151C081E0FB
S1131C800E942F1024E630E04DE750E064EF71E04D
S1131C9080E090E00E943C1081E00E94800F40C0F0
S1131CA06091F0018091F1010E94E103E801CC0F01
S1131CB0DD1FCC0FDD1FC00FD11FCD59DE4F10E04B
S1131CC0FE01849161E00E9436041F5F2196153065
S1131CD0B9F761E080E00E9436048091F0018A5FE8
S1131CE08093F0018091F00199278C3791053CF0A5
S1131CF01092F0018091F10181508093F101809163
S1131D00F10183708093F1018091F2018130D9F463
S1131D10E091F301F091F4013097A9F0099513C013
S1131D206091F0018091F1010E94E1038091F10141
S1131D3083708093F10107C06091F0018091F101FB
S1131D400E94E103DCCF80E090E0DF91CF911F910E
S1131D500F9108951F93182F86E00E94DE098823AF
S1131D6019F0812F0E94B60E1F910895992785FDC1
S1131D705D9886FD5E980895F8940E941B0F81E09B
S1131D800E94C50E81E090E00895813071F0F894CE
S1131D90813059F0813030F08230C9F0833009F05D
S1131DA046C01AC080E090E020C02C9A80E880935E
S1131DB061001092610080E090E00000019688329A
S1131DC09105D9F71092680010926B00089580E88D
S1131DD08093610083E004C080E88093610088E020
S1131DE08093610026C0000001962DE6803692079C
S1131DF0D1F72C9880E090E0000001962DE6803623
S1131E009207D1F710927A008FEF8093640080914B
S1131E10680081608093680080916B008460809387
S1131E206B00789483B7816083BF8895089582306E
S1131E3008F078940895249A2C9A089583E58CBD2B
S1131E4081E08DBD84EF91E00197F1F7089583E57A
S1131E508CBD81E08DBD8DE08A95F1F7089583E511
S1131E608CBD1DBC84EF91E00197F1F708958FE7D5
S1131E708CBD1DBC84EF91E00197F1F7089583E5D3
S1131E808CBD81E08DBD8DE08A95F1F708951F9397
S1131E90162F0E94C60482E00E94DE09882329F0DE
S1131EA01EBD0DB407FEFDCF8EB599271F91089571
S1131EB08AE00E94BF09882329F481E00E949210DD
S1131EC01092A801089589E00E94BF098823B9F4FB
S1131ED08091A701882311F00E94D81082E00E940B
S1131EE092108091B5019091B601009731F00E9453
S1131EF0B6201092B6011092B5011092A701089570
S1131F00813029F0823029F40E94630F08950E94E1
S1131F10580F0895CF92DF92EF92FF920F931F9381
S1131F20CF93DF9380E291E00E942120EC01909313
S1131F30B6018093B501892B11F480E044C0CC2410
S1131F40DD24EE24FF248701C801B7010E94E31CAD
S1131F50D7FE06C020E030E040E857E40E94031CAE
S1131F6020E030E040EA51E40E946F1C27EF35E79F
S1131F7040E05FE30E94AC1D9B01AC0160E070E0B7
S1131F8080E291E40E94191E2DEC3CEC42E851E4FD
S1131F900E94AC1D0E946F1D2AE030E040E050E03A
S1131FA00E949E1F69937993899399930894C11C05
S1131FB0D11C0894E11CF11C011D111D88E4C816F4
S1131FC0D10411F681E09927DF91CF911F910F91F0
S1131FD0FF90EF90DF90CF9008958AE00E94D0099F
S1131FE0882311F082E00AC01092B2011092B1016C
S1131FF081E00E94AE1081E08093A80199270895A2
S11320001F9389E00E94D009882311F082E024C044
S11320108BE00E94DE098823D9F40E948A0F182FCE
S1132020813011F086E018C01092A9011092AA0123
S11320301092AB011092AC0165E172E18DE00E9457
S1132040F21182E00E94AE101093A70181E004C057
S113205089E00E94BF0987E099271F910895813084
S113206021F0823029F084E005C00E94ED0F02C007
S11320700E940010992708956F927F928F929F92E9
S1132080AF92BF92CF92DF92EF92FF920F931F9382
S1132090CF93DF933B014C015A01E9018AE00E948E
S11320A0DE09882381F1209741F1B501882777FD66
S11320B08095982F9E01C536D10510F024E630E0B6
S11320C0442755270E949E1F24E630E040E050E05C
S11320D00E94AE1F79018A01C401B3010E94181243
S11320E0C7010E94C00A60E070E080E090E00E94B6
S11320F01812C5018E199F0904C0A114B10419F066
S1132100C5010E94C00ADF91CF911F910F91FF90EA
S1132110EF90DF90CF90BF90AF909F908F907F9083
S11321206F900895823029F4809181008E7F80938E
S113213081008091A701813031F48091A801813020
S113214011F4000008958091A701813021F080915D
S1132150A801813011F45F9857980895982F8091C1
S1132160A701882331F48091A801882311F4579A98
S11321705F988091A7018823D1F49230C1F4109222
S1132180800010928100809181008860809381009A
S1132190809181008160809381001092850010926B
S11321A0840081E08093890080E980938800089509
S11321B0EFE6F0E080818D7F80830895982F81E0A1
S11321C080932C02913051F0913018F0923041F408
S11321D003C01092140204C010921402109215024B
S11321E010922C020895982F81E080932C02913054
S11321F071F0913018F0923071F405C070930902B7
S11322006093080208C070930902609308027093F7
S11322100B0260930A0210922C02089521E020938D
S11322202C02909309028093080270930B0260932E
S11322300A0210922C020895982F81E080932C02B8
S1132240913051F0913018F0923041F403C0609312
S1132250160204C0609316026093170210922C02B7
S113226008950F931F93CF93DF938B01EA0181307D
S113227031F1813018F0823061F513C08091000291
S113228090910102892B11F080E008C010920D0298
S113229010920C021EC0AE01B80181E00E947D12B2
S11322A018C08091000290910102892B21F080E0F6
S11322B00E947D1204C010920D0210920C028091B3
S11322C0020290910302892B31F710920F021092AF
S11322D00E02DF91CF911F910F910895CF93DF9359
S11322E0C0E0D0E060E08C2F0E947D112196C531C2
S11322F0D105C1F7DF91CF910895853128F4E82FF6
S1132300FF27E552FE4F608308951F93CF93DF9319
S1132310EC01892B99F181E00E94DE09882351F1B7
S113232087E00E94C60418EC812F8A95F1F76AE0D1
S113233082E00E94250564EB82E00E942505812F3E
S11323408A95F1F760E082E00E94470F8883812F2D
S11323508A95F1F760E082E00E94470F89831A951D
S1132360F1F760E082E00E94470F8A8387E00E94D1
S1132370C60404C0188219828DE28A83DF91CF914A
S11323801F91089588E00E94D009882311F082E00B
S113239014C010924D0210924F0210924E021092ED
S11323A0B7011092B80168EE72E180E10E94051253
S11323B00E94E3110E94EC1181E09927089581E0C5
S11323C08093B801089584B5826084BD85B5846026
S11323D085BD8EE487BD0895EEE6F0E080818260DD
S11323E080830895E82F803268F48051833050F060
S11323F0FF27EE0FFF1FE95AFE4F80819181718301
S11324006083089580E090E00895803218F080E0C1
S113241090E00895E82FFF27EE0FFF1FE95AFE4FC3
S1132420808191817183608308950E943C12089594
S1132430EF92FF920F931F937B018C018AE00E941D
S1132440DE098823A1F08091A801882381F0D801B6
S1132450C701880F991FAA1FBB1F9093B4018093D3
S1132460B301E114F1040105110509F45F981F910A
S11324700F91FF90EF9008958091A9019091AA0186
S1132480A091AB01B091AC012091AD013091AE01AE
S11324904091AF015091B001820F931FA41FB51F4B
S11324A08093A9019093AA01A093AB01B093AC01CE
S11324B08091A9019091AA01A091AB01B091AC01C6
S11324C08851964FA040B040BCF08BB180588BB976
S11324D08091A9019091AA01A091AB01B091AC01A6
S11324E08851964FA040B0408093A9019093AA01CF
S11324F0A093AB01B093AC010895EF92FF920F93B8
S11325001F93CF93DF93EB01882321F0813009F0EF
S113251058C02CC0CA019C0144275527CA01B901DF
S11325200E949E1F2091000230910102220F331F4E
S1132530442755270E94AE1F79018A01220F331FB9
S1132540441F551FCE01AA27BB2782179307A40750
S1132550B50728F0F0920D02E0920C0232C0D69535
S1132560C795D0930D02C0930C022BC0CA019C01E5
S113257044275527CA01B9010E949E1F20910202D7
S113258030910302220F331F442755270E94AE1FA8
S113259079018A01220F331F441F551FCE01AA2738
S11325A0BB2782179307A407B50728F0F0920F0200
S11325B0E0920E0206C0D695C795D0930F02C09341
S11325C00E02DF91CF911F910F91FF90EF9008952C
S11325D00E94EF120E9430130E940913089588E0AC
S11325E00E94DE09882311F484E011C08091B801AF
S11325F0882311F483E00BC08091B701882311F084
S113260082E005C00E947B158130E1F380E09927C8
S113261008958091A801813011F58091B1019091C4
S1132620B2012091B3013091B401820F931F9093B2
S1132630B2018093B1018091B1019091B201885EA1
S113264093406CF08BB180588BB98091B10190911B
S1132650B201885E93409093B2018093B1010895D2
S113266087E00E94DE09882309F4AAC08091000251
S113267090910102892B09F1809124029091250205
S11326802091000230910102820F931F9093250242
S1132690809324028091240290912502885E9340C5
S11326A0A4F08091240290912502885E9340909337
S11326B025028093240241E009C08091F8019091A1
S11326C0F9019093FD018093FC0140E080910202A6
S11326D090910302892B09F180912602909127029F
S11326E02091020230910302820F931F90932702DC
S11326F0809326028091260290912702885E93405F
S1132700A4F08091260290912702885E93409093D2
S113271027028093260261E009C08091FA0190911A
S1132720FB019093FF018093FE0160E0842F0E94DF
S1132730E11380912002909121022091FC013091BB
S1132740FD01820F931F90932102809320028091B8
S1132750200290912102885E934014F440E00BC063
S11327608091200290912102885E934090932102EF
S11327708093200241E080912202909123022091D3
S1132780FE013091FF01820F931F909323028093E7
S113279022028091220290912302885E934014F4D5
S11327A060E00BC08091220290912302885E9340E6
S11327B0909323028093220261E0842F0E942614C6
S11327C008958823F1F02091F8013091F901809166
S11327D0FC019091FD01281B390B1216130634F4E9
S11327E08091FC019091FD01019607C0232B49F0D3
S11327F08091FC019091FD0101979093FD018093DC
S1132800FC01662311F12091FA013091FB018091C2
S1132810FE019091FF01281B390B1216130654F484
S11328208091FE019091FF0101969093FF018093A6
S1132830FE010895232B49F08091FE019091FF0140
S113284001979093FF018093FE0108950F931F93C6
S1132850082F162F80912C02882309F0E3C0809161
S11328601402882309F05AC08091FC019091FD0163
S1132870892BE9F48091B901837E8093B901109288
S11328801D0280912802882309F45BC0609116021E
S113289080E00E942109E0912A02F0912B023097F6
S11328A009F44FC081E08083109228024AC08091CD
S11328B0F601813041F48091080290910902019758
S11328C011F401E002C00023E1F19091B901937E7B
S11328D0E0911B02FF27EE5EFE4F8081982B9093C0
S11328E0B90180911902882321F480911B028F5F22
S11328F003C080911B02815080931B0280911B02B4
S1132900837080931B0281E080931D028091F60105
S11329108130B9F480E00E94251513C09091B9016B
S1132920937EE0911B02FF27EE5EFE4F8081982B81
S11329309093B90182E080931D021092FD011092E0
S1132940FC0180911502882309F059C08091FE0191
S11329509091FF01892BE9F48091B9018F718093E3
S1132960B90110921E0280912902882309F45AC0E9
S11329706091170281E00E942109E0912A02F091FE
S11329802B02309709F44EC081E081831092290212
S113299049C08091F701813041F480910A029091FD
S11329A00B02019711F411E002C01123D9F19091A7
S11329B0B9019F71E0911C02FF27EA5EFE4F8081FE
S11329C0982B9093B90180911A02882321F4809165
S11329D01C028F5F03C080911C02815080931C02F3
S11329E080911C02837080931C0281E080931E02FC
S11329F08091F7018130B1F40E94251513C09091A4
S1132A00B9019F71E0911C02FF27EA5EFE4F8081AD
S1132A10982B9093B90182E080931E021092FF01DB
S1132A201092FE0180911F02882331F4412F602F00
S1132A3089EB91E00E94EA1588B183709091B90105
S1132A40892B88B91F910F9108951F93182F8823FC
S1132A5021F0813009F04DC027C080910802909187
S1132A600902892B49F0809108029091090201978B
S1132A709093090280930802809128028823C9F563
S1132A80209108023091090280910C0290910D026C
S1132A902817390771F560E070E080E00E94C007F4
S1132AA081E08093280225C080910A0290910B0254
S1132AB0892B49F080910A0290910B02019790931F
S1132AC00B0280930A0280912902882391F42091B9
S1132AD00A0230910B0280910E0290910F02281786
S1132AE0390739F460E070E081E00E94C007109378
S1132AF029021F910895FF920F931F93CF93DF93A1
S1132B0080914D02882309F459C000914E0210911E
S1132B104F02F801C081D1818C819D8101979D83F1
S1132B208C83181619060CF449C0898180FF05C0EE
S1132B308E81882311F481E08E83898181FF03C013
S1132B40EF81F885099580914D028230A8F0F80153
S1132B508281938190934F0280934E02138212825A
S1132B60E0910000F0910100848195811816190606
S1132B703CF081E0F82E05C010924F0210924E02F4
S1132B80FF2480914D02815080934D0280914D022B
S1132B90882311F40E94E715898182FF08C08A8185
S1132BA09B819D838C83C8010E942D0B08C0C801A2
S1132BB00E94B62089818F7E898301C0FF248F2DD6
S1132BC09927DF91CF911F910F91FF900895109253
S1132BD0B8010895FC0180911D02823069F480914E
S1132BE0BD0191E089278093BD01882309F03EC08F
S1132BF08081837E80833AC08091FC019091FD01A5
S1132C00C397A4F56623D1F02091FC013091FD0116
S1132C1080E690E0BC01269FC001279F900D369F5F
S1132C20900D1124880F892F881F990B90931102FE
S1132C308093100281E08093BB0118C08091BB0196
S1132C408823A1F080911002909111020197909332
S1132C501102809310028091100290911102892B2D
S1132C6029F48081837E80831092BB0180911E02AF
S1132C70823069F48091BC0191E089278093BC0182
S1132C80882309F03EC080818F71808308958091EC
S1132C90FE019091FF01C397A4F54423D1F0209144
S1132CA0FE013091FF0180E690E0AC01249FC00159
S1132CB0259F900D349F900D1124880F892F881F14
S1132CC0990B909313028093120281E08093BA01CE
S1132CD008958091BA018823A1F080911202909105
S1132CE013020197909313028093120280911202AF
S1132CF090911302892B29F480818F718083109223
S1132D00BA010895CF93DF93FC0130812091D10162
S1132D10321303C02081211113C0EC010E9433033C
S1132D208881813031F048F0823039F08CE291E0D2
S1132D3002C080E291E00E94742288818093D101D4
S1132D40DF91CF910895DC01FB019C918081981360
S1132D5025C011962D913C9112978181928128175B
S1132D603907E1F413962D913C9114978381948152
S1132D702817390799F415962D913C91169785815A
S1132D8096812817390751F417964D915C9118973D
S1132D902781308581E04217530709F080E00895C8
S1132DA0CF93DF93EC019B018091D00181110AC084
S1132DB041E061E087EC91E00E94EE0A81E08093BB
S1132DC0D00111C08091CD01882369F080E40E9474
S1132DD05F0480E00E94EB09888381E00E94EB0994
S1132DE089831092CD01DF91CF910895FC0181E098
S1132DF0808388EC90E0928381839483838380E949
S1132E0091E0968385839087878308954F925F929C
S1132E106F927F928F929F92AF92BF92CF92DF92E6
S1132E20EF92FF920F931F93CF93DF93EC013B013B
S1132E30FB01D080F1E0DF124DC0E2E09E2E9882CB
S1132E4060E082E00E9421091F921F921F92DF928C
S1132E50F0E94F2E4F921F92A8EC5A2E5F921F92C8
S1132E608AEF8F9388248394A12CB12CC12CB0E9D0
S1132E70EB2EFF24F39408EC10E02AEF30E041E05D
S1132E8062E080E00E94E5051F921F921F92DF928C
S1132E904F921F925F921F9286E98F9326E930E04A
S1132EA040E062E080E00E94E505988288EC90E0D2
S1132EB09A8389839C838B8380E991E09E838D83AD
S1132EC098878F838DB79EB742960FB6F8949EBFAE
S1132ED00FBE8DBFF301D180F1E0DF124EC042E09E
S1132EE0942E988260E082E00E9421091F921F9232
S1132EF01F92DF9250E9452E4F921F9268EC562E96
S1132F005F921F928AEF8F9388248394A12CB12C13
S1132F10C12C70E9E72EFF24F39408EC10E02AEFAB
S1132F2030E041E062E080E00E94E5051F921F92DC
S1132F301F92DF924F921F925F921F9286E98F93A6
S1132F40812C26E930E041E062E080E00E94E50562
S1132F50988288EC90E09A8389839C838B8380E9B0
S1132F6091E09E838D8398878F838DB79EB7429619
S1132F700FB6F8949EBF0FBE8DBFF30181818130DF
S1132F8009F052C0D080F1E0DF124EC082E0782E0A
S1132F90788260E082E00E9421091F921F921F92B2
S1132FA0DF9290E9992E9F921F9228EC622E6F92E5
S1132FB0DF9284EF8F9388248394A12CB12CC12CAD
S1132FC030E9E32EFF24F39408EC10E024EF31E021
S1132FD041E062E080E00E94E5051F921F921F928B
S1132FE0DF929F921F926F921F928FEA8F93812C90
S1132FF02FEA30E041E062E080E00E94E50578825B
S113300088EC90E09A8389839C838B8380E991E0A8
S11330109E838D8398878F838DB79EB742960FB614
S1133020F8949EBF0FBE8DBFDF91CF911F910F917A
S1133030FF90EF90DF90CF90BF90AF909F908F90D4
S11330407F906F905F904F900895CF93DF93EC0142
S11330506EEB71E00E94A316811114C06F81788514
S11330608D819E810E9470076B817C8189819A8108
S11330700E94070789E0FE01AEEBB1E001900D92DA
S11330808A95E1F7DF91CF910895CF93DF9300D034
S1133090CDB7DEB70E9453040E9459030E945D0617
S11330A01092D4011092D3011092D6011092D5013E
S11330B01092D8011092D7011092DA011092D9011E
S11330C01092D2018BE391E00E94742288EB9BE082
S11330D00E94C00A0E9433036DE770E0CE0101969E
S11330E00E94D01682ED91E00E94F616BE016F5F39
S11330F07F4F82ED91E00E94061782ED91E00E94DD
S1133100251882ED91E00E948216E6CFA3E1B0E09B
S1133110ECE8F8E10C94DB1F6C014B012A01FC0183
S113312017821682838181FF43C3AE014F5F5F4FD5
S11331303A01F6019381F40193FD859193FF819106
S11331404F01882309F430C3853239F493FD859106
S113315093FF81914F01853239F4B60190E00E94CA
S11331603C2252012501E5CF10E0F12C20E0203271
S1133170A0F48B3269F030F4803259F0833269F470
S113318020612CC08D3239F0803339F4216026C09F
S11331902260246023C0286021C027FD27C030EDB1
S11331A0380F3A3078F426FF06C0FAE01F9F300D3E
S11331B01124132F13C04AE0F49E300D1124F32E72
S11331C020620CC08E3221F426FDEEC2206406C0BB
S11331D08C3611F4206802C0883641F4F40193FD62
S11331E0859193FF81914F018111C1CF9BEB980F82
S11331F0933018F42061805E06C09BE9980F9330E9
S113320008F071C12F7E26FF16E02F73322E85360B
S113321019F42064322E08C0863621F4F22FF068A7
S11332203F2E02C01111115037FE07C01C3350F459
S1133230EE24E394E10E27E00BC0183038F027E0C9
S113324017E005C027E04CE3E42E02C0212FE12C57
S1133250520144E0A40EB11CF201608171818281AB
S113326093810E2DA3010E944E212C01098100FFA0
S113327002C003FF07C031FC08C032FE09C030E2BF
S1133280232E07C02DE2222E04C09BE2292E01C06A
S1133290212C802F8C7019F0211068C2A8C237FE2F
S11332A00FC0E40C04FF04C08A81813309F4EA945A
S11332B01E1474F5F8E0FE1578F588E0E82E2CC0AD
S11332C036FC2AC0812F90E0841595059CF02CEFE4
S11332D042162FEF520674F0432D4068342E0AC074
S11332E0E2E0F0E0EC0FFD1FE10FF11D808180337F
S11332F019F411501111F4CF37FE0EC0EE24E394EB
S1133300E10E812F90E0481659062CF4141904C0DC
S1133310EE24E39401C010E037FE06C01414150433
S113332034F4C201019605C085E090E002C081E05A
S113333090E021100196112331F0212F30E02F5F0E
S11333403F4F820F931F2F2D30E08217930714F401
S1133350F81A01C0F12C832D897049F4FF2039F04B
S1133360B60180E290E00E943C22FA94F7CF22203A
S113337029F0B601822D90E00E943C2233FC09C062
S1133380FF2039F0B60180E390E00E943C22FA94D9
S1133390F7CF37FE5AC0942D852D57FE02C090E01A
S11333A080E0292E382E20E030E0A2014E19510988
S11333B05D874C87A201421953095F874E87612FAD
S11333C070E044275527461B570B598B488B5FEFFA
S11333D02516350649F4B6018EE290E02A8B3B8B24
S11333E00E943C223B892A89421453046CF04C8588
S11333F05D854215530544F4EE85FF85E20FF31F06
S1133400E60DF71D818101C080E351E0251A3108E2
S11334102F5F3F4F48895989241635064CF0B60171
S113342090E02A8B3B8B0E943C222A893B89CFCF98
S11334302414350439F49A81963318F4953311F42D
S113344004FF81E3B60190E04BC08A81813309F027
S11334500F7EB60190E00E943C22111105C034FC9D
S113346018C085E690E017C0B6018EE290E00E9495
S11334703C2282E0EE24E394E80EF301E80FF11D10
S11334808081B60190E00E943C2211508E2D91F76C
S1133490E6CF85E490E0B6010E943C2257FC05C0CB
S11334A04114510439F404FF05C051944194510866
S11334B08DE201C08BE2B60190E00E943C2280E3E1
S11334C09AE0491651042CF08F5F5AE0451A5108CE
S11334D0F7CFB60190E00E943C22B601C201C0962B
S11334E00E943C2257C1833631F0833779F083350B
S11334F009F058C021C05201E2E0AE0EB11CF20145
S11335008081898301E010E0230114C05201F2E0BC
S1133510AF0EB11CF2014080518026FF03C0612F21
S113352070E002C06FEF7FEFC2012A8B0E9431224C
S11335308C012A892F7715C05201F2E0AF0EB11C1D
S1133540F2014080518026FF03C0612F70E002C069
S11335506FEF7FEFC2012A8B0E9426228C012A89F9
S11335602068322E23FD1AC08F2D90E0081719070A
S1133570A8F4B60180E290E00E943C22FA94F4CFD1
S1133580F20137FC859137FE81912F01B60190E05D
S11335900E943C22F110FA94015011090115110501
S11335A079F7F8C0843611F0893659F5520127FFAE
S11335B009C0F4E0AF0EB11CF20160817181828117
S11335C093810AC0F2E0AF0EB11CF20160817181F7
S11335D0072E000C880B990B2F76322E97FF09C00B
S11335E090958095709561957F4F8F4F9F4F206880
S11335F0322E2AE030E0A3010E94A422E82EE6182D
S11336003FC0022F853721F40F7E2AE030E01DC031
S1133610097F8F3691F018F4883559F0C5C080378A
S113362019F0883711F0C0C0006104FF09C00460BC
S113363007C024FF08C0066006C028E030E005C0CB
S113364020E130E002C020E132E0520107FF09C06E
S1133650F4E0AF0EB11CF20160817181828193812B
S113366008C0F2E0AF0EB11CF2016081718180E00C
S113367090E0A3010E94A422E82EE6180F77302ED2
S113368036FE0BC0332D3E7FE11650F434FE0AC0E3
S113369032FC08C0332D3E7E05C00E2D332D03C0F1
S11336A00E2D01C0012F34FF0CC0FE01EE0DF11DE3
S11336B08081803311F4397E08C032FF05C00E5F6B
S11336C004C0832F867809F00F5F33FD13C030FFE9
S11336D006C01E2D0F1518F41F0D101B0F2D0F15EE
S11336E068F4B60180E290E03B8B0E943C220F5FBD
S11336F03B89F5CF0F1510F4F01A01C0F12C34FFFB
S113370012C0B60180E390E03B8B0E943C223B89CF
S113371032FF17C031FD03C088E790E002C088E59E
S113372090E0B6010CC0832F867859F031FF02C0B7
S11337308BE201C080E237FD8DE2B60190E00E9489
S11337403C22E11638F4B60180E390E00E943C226A
S11337501150F7CFEA94F301EE0DF11D8081B6010B
S113376090E00E943C22E110F5CF14C0F4E0FF1574
S113377058F584E0F81A33FE1EC0211026C003FF5A
S11337802AC00EEF10E0F32DF0713F2EF801849162
S1133790811124C0FF2009F4E5CCB60180E290E059
S11337A00E943C22FA94F6CFF6018681978126C0C6
S11337B08FEF9FEF23C0B60180E290E00E943C228D
S11337C0FA94F110F8CFD9CFF12CB601822D90E004
S11337D00E943C22D4CF02E011E0D5CF31108052B8
S11337E0B60190E00E943C220F5F1F4FCFCF23E031
S11337F02F1510F483E0BECFF12CC1CF6396E2E124
S11338000C94F71F5058BB27AA270E941A1C0C942B
S1133810351D0E94271D38F00E942E1D20F039F41A
S11338209F3F19F426F40C94241D0EF4E095E7FB55
S11338300C941E1DE92F0E94461D58F3BA17620707
S113384073078407950720F079F4A6F50C94681D96
S11338500EF4E0950B2EBA2FA02D0B01B9019001A7
S11338600C01CA01A0011124FF27591B99F0593FEB
S113387050F4503E68F11A16F040A22F232F342F33
S11338804427585FF3CF469537952795A795F04081
S11338905395C9F77EF41F16BA0B620B730B840B96
S11338A0BAF09150A1F0FF0FBB1F661F771F881F4E
S11338B0C2F70EC0BA0F621F731F841F48F48795A6
S11338C077956795B795F7959E3F08F0B0CF939598
S11338D0880F08F09927EE0F9795879508950E9411
S11338E0831C0C94351D0E942E1D58F00E94271D28
S11338F040F029F45F3F29F00C941E1D51110C94E3
S1133900691D0C94241D0E94461D68F39923B1F38C
S1133910552391F3951B550BBB27AA2762177307F1
S1133920840738F09F5F5F4F220F331F441FAA1F85
S1133930A9F335D00E2E3AF0E0E832D09150504041
S1133940E695001CCAF72BD0FE2F29D0660F771FEF
S1133950881FBB1F261737074807AB07B0E809F0D5
S1133960BB0B802DBF01FF2793585F4F3AF09E3F5A
S1133970510578F00C941E1D0C94691D5F3FE4F30F
S1133980983ED4F3869577956795B795F7959F5F9D
S1133990C9F7880F911D9695879597F90895E1E0E9
S11339A0660F771F881FBB1F621773078407BA0748
S11339B020F0621B730B840BBA0BEE1F88F7E095A3
S11339C00895E89409C097FB3EF49095809570950E
S11339D061957F4F8F4F9F4F9923A9F0F92F96E957
S11339E0BB279395F695879577956795B795F111CC
S11339F0F8CFFAF4BB0F11F460FF1BC06F5F7F4F69
S1133A008F4F9F4F16C0882311F096E911C077237A
S1133A1021F09EE8872F762F05C0662371F096E883
S1133A20862F70E060E02AF09A95660F771F881F52
S1133A30DAF7880F9695879597F9089597F99F6710
S1133A4080E870E060E008959FEF80EC0895002422
S1133A500A941616170618060906089500240A94EF
S1133A6012161306140605060895092E0394000C75
S1133A7011F4882352F0BB0F40F4BF2B11F460FF04
S1133A8004C06F5F7F4F8F4F9F4F089557FD90582D
S1133A90440F551F59F05F3F71F04795880F97FB0E
S1133AA0991F61F09F3F79F08795089512161306C8
S1133AB01406551FF2CF4695F1DF08C016161706F7
S1133AC01806991FF1CF869571056105089408952C
S1133AD0E894BB2766277727CB0197F908950E94BE
S1133AE04E1DA8F19E57B0F1985160F039F198300D
S1133AF070F5092E9927660F771F881F991F0A945E
S1133B00D1F71CC0BB27993F4CF4B111B1E0B62BDF
S1133B10672F782F8827985FB1F708C08695779527
S1133B206795B79508F4B1609395C1F7BB0F30F46E
S1133B3011F460FF03C06F5F7F4F8F4F3EF4909589
S1133B408095709561957F4F8F4F9F4F089568942E
S1133B500C94691D0C94681D0E94BF1D0C94351DA6
S1133B600E94271D38F00E942E1D20F0952311F08D
S1133B700C941E1D0C94241D11240C94691D0E9488
S1133B80461D70F3959FC1F3950F50E0551F629F3A
S1133B90F001729FBB27F00DB11D639FAA27F00DA2
S1133BA0B11DAA1F649F6627B00DA11D661F829FC9
S1133BB02227B00DA11D621F739FB00DA11D621FAE
S1133BC0839FA00D611D221F749F3327A00D611DCB
S1133BD0231F849F600D211D822F762F6A2F1124AD
S1133BE09F5750409AF0F1F088234AF0EE0FFF1FE0
S1133BF0BB1F661F771F881F91505040A9F79E3F37
S1133C00510580F00C941E1D0C94691D5F3FE4F374
S1133C10983ED4F3869577956795B795F795E7958C
S1133C209F5FC1F7FE2B880F911D9695879597F995
S1133C300895FA01EE0FFF1F309621053105A1F119
S1133C406115710561F48038BFE39B0749F16894FD
S1133C509038810561F08038BFEF9B0741F09923CC
S1133C604AF5FF3FE1053105210519F1E89408946F
S1133C70E795D901AA2329F4AB2FBE2FF85FD0F31F
S1133C8010C0FF5F70F4A695E0F7F73950F019F013
S1133C90FF3A38F49F779F930DD00F9007FC90580C
S1133CA0089546F00C94241D60E070E080E89FE3E2
S1133CB008954FE79F775F934F933F932F930E940D
S1133CC0141F2F913F914F915F910E94AC1D0C9452
S1133CD0711E29F416F00C941E1D0C94681D0C948E
S1133CE0241D0E944E1DA8F39638A0F707F80F92E2
S1133CF0E8942BE33AEA48EB5FE70E94C21D0F9277
S1133D000F920F924DB75EB70F920E945C1FECE7C3
S1133D10F0E00E94A31E4F915F91EF91FF91E59512
S1133D20EE1FFF1F49F0FE57E0684427EE0F441FC3
S1133D30FA95E1F74195550B0E94D61E0F9007FEA8
S1133D400C94CA1E0895DF93CF931F930F93FF9291
S1133D50EF92DF927B018C01689406C0DA2EEF01AA
S1133D600E94BF1DFE01E894A591259135914591CE
S1133D705591A6F3EF010E941A1CFE019701A801B8
S1133D80DA9469F7DF90EF90FF900F911F91CF9134
S1133D90DF9108959B01AC0160E070E080E89FE34F
S1133DA00C946F1C0C941E1D0C94901F0E944E1DAD
S1133DB0D8F39923C9F3940F511DA3F391505040A4
S1133DC094F059F0882332F0660F771F881F9150C2
S1133DD05040C1F79E3F51052CF7880F911D9695D1
S1133DE0879597F908955F3FACF0983E9CF0BB2708
S1133DF0869577956795B79508F4B1609395C1F763
S1133E00BB0F58F711F460FFE8CF6F5F7F4F8F4F00
S1133E109F4FE3CF0C94691D16F00C94901F0C94E3
S1133E20241D68940C941E1D0E944E1DA8F3992312
S1133E30C1F3AEF3DF93CF931F930F93FF92C92F78
S1133E40DD2788232AF02197660F771F881FDAF76A
S1133E5020E030E040E85FEB9FE3883920F0803ECB
S1133E6038F021968F770E94031CE4EAF0E004C046
S1133E700E94031CE1EDF0E00E94A31E8B01BE0131
S1133E80EC01FB2E6F5771097595771F880B990B01
S1133E900E94E31C28E132E741E35FE30E94BF1D77
S1133EA0AF2D9801AE01FF900F911F91CF91DF913B
S1133EB00E941A1C0C94351DFA01DC01AA0FBB1FC9
S1133EC09B01AC01BF5728F422273327442750789D
S1133ED020C0B75190F4AB2F002446953795279511
S1133EE0011CA395D2F3002071F0220F331F441F4D
S1133EF0B395DAF30ED00C94021C61307105A0E87E
S1133F008A07B94630F49B01AC01662777278827D6
S1133F109078309621F0208331834283538308952F
S1133F209F3F31F0915020F4879577956795B79529
S1133F30880F911D9695879597F90895DB018F93C6
S1133F409F930E94D01FBF91AF91A29F800D911D9E
S1133F50A39F900DB29F900D11240895A1E21A2EF3
S1133F60AA1BBB1BFD010DC0AA1FBB1FEE1FFF1F19
S1133F70A217B307E407F50720F0A21BB30BE40B69
S1133F80F50B661F771F881F991F1A9469F76095B0
S1133F907095809590959B01AC01BD01CF0108956A
S1133FA00E941220A59F900DB49F900DA49F800D98
S1133FB0911D112408952F923F924F925F926F9218
S1133FC07F928F929F92AF92BF92CF92DF92EF92A5
S1133FD0FF920F931F93CF93DF93CDB7DEB7CA1B26
S1133FE0DB0B0FB6F894DEBF0FBECDBF09942A8851
S1133FF0398848885F846E847D848C849B84AA84F9
S1134000B984C884DF80EE80FD800C811B81AA8185
S1134010B981CE0FD11D0FB6F894DEBF0FBECDBF50
S1134020ED010895A29FB001B39FC001A39F700D3D
S1134030811D1124911DB29F700D811D1124911DAC
S11340400895CF93DF938230910510F482E090E0DD
S1134050E0915202F091530220E030E0C0E0D0E061
S1134060309711F14081518148175907C0F0481722
S1134070590761F482819381209719F09B838A8385
S11340802BC0909353028093520226C02115310510
S113409019F04217530718F49A01BE01DF01EF012A
S11340A00280F381E02DDCCF2115310509F1281BB5
S11340B0390B2430310590F412968D919C9113970D
S11340C06115710521F0FB019383828304C09093F1
S11340D0530280935202FD01329644C0FD01E20F67
S11340E0F31F81939193225031092D933C933AC04D
S11340F02091500230915102232B41F420911C0154
S113410030911D01309351022093500220911A01E5
S113411030911B012115310541F42DB73EB7409173
S11341201E0150911F01241B350BE0915002F091A8
S11341305102E217F307A0F42E1B3F0B281739078F
S113414078F0AC014E5F5F4F2417350748F04E0FEF
S11341505F1F50935102409350028193919302C088
S1134160E0E0F0E0CF01DF91CF9108950F931F932A
S1134170CF93DF93009709F48CC0FC01329713822C
S1134180128200915202109153020115110581F41B
S113419020813181820F931F20915002309151026E
S11341A02817390779F5F0935102E093500271C052
S11341B0D80140E050E0AE17BF0750F412962D919D
S11341C03C911397AD012115310509F1D901F3CFC4
S11341D09D01DA013383228360817181860F971FE9
S11341E08217930769F4EC0128813981260F371F60
S11341F02E5F3F4F318320838A819B819383828307
S1134200452B29F4F0935302E093520242C01396D3
S1134210FC93EE931297ED01499159919E01240F5D
S1134220351FE217F30771F480819181840F951F84
S1134230029611969C938E938281938113969C93FC
S11342408E931297E0E0F0E0D80112968D919C9144
S11342501397009719F0F8018C01F6CF8D919C917A
S113426098012E5F3F4F820F931F2091500230918F
S113427051022817390769F4309729F41092530230
S11342801092520202C013821282109351020093C0
S11342905002DF91CF911F910F910895283008F0BB
S11342A027E03327DA01990F311D87FD91600096CD
S11342B06105710539F432602E5F3D9330E32A9530
S11342C0E1F708959F3F30F080387105610509F0EA
S11342D03C5F3C5F3D93913008F08068911DDF9313
S11342E0CF931F930F93FF92EF92192F987F969578
S11342F0E92F96959695E90FFF27E05AFE4F9927E7
S11343003327EE24FF24A701E701059008940794BE
S113431028F4360FE71EF81E491F511D660F771F3C
S1134320881F991F0694A1F70590079428F4E70EB7
S1134330F81E491F561FC11D770F881F991F661F3E
S11343400694A1F70590079428F4F80E491F561F08
S1134350C71FD11D880F991F661F771F0694A1F7E9
S11343600590079420F4490F561FC71FD81F990FB3
S1134370661F771F881F0694A9F7849110951770FC
S113438041F0D695C79557954795F794E7941A95B4
S1134390C1F7E6E0F1E068941590159135916591C7
S11343A0959105907FE27395E118F10A430B560B42
S11343B0C90BD009C0F7E10CF11E431F561FC91FDA
S11343C0D01D7EF4703311F48A95E6CFE894015041
S11343D030F0080F0AF40027021708F4202F239561
S11343E0022F7A3328F079E37D932A95E9F710C0F8
S11343F07D932A9589F60694979567953795179531
S11344001794E118F10A430B560BC90BD00998F025
S113441023957E9173957A3308F070E37C9320138F
S1134420B8F77E9170617D9330F0839571E37D934D
S113443070E32A95E1F71124EF90FF900F911F91FB
S1134440CF91DF91992787FD90950895FC01059000
S1134450615070400110D8F7809590958E0F9F1F82
S11344600895FC016150704001900110D8F78095C7
S113447090958E0F9F1F08950F931F93CF93DF93F3
S1134480FB01238121FD03C08FEF9FEF28C022FF92
S113449016C046815781248135814217530744F45D
S11344A0A081B1819D012F5F3F4F318320838C9385
S11344B0268137812F5F3F4F3783268310C0EB015E
S11344C0092F182F0084F185E02D0995892BE1F639
S11344D08E819F8101969F838E83812F902FDF9100
S11344E0CF911F910F9108950F931F93CF93DF9353
S11344F0E0915602F0915702238121FF1BC08C01E9
S1134500D0E0C0E0F80181918F0160915602709172
S11345105702DB011896ED91FC911997882331F02D
S11345200995892B79F3DFEFCFEFECCF8AE009957A
S1134530892B19F08FEF9FEF02C08D2F9C2FDF91F5
S1134540CF911F910F910895FA01AA27283051F1B4
S1134550203181F1E8946F936E7F6E5F7F4F8F4FB0
S11345609F4FAF4FB1E03ED0B4E03CD0670F781F0F
S1134570891F9A1FA11D680F791F8A1F911DA11DF4
S11345806A0F711D811D911DA11D20D009F468942D
S11345903F912AE0269F11243019305D3193DEF6D5
S11345A0CF010895462F4770405D4193B3E00FD08B
S11345B0C9F7F6CF462F4F70405D4A3318F0495D76
S11345C031FD4052419302D0A9F7EACFB4E0A69559
S11345D09795879577956795BA95C9F7009761057B
S11345E0710508959B01AC010A2E069457954795D1
S11345F037952795BA95C9F7620F731F841F951FC6
S10B4600A01D0895F894FFCFFA
S1134608020103030000000200000000F60D000090
S11346180000180C041060C0802000005A0220001A
S11346284352554953494E472E2E2E00556E6B6EF4
S11346386F776E20737461746521005374617274AA
S10B4648696E672E2E2E00009E
S9030000FC
