:100000000C9412030C942F030C942F030C942F03C5
:100010000C94DC090C94050A0C942E0A0C94570AD3
:100020000C942F030C94BD080C94E6080C940F0953
:100030000C948A090C9438090C9461090C94B30946
:100040000C9442080C946B080C9494080C942F03A5
:100050000C942F030C942F030C942F030C942F0358
:100060000C942F030C942F030C942F030C942F0348
:100070000C942F030C942F030C942F03331236127D
:100080003C1239123F124212451207634236B79BA7
:10009000D8A71A39685618AEBAAB558C1D3CB7CCE8
:1000A0005763BD6DEDFD753EF6177231BF00000060
:1000B000803F08000000BE922449123EABAAAA2A43
:1000C000BECDCCCC4C3E00000080BEABAAAAAA3E5E
:1000D00000000000BF000000803F0000000000089A
:1000E0004178D3BB4387D1133D190E3CC3BD428237
:1000F000AD2B3E68EC8276BED98FE1A93E4C80EFF5
:10010000FFBE01C4FF7F3F00000000006E616E0073
:10011000696E660000407A10F35A00A0724E18090A
:100120000010A5D4E80000E87648170000E40B545E
:10013000020000CA9A3B000000E1F505000080962D
:100140009800000040420F000000A086010000005F
:10015000102700000000E803000000006400000019
:1001600000000A00000000000100000000002C76E2
:10017000D888DC674F0823DFC1DFAE59E1B1B796FD
:10018000E5E3E453C63AE651997696E8E6C284265A
:10019000EB898C9B62ED407C6FFCEFBC9C9F40F236
:1001A000BAA56FA5F490055A2AF75C936B6CF967B2
:1001B0006DC11BFCE0E40D47FEF520E6B500D0ED77
:1001C000902E0300943577050080841E08000020DF
:1001D0004E0A000000C80C333333330F986E12837D
:1001E0001141EF8D2114893BE65516CFFEE6DB1851
:1001F000D1844B381BF77C1D901DA4BBE424203216
:1002000084725E228100C9F124ECA1E53D27160528
:100210000100000000000000FA000000E000E00023
:1002200028FE28FE282454FE5448C4C81026466CD4
:1002300092AA44A000A0C0000000384482000082BE
:1002400044380028107C102810107C1010000A0C74
:100250000000101010101000060600000408102006
:10026000407C8A92A27C0042FE020042868A926210
:100270008482A2D28C182848FE08E4A2A2A29C3C48
:100280005292920C808E90A0C06C9292926C60926E
:10029000929478006C6C0000006A6C000010284496
:1002A00082002828282828008244281040808A902C
:1002B000604C929E827C7E8888887EFE9292926CB0
:1002C0007C82828244FE82824438FE92929282FE36
:1002D000909090807C8292925EFE101010FE0082C0
:1002E000FE8200040282FC80FE10284482FE02028C
:1002F0000202FE403040FEFE201008FE7C82828218
:100300007CFE909090607C828A847AFE90989462C1
:10031000629292928C8080FE8080FC020202FCF845
:10032000040204F8FC021C02FCC6281028C6E010D7
:100330000E10E0868A92A2C200FE82820040201047
:100340000804008282FE0020408040200202020257
:10035000020080402000042A2A2A1EFE1222221CAB
:100360001C222222041C222212FE1C2A2A2A1810D5
:100370007E908040304A4A4A7CFE1020201E002297
:10038000BE0200040222BC00FE081422000082FE0D
:1003900002003E2018201E3E1020201E1C22222279
:1003A0001C3E28282810102828183E3E1020201017
:1003B000122A2A2A0420FC2202043C0202043E38AB
:1003C000040204383C020C023C2214081422300AB5
:1003D0000A0A3C22262A322200106C82000000FE0B
:1003E000000000826C1000081010081000000000CF
:1003F000007F8181817F7F8383837F7F8787877F62
:100400007F8F8F8F7F7F9F9F9F7F7FBFBFBF7F7FAC
:10041000FFFFFF7F2040FF4020621517156500FB9E
:10042000FB00000000000000C0FF0300E0FF070029
:10043000F0FF0F00F8FF1F0078001E0078001E007C
:1004400078001E0078001E0078001E0078001E0054
:1004500078001E0078001E0078001E0000000000DA
:100460000000000080FF0300E0FF0700F0FF0F0026
:10047000F8FF1F00F83C1F00783C1E00783C1E006F
:10048000783C1E00783C1E00783C1E00783C1E0024
:10049000783C1E00783C1E00783C1E00783C1E0014
:1004A0000000000000000000E0FF0300F0FF070074
:1004B000F8FF0F00F8FF1F00783C1E00783C1E007C
:1004C000783C1E00783C1E00783C1E00783C1E00E4
:1004D000783C1E00783C1E00783C1E00783C1E00D4
:1004E0000000000000000000F8FF0300F8FF0F000C
:1004F000F8FF1F00F8FF1F0000001E0000001E0094
:1005000000801F0000F01F0000FF0F00E0FF070049
:10051000F0FF0000F80F0000F80000007800000075
:1005200078000000F8FF1F00F8FF1F00F0FF1F0019
:10053000E0FF1F000000000000000000F8FF1F00A7
:10054000F8FF1F00F8FF1F00F8FF1F0078001E00D3
:10055000783C1E00783C1E00783C1E00783C1E0053
:10056000783C1E00783C1E00F87E1F00F8FF1F003C
:10057000F0FF0F00E0E7030000000000000038007B
:10058000EEFF6C002A8045003A0047FC03FF6CFC3C
:1005900083FF3900DEFF0B7CD0810BFCD0810BC0C8
:1005A000D0810BFCD0810B7CDEFF0B0082FF397009
:1005B00002FF6CF83A0047DC2A8045CCEEFF6CCC99
:1005C000000038000000000C00001E0C00001E009F
:1005D00000001E0000001E0000001E00F8FF1F00AB
:1005E000F8FF1F00F8FF1F00F8FF1F0000001E00AB
:1005F00000001E0000001E0000001E0000005E0043
:100600000000400000007C000000400000004000AE
:1006100000007C00000030000000100000003000EE
:1006200000007C0011241FBECFEFD8E0DEBFCDBF9D
:1006300011E0A0E0B1E0EAEEFCE302C005900D920B
:10064000AC3AB107D9F722E0ACEAB1E001C01D92A3
:10065000A33BB207E1F70E94A6030C94731E0C940F
:1006600000008FE00E94E006882311F082E00895E8
:100670000E949B0381E008958FE00E94ED0688238D
:1006800019F420E030E013C080917A0080648093F8
:100690007A0080917A0086FDFCCF3091780020911D
:1006A0007900922F80E0232F30E0282B392BC901CD
:1006B0000895ECE7F0E090818295880F880F807CA8
:1006C0009F73982B90830895582F80910001883054
:1006D000D8F440917E0021E030E0B90102C0660FFD
:1006E000771F8A95E2F7CB018095842380937E0063
:1006F00080917E00052E02C0220F331F0A94E2F77C
:10070000822B80937E000DC020917E0081E090E0DE
:10071000052E02C0880F991F0A94E2F7282B209318
:100720007E005093000180917C005F71807E852B5C
:1007300080937C0008958FE180937C00EAE7F0E0ED
:1007400087E0808380818068808308950E944008CC
:100750000E9432080E94741380E090E008950F9385
:100760001F9385E00E94ED068823C1F080E460E0DD
:100770000E94AC0400E0802F60E00E94570410E06B
:1007800080E061E00E94AC041F5F1038C9F70F5F82
:10079000043089F783E060E00E949A041F910F9172
:1007A00008950F931F9385E00E94E006882311F0BF
:1007B00082E07AC00E94F704182F0E94F9061150B7
:1007C000123008F06DC08150823008F069C00E947C
:1007D000C7048EEA60E00E94AC0482EA60E00E94F6
:1007E000AC0480EA60E00E94AC0400E513ECC801B0
:1007F0000197F1F780EC60E00E94AC048FE260E0CA
:100800000E94AC0481E860E00E94AC0486E160E0F4
:100810000E94AC0482E260E00E94AC04C80101972F
:10082000F1F78FEA60E00E94AC0486EA60E00E9483
:10083000AC0485EA60E00E94AC0480E090E028E827
:1008400033E1F9013197F1F7019643E0883E9407CF
:10085000C1F783EB60E00E94AC0480E460E00E949A
:10086000AC0483E060E00E94570483E060E00E94F3
:100870009A0410924B0210924D0210924C0281E0A9
:1008800091E09093B0028093AF0288E10E947904D6
:100890000E94AF0384EA60E00E94AC0481E004C0DF
:1008A00085E00E94D00687E01F910F910895FF9286
:1008B0000F931F93082FF62E85E00E94ED068823E4
:1008C000A1F01F2D1F770370802F806B60E00E94C6
:1008D000AC0412951F70812F806160E00E94AC040F
:1008E0008F2D8F7060E00E94AC041F910F91FF90DC
:1008F00008951F93182F85E00E94ED068823C1F00C
:1009000087E00E94390582E06AE00E948A0582E061
:1009100061EB0E948A05612F113208F060E282E0EB
:100920000E948A0589EE8A95F1F787E00E943905D1
:100930001F9108950F931F93082F162F85E00E9493
:10094000ED06882331F003701F771093490200935E
:100950004A021F910F9108950F931F93082F162F8E
:1009600085E00E94ED06882379F0112319F01130FB
:1009700021F402C02B9801C02B9A86E08A95F1F7EA
:1009800080E0602F0E948A051F910F910895239A9D
:10099000089586E00E94E006882311F082E0089521
:1009A0000E94E00481E008951F93182F86E00E94C2
:1009B000ED06882319F0812F0E94E9041F91089504
:1009C000559A569A80E20E943E0B80E40E943E0BAC
:1009D0000895282F85FF04C08BB190E289278BB939
:1009E00026FF04C08BB190E489278BB9089582E07B
:1009F0000E94E006882311F082E008950E94990584
:100A000080E065EC7BE00E94300581E06DEB7BE0EF
:100A10000E94300582E065EB7BE00E94300586E0B5
:100A20006DEC7BE00E94300583E06DEA7BE00E9484
:100A3000300584E06DEA7BE00E94300585E06DEAD8
:100A40007BE00E94300587E06DEA7BE00E94300584
:100A50008FEF80934E0287E00E94390581E0089570
:100A6000E82FF0E0EE0FFF1FE451FE4F718360832B
:100A700008951F93182F82E00E94ED06882309F441
:100A800047C0912F977080914E02981709F440C08B
:100A900090934E0285B1887F892B85B9933011F1EF
:100AA000943028F4913051F0923090F40CC095308D
:100AB00019F19530E0F0963021F50FC0E091EE018C
:100AC000F091EF0122C0E091EC01F091ED011DC029
:100AD000E091F001F091F10118C0E091F801F0917E
:100AE000F90113C0E091F201F091F3010EC0E09121
:100AF000F401F091F50109C0E091F601F091F701E0
:100B000004C0E091FA01F091FB01309709F00995DA
:100B10001F9108951F93162F0E94390582E00E94AD
:100B2000ED06882321F01EBD0DB407FEFDCF1F91F9
:100B30000895259A2698279A209A219A229A08950C
:100B400087E00E94E006882311F082E008950E9469
:100B5000C60681E08093850210924F0210925002E7
:100B600010925202109251021092540210925302AB
:100B7000109256021092550210925802109257028B
:100B800010925A021092590210925C0210925B026B
:100B900010925E0210925D021092600210925F024B
:100BA000109262021092610210926402109263022B
:100BB000109266021092650210926802109267020B
:100BC00010926D0210926E0210926F0210927002DB
:100BD00010927202109273021092740210927502B7
:100BE00010927602109277021092780210927A0296
:100BF0001092790210927C0210927B0210927E0277
:100C000010927D021092800210927F0210926A026E
:100C10001092690210926C0210926B021092840280
:100C2000109283021092850208952EEF803792076A
:100C300014F480E79EEFFC0181E0E139F80714F03D
:100C4000E0E9F1E09B018EEF6037780714F420E7CC
:100C50003EEFA90121E04139520714F040E951E08B
:100C60008F2F881F8827881F252F221F2227221FAA
:100C700091E0909385028093720220937302CF01DA
:100C8000F7FF03C0909581959F4F9A0157FF03C0CE
:100C9000309521953F4F90935202809351023093AB
:100CA00054022093530210928502089521E020936C
:100CB0008502AC0183E0493E580710F048EE53E04E
:100CC0009B0183E0693E780710F028EE33E0F8944A
:100CD00050935A024093590230935C0220935B0276
:100CE0007894109285020895482F81E080938502C0
:100CF000CB0121E06139720710F080E991E04130C9
:100D000061F0413018F04230C9F40EC0F89490936D
:100D1000520280935102789411C0F8949093540237
:100D20008093530278940AC0F8949093520280936F
:100D3000510290935402809353027894109285024A
:100D400008950F931F93182F062F662349F460E030
:100D500070E00E947406812F60E070E00E94550DE3
:100D600081E080938502113051F0113018F012307B
:100D700041F403C000936D0204C000936D02009320
:100D80006E02109285021F910F9108953A9A3B9A34
:100D90003C9A3D9A3E9A3F9A88B1837088B90895EB
:100DA000853160F4E82FF0E0EC5CFD4F8081882312
:100DB00029F0808181508083808108958FEF08958C
:100DC000853110F080E00895E82FF0E0EC5CFD4FF5
:100DD00080818F5F808381500895853110F080E09D
:100DE0000895E82FF0E0EC5CFD4F8081811181E0F7
:100DF0000895DF93CF9300D00F92CDB7DEB781E097
:100E00000E94E006882311F082E011C00E94F704DE
:100E10008150823040F40E941D07CE0101960E944D
:100E2000870D81E004C081E00E94D00687E00F902A
:100E30000F900F90CF91DF91089510929D02109224
:100E40009C0210929F0210929E021092A102109298
:100E5000A0021092A3021092A2021092A502109278
:100E6000A40280E991E09093890280938802909394
:100E70008B0280938A0290938D0280938C029093D0
:100E80008F0280938E02909391028093900284E36C
:100E900098E09093930280939202909395028093AE
:100EA0009402909397028093960290939902809374
:100EB000980290939B0280939A0208950F931F9338
:100EC000DF93CF93CDB7DEB729970FB6F894DEBF87
:100ED0000FBECDBF8C0188E00E94ED06882311F47F
:100EE00091E00DC0CE01019661E040E098010E94C2
:100EF0008B07982F882319F48F818823E9F3892F92
:100F000029960FB6F894DEBF0FBECDBFCF91DF910B
:100F10001F910F910895EF92FF920F931F93CF931C
:100F2000DF93EC01F62EE42E890188E00E94ED06A5
:100F3000882311F481E026C084E090E00E94921B97
:100F4000FC01009711F482E01DC0F982F0FC1E82C2
:100F500081E0E81619F48981846089838981886039
:100F600089831B830A831D830C83D183C0831382EF
:100F7000128281E080930C02CF010E94C907109277
:100F80000C0280E0DF91CF911F910F91FF90EF90C5
:100F90000895CF92DF92EF92FF920F931F93CF931A
:100FA000DF93EC018091A602882339F4D093A80244
:100FB000C093A7020E94E00D47C0C090A702D09046
:100FC000A80200E010E0EE24FF2437C0A881B98118
:100FD000FD0164817581F60140815181FA018481AE
:100FE00095819B01281B390B37FF0FC0861B970B80
:100FF00095838483DB82CA82012B29F4D093A802D3
:10100000C093A70221C0F7010CC0F6018281938131
:101010002115310549F4FD01158214829B838A83D1
:10102000F601D383C28310C0FD013583248300976A
:10103000B9F30F5F1F4F76016C018091A60290E01B
:101040000817190718F2ECCF8091A6028F5F8093E2
:10105000A602DF91CF911F910F91FF90EF90DF904B
:10106000CF9008950E94700D0E944F0B0E94800A3D
:101070000E94C40D0E94F7040E94F9067894089516
:10108000000008951F920F920FB60F9211242F9314
:101090003F934F935F936F937F938F939F93AF9300
:1010A000BF93EF93FF93E091CC01F091CD01309786
:1010B00009F00995FF91EF91BF91AF919F918F91A9
:1010C0007F916F915F914F913F912F910F900FBE44
:1010D0000F901F9018951F920F920FB60F92112428
:1010E0002F933F934F935F936F937F938F939F9330
:1010F000AF93BF93EF93FF93E091CE01F091CF01B7
:10110000309709F00995FF91EF91BF91AF919F91B1
:101110008F917F916F915F914F913F912F910F90A0
:101120000FBE0F901F9018951F920F920FB60F923F
:1011300011242F933F934F935F936F937F938F93DC
:101140009F93AF93BF93EF93FF93E091D001F09102
:10115000D101309709F00995FF91EF91BF91AF91BF
:101160009F918F917F916F915F914F913F912F91BF
:101170000F900FBE0F901F9018951F920F920FB6F1
:101180000F9211242F933F934F935F936F937F930D
:101190008F939F93AF93BF93EF93FF93E091BE0123
:1011A000F091BF01309709F00995FF91EF91BF9140
:1011B000AF919F918F917F916F915F914F913F91EF
:1011C0002F910F900FBE0F901F9018951F920F92A6
:1011D0000FB60F9211242F933F934F935F936F930A
:1011E0007F938F939F93AF93BF93EF93FF93E09180
:1011F000C001F091C101309709F00995FF91EF917D
:10120000BF91AF919F918F917F916F915F914F911E
:101210003F912F910F900FBE0F901F9018951F9226
:101220000F920FB60F9211242F933F934F935F931A
:101230006F937F938F939F93AF93BF93EF93FF939E
:10124000E091C201F091C301309709F00995FF9137
:10125000EF91BF91AF919F918F917F916F915F912E
:101260004F913F912F910F900FBE0F901F901895A7
:101270001F920F920FB60F9211242F933F934F930B
:101280005F936F937F938F939F93AF93BF93EF93EE
:10129000FF93E091C601F091C701309709F00995DD
:1012A000FF91EF91BF91AF919F918F917F916F913E
:1012B0005F914F913F912F910F900FBE0F901F9014
:1012C00018951F920F920FB60F9211242F933F93F0
:1012D0004F935F936F937F938F939F93AF93BF933E
:1012E000EF93FF93E091C801F091C901309709F0A5
:1012F0000995FF91EF91BF91AF919F918F917F9150
:101300006F915F914F913F912F910F900FBE0F9072
:101310001F9018951F920F920FB60F9211242F93C2
:101320003F934F935F936F937F938F939F93AF936D
:10133000BF93EF93FF93E091C401F091C501309703
:1013400009F00995FF91EF91BF91AF919F918F9116
:101350007F916F915F914F913F912F910F900FBEB1
:101360000F901F9018951F920F920FB60F92112495
:101370002F933F934F935F936F937F938F939F939D
:10138000AF93BF93EF93FF93E091CA01F091CB012C
:10139000309709F00995FF91EF91BF91AF919F911F
:1013A0008F917F916F915F914F913F912F910F900E
:1013B0000FBE0F901F9018951F920F920FB60F92AD
:1013C00011242F933F934F935F936F937F938F934A
:1013D0009F93AF93BF93EF93FF93E091B401F0918C
:1013E000B501309709F00995FF91EF91BF91AF9149
:1013F0009F918F917F916F915F914F913F912F912D
:101400000F900FBE0F901F9018951F920F920FB65E
:101410000F9211242F933F934F935F936F937F937A
:101420008F939F93AF93BF93EF93FF93E091B60198
:10143000F091B701309709F00995FF91EF91BF91B5
:10144000AF919F918F917F916F915F914F913F915C
:101450002F910F900FBE0F901F9018951F920F9213
:101460000FB60F9211242F933F934F935F936F9377
:101470007F938F939F93AF93BF93EF93FF93E091ED
:10148000B801F091B901309709F00995FF91EF91FA
:10149000BF91AF919F918F917F916F915F914F918C
:1014A0003F912F910F900FBE0F901F9018951F9294
:1014B0000F920FB60F9211242F933F934F935F9388
:1014C0006F937F938F939F93AF93BF93EF93FF930C
:1014D000E091BA01F091BB01309709F00995FF91B5
:1014E000EF91BF91AF919F918F917F916F915F919C
:1014F0004F913F912F910F900FBE0F901F90189515
:1015000080E10E94E006882311F082E00895ECEA71
:10151000F1E01192119281E0EC3EF807D1F781E001
:101520000895FF920F931F93CF93DF93F82E8AE0D5
:10153000F816B1F08F1548F0E8E0FE16B9F1EF1596
:1015400038F1F7E0FF1651F43BC08DE0F81659F082
:10155000EBE1FE1689F0FCE0FF1641F001E041C02E
:101560001092490203C0109249023AC080914A0287
:10157000815080934A0234C00E94AF0314C080E0BF
:1015800061E00E94AC04809149028F5F8093490220
:101590008091490287FFF3CF1092490280914A025D
:1015A000815080934A0200E011E01CC08091490202
:1015B0008823B1F08091490286508093490210C07F
:1015C00081E00E94A70C64EF71E080E090E04DE7BD
:1015D00050E024E630E00E94B30C81E00E940E0C43
:1015E00000E010E080914A02609149020E94570495
:1015F000002351F185E0F89EC0011124EC01CF5881
:10160000DE4F8C010A581E4FFE01849161E00E945A
:10161000AC042196C017D107B9F780E061E00E94C1
:10162000AC04809149028A5F80934902809149020B
:1016300090E08C3791053CF01092490280914A026B
:10164000815080934A0211E080914A028370809316
:101650004A02113059F480914B02813039F4E09103
:101660004C02F0914D02309709F0099580E090E02E
:10167000DF91CF911F910F91FF9008951F93182F25
:1016800086E00E94ED06882319F0812F0E944A0B04
:101690001F91089585FD5D9886FD5E980895F894E4
:1016A0000E94AA0B81E00E94570B81E008958130CF
:1016B00049F0F894813020F18230B1F0833009F0A4
:1016C00045C017C02C9A80E8809361001092610099
:1016D00080E090E00000019688329105D9F71092E1
:1016E000680010926B00089580E88093610083E0A9
:1016F00004C080E88093610088E08093610028C086
:1017000080E090E0000001962DE680369207D1F748
:101710002C9880E090E0000001962DE6803692073C
:10172000D1F710927A008FEF809364008091680067
:1017300081608093680080916B00846080936B006F
:10174000789483B7816083BF88950895823008F0CC
:1017500078940895249A2C9A089583E58CBD81E0AD
:101760008DBD8DE08A95F1F7089583E58CBD1DBC94
:1017700084EF91E00197F1F708958FE78CBD1DBCD0
:1017800084EF91E00197F1F7089583E58CBD81E046
:101790008DBD8DE08A95F1F7089583E58CBD81E0DC
:1017A0008DBD84EF91E00197F1F708951F93162FF7
:1017B0000E94390582E00E94ED06882329F01EBDB3
:1017C0000DB407FEFDCF8EB51F9108958AE00E94EB
:1017D000D006882329F481E00E94090D1092FD01B2
:1017E000089589E00E94D0068823B9F48091FC0115
:1017F000882311F00E944F0D82E00E94090D809114
:101800000A0290910B02009731F00E94271C10925F
:101810000B0210920A021092FC010895813029F007
:10182000823029F40E94F10B08950E94E60B08957E
:101830000F931F93CF93DF9380E291E00E94921B5E
:101840009C0190930B0280930A02892B11F480E093
:1018500039C08901C0E0D0E0BE0180E090E00E9484
:10186000D01420E030E040EA51E40E94281427EF31
:1018700035E740E05FE30E945E159B01AC0160E04C
:1018800070E080E291E40E9484199B01AC01CA01DE
:10189000B9012DEC3CEC42E851E40E945E150E9437
:1018A00047192AE030E040E050E00E94091BF801AF
:1018B00061937193819391938F012196C834D105DF
:1018C00059F681E0DF91CF911F910F9108958AE041
:1018D0000E94E006882311F082E00895109207022A
:1018E0001092060281E00E94250D81E08093FD01A7
:1018F00008951F9389E00E94E006882311F082E09A
:1019000024C08BE00E94ED068823D9F40E94180CB5
:10191000182F813011F086E018C01092FE0110924D
:10192000FF0110920002109201028DE068E17EE05A
:101930000E94F30D82E00E94250D1093FC0181E0CE
:1019400004C089E00E94D00687E01F91089581308D
:1019500021F0823029F084E008950E94670C0895F8
:101960000E94790C08956F927F928F929F92AF920E
:10197000BF92CF92DF92EF92FF920F931F93CF937C
:10198000DF933B014C015A01E9018AE00E94ED0618
:10199000882381F1209741F19501442737FD409537
:1019A000542FBE01C536D10510F064E670E080E02A
:1019B00090E00E94091B24E630E040E050E00E94E5
:1019C000191B79018A01C401B3010E941B0EC701D2
:1019D0000E945E0760E070E080E090E00E941B0ED5
:1019E000C5018E199F0904C0A114B10419F0C501E5
:1019F0000E945E07DF91CF911F910F91FF90EF90B2
:101A0000DF90CF90BF90AF909F908F907F906F901E
:101A10000895823029F4809181008E7F8093810027
:101A20008091FC01813031F48091FD01813011F40D
:101A3000000008958091FC01813021F08091FD012A
:101A4000813011F45F9857980895982F8091FC0188
:101A5000882331F48091FD01882311F4579A5F980F
:101A60008091FC018823D1F49230C1F4109280005F
:101A70001092810080918100886080938100809124
:101A80008100816080938100109285001092840013
:101A900081E08093890080E9809388000895EFE6D3
:101AA000F0E080818D7F80830895982F81E080937E
:101AB0008502913071F0913018F0923071F405C0C8
:101AC000709362026093610208C070936202609337
:101AD000610270936402609363021092850208951C
:101AE000CF93DF93C0E0D0E08C2F60E00E947F0DA9
:101AF0002196C531D105C1F7DF91CF910895853188
:101B000028F4E82FF0E0EC5CFD4F608308951F930C
:101B1000CF93DF93EC01009799F181E00E94ED06ED
:101B2000882351F187E00E94390518EC812F8A95AE
:101B3000F1F782E06AE00E948A0582E064EB0E948D
:101B40008A05812F8A95F1F782E060E00E94D60B2A
:101B50008883812F8A95F1F782E060E00E94D60B9E
:101B600089831A95F1F782E060E00E94D60B8A83A0
:101B700087E00E94390504C0188219828DE28A83A9
:101B8000DF91CF911F91089588E00E94E00688239D
:101B900011F082E008951092A6021092A80210920D
:101BA000A70210920C0210920D0280E160E87EE024
:101BB0000E94070E0E94E40D0E94ED0D81E0089541
:101BC00081E080930D02089584B5826084BD85B55F
:101BD000846085BD8EE487BD0895EEE6F0E08081E7
:101BE000826080830895E82F803268F480518330CA
:101BF00050F0F0E0EE0FFF1FE455FE4F20813181E1
:101C00007183608302C020E030E0C9010895803212
:101C100018F020E030E00AC0E82FF0E0EE0FFF1FE0
:101C2000E455FE4F2081318171836083C90108959D
:101C30000E943F0E0895EF92FF920F931F937B0136
:101C40008C018AE00E94ED068823A1F08091FD01BD
:101C5000882381F0D801C701880F991FAA1FBB1FD5
:101C60009093090280930802E114F1040105110523
:101C700009F45F981F910F91FF90EF900895809164
:101C8000FE019091FF01A0910002B091010220910C
:101C90000202309103024091040250910502280F84
:101CA000391F4A1F5B1F2093FE013093FF014093B1
:101CB0000002509301028091FE019091FF01A091DA
:101CC0000002B09101028851964FA040B040BCF094
:101CD0008BB180588BB98091FE019091FF01A0914A
:101CE0000002B09101028851964FA040B04080930D
:101CF000FE019093FF01A0930002B09301020895AA
:101D00000E94870E0E94C70E0E94A00E089588E0D0
:101D10000E94ED06882311F484E0089580910D025D
:101D2000882311F483E0089580910C02882311F038
:101D300082E008950E9414118130E1F380E008955B
:101D40008091FD01813011F580910602909107028A
:101D50002091080230910902280F391F30930702A1
:101D6000209306028091060290910702885E9340BC
:101D70006CF08BB180588BB980910602909107026C
:101D8000885E93409093070280930602089587E04F
:101D90000E94ED06882309F4AAC08091590290910F
:101DA0005A02892B09F180917D0290917E02209147
:101DB000590230915A02820F931F90937E028093B2
:101DC0007D0280917D0290917E02885E9340A4F016
:101DD00080917D0290917E02885E934090937E0276
:101DE00080937D0241E009C080915102909152029E
:101DF000909356028093550240E080915B0290914F
:101E00005C02892B09F180917F02909180022091E0
:101E10005B0230915C02820F931F9093800280934B
:101E20007F0280917F0290918002885E9340A4F0AF
:101E300080917F0290918002885E9340909380020F
:101E400080937F0261E009C0809153029091540217
:101E5000909358028093570260E0842F0E94780F7D
:101E60008091790290917A02209155023091560228
:101E7000280F391F30937A022093790280917902DA
:101E800090917A02885E934014F440E00BC08091F8
:101E9000790290917A02885E934090937A028093BF
:101EA000790241E080917B0290917C02209157025F
:101EB00030915802280F391F30937C0220937B0207
:101EC00080917B0290917C02885E934014F460E0E4
:101ED0000BC080917B0290917C02885E934090932E
:101EE0007C0280937B0261E0842F0E94BD0F0895E5
:101EF0008823F1F0209151023091520280915502D5
:101F000090915602281B390B1216130634F4809157
:101F1000550290915602019607C0232B49F08091FB
:101F20005502909156020197909356028093550264
:101F3000662311F12091530230915402809157028F
:101F400090915802281B390B1216130654F48091F5
:101F5000570290915802019690935802809357022D
:101F60000895232B49F080915702909158020197D0
:101F7000909358028093570208950F931F93182F40
:101F8000062F80918502882309F0E7C080916D02B9
:101F9000882309F05AC08091550290915602892BEE
:101FA000E9F480910E02837E80930E0210927602F5
:101FB00080918102882309F45DC060916F0280E006
:101FC0000E94A106E0918302F0918402309709F407
:101FD00051C081E08083109281024CC080914F02F9
:101FE000813041F48091610290916202019711F475
:101FF00011E002C01123F1F1E0917402F0E0E15F21
:10200000FE4F90910E02937E8081892B80930E0269
:1020100080917202882321F4809174028F5F03C043
:102020008091740281508093740280917402837055
:102030008093740281E08093760280914F02813018
:10204000C9F480E00E94C01015C090910E02937EEA
:1020500090930E02E0917402F0E0E15FFE4F808108
:10206000892B80930E0282E08093760210925602B2
:102070001092550280916E02882309F059C0809118
:10208000570290915802892BE9F480910E028F71CA
:1020900080930E021092770280918202882309F4C5
:1020A0005CC06091700281E00E94A106E091830211
:1020B000F0918402309709F450C081E0818310923E
:1020C00082024BC080915002813041F480916302C2
:1020D00090916402019711F401E002C00023E9F13C
:1020E000E0917502F0E0ED5EFE4F90910E029F715F
:1020F0008081892B80930E0280917302882321F4C2
:10210000809175028F5F03C080917502815080932A
:1021100075028091750283708093750281E08093CF
:102120007702809150028130C1F40E94C01015C026
:1021300090910E029F7190930E02E0917502F0E073
:10214000ED5EFE4F8081892B80930E0282E08093AA
:1021500077021092580210925702809178028823D9
:1021600031F48EE092E0612F402F0E94821188B1FD
:10217000837090910E02892B88B91F910F91089559
:10218000882321F0813009F04EC027C08091610280
:1021900090916202892B49F08091610290916202D4
:1021A000019790936202809361028091810288235B
:1021B000D1F5209161023091620280916502909187
:1021C00066022817390779F580E060E070E00E9428
:1021D000740681E08093810208958091630290915A
:1021E0006402892B49F08091630290916402019707
:1021F000909364028093630280918202882399F411
:10220000209163023091640280916702909168028C
:102210002817390741F481E060E070E00E947406FD
:1022200081E0809382020895FF920F931F93CF93D2
:10223000DF938091A602882309F459C00091A70278
:102240001091A802F801C081D1818C819D810197F4
:102250009D838C83181619060CF449C0898180FF70
:1022600005C08E81882311F481E08E83898181FFEE
:1022700003C0EF81F88509958091A6028230A8F00D
:10228000F801828193819093A8028093A702138220
:102290001282E0910000F09101008481958118166E
:1022A00019063CF0FF24F39405C01092A802109286
:1022B000A702FF248091A60281508093A6028091FC
:1022C000A602882311F40E947F11898182FF08C031
:1022D0008A819B819D838C83C8010E94C90708C0A5
:1022E000C8010E94271C89818F7E898301C0FF2439
:1022F0008F2DDF91CF911F910F91FF900895109234
:102300000D020895FC0180917602823069F480917B
:10231000120291E0892780931202882309F03EC0BF
:102320008081837E80833AC08091550290915602CD
:10233000C397A4F56623D1F020915502309156023F
:1023400080E690E0BC01269FC001279F900D369F3C
:10235000900D1124880F892F881F990B90936A0282
:102360008093690281E08093100218C0809110026E
:102370008823A1F08091690290916A02019790935D
:102380006A02809369028091690290916A02892BA6
:1023900029F48081837E80831092100280917702DD
:1023A000823069F48091110291E0892780931102B3
:1023B000882309F03EC080818F71808308958091C9
:1023C000570290915802C397A4F54423D1F020916D
:1023D00057023091580280E690E0AC01249FC00182
:1023E000259F900D349F900D1124880F892F881FF1
:1023F000990B90936C0280936B0281E080930F02A3
:10240000089580910F028823A1F080916B02909132
:102410006C02019790936C0280936B0280916B0227
:1024200090916C02892B29F480818F7180831092A6
:102430000F020895CF93DF93FC01308120912A028F
:10244000321303C0208121112AC0EC010E94AF0386
:10245000E8814E2F50E047305105D0F4FA01E25C9C
:10246000FF4F0C943B1B8DE191E014C089E291E099
:1024700011C085E391E00EC084E491E00BC08EE4CE
:1024800091E008C080E691E005C082E791E002C0DB
:1024900084E891E00E94E51D888180932A02DF9103
:1024A000CF910895DC01FB019C918081981325C098
:1024B00011962D913C9112978181928128173907AD
:1024C000E1F413962D913C91149783819481281700
:1024D000390799F415962D913C911697858196812F
:1024E0002817390751F417964D915C911897278159
:1024F000308581E04217530709F080E00895CF93BB
:10250000DF93EC019B018091290281110AC041E017
:1025100061E080E292E00E948B0781E080932902D3
:102520003DC0809126028823C9F180E20E94D40434
:1025300086E00E9464030E943C03BC0180E090E0BE
:102540000E94D01420E030E040EA50E40E945E1582
:1025500020E030E040E85AE30E945E156E8B7F8BEE
:10256000888F998F84E00E9464030E943C03BC0121
:1025700080E090E00E94D01420E030E040EA50E497
:102580000E945E1520E030E040E85AE30E945E15AC
:102590006A8F7B8F8C8F9D8F10922602DF91CF9157
:1025A00008954F925F926F927F928F929F92AF9217
:1025B000BF92CF92DF92EF92FF92CF93DF93EC0125
:1025C000FB01C688D788E08CF18C628D738D848D79
:1025D000958D20E030E040EC5FE30E94BB139B014F
:1025E000AC01C701B6010E94BB136B017C012091B5
:1025F0001C0230911D0240911E0250911F020E9448
:10260000BB132B013C0186E0888320E030E04CEDD9
:1026100052E4C701B6010E945E154B015C0120E047
:1026200030E048E453E4C301B2010E945E159B010F
:10263000AC01C501B4010E94BC130E949A14072E7C
:10264000000C880B990B0E94D2144B015C0120E016
:1026500030E040EA53E40E94BC130E949A147A834B
:102660006983A501940160E070E080EA93E40E9430
:10267000BB130E949A147C836B83C0921C02D0927D
:102680001D02E0921E02F0921F02DF91CF91FF9097
:10269000EF90DF90CF90BF90AF909F908F907F9002
:1026A0006F905F904F900895CF93DF93EC0163E1BB
:1026B00072E00E945212811114C06F8178858D8161
:1026C0009E810E9456066B817C8189819A810E943D
:1026D000150689E0FE01A3E1B2E001900D928A9512
:1026E000E1F7DF91CF910895CF93DF93CDB7DEB7B8
:1026F0006E970FB6F894DEBF0FBECDBF0E94C9041F
:102700000E94D1030E94A0050E94310381E00E9433
:10271000590310922D0210922C0210922F02109247
:102720002E02109231021092300210923302109257
:10273000320210922B0280EA91E00E94E51D88EBA4
:102740009BE00E945E070E94AF036AE070E0CE014A
:1027500001960E947F12BE016F5F7F4F8BE292E075
:102760000E94D1128BE292E00E9454138BE292E01D
:102770000E941A12EACF5058BB27AA270E94D313EF
:102780000C9424150E94161538F00E941D1520F097
:1027900039F49F3F19F426F40C9413150EF4E095C8
:1027A000E7FB0C940D15E92F0E94351558F3BA1765
:1027B000620773078407950720F079F4A6F50C9457
:1027C00057150EF4E0950B2EBA2FA02D0B01B90171
:1027D00090010C01CA01A0011124FF27591B99F097
:1027E000593F50F4503E68F11A16F040A22F232FA3
:1027F000342F4427585FF3CF469537952795A795F3
:10280000F0405395C9F77EF41F16BA0B620B730B99
:10281000840BBAF09150A1F0FF0FBB1F661F771F0A
:10282000881FC2F70EC0BA0F621F731F841F48F4BF
:10283000879577956795B795F7959E3F08F0B0CF48
:102840009395880F08F09927EE0F9795879508952F
:102850000E943C140C9424150E941D1558F00E94EF
:10286000161540F029F45F3F29F00C940D15511115
:102870000C9458150C9413150E94351568F3992380
:10288000B1F3552391F3951B550BBB27AA2762176C
:102890007307840738F09F5F5F4F220F331F441F79
:1028A000AA1FA9F335D00E2E3AF0E0E832D09150AD
:1028B0005040E695001CCAF72BD0FE2F29D0660F9A
:1028C000771F881FBB1F261737074807AB07B0E8DD
:1028D00009F0BB0B802DBF01FF2793585F4F3AF0E3
:1028E0009E3F510578F00C940D150C9458155F3FE0
:1028F000E4F3983ED4F3869577956795B795F79569
:102900009F5FC9F7880F911D9695879597F9089550
:10291000E1E0660F771F881FBB1F621773078407EC
:10292000BA0720F0621B730B840BBA0BEE1F88F7FB
:10293000E09508950E94A1146894B1110C94581563
:1029400008950E943D1588F09F5798F0B92F992758
:10295000B751B0F0E1F0660F771F881F991F1AF08A
:10296000BA95C9F714C0B13091F00E945715B1E083
:1029700008950C945715672F782F8827B85F39F082
:10298000B93FCCF3869577956795B395D9F73EF423
:1029900090958095709561957F4F8F4F9F4F0895CB
:1029A000E89409C097FB3EF49095809570956195E9
:1029B0007F4F8F4F9F4F9923A9F0F92F96E9BB279F
:1029C0009395F695879577956795B795F111F8CF1B
:1029D000FAF4BB0F11F460FF1BC06F5F7F4F8F4F86
:1029E0009F4F16C0882311F096E911C0772321F07C
:1029F0009EE8872F762F05C0662371F096E8862F14
:102A000070E060E02AF09A95660F771F881FDAF76A
:102A1000880F9695879597F9089597F99F6780E8AD
:102A200070E060E008959FEF80EC089500240A9420
:102A30001616170618060906089500240A94121699
:102A40001306140605060895092E0394000C11F4CC
:102A5000882352F0BB0F40F4BF2B11F460FF04C079
:102A60006F5F7F4F8F4F9F4F089557FD9058440FD2
:102A7000551F59F05F3F71F04795880F97FB991FDD
:102A800061F09F3F79F0879508951216130614069A
:102A9000551FF2CF4695F1DF08C016161706180627
:102AA000991FF1CF86957105610508940895E89402
:102AB000BB2766277727CB0197F908950E947115E8
:102AC0000C9424150E94161538F00E941D1520F054
:102AD000952311F00C940D150C94131511240C94DE
:102AE00058150E94351570F3959FC1F3950F50E06E
:102AF000551F629FF001729FBB27F00DB11D639FB0
:102B0000AA27F00DB11DAA1F649F6627B00DA11D55
:102B1000661F829F2227B00DA11D621F739FB00DFB
:102B2000A11D621F839FA00D611D221F749F33276B
:102B3000A00D611D231F849F600D211D822F762F04
:102B40006A2F11249F5750409AF0F1F088234AF0E1
:102B5000EE0FFF1FBB1F661F771F881F915050404D
:102B6000A9F79E3F510580F00C940D150C94581553
:102B70005F3FE4F3983ED4F3869577956795B795D4
:102B8000F795E7959F5FC1F7FE2B880F911D9695EE
:102B9000879597F90895A3E1B0E0E1EDF5E10C9494
:102BA0005B1B6C014B012A01FC0117821682838199
:102BB00081FF43C3AE014F5F5F4F3A01F60193813E
:102BC000F40193FD859193FF81914F01882309F4CE
:102BD00030C3853239F493FD859193FF81914F0184
:102BE000853239F4B60190E00E94AD1D52012501F5
:102BF000E5CF10E0F12C20E02032A0F48B3269F018
:102C000030F4803259F0833269F420612CC08D3267
:102C100039F0803339F4216026C02260246023C05B
:102C2000286021C027FD27C030ED380F3A3078F4F6
:102C300026FF06C0FAE01F9F300D1124132F13C08A
:102C40004AE0F49E300D1124F32E20620CC08E3227
:102C500021F426FDEEC2206406C08C3611F42068F3
:102C600002C0883641F4F40193FD859193FF819170
:102C70004F018111C1CF9BEB980F933018F4206165
:102C8000805E06C09BE9980F933008F071C12F7EDB
:102C900026FF16E02F73322E853619F42064322E6B
:102CA00008C0863621F4F22FF0683F2E02C01111C1
:102CB000115037FE07C01C3350F4EE24E394E10EAC
:102CC00027E00BC0183038F027E017E005C027E0F8
:102CD0004CE3E42E02C0212FE12C520144E0A40E6B
:102CE000B11CF20160817181828193810E2DA3015B
:102CF0000E94BF1C2C01098100FF02C003FF07C016
:102D000031FC08C032FE09C030E2232E07C02DE29C
:102D1000222E04C09BE2292E01C0212C802F8C7012
:102D200019F0211068C2A8C237FE0FC0E40C04FFDE
:102D300004C08A81813309F4EA941E1474F5F8E022
:102D4000FE1578F588E0E82E2CC036FC2AC0812FCD
:102D500090E0841595059CF02CEF42162FEF52065B
:102D600074F0432D4068342E0AC0E2E0F0E0EC0F2E
:102D7000FD1FE10FF11D8081803319F411501111F5
:102D8000F4CF37FE0EC0EE24E394E10E812F90E0E5
:102D9000481659062CF4141904C0EE24E39401C01B
:102DA00010E037FE06C01414150434F4C201019675
:102DB00005C085E090E002C081E090E0211001961E
:102DC000112331F0212F30E02F5F3F4F820F931FEF
:102DD0002F2D30E08217930714F4F81A01C0F12C5C
:102DE000832D897049F4FF2039F0B60180E290E02C
:102DF0000E94AD1DFA94F7CF222029F0B601822D52
:102E000090E00E94AD1D33FC09C0FF2039F0B601EF
:102E100080E390E00E94AD1DFA94F7CF37FE5AC0D0
:102E2000942D852D57FE02C090E080E0292E382E8B
:102E300020E030E0A2014E1951095D874C87A201C4
:102E4000421953095F874E87612F70E04427552749
:102E5000461B570B598B488B5FEF2516350649F4F7
:102E6000B6018EE290E02A8B3B8B0E94AD1D3B8920
:102E70002A89421453046CF04C855D854215530534
:102E800044F4EE85FF85E20FF31FE60DF71D818107
:102E900001C080E351E0251A31082F5F3F4F488978
:102EA0005989241635064CF0B60190E02A8B3B8BED
:102EB0000E94AD1D2A893B89CFCF2414350439F4F3
:102EC0009A81963318F4953311F404FF81E3B60127
:102ED00090E04BC08A81813309F00F7EB60190E00B
:102EE0000E94AD1D111105C034FC18C085E690E0AC
:102EF00017C0B6018EE290E00E94AD1D82E0EE2484
:102F0000E394E80EF301E80FF11D8081B60190E033
:102F10000E94AD1D11508E2D91F7E6CF85E490E013
:102F2000B6010E94AD1D57FC05C04114510439F48F
:102F300004FF05C05194419451088DE201C08BE219
:102F4000B60190E00E94AD1D80E39AE0491651045D
:102F50002CF08F5F5AE0451A5108F7CFB60190E088
:102F60000E94AD1DB601C201C0960E94AD1D57C1A1
:102F7000833631F0833779F0833509F058C021C0AA
:102F80005201E2E0AE0EB11CF2018081898301E0C2
:102F900010E0230114C05201F2E0AF0EB11CF201A7
:102FA0004080518026FF03C0612F70E002C06FEFA8
:102FB0007FEFC2012A8B0E94A21D8C012A892F77E4
:102FC00015C05201F2E0AF0EB11CF20140805180F9
:102FD00026FF03C0612F70E002C06FEF7FEFC201D8
:102FE0002A8B0E94971D8C012A892068322E23FD8E
:102FF0001AC08F2D90E008171907A8F4B60180E2D7
:1030000090E00E94AD1DFA94F4CFF20137FC859157
:1030100037FE81912F01B60190E00E94AD1DF110A5
:10302000FA94015011090115110579F7F8C0843699
:1030300011F0893659F5520127FF09C0F4E0AF0EAF
:10304000B11CF20160817181828193810AC0F2E03A
:10305000AF0EB11CF20160817181072E000C880B4C
:10306000990B2F76322E97FF09C090958095709519
:1030700061957F4F8F4F9F4F2068322E2AE030E0BE
:10308000A3010E94151EE82EE6183FC0022F8537C7
:1030900021F40F7E2AE030E01DC0097F8F3691F0C9
:1030A00018F4883559F0C5C0803719F0883711F009
:1030B000C0C0006104FF09C0046007C024FF08C04D
:1030C000066006C028E030E005C020E130E002C024
:1030D00020E132E0520107FF09C0F4E0AF0EB11C5D
:1030E000F201608171818281938108C0F2E0AF0EAC
:1030F000B11CF2016081718180E090E0A3010E9427
:10310000151EE82EE6180F77302E36FE0BC0332D35
:103110003E7FE11650F434FE0AC032FC08C0332D65
:103120003E7E05C00E2D332D03C00E2D01C0012F94
:1031300034FF0CC0FE01EE0DF11D8081803311F4CF
:10314000397E08C032FF05C00E5F04C0832F867829
:1031500009F00F5F33FD13C030FF06C01E2D0F15A1
:1031600018F41F0D101B0F2D0F1568F4B60180E227
:1031700090E03B8B0E94AD1D0F5F3B89F5CF0F1593
:1031800010F4F01A01C0F12C34FF12C0B60180E334
:1031900090E03B8B0E94AD1D3B8932FF17C031FD93
:1031A00003C088E790E002C088E590E0B6010CC05B
:1031B000832F867859F031FF02C08BE201C080E294
:1031C00037FD8DE2B60190E00E94AD1DE11638F4A6
:1031D000B60180E390E00E94AD1D1150F7CFEA9454
:1031E000F301EE0DF11D8081B60190E00E94AD1D4E
:1031F000E110F5CF14C0F4E0FF1558F584E0F81A9B
:1032000033FE1EC0211026C003FF2AC00CE011E0CF
:10321000F32DF0713F2EF8018491811124C0FF201D
:1032200009F4E5CCB60180E290E00E94AD1DFA946D
:10323000F6CFF6018681978126C08FEF9FEF23C0DE
:10324000B60180E290E00E94AD1DFA94F110F8CF33
:10325000D9CFF12CB601822D90E00E94AD1DD4CFC4
:1032600000E111E0D5CF31108052B60190E00E940C
:10327000AD1D0F5F1F4FCFCF23E02F1510F483E05C
:10328000BECFF12CC1CF6396E2E10C94771B0E9474
:103290003D15A8F19E57B0F1985160F039F1983082
:1032A00070F5092E9927660F771F881F991F0A94BA
:1032B000D1F71CC0BB27993F4CF4B111B1E0B62B3C
:1032C000672F782F8827985FB1F708C08695779584
:1032D0006795B79508F4B1609395C1F7BB0F30F4CB
:1032E00011F460FF03C06F5F7F4F8F4F3EF49095E6
:1032F0008095709561957F4F8F4F9F4F089568948B
:103300000C9458150C945715FA01EE0FFF1F3096C8
:1033100021053105A1F16115710561F48038BFE324
:103320009B0749F168949038810561F08038BFEFC0
:103330009B0741F099234AF5FF3FE105310521053F
:1033400019F1E8940894E795D901AA2329F4AB2F41
:10335000BE2FF85FD0F310C0FF5F70F4A695E0F7C2
:10336000F73950F019F0FF3A38F49F779F930DD05A
:103370000F9007FC9058089546F00C94131560E0E8
:1033800070E080E89FE308954FE79F775F934F9346
:103390003F932F930E947F1A2F913F914F915F91FE
:1033A0000E945E150C94DC1929F416F00C940D158E
:1033B0000C9457150C9413150E943D15A8F39638DC
:1033C000A0F707F80F92E8942BE33AEA48EB5FE79F
:1033D0000E9474150F920F920F924DB75EB70F9225
:1033E0000E94C71AEAE8F0E00E940E1A4F915F911E
:1033F000EF91FF91E595EE1FFF1F49F0FE57E06842
:103400004427EE0F441FFA95E1F74195550B0E94B2
:10341000411A0F9007FE0C94351A0895DF93CF934D
:103420001F930F93FF92EF92DF927B018C016894C0
:1034300006C0DA2EEF010E947115FE01E894A591F5
:103440002591359145915591A6F3EF010E94D31333
:10345000FE019701A801DA9469F7DF90EF90FF90E1
:103460000F911F91CF91DF9108959B01AC0160E016
:1034700070E080E89FE30C9428140C940D150C94D4
:10348000FB1A0E943D15D8F39923C9F3940F511DDF
:10349000A3F39150504094F059F0882332F0660F16
:1034A000771F881F91505040C1F79E3F51052CF760
:1034B000880F911D9695879597F908955F3FACF019
:1034C000983E9CF0BB27869577956795B79508F44D
:1034D000B1609395C1F7BB0F58F711F460FFE8CFC7
:1034E0006F5F7F4F8F4F9F4FE3CF0C94581516F0AF
:1034F0000C94FB1A0C94131568940C940D150E94EF
:103500003D15A8F39923C1F3AEF3DF93CF931F9337
:103510000F93FF92C92FDD2788232AF02197660F8A
:10352000771F881FDAF720E030E040E85FEB9FE389
:10353000883920F0803E38F021968F770E94BC13A6
:10354000E2EBF0E004C00E94BC13EFEDF0E00E945B
:103550000E1A8B01BE01EC01FB2E6F577109759598
:10356000771F880B990B0E94D21428E132E741E3C0
:103570005FE30E947115AF2D9801AE01FF900F918E
:103580001F91CF91DF910E94D3130C942415FA015F
:10359000DC01AA0FBB1F9B01AC01BF5728F42227F7
:1035A00033274427507820C0B75190F4AB2F002424
:1035B000469537952795011CA395D2F3002071F00D
:1035C000220F331F441FB395DAF30ED00C94BB13B4
:1035D00061307105A0E88A07B94630F49B01AC015F
:1035E0006627772788279078309621F020833183CB
:1035F0004283538308959F3F31F0915020F4879583
:1036000077956795B795880F911D9695879597F94A
:103610000895DB018F939F930E94501BBF91AF9140
:10362000A29F800D911DA39F900DB29F900D11241C
:103630000895A1E21A2EAA1BBB1BFD010DC0AA1FF3
:10364000BB1FEE1FFF1FA217B307E407F50720F00B
:10365000A21BB30BE40BF50B661F771F881F991F86
:103660001A9469F760957095809590959B01AC01CF
:10367000BD01CF010895EE0FFF1F0590F491E02DDD
:103680000994A29FB001B39FC001A39F700D811D3B
:103690001124911DB29F700D811D1124911D08955B
:1036A0000E94411BA59F900DB49F900DA49F800D7B
:1036B000911D112408952F923F924F925F926F9225
:1036C0007F928F929F92AF92BF92CF92DF92EF92B2
:1036D000FF920F931F93CF93DF93CDB7DEB7CA1B33
:1036E000DB0B0FB6F894DEBF0FBECDBF09942A885E
:1036F000398848885F846E847D848C849B84AA8406
:10370000B984C884DF80EE80FD800C811B81AA8192
:10371000B981CE0FD11D0FB6F894DEBF0FBECDBF5D
:10372000ED010895CF93DF938230910510F482E08C
:1037300090E0E091AB02F091AC0220E030E0C0E01C
:10374000D0E0309711F14081518148175907C0F0FE
:103750004817590761F482819381209719F09B8360
:103760008A832BC09093AC028093AB0226C02115B4
:10377000310519F04217530718F49A01BE01DF0111
:10378000EF010280F381E02DDCCF2115310509F135
:10379000281B390B2430310590F412968D919C91A1
:1037A00013976115710521F0FB019383828304C097
:1037B0009093AC028093AB02FD01329644C0FD01B0
:1037C000E20FF31F81939193225031092D933C9383
:1037D0003AC02091A9023091AA02232B41F42091F2
:1037E000190130911A013093AA022093A902209165
:1037F0001701309118012115310541F42DB73EB75D
:1038000040911B0150911C01241B350BE091A90232
:10381000F091AA02E217F307A0F42E1B3F0B281722
:10382000390778F0AC014E5F5F4F2417350748F039
:103830004E0F5F1F5093AA024093A9028193919368
:1038400002C0E0E0F0E0CF01DF91CF9108950F9347
:103850001F93CF93DF93009709F48CC0FC0132973C
:10386000138212820091AB021091AC020115110576
:1038700081F420813181820F931F2091A902309120
:10388000AA022817390779F5F093AA02E093A90252
:1038900071C0D80140E050E0AE17BF0750F4129657
:1038A0002D913C911397AD012115310509F1D901F5
:1038B000F3CF9D01DA013383228360817181860F0A
:1038C000971F8217930769F4EC0128813981260F2D
:1038D000371F2E5F3F4F318320838A819B819383E3
:1038E0008283452B29F4F093AC02E093AB0242C0F3
:1038F0001396FC93EE931297ED01499159919E0115
:10390000240F351FE217F30771F480819181840F32
:10391000951F029611969C938E93828193811396A4
:103920009C938E931297E0E0F0E0D80112968D916F
:103930009C911397009719F0F8018C01F6CF8D91A7
:103940009C9198012E5F3F4F820F931F2091A902F7
:103950003091AA022817390769F4309729F4109298
:10396000AC021092AB0202C0138212821093AA0220
:103970000093A902DF91CF911F910F9108952830F4
:1039800008F027E03327DA01990F311D87FD916098
:1039900000966105710539F432602E5F3D9330E386
:1039A0002A95E1F708959F3F30F080387105610551
:1039B00009F03C5F3C5F3D93913008F08068911DB9
:1039C000DF93CF931F930F93FF92EF92192F987F5E
:1039D0009695E92F96959695E90FFF27E259FE4FA8
:1039E00099273327EE24FF24A701E70105900894C7
:1039F000079428F4360FE71EF81E491F511D660F65
:103A0000771F881F991F0694A1F70590079428F443
:103A1000E70EF81E491F561FC11D770F881F991FFB
:103A2000661F0694A1F70590079428F4F80E491F25
:103A3000561FC71FD11D880F991F661F771F069439
:103A4000A1F70590079420F4490F561FC71FD81FF0
:103A5000990F661F771F881F0694A9F78491109508
:103A6000177041F0D695C79557954795F794E79409
:103A70001A95C1F7E4E1F1E068941590159135913C
:103A80006591959105907FE27395E118F10A430BDA
:103A9000560BC90BD009C0F7E10CF11E431F561F8E
:103AA000C91FD01D7EF4703311F48A95E6CFE894D7
:103AB000015030F0080F0AF40027021708F4202FF5
:103AC0002395022F7A3328F079E37D932A95E9F73D
:103AD00010C07D932A9589F606949795679537953A
:103AE00017951794E118F10A430B560BC90BD0092F
:103AF00098F023957E9173957A3308F070E37C9368
:103B00002013B8F77E9170617D9330F0839571E357
:103B10007D9370E32A95E1F71124EF90FF900F91C8
:103B20001F91CF91DF91992787FD90950895FC0112
:103B30000590615070400110D8F7809590958E0FD8
:103B40009F1F0895FC016150704001900110D8F74B
:103B5000809590958E0F9F1F08950F931F93CF937D
:103B6000DF93FB01238121FD03C08FEF9FEF28C06E
:103B700022FF16C0468157812481358142175307A1
:103B800044F4A081B1819D012F5F3F4F3183208399
:103B90008C93268137812F5F3F4F3783268310C058
:103BA000EB01092F182F0084F185E02D0995892B51
:103BB000E1F68E819F8101969F838E83812F902FC6
:103BC000DF91CF911F910F9108950F931F93CF9382
:103BD000DF93E091AF02F091B002238121FF1BC07F
:103BE0008C01D0E0C0E0F80181918F016091AF02BB
:103BF0007091B002DB011896ED91FC911997882322
:103C000031F00995892B79F3DFEFCFEFECCF8AE024
:103C10000995892B19F08FEF9FEF02C08D2F9C2FF4
:103C2000DF91CF911F910F910895FA01AA272830B3
:103C300051F1203181F1E8946F936E7F6E5F7F4F79
:103C40008F4F9F4FAF4FB1E03ED0B4E03CD0670FF5
:103C5000781F891F9A1FA11D680F791F8A1F911D48
:103C6000A11D6A0F711D811D911DA11D20D009F498
:103C700068943F912AE0269F11243019305D3193DA
:103C8000DEF6CF010895462F4770405D4193B3E0C3
:103C90000FD0C9F7F6CF462F4F70405D4A3318F06A
:103CA000495D31FD4052419302D0A9F7EACFB4E01B
:103CB000A6959795879577956795BA95C9F70097D3
:103CC0006105710508959B01AC010A2E0694579574
:103CD000479537952795BA95C9F7620F731F841FCB
:0A3CE000951FA01D0895F894FFCF72
:103CEA001F0000000200000000910A0000000018F6
:103CFA000C041060C080200000B30220005354411D
:103D0A005254494E472E2E2E004352554953494E7E
:103D1A00472E2E2E0049522041564F4944494E47BC
:103D2A002E2E2E00484F4D494E472E2E2E00534F11
:103D3A004E41522041564F4944494E472E2E2E009D
:103D4A0057414C4C20464F4C4C4F57494E472E2E0C
:103D5A002E004C494E4520464F4C4C4F57494E4732
:103D6A002E2E2E00556E6B6E6F776E2073746174F3
:103D7A0065210044697374203D20252E33660A00AC
:0C3D8A005374617274696E672E2E2E0057
:00000001FF
