:100000000C94BF000C94DC000C94DC000C94DC001D
:100010000C9491020C94BA020C94E3020C940C031D
:100020000C94DC000C9472010C949B010C94C401A0
:100030000C943F020C94ED010C9416020C9468028F
:100040000C94F7000C9420010C9449010C94DC00F2
:100050000C94DC000C94DC000C94DC000C94DC00B0
:100060000C94DC000C94DC000C94DC000C94DC00A0
:100070000C94DC000C94DC000C94DC006E616E00CF
:10008000696E660000407A10F35A00A0724E18099B
:100090000010A5D4E80000E87648170000E40B54EF
:1000A000020000CA9A3B000000E1F50500008096BE
:1000B0009800000040420F000000A08601000000F0
:1000C000102700000000E8030000000064000000AA
:1000D00000000A00000000000100000000002C7673
:1000E000D888DC674F0823DFC1DFAE59E1B1B7968E
:1000F000E5E3E453C63AE651997696E8E6C28426EB
:10010000EB898C9B62ED407C6FFCEFBC9C9F40F2C6
:10011000BAA56FA5F490055A2AF75C936B6CF96742
:100120006DC11BFCE0E40D47FEF520E6B500D0ED07
:10013000902E0300943577050080841E080000206F
:100140004E0A000000C80C333333330F986E12830D
:100150001141EF8D2114893BE65516CFFEE6DB18E1
:10016000D1844B381BF77C1D901DA4BBE4242032A6
:1001700084725E228100C9F124ECA1E53D2711249F
:100180001FBECFEFD8E0DEBFCDBF11E0A0E0B1E0F1
:10019000EEEFF0E202C005900D92AE30B107D9F754
:1001A00021E0AEE0B1E001C01D92A93EB207E1F747
:1001B0000E94DE000C947D100C9400000E94F5005B
:1001C0000E94E7000E94180A80E090E008950E94D3
:1001D0004B040E9446030E9435030E94D3040E94F0
:1001E000A4030E946E0478940895000008951F925D
:1001F0000F920FB60F9211242F933F934F935F935B
:100200006F937F938F939F93AF93BF93EF93FF93DE
:10021000E0912E01F0912F01309709F00995FF919F
:10022000EF91BF91AF919F918F917F916F915F916E
:100230004F913F912F910F900FBE0F901F901895E7
:100240001F920F920FB60F9211242F933F934F934B
:100250005F936F937F938F939F93AF93BF93EF932E
:10026000FF93E0913001F0913101309709F0099549
:10027000FF91EF91BF91AF919F918F917F916F917E
:100280005F914F913F912F910F900FBE0F901F9054
:1002900018951F920F920FB60F9211242F933F9330
:1002A0004F935F936F937F938F939F93AF93BF937E
:1002B000EF93FF93E0913201F0913301309709F011
:1002C0000995FF91EF91BF91AF919F918F917F9190
:1002D0006F915F914F913F912F910F900FBE0F90B3
:1002E0001F9018951F920F920FB60F9211242F9303
:1002F0003F934F935F936F937F938F939F93AF93AE
:10030000BF93EF93FF93E0912001F091210130978B
:1003100009F00995FF91EF91BF91AF919F918F9156
:100320007F916F915F914F913F912F910F900FBEF1
:100330000F901F9018951F920F920FB60F921124D5
:100340002F933F934F935F936F937F938F939F93DD
:10035000AF93BF93EF93FF93E0912201F0912301BC
:10036000309709F00995FF91EF91BF91AF919F915F
:100370008F917F916F915F914F913F912F910F904E
:100380000FBE0F901F9018951F920F920FB60F92ED
:1003900011242F933F934F935F936F937F938F938A
:1003A0009F93AF93BF93EF93FF93E0912401F0915C
:1003B0002501309709F00995FF91EF91BF91AF9119
:1003C0009F918F917F916F915F914F913F912F916D
:1003D0000F900FBE0F901F9018951F920F920FB69F
:1003E0000F9211242F933F934F935F936F937F93BB
:1003F0008F939F93AF93BF93EF93FF93E091280167
:10040000F0912901309709F00995FF91EF91BF9183
:10041000AF919F918F917F916F915F914F913F919C
:100420002F910F900FBE0F901F9018951F920F9253
:100430000FB60F9211242F933F934F935F936F93B7
:100440007F938F939F93AF93BF93EF93FF93E0912D
:100450002A01F0912B01309709F00995FF91EF9156
:10046000BF91AF919F918F917F916F915F914F91CC
:100470003F912F910F900FBE0F901F9018951F92D4
:100480000F920FB60F9211242F933F934F935F93C8
:100490006F937F938F939F93AF93BF93EF93FF934C
:1004A000E0912601F0912701309709F00995FF911D
:1004B000EF91BF91AF919F918F917F916F915F91DC
:1004C0004F913F912F910F900FBE0F901F90189555
:1004D0001F920F920FB60F9211242F933F934F93B9
:1004E0005F936F937F938F939F93AF93BF93EF939C
:1004F000FF93E0912C01F0912D01309709F00995BF
:10050000FF91EF91BF91AF919F918F917F916F91EB
:100510005F914F913F912F910F900FBE0F901F90C1
:1005200018951F920F920FB60F9211242F933F939D
:100530004F935F936F937F938F939F93AF93BF93EB
:10054000EF93FF93E0911601F0911701309709F0B6
:100550000995FF91EF91BF91AF919F918F917F91FD
:100560006F915F914F913F912F910F900FBE0F9020
:100570001F9018951F920F920FB60F9211242F9370
:100580003F934F935F936F937F938F939F93AF931B
:10059000BF93EF93FF93E0911801F0911901309709
:1005A00009F00995FF91EF91BF91AF919F918F91C4
:1005B0007F916F915F914F913F912F910F900FBE5F
:1005C0000F901F9018951F920F920FB60F92112443
:1005D0002F933F934F935F936F937F938F939F934B
:1005E000AF93BF93EF93FF93E0911A01F0911B013A
:1005F000309709F00995FF91EF91BF91AF919F91CD
:100600008F917F916F915F914F913F912F910F90BB
:100610000FBE0F901F9018951F920F920FB60F925A
:1006200011242F933F934F935F936F937F938F93F7
:100630009F93AF93BF93EF93FF93E0911C01F091D1
:100640001D01309709F00995FF91EF91BF91AF918E
:100650009F918F917F916F915F914F913F912F91DA
:100660000F900FBE0F901F90189580E10E943E04DE
:10067000882311F082E00895EEE0F1E011921192EA
:1006800081E0EE34F807D1F781E00895F8940E94F4
:10069000A10381E00E944E0381E00895813049F07A
:1006A000F894813020F18230B1F0833009F045C0F8
:1006B00017C02C9A80E8809361001092610080E05E
:1006C00090E00000019688329105D9F710926800F9
:1006D00010926B00089580E88093610083E004C06D
:1006E00080E88093610088E08093610028C080E00A
:1006F00090E0000001962DE680369207D1F72C9805
:1007000080E090E0000001962DE680369207D1F758
:1007100010927A008FEF809364008091680081606E
:100720008093680080916B00846080936B00789464
:1007300083B7816083BF88950895823008F07894EC
:100740000895249A2C9A089582E00E943E048823FA
:1007500011F082E008950E94370480E067E275E0BE
:100760000E94DD0381E06FE175E00E94DD0382E01D
:1007700067E175E00E94DD0386E06FE275E00E94AC
:10078000DD0383E06FE075E00E94DD0384E06FE04D
:1007900075E00E94DD0385E06FE075E00E94DD03F7
:1007A00087E06FE075E00E94DD038FEF80937501B5
:1007B00087E00E94E60381E00895E82FF0E0EE0F65
:1007C000FF1FE25BFE4F7183608308951F93182F14
:1007D00082E00E945A04882309F447C0912F977041
:1007E00080917501981709F440C09093750185B107
:1007F000887F892B85B9933011F1943028F491309A
:1008000051F0923090F40CC0953019F19530E0F031
:10081000963021F50FC0E0915001F091510122C0B6
:10082000E0914E01F0914F011DC0E0915201F09115
:10083000530118C0E0915A01F0915B0113C0E0919F
:100840005401F09155010EC0E0915601F09157010D
:1008500009C0E0915801F091590104C0E0915C0198
:10086000F0915D01309709F009951F910895259A3F
:100870002698279A209A219A229A0895853110F075
:1008800080E00895E82FF0E0EA58FE4F80818F5F06
:10089000808381500895CF93DF93C0E0D0E08C2F08
:1008A00060E00E9466042196C531D105C1F7DF9151
:1008B000CF910895853110F080E00895E82FF0E0A1
:1008C000EA58FE4F8081811181E00895853128F436
:1008D000E82FF0E0EA58FE4F60830895DF93CF934E
:1008E00000D00F92CDB7DEB781E00E943E0488238E
:1008F00011F082E011C00E94A4038150823040F4C4
:100900000E949204CE0101960E94480581E004C035
:1009100081E00E94380587E00F900F900F90CF91F3
:10092000DF9108951092A00110929F011092A201F0
:100930001092A1011092A4011092A3011092A6019D
:100940001092A5011092A8011092A70180E991E0F0
:1009500090938C0180938B0190938E0180938D01F5
:100960009093900180938F019093920180939101D5
:10097000909394018093930184E398E0909396017F
:1009800080939501909398018093970190939A0199
:100990008093990190939C0180939B0190939E0179
:1009A00080939D01089588E00E943E04882311F001
:1009B00082E008951092A9011092AB011092AA0151
:1009C00010925E0110925F0180E165E875E00E947F
:1009D000FE040E94EF040E94F80481E0089584B5AB
:1009E000826084BD85B5846085BD8EE487BD089531
:1009F000EEE6F0E08081826080830895803218F016
:100A000020E030E00AC0E82FF0E0EE0FFF1FE25FC9
:100A1000FE4F2081318171836083C901089583E590
:100A20008CBD81E08DBD8DE08A95F1F7089583E559
:100A30008CBD1DBC84EF91E00197F1F708958FE71D
:100A40008CBD1DBC84EF91E00197F1F7089583E51B
:100A50008CBD81E08DBD8DE08A95F1F7089583E529
:100A60008CBD81E08DBD84EF91E00197F1F7089591
:100A7000853160F4E82FF0E0EA58FE4F808188234A
:100A800029F0808181508083808108958FEF0895BF
:100A90001F93CF93DF93EC01009799F181E00E94BF
:100AA0005A04882351F187E00E94E60318EC812F55
:100AB0008A95F1F782E06AE00E94B50582E064EB76
:100AC0000E94B505812F8A95F1F782E060E00E94CF
:100AD000A5058883812F8A95F1F782E060E00E9466
:100AE000A50589831A95F1F782E060E00E94A505CB
:100AF0008A8387E00E94E60304C0188219828DE28F
:100B00008A83DF91CF911F9108950E948C050E94E6
:100B1000EB050E94C405089588E00E945A048823CA
:100B200011F484E0089580915F01882311F483E03B
:100B3000089580915E01882311F082E008950E945B
:100B40008A088130E1F380E008951F93162F0E94F8
:100B5000E60382E00E945A04882329F01EBD0DB4EA
:100B600007FEFDCF8EB51F9108951F93162F0E948B
:100B7000E60382E00E945A04882321F01EBD0DB4D2
:100B800007FEFDCF1F91089580916101813011F51D
:100B900080916A0190916B0120916C0130916D01FF
:100BA000280F391F30936B0120936A0180916A01ED
:100BB00090916B01885E93406CF08BB180588BB93B
:100BC00080916A0190916B01885E934090936B01D4
:100BD00080936A01089587E00E945A04882309F4EB
:100BE000AAC08091B6019091B701892B09F180913B
:100BF000DA019091DB012091B6013091B701820FAB
:100C0000931F9093DB018093DA018091DA01909138
:100C1000DB01885E9340A4F08091DA019091DB01C2
:100C2000885E93409093DB018093DA0141E009C034
:100C30008091AE019091AF019093B3018093B20186
:100C400040E08091B8019091B901892B09F1809120
:100C5000DC019091DD012091B8013091B901820F42
:100C6000931F9093DD018093DC018091DC019091D2
:100C7000DD01885E9340A4F08091DC019091DD015C
:100C8000885E93409093DD018093DC0161E009C0B0
:100C90008091B0019091B1019093B5018093B4011E
:100CA00060E0842F0E949C068091D6019091D7012C
:100CB0002091B2013091B301280F391F3093D70131
:100CC0002093D6018091D6019091D701885E934000
:100CD00014F440E00BC08091D6019091D701885E5A
:100CE00093409093D7018093D60141E08091D80141
:100CF0009091D9012091B4013091B501280F391F8D
:100D00003093D9012093D8018091D8019091D901D5
:100D1000885E934014F460E00BC08091D8019091FC
:100D2000D901885E93409093D9018093D80161E006
:100D3000842F0E94E10608958823F1F02091AE01EE
:100D40003091AF018091B2019091B301281B390B12
:100D50001216130634F48091B2019091B3010196FA
:100D600007C0232B49F08091B2019091B301019704
:100D70009093B3018093B201662311F12091B001E9
:100D80003091B1018091B4019091B501281B390BCC
:100D90001216130654F48091B4019091B501019696
:100DA0009093B5018093B4010895232B49F080916D
:100DB000B4019091B50101979093B5018093B4016E
:100DC00008950F931F93182F062F8091E201882317
:100DD00009F0E7C08091CA01882309F05AC08091C8
:100DE000B2019091B301892BE9F480917001837E67
:100DF000809370011092D3018091DE01882309F461
:100E00005DC06091CC0180E00E946508E091E00146
:100E1000F091E101309709F451C081E08083109294
:100E2000DE014CC08091AC01813041F48091BE0163
:100E30009091BF01019711F411E002C01123F1F16B
:100E4000E091D101F0E0E050FF4F90917001937E6E
:100E50008081892B809370018091CF01882321F4B8
:100E60008091D1018F5F03C08091D1018150809327
:100E7000D1018091D10183708093D10181E0809371
:100E8000D3018091AC018130C9F480E00E94E40775
:100E900015C090917001937E90937001E091D10103
:100EA000F0E0E050FF4F8081892B8093700182E059
:100EB0008093D3011092B3011092B2018091CB01C3
:100EC000882309F059C08091B4019091B501892B14
:100ED000E9F4809170018F71809370011092D401B8
:100EE0008091DF01882309F45CC06091CD0181E02D
:100EF0000E946508E091E001F091E101309709F46A
:100F000050C081E081831092DF014BC08091AD0120
:100F1000813041F48091C0019091C101019711F499
:100F200001E002C00023E9F1E091D201F0E0EC5FC2
:100F3000FE4F909170019F718081892B8093700189
:100F40008091D001882321F48091D2018F5F03C06A
:100F50008091D20181508093D2018091D20183701F
:100F60008093D20181E08093D4018091AD018130E2
:100F7000C1F40E94E40715C0909170019F71909395
:100F80007001E091D201F0E0EC5FFE4F8081892B8F
:100F90008093700182E08093D4011092B501109289
:100FA000B4018091D501882331F480E791E0612F6D
:100FB000402F0E94610988B1837090917001892B44
:100FC00088B91F910F910895882321F0813009F08D
:100FD0004EC027C08091BE019091BF01892B49F07E
:100FE0008091BE019091BF0101979093BF018093C2
:100FF000BE018091DE018823D1F52091BE013091A0
:10100000BF018091C2019091C3012817390779F57A
:1010100080E060E070E00E94380881E08093DE01AB
:1010200008958091C0019091C101892B49F0809170
:10103000C0019091C10101979093C1018093C001BB
:101040008091DF01882399F42091C0013091C10182
:101050008091C4019091C5012817390741F481E0BE
:1010600060E070E00E94380881E08093DF0108951D
:10107000482F81E08093E201CB0121E061397207C2
:1010800010F080E991E0413061F0413018F04230D9
:10109000C9F40EC0F8949093AF018093AE01789498
:1010A00011C0F8949093B1018093B00178940AC074
:1010B000F8949093AF018093AE019093B101809327
:1010C000B00178941092E20108950F931F93182FA6
:1010D000062F662349F460E070E00E943808812FF3
:1010E00060E070E00E94F90981E08093E201113034
:1010F00051F0113018F0123041F403C00093CA01CE
:1011000004C00093CA010093CB011092E2011F9129
:101110000F910895FF920F931F93CF93DF938091C8
:10112000A901882309F459C00091AA011091AB01CB
:10113000F801C081D1818C819D8101979D838C8331
:10114000181619060CF449C0898180FF05C08E81EC
:10115000882311F481E08E83898181FF03C0EF81B0
:10116000F88509958091A9018230A8F0F801828163
:1011700093819093AB018093AA0113821282E09134
:101180000000F091010084819581181619063CF049
:10119000FF24F39405C01092AB011092AA01FF2422
:1011A0008091A90181508093A9018091A901882390
:1011B00011F40E94F508898182FF08C08A819B8111
:1011C0009D838C83C8010E94F80808C0C8010E9452
:1011D000610E89818F7E898301C0FF248F2DDF916D
:1011E000CF911F910F91FF90089510925F01089584
:1011F000CF92DF92EF92FF920F931F93CF93DF93E3
:10120000EC018091A901882339F4D093AB01C093FC
:10121000AA010E94140A47C0C090AA01D090AB0155
:1012200000E010E0EE24FF2437C0A881B981FD0161
:1012300064817581F60140815181FA018481958133
:101240009B01281B390B37FF0FC0861B970B95831B
:101250008483DB82CA82012B29F4D093AB01C09333
:10126000AA0121C0F7010CC0F601828193812115EA
:10127000310549F4FD01158214829B838A83F601AE
:10128000D383C28310C0FD01358324830097B9F353
:101290000F5F1F4F76016C018091A90190E0081744
:1012A000190718F2ECCF8091A9018F5F8093A901F3
:1012B000DF91CF911F910F91FF90EF90DF90CF9032
:1012C0000895FC018091D301823069F4809174010A
:1012D00091E0892780937401882309F03EC08081C2
:1012E000837E80833AC08091B2019091B301C3970D
:1012F000A4F56623D1F02091B2013091B30180E6CC
:1013000090E0BC01269FC001279F900D369F900D55
:101310001124880F892F881F990B9093C701809300
:10132000C60181E08093720118C080917201882308
:10133000A1F08091C6019091C70101979093C701D8
:101340008093C6018091C6019091C701892B29F431
:101350008081837E8083109272018091D4018230DB
:1013600069F48091730191E0892780937301882348
:1013700009F03EC080818F71808308958091B4010F
:101380009091B501C397A4F54423D1F02091B40105
:101390003091B50180E690E0AC01249FC001259F0B
:1013A000900D349F900D1124880F892F881F990B61
:1013B0009093C9018093C80181E0809371010895E1
:1013C000809171018823A1F08091C8019091C90199
:1013D00001979093C9018093C8018091C8019091B1
:1013E000C901892B29F480818F718083109271014A
:1013F0000895982F81E08093E201913071F091304F
:1014000018F0923071F405C07093BF016093BE0173
:1014100008C07093BF016093BE017093C1016093D7
:10142000C0011092E201089581E080935F01089568
:10143000FFCFA3E1B0E0EFE1FAE00C94950D6C0171
:101440004B012A01FC0117821682838181FF43C36D
:10145000AE014F5F5F4F3A01F6019381F40193FDB6
:10146000859193FF81914F01882309F430C3853220
:1014700039F493FD859193FF81914F01853239F4C1
:10148000B60190E00E94E70F52012501E5CF10E080
:10149000F12C20E02032A0F48B3269F030F480325D
:1014A00059F0833269F420612CC08D3239F08033D9
:1014B00039F4216026C02260246023C0286021C046
:1014C00027FD27C030ED380F3A3078F426FF06C0EC
:1014D000FAE01F9F300D1124132F13C04AE0F49E31
:1014E000300D1124F32E20620CC08E3221F426FD23
:1014F000EEC2206406C08C3611F4206802C0883623
:1015000041F4F40193FD859193FF81914F01811185
:10151000C1CF9BEB980F933018F42061805E06C01A
:101520009BE9980F933008F071C12F7E26FF16E0DB
:101530002F73322E853619F42064322E08C0863679
:1015400021F4F22FF0683F2E02C01111115037FE26
:1015500007C01C3350F4EE24E394E10E27E00BC0E7
:10156000183038F027E017E005C027E04CE3E42E00
:1015700002C0212FE12C520144E0A40EB11CF20163
:1015800060817181828193810E2DA3010E94F90EE9
:101590002C01098100FF02C003FF07C031FC08C015
:1015A00032FE09C030E2232E07C02DE2222E04C0F5
:1015B0009BE2292E01C0212C802F8C7019F0211064
:1015C00068C2A8C237FE0FC0E40C04FF04C08A81C1
:1015D000813309F4EA941E1474F5F8E0FE1578F5E9
:1015E00088E0E82E2CC036FC2AC0812F90E08415BC
:1015F00095059CF02CEF42162FEF520674F0432D08
:101600004068342E0AC0E2E0F0E0EC0FFD1FE10F6D
:10161000F11D8081803319F411501111F4CF37FE80
:101620000EC0EE24E394E10E812F90E04816590697
:101630002CF4141904C0EE24E39401C010E037FE2A
:1016400006C01414150434F4C201019605C085E0E7
:1016500090E002C081E090E021100196112331F06A
:10166000212F30E02F5F3F4F820F931F2F2D30E04F
:101670008217930714F4F81A01C0F12C832D897096
:1016800049F4FF2039F0B60180E290E00E94E70FB4
:10169000FA94F7CF222029F0B601822D90E00E9423
:1016A000E70F33FC09C0FF2039F0B60180E390E07A
:1016B0000E94E70FFA94F7CF37FE5AC0942D852D7C
:1016C00057FE02C090E080E0292E382E20E030E066
:1016D000A2014E1951095D874C87A2014219530995
:1016E0005F874E87612F70E044275527461B570BB5
:1016F000598B488B5FEF2516350649F4B6018EE20B
:1017000090E02A8B3B8B0E94E70F3B892A89421489
:1017100053046CF04C855D854215530544F4EE8509
:10172000FF85E20FF31FE60DF71D818101C080E305
:1017300051E0251A31082F5F3F4F488959892416F7
:1017400035064CF0B60190E02A8B3B8B0E94E70FE8
:101750002A893B89CFCF2414350439F49A819633F2
:1017600018F4953311F404FF81E3B60190E04BC007
:101770008A81813309F00F7EB60190E00E94E70F65
:10178000111105C034FC18C085E690E017C0B60101
:101790008EE290E00E94E70F82E0EE24E394E80EF0
:1017A000F301E80FF11D8081B60190E00E94E70F80
:1017B00011508E2D91F7E6CF85E490E0B6010E949E
:1017C000E70F57FC05C04114510439F404FF05C06C
:1017D0005194419451088DE201C08BE2B60190E032
:1017E0000E94E70F80E39AE0491651042CF08F5FC6
:1017F0005AE0451A5108F7CFB60190E00E94E70F72
:10180000B601C201C0960E94E70F57C1833631F07E
:10181000833779F0833509F058C021C05201E2E0E6
:10182000AE0EB11CF2018081898301E010E023013A
:1018300014C05201F2E0AF0EB11CF20140805180A1
:1018400026FF03C0612F70E002C06FEF7FEFC2017F
:101850002A8B0E94DC0F8C012A892F7715C0520138
:10186000F2E0AF0EB11CF2014080518026FF03C0B0
:10187000612F70E002C06FEF7FEFC2012A8B0E94E0
:10188000D10F8C012A892068322E23FD1AC08F2D9A
:1018900090E008171907A8F4B60180E290E00E94D2
:1018A000E70FFA94F4CFF20137FC859137FE81916E
:1018B0002F01B60190E00E94E70FF110FA94015059
:1018C00011090115110579F7F8C0843611F0893630
:1018D00059F5520127FF09C0F4E0AF0EB11CF20127
:1018E00060817181828193810AC0F2E0AF0EB11CE8
:1018F000F20160817181072E000C880B990B2F7605
:10190000322E97FF09C090958095709561957F4F15
:101910008F4F9F4F2068322E2AE030E0A3010E94B3
:101920001F10E82EE6183FC0022F853721F40F7EE6
:101930002AE030E01DC0097F8F3691F018F4883519
:1019400059F0C5C0803719F0883711F0C0C0006168
:1019500004FF09C0046007C024FF08C0066006C079
:1019600028E030E005C020E130E002C020E132E0B4
:10197000520107FF09C0F4E0AF0EB11CF201608113
:1019800071818281938108C0F2E0AF0EB11CF20137
:101990006081718180E090E0A3010E941F10E82E19
:1019A000E6180F77302E36FE0BC0332D3E7FE11642
:1019B00050F434FE0AC032FC08C0332D3E7E05C010
:1019C0000E2D332D03C00E2D01C0012F34FF0CC08E
:1019D000FE01EE0DF11D8081803311F4397E08C0C7
:1019E00032FF05C00E5F04C0832F867809F00F5FB9
:1019F00033FD13C030FF06C01E2D0F1518F41F0D48
:101A0000101B0F2D0F1568F4B60180E290E03B8BA0
:101A10000E94E70F0F5F3B89F5CF0F1510F4F01A06
:101A200001C0F12C34FF12C0B60180E390E03B8B83
:101A30000E94E70F3B8932FF17C031FD03C088E7E2
:101A400090E002C088E590E0B6010CC0832F867854
:101A500059F031FF02C08BE201C080E237FD8DE218
:101A6000B60190E00E94E70FE11638F4B60180E37A
:101A700090E00E94E70F1150F7CFEA94F301EE0DCA
:101A8000F11D8081B60190E00E94E70FE110F5CFD3
:101A900014C0F4E0FF1558F584E0F81A33FE1EC0B8
:101AA000211026C003FF2AC00CE710E0F32DF071CF
:101AB0003F2EF8018491811124C0FF2009F4E5CC68
:101AC000B60180E290E00E94E70FFA94F6CFF601AB
:101AD0008681978126C08FEF9FEF23C0B60180E2F9
:101AE00090E00E94E70FFA94F110F8CFD9CFF12CD3
:101AF000B601822D90E00E94E70FD4CF00E810E0FD
:101B0000D5CF31108052B60190E00E94E70F0F5FF1
:101B10001F4FCFCF23E02F1510F483E0BECFF12C61
:101B2000C1CF6396E2E10C94B10D2F923F924F9298
:101B30005F926F927F928F929F92AF92BF92CF925D
:101B4000DF92EF92FF920F931F93CF93DF93CDB766
:101B5000DEB7CA1BDB0B0FB6F894DEBF0FBECDBFDE
:101B600009942A88398848885F846E847D848C84AF
:101B70009B84AA84B984C884DF80EE80FD800C81B8
:101B80001B81AA81B981CE0FD11D0FB6F894DEBF9B
:101B90000FBECDBFED010895CF93DF938230910545
:101BA00010F482E090E0E091E701F091E80120E09C
:101BB00030E0C0E0D0E0309711F14081518148170A
:101BC0005907C0F04817590761F482819381209723
:101BD00019F09B838A832BC09093E8018093E701DF
:101BE00026C02115310519F04217530718F49A0140
:101BF000BE01DF01EF010280F381E02DDCCF211572
:101C0000310509F1281B390B2430310590F4129667
:101C10008D919C9113976115710521F0FB019383C0
:101C2000828304C09093E8018093E701FD0132961E
:101C300044C0FD01E20FF31F8193919322503109BB
:101C40002D933C933AC02091E5013091E601232B7E
:101C500041F420910A0130910B013093E601209369
:101C6000E50120910801309109012115310541F468
:101C70002DB73EB740910C0150910D01241B350B3F
:101C8000E091E501F091E601E217F307A0F42E1BC5
:101C90003F0B2817390778F0AC014E5F5F4F2417D0
:101CA000350748F04E0F5F1F5093E6014093E50162
:101CB0008193919302C0E0E0F0E0CF01DF91CF91FA
:101CC00008950F931F93CF93DF93009709F48CC06F
:101CD000FC013297138212820091E7011091E80112
:101CE0000115110581F420813181820F931F20910C
:101CF000E5013091E6012817390779F5F093E601FF
:101D0000E093E50171C0D80140E050E0AE17BF0795
:101D100050F412962D913C911397AD012115310588
:101D200009F1D901F3CF9D01DA0133832283608168
:101D30007181860F971F8217930769F4EC01288140
:101D40003981260F371F2E5F3F4F318320838A81D1
:101D50009B8193838283452B29F4F093E801E093E0
:101D6000E70142C01396FC93EE931297ED0149915F
:101D700059919E01240F351FE217F30771F48081FA
:101D80009181840F951F029611969C938E93828168
:101D9000938113969C938E931297E0E0F0E0D80124
:101DA00012968D919C911397009719F0F8018C0170
:101DB000F6CF8D919C9198012E5F3F4F820F931F1C
:101DC0002091E5013091E6012817390769F4309731
:101DD00029F41092E8011092E70102C013821282E6
:101DE0001093E6010093E501DF91CF911F910F91D0
:101DF0000895283008F027E03327DA01990F311DC4
:101E000087FD916000966105710539F432602E5F9F
:101E10003D9330E32A95E1F708959F3F30F08038F5
:101E20007105610509F03C5F3C5F3D93913008F01E
:101E30008068911DDF93CF931F930F93FF92EF92D2
:101E4000192F987F9695E92F96959695E90FFF277C
:101E5000E252FF4F99273327EE24FF24A701E70121
:101E600005900894079428F4360FE71EF81E491FC2
:101E7000511D660F771F881F991F0694A1F70590C3
:101E8000079428F4E70EF81E491F561FC11D770F4F
:101E9000881F991F661F0694A1F70590079428F4E0
:101EA000F80E491F561FC71FD11D880F991F661FA7
:101EB000771F0694A1F70590079420F4490F561F49
:101EC000C71FD81F990F661F771F881F0694A9F791
:101ED00084911095177041F0D695C7955795479501
:101EE000F794E7941A95C1F7E4E8F0E06894159048
:101EF000159135916591959105907FE27395E11863
:101F0000F10A430B560BC90BD009C0F7E10CF11EC7
:101F1000431F561FC91FD01D7EF4703311F48A95DC
:101F2000E6CFE894015030F0080F0AF400270217BA
:101F300008F4202F2395022F7A3328F079E37D933C
:101F40002A95E9F710C07D932A9589F6069497950E
:101F50006795379517951794E118F10A430B560BBF
:101F6000C90BD00998F023957E9173957A3308F0C8
:101F700070E37C932013B8F77E9170617D9330F00D
:101F8000839571E37D9370E32A95E1F71124EF9037
:101F9000FF900F911F91CF91DF91992787FD909529
:101FA0000895FC010590615070400110D8F78095AC
:101FB00090958E0F9F1F0895FC0161507040019015
:101FC0000110D8F7809590958E0F9F1F08950F935D
:101FD0001F93CF93DF93FB01238121FD03C08FEF7C
:101FE0009FEF28C022FF16C046815781248135818A
:101FF0004217530744F4A081B1819D012F5F3F4FE9
:10200000318320838C93268137812F5F3F4F378325
:10201000268310C0EB01092F182F0084F185E02DD5
:102020000995892BE1F68E819F8101969F838E838E
:10203000812F902FDF91CF911F910F910895FA0179
:10204000AA27283051F1203181F1E8946F936E7FF7
:102050006E5F7F4F8F4F9F4FAF4FB1E03ED0B4E0E8
:102060003CD0670F781F891F9A1FA11D680F791F29
:102070008A1F911DA11D6A0F711D811D911DA11D3A
:1020800020D009F468943F912AE0269F112430194A
:10209000305D3193DEF6CF010895462F4770405DE5
:1020A0004193B3E00FD0C9F7F6CF462F4F70405D94
:1020B0004A3318F0495D31FD4052419302D0A9F7EF
:1020C000EACFB4E0A6959795879577956795BA95E9
:1020D000C9F700976105710508959B01AC010A2EAF
:1020E00006945795479537952795BA95C9F7620F86
:0E20F000731F841F951FA01D0895F894FFCF45
:0E20FE00180C041060C080200000E9012000D2
:00000001FF
