:100000000C940B030C9428030C9428030C942803E1
:100010000C94AD0D0C94D60D0C94FF0D0C94280E81
:100020000C9428030C948E0C0C94B70C0C94E00CDC
:100030000C945B0D0C94090D0C94320D0C94840DF2
:100040000C94130C0C943C0C0C94650C0C9428032D
:100050000C9428030C9428030C9428030C94280374
:100060000C9428030C9428030C9428030C94280364
:100070000C9428030C9428030C942803076342363D
:10008000B79BD8A71A39685618AEBAAB558C1D3C29
:10009000B7CC5763BD6DEDFD753EF6177231BF00ED
:1000A0000000803F08000000BE922449123EABAA27
:1000B000AA2ABECDCCCC4C3E00000080BEABAAAA82
:1000C000AA3E00000000BF000000803F00000000CA
:1000D00000084178D3BB4387D1133D190E3CC3BD03
:1000E0004282AD2B3E68EC8276BED98FE1A93E4CB0
:1000F00080EFFFBE01C4FF7F3F00000000006E6183
:100100006E00696E660000407A10F35A00A0724ECD
:1001100018090010A5D4E80000E87648170000E4AC
:100120000B54020000CA9A3B000000E1F5050000F4
:1001300080969800000040420F000000A086010059
:100140000000102700000000E80300000000640029
:10015000000000000A000000000001000000000094
:100160002C76D888DC674F0823DFC1DFAE59E1B1B8
:10017000B796E5E3E453C63AE651997696E8E6C2C7
:100180008426EB898C9B62ED407C6FFCEFBC9C9FCE
:1001900040F2BAA56FA5F490055A2AF75C936B6CF0
:1001A000F9676DC11BFCE0E40D47FEF520E6B500E4
:1001B000D0ED902E0300943577050080841E080052
:1001C00000204E0A000000C80C333333330F986E02
:1001D00012831141EF8D2114893BE65516CFFEE6BF
:1001E000DB18D1844B381BF77C1D901DA4BBE42485
:1001F000203284725E228100C9F124ECA1E53D2702
:1002000016050100000000000000FA000000E000F8
:10021000E00028FE28FE282454FE5448C4C81026B6
:10022000466C92AA44A000A0C0000000384482009E
:10023000008244380028107C102810107C10100018
:100240000A0C000010101010100006060000040830
:100250001020407C8A92A27C0042FE020042868AE4
:1002600092628482A2D28C182848FE08E4A2A2A23C
:100270009C3C5292920C808E90A0C06C9292926C98
:100280006092929478006C6C0000006A6C00001020
:1002900028448200282828282800824428104080EA
:1002A0008A90604C929E827C7E8888887EFE9292A4
:1002B000926C7C82828244FE82824438FE929292C8
:1002C00082FE909090807C8292925EFE101010FED2
:1002D0000082FE8200040282FC80FE10284482FE1E
:1002E00002020202FE403040FEFE201008FE7C8228
:1002F00082827CFE909090607C828A847AFE9098C4
:100300009462629292928C8080FE8080FC02020253
:10031000FCF8040204F8FC021C02FCC6281028C6E3
:10032000E0100E10E0868A92A2C200FE8282004097
:1003300020100804008282FE00204080402002023B
:100340000202020080402000042A2A2A1EFE1222F5
:10035000221C1C222222041C222212FE1C2A2A2ACF
:1003600018107E908040304A4A4A7CFE1020201EA1
:100370000022BE0200040222BC00FE08142200007B
:1003800082FE02003E2018201E3E1020201E1C224D
:1003900022221C3E28282810102828183E3E102013
:1003A0002010122A2A2A0420FC2202043C02020401
:1003B0003E38040204383C020C023C221408142289
:1003C000300A0A0A3C22262A322200106C820000DF
:1003D00000FE000000826C100008101008100000E1
:1003E0000000007F8181817F7F8383837F7F878778
:1003F000877F7F8F8F8F7F7F9F9F9F7F7FBFBFBFB5
:100400007F7FFFFFFF7F2040FF40206215171565AB
:1004100000FBFB00000000000000C0FF0300E0FF45
:100420000700F0FF0F00F8FF1F0078001E007800A3
:100430001E0078001E0078001E0078001E00780064
:100440001E0078001E0078001E0078001E000000CC
:1004500000000000000080FF0300E0FF0700F0FF45
:100460000F00F8FF1F00F83C1F00783C1E00783C8E
:100470001E00783C1E00783C1E00783C1E00783C34
:100480001E00783C1E00783C1E00783C1E00783C24
:100490001E000000000000000000E0FF0300F0FF6D
:1004A0000700F8FF0F00F8FF1F00783C1E00783CA3
:1004B0001E00783C1E00783C1E00783C1E00783CF4
:1004C0001E00783C1E00783C1E00783C1E00783CE4
:1004D0001E000000000000000000F8FF0300F8FF0D
:1004E0000F00F8FF1F00F8FF1F0000001E000000B3
:1004F0001E0000801F0000F01F0000FF0F00E0FF43
:100500000700F0FF0000F80F0000F800000078007E
:10051000000078000000F8FF1F00F8FF1F00F0FF48
:100520001F00E0FF1F000000000000000000F8FFB7
:100530001F00F8FF1F00F8FF1F00F8FF1F007800E2
:100540001E00783C1E00783C1E00783C1E00783C63
:100550001E00783C1E00783C1E00F87E1F00F8FF4D
:100560001F00F0FF0F00E0E70300000000000000A4
:100570003800EEFF6C002A8045003A0047FC03FF7C
:100580006CFC83FF3900DEFF0B7CD0810BFCD0813B
:100590000BC0D0810BFCD0810B7CDEFF0B0082FFF7
:1005A000397002FF6CF83A0047DC2A8045CCEEFF38
:1005B0006CCC000038000000000C00001E0C000095
:1005C0001E0000001E0000001E0000001E00F8FFBC
:1005D0001F00F8FF1F00F8FF1F00F8FF1F000000BA
:1005E0001E0000001E0000001E0000001E00000093
:1005F0005E000000400000007C00000040000000A1
:10060000400000007C0000003000000010000000EE
:10061000300000007C0011241FBECFEFD8E0DEBF09
:10062000CDBF11E0A0E0B1E0EAEEF9E402C0059030
:100630000D92AE39B107D9F722E0AEE9B1E001C0C1
:100640001D92AC3BB207E1F70E942A030C94F324FD
:100650000C9400000E94110C0E94030C0E94D619F9
:1006600080E090E008950F931F9385E00E94CC09ED
:100670008823C1F080E460E00E94300400E0802F15
:1006800060E00E94DB0310E080E061E00E94300443
:100690001F5F1038C9F70F5F043089F783E060E00F
:1006A0000E941E041F910F9108950F931F9385E0E0
:1006B0000E94BF09882311F082E07AC00E947B0467
:1006C000182F0E943E0A1150123008F06DC0815060
:1006D000823008F069C00E944B048EEA60E00E94FC
:1006E000300482EA60E00E94300480EA60E00E9408
:1006F000300400E513ECC8010197F1F780EC60E0ED
:100700000E9430048FE260E00E94300481E860E0E3
:100710000E94300486E160E00E94300482E260E0E2
:100720000E943004C8010197F1F78FEA60E00E944F
:10073000300486EA60E00E94300485EA60E00E94AE
:10074000300480E090E028E833E1F9013197F1F7D7
:10075000019643E0883E9407C1F783EB60E00E9476
:10076000300480E460E00E94300483E060E00E9496
:10077000DB0383E060E00E941E041092520210929C
:1007800054021092530284E091E09093B902809356
:10079000B80288E10E94FD030E94330384EA60E00E
:1007A0000E94300481E004C085E00E94AF0987E028
:1007B0001F910F910895FF920F931F93082FF62E0C
:1007C00085E00E94CC098823A1F01F2D1F770370BC
:1007D000802F806B60E00E94300412951F70812F83
:1007E000806160E00E9430048F2D8F7060E00E9475
:1007F00030041F910F91FF9008951F93182F85E0EB
:100800000E94CC098823C1F087E00E94BD0482E0E9
:100810006AE00E940E0582E061EB0E940E05612FE6
:10082000113208F060E282E00E940E0589EE8A959E
:10083000F1F787E00E94BD041F9108950F931F9365
:10084000082F162F85E00E94CC09882331F0037011
:100850001F7710935002009351021F910F9108953A
:100860000F931F93082F162F85E00E94CC09882331
:1008700079F0112319F0113021F402C02B9801C036
:100880002B9A86E08A95F1F780E0602F0E940E0592
:100890001F910F910895239A089586E00E94BF0941
:1008A000882311F082E008950E94640481E0089595
:1008B0001F93182F86E00E94CC09882319F0812FFE
:1008C0000E946D041F910895559A569A80E20E94E5
:1008D0000F0F80E40E940F0F0895282F85FF04C09A
:1008E0008BB190E289278BB926FF04C08BB190E4CD
:1008F00089278BB9089582E00E94BF09882311F0EF
:1009000082E008950E941D0580E066E97FE00E9474
:10091000B40481E06EE87FE00E94B40482E066E8FF
:100920007FE00E94B40486E06EE97FE00E94B40498
:1009300083E06EE77FE00E94B40484E06EE77FE02E
:100940000E94B40485E06EE77FE00E94B40487E073
:100950006EE77FE00E94B4048FEF8093550287E03A
:100960000E94BD0481E00895E82FF0E0EE0FFF1F24
:10097000E351FE4F7183608308951F93182F82E027
:100980000E94CC09882309F447C0912F9770809169
:100990005502981709F440C09093550285B1887F9D
:1009A000892B85B9933011F1943028F4913051F0AE
:1009B000923090F40CC0953019F19530E0F09630FB
:1009C00021F50FC0E091EF01F091F00122C0E0911C
:1009D000ED01F091EE011DC0E091F101F091F20105
:1009E00018C0E091F901F091FA0113C0E091F30110
:1009F000F091F4010EC0E091F501F091F60109C00B
:100A0000E091F701F091F80104C0E091FB01F09151
:100A1000FC01309709F009951F9108951F93162F37
:100A20000E94BD0482E00E94CC09882321F01EBDF3
:100A30000DB407FEFDCF1F910895259A2698279A99
:100A4000209A219A229A08952F923F924F925F9274
:100A50006F927F928F929F92AF92BF92CF92DF92CE
:100A6000EF92FF920F931F93DF93CF930F92CDB727
:100A7000DEB7582E962E442E3901C9821501CE8834
:100A8000DF88A88CB98C6A8D7B8D81E0981619F16E
:100A9000981628F092E0991609F070C03EC080E0E8
:100AA000B7010E94550780E0642DA30198010981D8
:100AB000EE24E3947DE8C72E72E0D72E0E9415083D
:100AC000552009F05BC000D00F92EDB7FEB7118240
:100AD000338222821CC081E00E94550781E0682D8C
:100AE000A60195010C8DEE24E3949DE8C92E92E0B9
:100AF000D92E0E941508552009F040C000D00F9251
:100B0000EDB7FEB791828D8D9E8D938382830E9477
:100B100052090F900F900F9031C0C7010E947707C4
:100B200000D08DE892E0EDB7FEB792838183842DEB
:100B3000B301A8012981082D76016501AC8C8824B8
:100B400083940E94A8080F900F905520B9F400D00C
:100B500000D00F92ADB7BEB71196EDB7FEB7918238
:100B6000FD01328221828D8D9E8D948383830E942C
:100B700052090F900F900F900F900F900F90CF9100
:100B8000DF911F910F91FF90EF90DF90CF90BF907A
:100B9000AF909F908F907F906F905F904F903F901D
:100BA0002F9008954F925F927F928F929F92AF9273
:100BB000BF92CF92DF92EF92FF920F931F93DF933A
:100BC000CF93CDB7DEB7562F942E7C2CAA89BB8944
:100BD000CC88DD886E897F89988D813009F445C085
:100BE000813030F1823009F066C0513071F05130FF
:100BF00020F0523009F05FC011C080E0B7010E94C0
:100C0000550780E0692DA80106C081E00E945507C4
:100C100081E0682DA6010E94E0064DC0C7010E9438
:100C20007707892DB801482D96010E94F70643C029
:100C3000EDB7FEB739970FB6F894FEBF0FBEEDBF04
:100C40004DB65EB60894411C511CB283A183F201DB
:100C5000D382C282758364839683898D9A8D9087AF
:100C6000878380E0652FC72C1CC0EDB7FEB739978E
:100C70000FB6F894FEBF0FBEEDBFADB6BEB608947A
:100C8000A11CB11CB283A183F501D382C2827583FA
:100C9000648396831086178281E0652FC72CAA246F
:100CA000BB240E9424058DB79EB709960FB6F89411
:100CB0009EBF0FBE8DBFCF91DF911F910F91FF900F
:100CC000EF90DF90CF90BF90AF909F908F907F90EC
:100CD0005F904F90089587E00E94BF09882311F02C
:100CE00082E008950E94A50981E080938C02109211
:100CF0005602109257021092590210925802109206
:100D00005B0210925A0210925D0210925C021092E5
:100D10005F0210925E0210926102109260021092C5
:100D200063021092620210926502109264021092A5
:100D30006702109266021092690210926802109285
:100D40006B0210926A0210926D0210926C02109265
:100D50006F0210926E02109274021092750210923D
:100D60007602109277021092790210927A02109213
:100D70007B0210927C0210927D0210927E021092F1
:100D80007F021092810210928002109283021092D0
:100D900082021092850210928402109287021092B1
:100DA00086021092710210927002109273021092D9
:100DB000720210928B0210928A0210928C02089595
:100DC000EF92FF920F931F93182F062F7A0160E086
:100DD0000E94B407812F602F0E949507812FB701D1
:100DE0000E94C9071F910F91FF90EF900895CF9235
:100DF000DF92EF92FF920F931F93C82E7B01D42EA8
:100E0000890182E060E00E94B4078C2D6D2D0E9464
:100E1000AA07C701B8010E94F6071F910F91FF9022
:100E2000EF90DF90CF9008952EEF8037920714F463
:100E300080E79EEFFC0181E0E139F80714F0E0E97A
:100E4000F1E09B018EEF6037780714F420E73EEF66
:100E5000A90121E04139520714F040E951E08F2FF8
:100E6000881F8827881F252F221F2227221F91E0F5
:100E700090938C028093790220937A02CF01F7FF3E
:100E800003C0909581959F4F9A0157FF03C03095FD
:100E900021953F4F909359028093580230935B0203
:100EA00020935A0210928C020895482F81E080937B
:100EB0008C02CB0123E0693E720710F088EE93E0CC
:100EC000413071F0413018F0423071F405C0909318
:100ED00061028093600208C0909361028093600277
:100EE000909363028093620210928C02089521E035
:100EF00020938C02AC0183E0493E580710F048EE85
:100F000053E09B0183E0693E780710F028EE33E060
:100F1000F8945093610240936002309363022093EF
:100F20006202789410928C020895982F81E0809349
:100F30008C02913051F0913018F0923041F403C09E
:100F40006093790204C06093790260937A021092F0
:100F50008C02089591E090938C02E9E7F2E081938E
:100F6000608310928C020895982F81E080938C0208
:100F7000913051F0913018F0923041F403C06093F9
:100F8000560204C0609356026093570210928C027E
:100F90000895482F81E080938C02CB0121E06139D4
:100FA000720710F080E991E0413061F0413018F0B3
:100FB0004230C9F40EC0F8949093590280935802BD
:100FC000789411C0F89490935B0280935A027894BD
:100FD0000AC0F894909359028093580290935B0250
:100FE00080935A02789410928C020895AC0181E0AB
:100FF00080938C02F894CB0121E06139720710F0E4
:1010000080E991E090935B0280935A029A0181E01B
:101010004139580710F020E931E03093590220930C
:101020005802789410928C0208958F929F92AF92FA
:10103000BF92CF92DF92EF92FF920F931F93CF93C5
:10104000DF93182FF62E4A015901E60187E00E942E
:10105000CC09882309F46FC0812F61E00E94B40796
:10106000812FB401A5010E947811812F6F2D0E945C
:101070009507812F602F0E946311812FB4010E9478
:101080003B11C114D10499F0113049F0113018F01E
:10109000123069F406C018821092880208C01982C2
:1010A00004C0188219821092880210928902D0938B
:1010B0008B02C0938A02EE20B9F58EE991E09093FD
:1010C0008B0280938A02812FB5010E94C907812F6C
:1010D0000E942611113071F0113018F0123059F5BC
:1010E00012C010929E011092880280919E01882366
:1010F000E1F321C010929F011092890280919F011B
:101100008823E1F318C010929E0110929F01109263
:1011100088021092890280919E018823E1F38091D8
:101120009F018823C1F307C0812FB5010E94C90721
:10113000812F0E942611DF91CF911F910F91FF9077
:10114000EF90DF90CF90BF90AF909F908F900895D9
:101150003F924F925F926F927F928F929F92AF9247
:10116000BF92CF92DF92EF92FF920F931F93DF9384
:10117000CF93CDB7DEB7982E2B013A01322EB02E89
:101180000C891D8987E00E94CC09882309F453C08B
:1011900082E061E00E94B40780E0B201A3010E94F6
:1011A000781181E0B701A6010E947811892D6B2D7D
:1011B0000E94AA0780E0632D0E94631181E06A2DDE
:1011C0000E946311C201B7010E9456110115110559
:1011D00039F0F8011082118210928802109289026F
:1011E00010938B0200938A028820F1F480EA91E048
:1011F00090938B0280938A02C301B6010E94F60786
:1012000082E00E9426111092A0011092A10110927A
:101210008802109289028091A0018823E1F38091D5
:10122000A1018823C1F307C0C301B6010E94F607DC
:1012300082E00E942611CF91DF911F910F91FF90C4
:10124000EF90DF90CF90BF90AF909F908F907F9066
:101250006F905F904F903F9008950F931F93182FBA
:10126000062F662349F460E070E00E94C907812FD1
:1012700060E070E00E943B1181E080938C021130AD
:1012800051F0113018F0123041F403C00093740291
:1012900004C0009374020093750210928C021F9197
:1012A0000F910895CF92DF92EF92FF920F931F93C9
:1012B000DF93CF93CDB7DEB71B8587E00E94CC09C3
:1012C0008823D1F1113061F0113018F01230A1F5FE
:1012D00011C0EC85FD8580918D028823E1F306C065
:1012E000EC85FD8580918E028823E1F3309721F112
:1012F000099522C0CC84DD84EE84FF8400E010E0F8
:10130000002351F480918D02882331F0C114D1045F
:1013100011F0F601099501E0112351F480918E023C
:10132000882331F0E114F10411F0F701099511E07F
:10133000002331F3112321F3CF91DF911F910F91FE
:10134000FF90EF90DF90CF9008953A9A3B9A3C9AA5
:101350003D9A3E9A3F9A88B1837088B90895853145
:1013600060F4E82FF0E0E55CFD4F8081882329F0F0
:10137000808181508083808108958FEF0895853129
:1013800010F080E00895E82FF0E0E55CFD4F8081EB
:101390008F5F808381500895853110F080E008953B
:1013A000E82FF0E0E55CFD4F8081811181E0089538
:1013B0001F93182F8091A301882341F08091AA01E7
:1013C000882399F01092A3011092AA010E940D0A9D
:1013D0008093A20184EA91E061E040E028E230E0FD
:1013E0000E94D00A81E08093A3019091A201133062
:1013F00018F0133079F409C0E12FF0E0E050FF4F0E
:101400008081892341F081E006C091FF03C0892FCC
:10141000817001C080E01F9108950F931F9381E0B8
:101420000E94CC09882311F400E024C087E00E94C8
:10143000BD0482E06AE00E940E0582E062EB0E9439
:101440000E0518EC812F8A95F1F782E060E00E948A
:10145000A70F082F812F8A95F1F782E060E00E94A4
:10146000A70F1A95F1F787E00E94BD0488E893E181
:101470000197F1F7802F1F910F910895DF93CF937C
:1014800000D00F92CDB7DEB781E00E94BF0988235C
:1014900011F082E011C00E947B048150823040F440
:1014A0000E94620ACE0101960E94301281E004C0BF
:1014B00081E00E94AF0987E00F900F900F90CF91CD
:1014C000DF9108951092A6021092A5021092A80230
:1014D0001092A7021092AA021092A9021092AC02D6
:1014E0001092AB021092AE021092AD0280E991E030
:1014F000909392028093910290939402809393022E
:10150000909396028093950290939802809397020D
:1015100090939A028093990284E398E090939C02BE
:1015200080939B0290939E0280939D029093A002D1
:1015300080939F029093A2028093A1029093A402B1
:101540008093A30208950F931F93DF93CF93CDB79A
:10155000DEB729970FB6F894DEBF0FBECDBF8C0162
:1015600088E00E94CC09882311F491E00DC0CE01DF
:10157000019661E040E098010E94D00A982F8823EC
:1015800019F48F818823E9F3892F29960FB6F894EF
:10159000DEBF0FBECDBFCF91DF911F910F91089598
:1015A000EF92FF920F931F93CF93DF93EC01F62EF0
:1015B000E42E890188E00E94CC09882311F481E09F
:1015C00026C084E090E00E94FC21FC01009711F409
:1015D00082E01DC0F982F0FC1E8281E0E81619F459
:1015E0008981846089838981886089831B830A83D8
:1015F0001D830C83D183C0831382128281E0809388
:101600000D02CF010E940E0B10920D0280E0DF91BF
:10161000CF911F910F91FF90EF900895CF92DF929D
:10162000EF92FF920F931F93CF93DF93EC01809182
:10163000AF02882339F4D093B102C093B0020E9464
:10164000AA1247C0C090B002D090B10200E010E0F2
:10165000EE24FF2437C0A881B981FD016481758122
:10166000F60140815181FA01848195819B01281BFB
:10167000390B37FF0FC0861B970B95838483DB8262
:10168000CA82012B29F4D093B102C093B00221C0C9
:10169000F7010CC0F601828193812115310549F4CF
:1016A000FD01158214829B838A83F601D383C28352
:1016B00010C0FD01358324830097B9F30F5F1F4FDE
:1016C00076016C018091AF0290E00817190718F2BB
:1016D000ECCF8091AF028F5F8093AF02DF91CF910B
:1016E0001F910F91FF90EF90DF90CF9008958CE0C5
:1016F0000E94BF09882311F082E008958BE00E94C8
:10170000CC098823A1F40E94BB11813081F480E0D0
:101710000E946D1288EE93E024EF31E0F9013197D9
:10172000F1F70197D9F70E94000C81E008958CE051
:101730000E94AF0987E00895EF92FF920F931F93E5
:101740008CE00E94CC09882309F452C00E94D91170
:10175000139A81E28A95F1F713980B98EE24FF24EF
:1017600087010CC0039B0AC082E48A95F1F780B11F
:1017700086958695869580FF26C00FC00894E11C4B
:10178000F11C011D111D80E2E81681EAF80687E0D0
:10179000080780E0180731F722C00E94E311EE2409
:1017A000FF24870102C0039B0EC00894E11CF11CBA
:1017B000011D111D90E2E91691EAF90697E009076B
:1017C00090E0190781F70E94EB1180E090E2E916A2
:1017D00091EAF90697E0090790E0190708F081E01F
:1017E0000B9A1398813021F00E94B5119C0102C020
:1017F00020E030E0C9011F910F91FF90EF90089514
:101800000B9A139808950E9419120E94200F0E94AB
:10181000510E0E948E120E947B040E943E0A789410
:101820000895000008951F920F920FB60F92112491
:101830002F933F934F935F936F937F938F939F93D8
:10184000AF93BF93EF93FF93E091CD01F091CE0161
:10185000309709F00995FF91EF91BF91AF919F915A
:101860008F917F916F915F914F913F912F910F9049
:101870000FBE0F901F9018951F920F920FB60F92E8
:1018800011242F933F934F935F936F937F938F9385
:101890009F93AF93BF93EF93FF93E091CF01F091AC
:1018A000D001309709F00995FF91EF91BF91AF9169
:1018B0009F918F917F916F915F914F913F912F9168
:1018C0000F900FBE0F901F9018951F920F920FB69A
:1018D0000F9211242F933F934F935F936F937F93B6
:1018E0008F939F93AF93BF93EF93FF93E091D101B9
:1018F000F091D201309709F00995FF91EF91BF91D6
:10190000AF919F918F917F916F915F914F913F9197
:101910002F910F900FBE0F901F9018951F920F924E
:101920000FB60F9211242F933F934F935F936F93B2
:101930007F938F939F93AF93BF93EF93FF93E09128
:10194000BF01F091C001309709F00995FF91EF9127
:10195000BF91AF919F918F917F916F915F914F91C7
:101960003F912F910F900FBE0F901F9018951F92CF
:101970000F920FB60F9211242F933F934F935F93C3
:101980006F937F938F939F93AF93BF93EF93FF9347
:10199000E091C101F091C201309709F00995FF91E2
:1019A000EF91BF91AF919F918F917F916F915F91D7
:1019B0004F913F912F910F900FBE0F901F90189550
:1019C0001F920F920FB60F9211242F933F934F93B4
:1019D0005F936F937F938F939F93AF93BF93EF9397
:1019E000FF93E091C301F091C401309709F009958C
:1019F000FF91EF91BF91AF919F918F917F916F91E7
:101A00005F914F913F912F910F900FBE0F901F90BC
:101A100018951F920F920FB60F9211242F933F9398
:101A20004F935F936F937F938F939F93AF93BF93E6
:101A3000EF93FF93E091C701F091C801309709F04F
:101A40000995FF91EF91BF91AF919F918F917F91F8
:101A50006F915F914F913F912F910F900FBE0F901B
:101A60001F9018951F920F920FB60F9211242F936B
:101A70003F934F935F936F937F938F939F93AF9316
:101A8000BF93EF93FF93E091C901F091CA013097A2
:101A900009F00995FF91EF91BF91AF919F918F91BF
:101AA0007F916F915F914F913F912F910F900FBE5A
:101AB0000F901F9018951F920F920FB60F9211243E
:101AC0002F933F934F935F936F937F938F939F9346
:101AD000AF93BF93EF93FF93E091C501F091C601DF
:101AE000309709F00995FF91EF91BF91AF919F91C8
:101AF0008F917F916F915F914F913F912F910F90B7
:101B00000FBE0F901F9018951F920F920FB60F9255
:101B100011242F933F934F935F936F937F938F93F2
:101B20009F93AF93BF93EF93FF93E091CB01F0911D
:101B3000CC01309709F00995FF91EF91BF91AF91DA
:101B40009F918F917F916F915F914F913F912F91D5
:101B50000F900FBE0F901F9018951F920F920FB607
:101B60000F9211242F933F934F935F936F937F9323
:101B70008F939F93AF93BF93EF93FF93E091B50142
:101B8000F091B601309709F00995FF91EF91BF915F
:101B9000AF919F918F917F916F915F914F913F9105
:101BA0002F910F900FBE0F901F9018951F920F92BC
:101BB0000FB60F9211242F933F934F935F936F9320
:101BC0007F938F939F93AF93BF93EF93FF93E09196
:101BD000B701F091B801309709F00995FF91EF91A5
:101BE000BF91AF919F918F917F916F915F914F9135
:101BF0003F912F910F900FBE0F901F9018951F923D
:101C00000F920FB60F9211242F933F934F935F9330
:101C10006F937F938F939F93AF93BF93EF93FF93B4
:101C2000E091B901F091BA01309709F00995FF915F
:101C3000EF91BF91AF919F918F917F916F915F9144
:101C40004F913F912F910F900FBE0F901F901895BD
:101C50001F920F920FB60F9211242F933F934F9321
:101C60005F936F937F938F939F93AF93BF93EF9304
:101C7000FF93E091BB01F091BC01309709F0099509
:101C8000FF91EF91BF91AF919F918F917F916F9154
:101C90005F914F913F912F910F900FBE0F901F902A
:101CA000189580E10E94BF09882311F082E0089511
:101CB000EDEAF1E01192119281E0ED3EF807D1F7E3
:101CC00081E00895FF920F931F93CF93DF93F82E37
:101CD0008AE0F816B1F08F1548F0E8E0FE16B9F189
:101CE000EF1538F1F7E0FF1651F43BC08DE0F81620
:101CF00059F0EBE1FE1689F0FCE0FF1641F001E03F
:101D000041C01092500203C0109250023AC080911C
:101D1000510281508093510234C00E94330314C099
:101D200080E061E00E943004809150028F5F8093D8
:101D300050028091500287FFF3CF109250028091A1
:101D4000510281508093510200E011E01CC080914B
:101D500050028823B1F08091500286508093500247
:101D600010C081E00E94781064EF71E080E090E0A4
:101D70004DE750E024E630E00E94841081E00E94AC
:101D8000DF0F00E010E080915102609150020E944C
:101D9000DB03002351F185E0F89EC0011124EC0122
:101DA000CD59DE4F8C0108591E4FFE01849161E030
:101DB0000E9430042196C017D107B9F780E061E096
:101DC0000E943004809150028A5F8093500280917B
:101DD000500290E08C3791053CF0109250028091B7
:101DE000510281508093510211E080915102837021
:101DF00080935102113059F480915202813039F4AC
:101E0000E0915302F0915402309709F0099580E077
:101E100090E0DF91CF911F910F91FF9008951F9354
:101E2000182F86E00E94CC09882319F0812F0E9488
:101E30001B0F1F91089585FD5D9886FD5E9808959E
:101E4000F8940E947B0F81E00E94280F81E00895A2
:101E5000813049F0F894813020F18230B1F0833044
:101E600009F045C017C02C9A80E880936100109259
:101E7000610080E090E00000019688329105D9F77A
:101E80001092680010926B00089580E880936100C2
:101E900083E004C080E88093610088E08093610063
:101EA00028C080E090E0000001962DE68036920781
:101EB000D1F72C9880E090E0000001962DE6803666
:101EC0009207D1F710927A008FEF8093640080918F
:101ED000680081608093680080916B0084608093CB
:101EE0006B00789483B7816083BF889508958230B2
:101EF00008F078940895249A2C9A089583E58CBD6F
:101F000081E08DBD8DE08A95F1F7089583E58CBD64
:101F10001DBC84EF91E00197F1F708958FE78CBD28
:101F20001DBC84EF91E00197F1F7089583E58CBD26
:101F300081E08DBD8DE08A95F1F7089583E58CBD34
:101F400081E08DBD84EF91E00197F1F708951F9333
:101F5000162F0E94BD0482E00E94CC09882329F03C
:101F60001EBD0DB407FEFDCF8EB51F9108958AE00A
:101F70000E94AF09882329F481E00E94DA101092B0
:101F8000FE01089589E00E94AF098823B9F4809189
:101F9000FD01882311F00E94201182E00E94DA10D6
:101FA00080910B0290910C02009731F00E949122D7
:101FB00010920C0210920B021092FD0108958130D4
:101FC00029F0823029F40E94C20F08950E94B70FB1
:101FD00008950F931F93CF93DF9380E291E00E94C7
:101FE000FC219C0190930C0280930B02892B11F42D
:101FF00080E039C08901C0E0D0E0BE0180E090E01F
:102000000E94BC1E20E030E040EA51E40E94141E11
:1020100027EF35E740E05FE30E94871F9B01AC019B
:1020200060E070E080E291E40E94F41F9B01AC014B
:10203000CA01B9012DEC3CEC42E851E40E94871F33
:102040000E944A1F2AE030E040E050E00E947921DF
:10205000F80161937193819391938F012196C83414
:10206000D10559F681E0DF91CF911F910F9108952D
:102070008AE00E94BF09882311F082E0089510923F
:1020800008021092070281E00E94F61081E080931E
:10209000FE0108951F9389E00E94BF09882311F073
:1020A00082E024C08BE00E94CC098823D9F40E94EE
:1020B000E90F182F813011F086E018C01092FF014F
:1020C0001092000210920102109202028DE062EE64
:1020D00072E10E94BD1282E00E94F6101093FD0191
:1020E00081E004C089E00E94AF0987E01F91089554
:1020F000813021F0823029F084E008950E94381068
:1021000008950E944A1008956F927F928F929F9235
:10211000AF92BF92CF92DF92EF92FF920F931F93F5
:10212000CF93DF933B014C015A01E9018AE00E9401
:10213000CC09882381F1209741F19501442737FD8F
:102140004095542FBE01C536D10510F064E670E00D
:1021500080E090E00E94792124E630E040E050E009
:102160000E94892179018A01C401B3010E94E5120C
:10217000C7010E94A30A60E070E080E090E00E9446
:10218000E512C5018E199F0904C0A114B10419F00C
:10219000C5010E94A30ADF91CF911F910F91FF907B
:1021A000EF90DF90CF90BF90AF909F908F907F90F7
:1021B0006F900895823029F4809181008E7F809302
:1021C00081008091FD01813031F48091FE018130E8
:1021D00011F4000008958091FD01813021F080917B
:1021E000FE01813011F45F9857980895982F8091DF
:1021F000FD01882331F48091FE01882311F4579A60
:102200005F988091FD018823D1F49230C1F410923F
:10221000800010928100809181008860809381000D
:1022200080918100816080938100109285001092DE
:10223000840081E08093890080E98093880008957C
:10224000EFE6F0E080818D7F80830895982F81E014
:1022500080938C02913051F0913018F0923041F41B
:1022600003C01092740204C010927402109275029E
:1022700010928C020895982F81E080938C02913007
:1022800071F0913018F0923071F405C070936902CA
:102290006093680208C0709369026093680270934B
:1022A0006B0260936A0210928C02089521E02093E1
:1022B0008C02E8E6F2E0918380833296718360833A
:1022C00010928C020895982F81E080938C029130B7
:1022D00051F0913018F0923041F403C060937602CF
:1022E00004C0609376026093770210928C02089586
:1022F0000F931F93CF93DF93EB018A01813001F19C
:10230000813018F0823061F50DC0809160029091AB
:102310006102892B11F080E01AC010926D021092B8
:102320006C021EC08091600290916102892B21F0A5
:1023300080E00E944A1304C010926D0210926C0259
:102340008091620290916302892B31F081E0BE019D
:10235000A8010E944A1304C010926F0210926E02EC
:10236000DF91CF911F910F91089520918F023091AD
:102370009002C90108958BE00E94BF09882311F0E3
:1023800082E0089589E00E94CC09882369F41092C4
:10239000900210928F028DE067EB73E10E94BD12F4
:1023A0000E94F81181E008958BE00E94AF0982E05D
:1023B000089520918F023091900210929002109215
:1023C0008F02C90108958BE00E94CC09882311F087
:1023D0000E940D1208958BE00E94CC09882311F011
:1023E0000E94131220918F0230919002C90108952A
:1023F00010928000E1E8F0E01082808188608083A4
:1024000080818160808310928500109284001092F8
:10241000890088EC809388000895EFE6F0E08081E1
:10242000826080830895EFE6F0E080818D7F808375
:102430000895CF93DF93C0E0D0E08C2F60E00E943E
:1024400028122196C531D105C1F7DF91CF910895AA
:10245000853128F4E82FF0E0E55CFD4F60830895B6
:102460001F93CF93DF93EC01009799F181E00E94D5
:10247000CC09882351F187E00E94BD0418EC812F1C
:102480008A95F1F782E06AE00E940E0582E064EB33
:102490000E940E05812F8A95F1F782E060E00E948C
:1024A000A70F8883812F8A95F1F782E060E00E9470
:1024B000A70F89831A95F1F782E060E00E94A70FC9
:1024C0008A8387E00E94BD0404C0188219828DE2CD
:1024D0008A83DF91CF911F9108951F93182F81E078
:1024E0000E94CC098823C1F087E00E94BD0488ECDB
:1024F0008A95F1F782E06AE00E940E0582E065EBC2
:102500000E940E0582E0612F0E940E0589EE8A95D9
:10251000F1F787E00E94BD041F91089588E00E94B2
:10252000BF09882311F082E008951092AF02109243
:10253000B1021092B00210920D0210920E0280E1D0
:102540006AEB73E10E94D1120E94AE120E94B71290
:1025500081E0089581E080930E02089584B5826041
:1025600084BD85B5846085BD8EE487BD0895EEE6A3
:10257000F0E08081826080830895E82F803268F4E3
:102580008051833050F0F0E0EE0FFF1FE355FE4F17
:10259000208131817183608302C020E030E0C90175
:1025A0000895803218F020E030E00AC0E82FF0E013
:1025B000EE0FFF1FE355FE4F208131817183608351
:1025C000C90108950E9409130895EF92FF920F9395
:1025D0001F937B018C018AE00E94CC098823A1F023
:1025E0008091FE01882381F0D801C701880F991FCF
:1025F000AA1FBB1F90930A0280930902E114F10401
:102600000105110509F45F981F910F91FF90EF905C
:1026100008958091FF0190910002A0910102B09174
:102620000202209103023091040240910502509170
:102630000602280F391F4A1F5B1F2093FF013093AA
:10264000000240930102509302028091FF01909199
:102650000002A0910102B09102028851964FA04061
:10266000B040BCF08BB180588BB98091FF01909144
:102670000002A0910102B09102028851964FA04041
:10268000B0408093FF0190930002A0930102B093A9
:1026900002020895EF92FF920F931F93CF93DF935F
:1026A000EB01882321F0813009F05AC02DC09A0136
:1026B00040E050E0CA01B9010E94792120916002F6
:1026C00030916102220F331F40E050E00E948921C7
:1026D00079018A01A8019701220F331F441F551F5A
:1026E000CE01A0E0B0E082179307A407B50728F059
:1026F000F0926D02E0926C0233C0D695C795D093EC
:102700006D02C0936C022CC09A0140E050E0CA01F7
:10271000B9010E9479212091620230916302220F57
:10272000331F40E050E00E94892179018A01A8010D
:102730009701220F331F441F551FCE01A0E0B0E0C8
:1027400082179307A407B50728F0F0926F02E09272
:102750006E0206C0D695C795D0936F02C0936E02E5
:10276000DF91CF911F910F91FF90EF9008950E94FC
:10277000DA1308950E94C1130E940D140E94E613FB
:10278000089588E00E94CC09882311F484E008951C
:1027900080910E02882311F483E0089580910D0248
:1027A000882311F082E008950E945A168130E1F3E7
:1027B00080E00895CF93DF93CFE8D2E088819981BC
:1027C000019688839983DF91CF9108958091FE01CE
:1027D000813011F580910702909108022091090241
:1027E00030910A02280F391F309308022093070204
:1027F0008091070290910802885E93406CF08BB143
:1028000080588BB98091070290910802885E9340AE
:102810009093080280930702089587E00E94CC09F4
:10282000882309F4AAC08091600290916102892BEB
:1028300009F180918402909185022091600230918B
:102840006102820F931F909385028093840280918E
:10285000840290918502885E9340A4F08091840266
:1028600090918502885E93409093850280938402C4
:1028700041E009C0809158029091590290935D0205
:1028800080935C0240E08091620290916302892B08
:1028900009F1809186029091870220916202309125
:1028A0006302820F931F9093870280938602809128
:1028B000860290918702885E9340A4F08091860200
:1028C00090918702885E934090938702809386025E
:1028D00061E009C080915A0290915B0290935F027F
:1028E00080935E0260E0842F0E94BE14809180027B
:1028F0009091810220915C0230915D02280F391F76
:102900003093810220938002809180029091810215
:10291000885E934014F440E00BC080918002909157
:102920008102885E9340909381028093800241E00F
:10293000809182029091830220915E0230915F0229
:10294000280F391F309383022093820280918202E4
:1029500090918302885E934014F460E00BC08091F4
:10296000820290918302885E9340909383028093C9
:10297000820261E0842F0E94031508958823F1F0FC
:10298000209158023091590280915C0290915D0231
:10299000281B390B1216130634F480915C029091B7
:1029A0005D02019607C0232B49F080915C02909153
:1029B0005D02019790935D0280935C02662311F1A2
:1029C00020915A0230915B0280915E0290915F02E9
:1029D000281B390B1216130654F480915E02909155
:1029E0005F02019690935F0280935E020895232B0D
:1029F00049F080915E0290915F02019790935F028F
:102A000080935E0208950F931F93182F062F8091D5
:102A10008C02882309F0E7C080917402882309F0B2
:102A20005AC080915C0290915D02892BE9F48091FB
:102A30000F02837E80930F0210927D0280918802A4
:102A4000882309F45DC06091760280E00E942D0920
:102A5000E0918A02F0918B02309709F451C081E035
:102A60008083109288024CC080915602813041F4DC
:102A70008091680290916902019711F411E002C0FF
:102A80001123F1F1E0917B02F0E0EE5EFE4F9091B8
:102A90000F02937E8081892B80930F0280917902AF
:102AA000882321F480917B028F5F03C080917B0299
:102AB000815080937B0280917B02837080937B02A4
:102AC00081E080937D02809156028130C9F480E0DC
:102AD0000E94061615C090910F02937E90930F02EC
:102AE000E0917B02F0E0EE5EFE4F8081892B8093C7
:102AF0000F0282E080937D0210925D0210925C02D0
:102B000080917502882309F059C080915E029091EE
:102B10005F02892BE9F480910F028F7180930F027D
:102B200010927E0280918902882309F45CC0609132
:102B3000770281E00E942D09E0918A02F0918B02D8
:102B4000309709F450C081E08183109289024BC014
:102B500080915702813041F480916A0290916B021A
:102B6000019711F401E002C00023E9F1E0917C0239
:102B7000F0E0EA5EFE4F90910F029F718081892BF9
:102B800080930F0280917A02882321F480917C0245
:102B90008F5F03C080917C02815080937C02809182
:102BA0007C02837080937C0281E080937E0280911E
:102BB00057028130C1F40E94061615C090910F0291
:102BC0009F7190930F02E0917C02F0E0EA5EFE4F6D
:102BD0008081892B80930F0282E080937E02109285
:102BE0005F0210925E0280917F02882331F48FE0B1
:102BF00092E0612F402F0E94C81688B18370909197
:102C00000F02892B88B91F910F910895882321F015
:102C1000813009F04EC027C080916802909169020E
:102C2000892B49F0809168029091690201979093F5
:102C3000690280936802809188028823D1F52091EF
:102C400068023091690280916C0290916D022817A0
:102C5000390779F580E060E070E00E94C90781E003
:102C600080938802089580916A0290916B02892B6B
:102C700049F080916A0290916B02019790936B02E8
:102C800080936A0280918902882399F420916A02D4
:102C900030916B0280916E0290916F022817390774
:102CA00041F481E060E070E00E94C90781E0809318
:102CB00089020895FF920F931F93CF93DF93809122
:102CC000AF02882309F459C00091B0021091B102FB
:102CD000F801C081D1818C819D8101979D838C8376
:102CE000181619060CF449C0898180FF05C08E8131
:102CF000882311F481E08E83898181FF03C0EF81F5
:102D0000F88509958091AF028230A8F0F8018281A0
:102D100093819093B1028093B00213821282E0916A
:102D20000000F091010084819581181619063CF08D
:102D3000FF24F39405C01092B1021092B002FF2458
:102D40008091AF0281508093AF028091AF028823BF
:102D500011F40E94C516898182FF08C08A819B8177
:102D60009D838C83C8010E940E0B08C0C8010E947D
:102D7000912289818F7E898301C0FF248F2DDF916D
:102D8000CF911F910F91FF90089510920E02089518
:102D9000FC0180917D02823069F48091130291E000
:102DA000892780931302882309F03EC08081837EA7
:102DB00080833AC080915C0290915D02C397A4F534
:102DC0006623D1F020915C0230915D0280E690E0B4
:102DD000BC01269FC001279F900D369F900D1124A6
:102DE000880F892F881F990B90937102809370022E
:102DF00081E08093110218C0809111028823A1F014
:102E0000809170029091710201979093710280936A
:102E100070028091700290917102892B29F4808157
:102E2000837E80831092110280917E02823069F449
:102E30008091120291E0892780931202882309F081
:102E40003EC080818F718083089580915E02909151
:102E50005F02C397A4F54423D1F020915E02309124
:102E60005F0280E690E0AC01249FC001259F900D99
:102E7000349F900D1124880F892F881F990B9093F0
:102E800073028093720281E0809310020895809112
:102E900010028823A1F08091720290917302019731
:102EA00090937302809372028091720290917302E8
:102EB000892B29F480818F718083109210020895EC
:102EC000CF93DF93FC01308120913102321303C094
:102ED0002081211129C0EC010E9433039881923096
:102EE000B1F038F4992369F09130B9F48CE291E0B3
:102EF00016C0943079F040F0953079F483E691E093
:102F00000EC080E291E00BC088E391E008C087E446
:102F100091E005C081E591E002C085E791E00E9463
:102F20006524888180933102DF91CF910895DC017F
:102F3000FB019C918081981325C011962D913C91A5
:102F400012978181928128173907E1F413962D9108
:102F50003C911497838194812817390799F4159629
:102F60002D913C911697858196812817390751F448
:102F700017964D915C9118972781308581E0421713
:102F8000530709F080E00895CF93DF93EC019B0194
:102F90008091300281110AC041E061E087E292E055
:102FA0000E94D00A81E08093300211C080912D02EE
:102FB000882369F080E40E94580480E00E94D809C8
:102FC000888381E00E94D809898310922D02DF91C5
:102FD000CF9108950F931F93CF93DF9300D000D02C
:102FE000CDB7DEB78C019B018091260281110AC00A
:102FF00041E061E08DE192E00E94D00A81E080939F
:10300000260234C080912302882381F10E949C0B08
:103010009C01AAE0B0E00E94AB210E94BC1E27EEFA
:103020003AE34DE85CE30E94871FF801628B738BE3
:10303000848B958B69837A838B839C830E94330373
:1030400069817A818B819C819F938F937F936F930A
:1030500084E891E09F938F930E944F241092230263
:103060000F900F900F900F900F900F900F900F9068
:103070000F900F90DF91CF911F910F910895FC0158
:1030800081E0808388EC90E09283818394838383C2
:1030900080E991E0968385839087878308956F9276
:1030A0007F928F929F92AF92BF92CF92DF92EF92D8
:1030B000FF920F931F93CF93DF93EC01FB0181816C
:1030C000813009F058C0D080D81255C0E3E09E2E60
:1030D00098820E94330387E591E00E94652460E0B6
:1030E00082E00E942D091F921F921F92DF92F0E949
:1030F0006F2E6F921F92A8EC7A2E7F921F928AEF0A
:103100008F9388248394A12CB12CC12CB0E9EB2E91
:10311000FF24F39408EC10E02AEF30E041E062E095
:1031200080E00E94D2051F921F921F92DF926F9241
:103130001F927F921F9287E88F93812C27E830E0BF
:1031400041E062E080E00E94D205988288EC90E045
:103150009A8389839C838B8380E991E09E838D830E
:1031600098878F838DB79EB742960FB6F8949EBF0F
:103170000FBE8DBFB1C0D08091E0D91255C043E0E1
:10318000942E98820E94330387E591E00E94652483
:1031900060E082E00E942D091F921F921F92DF9231
:1031A00050E9652E6F921F9268EC762E7F921F92E7
:1031B0008AEF8F9388248394A12CB12CC12C70E9C1
:1031C000E72EFF24F39408EC10E02AEF30E041E012
:1031D00062E080E00E94D2051F921F921F92DF9250
:1031E0006F921F927F921F9287E88F93812C27E81E
:1031F00030E041E062E080E00E94D205988288ECF5
:1032000090E09A8389839C838B8380E991E09E83FD
:103210008D8398878F838DB79EB742960FB6F894AB
:103220009EBF0FBE8DBF58C0D18091E0D91254C04F
:1032300083E0982E98820E94330387E591E00E94F4
:10324000652460E082E00E942D091F921F921F9268
:10325000DF9290E9692E6F921F9228EC722E7F9276
:103260001F928AEF8F9388248394A12CB12CC12CB8
:1032700030E9E32EFF24F39408EC10E02AEF30E06D
:1032800041E062E080E00E94D2051F921F921F92EF
:10329000DF926F921F927F921F9287E88F93812C0B
:1032A00027E830E041E062E080E00E94D2059882A9
:1032B00088EC90E09A8389839C838B8380E991E0FA
:1032C0009E838D8398878F838DB79EB742960FB666
:1032D000F8949EBF0FBE8DBFDF91CF911F910F91CC
:1032E000FF90EF90DF90CF90BF90AF909F908F9026
:1032F0007F906F900895CF92DF92EF92FF92CF93DD
:10330000DF93EC01FB01228933894489558985E0EB
:10331000888360EF77EA87E492E40E94A71D20E0AB
:1033200030E040E05FE30E94871F6B017C019B015E
:10333000AC0160E070E086E193E40E94A71D0E946A
:10334000861E7A83698320E030E046E153E4C701BA
:10335000B6010E94A81D0E94861E7C836B83DF91AC
:10336000CF91FF90EF90DF90CF900895CF93DF93B0
:10337000EC0164E172E00E949717811114C06F8123
:1033800078858D819E810E9477076B817C81898100
:103390009A810E94140789E0FE01A4E1B2E0019045
:1033A0000D928A95E1F7DF91CF910895CF93DF9346
:1033B000CDB7DEB766970FB6F894DEBF0FBECDBFB0
:1033C0000E944D040E9455030E946B060E94770BD9
:1033D000109234021092330210923602109235028B
:1033E000109238021092370210923A02109239026B
:1033F0001092320281E991E00E94652488EB9BE003
:103400000E94A30A0E9433036DE770E0CE0101968B
:103410000E94C4176DE770E0CE0101960E94EA1782
:1034200082E392E00E943F18BE016F5F7F4F82E30C
:1034300092E00E947B19BE016F5F7F4F82E392E0B2
:103440000E944F1882E392E00E94B61982E392E054
:103450000E946017D9CFA3E1B0E0E1E3FAE10C9458
:10346000C5216C014B012A01FC0117821682838160
:1034700081FF43C3AE014F5F5F4F3A01F601938175
:10348000F40193FD859193FF81914F01882309F405
:1034900030C3853239F493FD859193FF81914F01BB
:1034A000853239F4B60190E00E94172452012501BB
:1034B000E5CF10E0F12C20E02032A0F48B3269F04F
:1034C00030F4803259F0833269F420612CC08D329F
:1034D00039F0803339F4216026C02260246023C093
:1034E000286021C027FD27C030ED380F3A3078F42E
:1034F00026FF06C0FAE01F9F300D1124132F13C0C2
:103500004AE0F49E300D1124F32E20620CC08E325E
:1035100021F426FDEEC2206406C08C3611F420682A
:1035200002C0883641F4F40193FD859193FF8191A7
:103530004F018111C1CF9BEB980F933018F420619C
:10354000805E06C09BE9980F933008F071C12F7E12
:1035500026FF16E02F73322E853619F42064322EA2
:1035600008C0863621F4F22FF0683F2E02C01111F8
:10357000115037FE07C01C3350F4EE24E394E10EE3
:1035800027E00BC0183038F027E017E005C027E02F
:103590004CE3E42E02C0212FE12C520144E0A40EA2
:1035A000B11CF20160817181828193810E2DA30192
:1035B0000E9429232C01098100FF02C003FF07C0DC
:1035C00031FC08C032FE09C030E2232E07C02DE2D4
:1035D000222E04C09BE2292E01C0212C802F8C704A
:1035E00019F0211068C2A8C237FE0FC0E40C04FF16
:1035F00004C08A81813309F4EA941E1474F5F8E05A
:10360000FE1578F588E0E82E2CC036FC2AC0812F04
:1036100090E0841595059CF02CEF42162FEF520692
:1036200074F0432D4068342E0AC0E2E0F0E0EC0F65
:10363000FD1FE10FF11D8081803319F4115011112C
:10364000F4CF37FE0EC0EE24E394E10E812F90E01C
:10365000481659062CF4141904C0EE24E39401C052
:1036600010E037FE06C01414150434F4C2010196AC
:1036700005C085E090E002C081E090E02110019655
:10368000112331F0212F30E02F5F3F4F820F931F26
:103690002F2D30E08217930714F4F81A01C0F12C93
:1036A000832D897049F4FF2039F0B60180E290E063
:1036B0000E941724FA94F7CF222029F0B601822D18
:1036C00090E00E94172433FC09C0FF2039F0B601B6
:1036D00080E390E00E941724FA94F7CF37FE5AC097
:1036E000942D852D57FE02C090E080E0292E382EC3
:1036F00020E030E0A2014E1951095D874C87A201FC
:10370000421953095F874E87612F70E04427552780
:10371000461B570B598B488B5FEF2516350649F42E
:10372000B6018EE290E02A8B3B8B0E9417243B89E6
:103730002A89421453046CF04C855D85421553056B
:1037400044F4EE85FF85E20FF31FE60DF71D81813E
:1037500001C080E351E0251A31082F5F3F4F4889AF
:103760005989241635064CF0B60190E02A8B3B8B24
:103770000E9417242A893B89CFCF2414350439F4B9
:103780009A81963318F4953311F404FF81E3B6015E
:1037900090E04BC08A81813309F00F7EB60190E042
:1037A0000E941724111105C034FC18C085E690E072
:1037B00017C0B6018EE290E00E94172482E0EE244A
:1037C000E394E80EF301E80FF11D8081B60190E06B
:1037D0000E94172411508E2D91F7E6CF85E490E0DA
:1037E000B6010E94172457FC05C04114510439F456
:1037F00004FF05C05194419451088DE201C08BE251
:10380000B60190E00E94172480E39AE04916510423
:103810002CF08F5F5AE0451A5108F7CFB60190E0BF
:103820000E941724B601C201C0960E94172457C1F6
:10383000833631F0833779F0833509F058C021C0E1
:103840005201E2E0AE0EB11CF2018081898301E0F9
:1038500010E0230114C05201F2E0AF0EB11CF201DE
:103860004080518026FF03C0612F70E002C06FEFDF
:103870007FEFC2012A8B0E940C248C012A892F77AA
:1038800015C05201F2E0AF0EB11CF2014080518030
:1038900026FF03C0612F70E002C06FEF7FEFC2010F
:1038A0002A8B0E9401248C012A892068322E23FD54
:1038B0001AC08F2D90E008171907A8F4B60180E20E
:1038C00090E00E941724FA94F4CFF20137FC85911E
:1038D00037FE81912F01B60190E00E941724F1106C
:1038E000FA94015011090115110579F7F8C08436D1
:1038F00011F0893659F5520127FF09C0F4E0AF0EE7
:10390000B11CF20160817181828193810AC0F2E071
:10391000AF0EB11CF20160817181072E000C880B83
:10392000990B2F76322E97FF09C090958095709550
:1039300061957F4F8F4F9F4F2068322E2AE030E0F5
:10394000A3010E949524E82EE6183FC0022F853778
:1039500021F40F7E2AE030E01DC0097F8F3691F000
:1039600018F4883559F0C5C0803719F0883711F040
:10397000C0C0006104FF09C0046007C024FF08C084
:10398000066006C028E030E005C020E130E002C05B
:1039900020E132E0520107FF09C0F4E0AF0EB11C94
:1039A000F201608171818281938108C0F2E0AF0EE3
:1039B000B11CF2016081718180E090E0A3010E945E
:1039C0009524E82EE6180F77302E36FE0BC0332DE7
:1039D0003E7FE11650F434FE0AC032FC08C0332D9D
:1039E0003E7E05C00E2D332D03C00E2D01C0012FCC
:1039F00034FF0CC0FE01EE0DF11D8081803311F407
:103A0000397E08C032FF05C00E5F04C0832F867860
:103A100009F00F5F33FD13C030FF06C01E2D0F15D8
:103A200018F41F0D101B0F2D0F1568F4B60180E25E
:103A300090E03B8B0E9417240F5F3B89F5CF0F1559
:103A400010F4F01A01C0F12C34FF12C0B60180E36B
:103A500090E03B8B0E9417243B8932FF17C031FD59
:103A600003C088E790E002C088E590E0B6010CC092
:103A7000832F867859F031FF02C08BE201C080E2CB
:103A800037FD8DE2B60190E00E941724E11638F46C
:103A9000B60180E390E00E9417241150F7CFEA941A
:103AA000F301EE0DF11D8081B60190E00E94172414
:103AB000E110F5CF14C0F4E0FF1558F584E0F81AD2
:103AC00033FE1EC0211026C003FF2AC00EEF10E0F7
:103AD000F32DF0713F2EF8018491811124C0FF2055
:103AE00009F4E5CCB60180E290E00E941724FA9434
:103AF000F6CFF6018681978126C08FEF9FEF23C016
:103B0000B60180E290E00E941724FA94F110F8CFF9
:103B1000D9CFF12CB601822D90E00E941724D4CF8A
:103B200002E011E0D5CF31108052B60190E00E9442
:103B300017240F5F1F4FCFCF23E02F1510F483E022
:103B4000BECFF12CC1CF6396E2E10C94E121505835
:103B5000BB27AA270E94BF1D0C94101F0E94021FA2
:103B600038F00E94091F20F039F49F3F19F426F421
:103B70000C94FF1E0EF4E095E7FB0C94F91EE92F60
:103B80000E94211F58F3BA1762077307840795072D
:103B900020F079F4A6F50C94431F0EF4E0950B2E5B
:103BA000BA2FA02D0B01B90190010C01CA01A0018F
:103BB0001124FF27591B99F0593F50F4503E68F1EA
:103BC0001A16F040A22F232F342F4427585FF3CF2B
:103BD000469537952795A795F0405395C9F77EF4FC
:103BE0001F16BA0B620B730B840BBAF09150A1F045
:103BF000FF0FBB1F661F771F881FC2F70EC0BA0FCB
:103C0000621F731F841F48F4879577956795B79552
:103C1000F7959E3F08F0B0CF9395880F08F099274D
:103C2000EE0F9795879508950E94281E0C94101FFB
:103C30000E94091F58F00E94021F40F029F45F3FC4
:103C400029F00C94F91E51110C94441F0C94FF1E82
:103C50000E94211F68F39923B1F3552391F3951B1B
:103C6000550BBB27AA2762177307840738F09F5F9D
:103C70005F4F220F331F441FAA1FA9F335D00E2E0A
:103C80003AF0E0E832D091505040E695001CCAF777
:103C90002BD0FE2F29D0660F771F881FBB1F26173A
:103CA00037074807AB07B0E809F0BB0B802DBF0111
:103CB000FF2793585F4F3AF09E3F510578F00C94E0
:103CC000F91E0C94441F5F3FE4F3983ED4F38695AD
:103CD00077956795B795F7959F5FC9F7880F911D01
:103CE0009695879597F90895E1E0660F771F881FED
:103CF000BB1F621773078407BA0720F0621B730BA0
:103D0000840BBA0BEE1F88F7E09508950E948D1E74
:103D10006894B1110C94441F08950E94291F88F0E3
:103D20009F5798F0B92F9927B751B0F0E1F0660F7F
:103D3000771F881F991F1AF0BA95C9F714C0B130C0
:103D400091F00E94431FB1E008950C94431F672F28
:103D5000782F8827B85F39F0B93FCCF386957795EF
:103D60006795B395D9F73EF49095809570956195D8
:103D70007F4F8F4F9F4F0895E89409C097FB3EF403
:103D800090958095709561957F4F8F4F9F4F9923A8
:103D9000A9F0F92F96E9BB279395F6958795779526
:103DA0006795B795F111F8CFFAF4BB0F11F460FFE6
:103DB0001BC06F5F7F4F8F4F9F4F16C0882311F03E
:103DC00096E911C0772321F09EE8872F762F05C052
:103DD000662371F096E8862F70E060E02AF09A95ED
:103DE000660F771F881FDAF7880F9695879597F9E2
:103DF000089597F99F6780E870E060E008959FEF6D
:103E000080EC089500240A94161617061806090671
:103E1000089500240A941216130614060506089540
:103E2000092E0394000C11F4882352F0BB0F40F4C8
:103E3000BF2B11F460FF04C06F5F7F4F8F4F9F4F08
:103E4000089557FD9058440F551F59F05F3F71F08A
:103E50004795880F97FB991F61F09F3F79F08795F1
:103E60000895121613061406551FF2CF4695F1DF7A
:103E700008C0161617061806991FF1CF869571050A
:103E8000610508940895E894BB2766277727CB013E
:103E900097F908950E94291FA8F19E57B0F19851F3
:103EA00060F039F1983070F5092E9927660F771F69
:103EB000881F991F0A94D1F71CC0BB27993F4CF467
:103EC000B111B1E0B62B672F782F8827985FB1F733
:103ED00008C0869577956795B79508F4B160939576
:103EE000C1F7BB0F30F411F460FF03C06F5F7F4F69
:103EF0008F4F3EF490958095709561957F4F8F4FD1
:103F00009F4F089568940C94441F0C94431F0E9483
:103F10009A1F0C94101F0E94021F38F00E94091F64
:103F200020F0952311F00C94F91E0C94FF1E11241F
:103F30000C94441F0E94211F70F3959FC1F3950FAD
:103F400050E0551F629FF001729FBB27F00DB11D1D
:103F5000639FAA27F00DB11DAA1F649F6627B00DAD
:103F6000A11D661F829F2227B00DA11D621F739F96
:103F7000B00DA11D621F839FA00D611D221F749FA4
:103F80003327A00D611D231F849F600D211D822FEB
:103F9000762F6A2F11249F5750409AF0F1F0882312
:103FA0004AF0EE0FFF1FBB1F661F771F881F91503F
:103FB0005040A9F79E3F510580F00C94F91E0C94D7
:103FC000441F5F3FE4F3983ED4F386957795679559
:103FD000B795F795E7959F5FC1F7FE2B880F911D69
:103FE0009695879597F90895FA01EE0FFF1F309681
:103FF00021053105A1F16115710561F48038BFE338
:104000009B0749F168949038810561F08038BFEFD3
:104010009B0741F099234AF5FF3FE1053105210552
:1040200019F1E8940894E795D901AA2329F4AB2F54
:10403000BE2FF85FD0F310C0FF5F70F4A695E0F7D5
:10404000F73950F019F0FF3A38F49F779F930DD06D
:104050000F9007FC9058089546F00C94FF1E60E006
:1040600070E080E89FE308954FE79F775F934F9359
:104070003F932F930E94EF202F913F914F915F919B
:104080000E94871F0C944C2029F416F00C94F91E02
:104090000C94431F0C94FF1E0E94291FA8F396380E
:1040A000A0F707F80F92E8942BE33AEA48EB5FE7B2
:1040B0000E949D1F0F920F920F924DB75EB70F9205
:1040C0000E943721ECE7F0E00E947E204F915F9143
:1040D000EF91FF91E595EE1FFF1F49F0FE57E06855
:1040E0004427EE0F441FFA95E1F74195550B0E94C6
:1040F000B1200F9007FE0C94A5200895DF93CF9375
:104100001F930F93FF92EF92DF927B018C016894D3
:1041100006C0DA2EEF010E949A1FFE01E894A591D5
:104120002591359145915591A6F3EF010E94BF1D50
:10413000FE019701A801DA9469F7DF90EF90FF90F4
:104140000F911F91CF91DF9108959B01AC0160E029
:1041500070E080E89FE30C94141E0C94F91E0C94FC
:104160006B210E94291FD8F39923C9F3940F511D85
:10417000A3F39150504094F059F0882332F0660F29
:10418000771F881F91505040C1F79E3F51052CF773
:10419000880F911D9695879597F908955F3FACF02C
:1041A000983E9CF0BB27869577956795B79508F460
:1041B000B1609395C1F7BB0F58F711F460FFE8CFDA
:1041C0006F5F7F4F8F4F9F4FE3CF0C94441F16F0CC
:1041D0000C946B210C94FF1E68940C94F91E0E94A1
:1041E000291FA8F39923C1F3AEF3DF93CF931F9355
:1041F0000F93FF92C92FDD2788232AF02197660F9E
:10420000771F881FDAF720E030E040E85FEB9FE39C
:10421000883920F0803E38F021968F770E94A81DC3
:10422000E4EAF0E004C00E94A81DE1EDF0E00E9485
:104230007E208B01BE01EC01FB2E6F577109759535
:10424000771F880B990B0E94BE1E28E132E741E3DD
:104250005FE30E949A1FAF2D9801AE01FF900F916E
:104260001F91CF91DF910E94BF1D0C94101FFA0186
:10427000DC01AA0FBB1F9B01AC01BF5728F422270A
:1042800033274427507820C0B75190F4AB2F002437
:10429000469537952795011CA395D2F3002071F020
:1042A000220F331F441FB395DAF30ED00C94A71DD1
:1042B00061307105A0E88A07B94630F49B01AC0172
:1042C0006627772788279078309621F020833183DE
:1042D0004283538308959F3F31F0915020F4879596
:1042E00077956795B795880F911D9695879597F95E
:1042F0000895DB018F939F930E94BA21BF91AF91E4
:10430000A29F800D911DA39F900DB29F900D11242F
:104310000895A1E21A2EAA1BBB1BFD010DC0AA1F06
:10432000BB1FEE1FFF1FA217B307E407F50720F01E
:10433000A21BB30BE40BF50B661F771F881F991F99
:104340001A9469F760957095809590959B01AC01E2
:10435000BD01CF010895A29FB001B39FC001A39FEB
:10436000700D811D1124911DB29F700D811D1124AE
:10437000911D08950E94AB21A59F900DB49F900DB3
:10438000A49F800D911D112408952F923F924F926A
:104390005F926F927F928F929F92AF92BF92CF92D5
:1043A000DF92EF92FF920F931F93CF93DF93CDB7DE
:1043B000DEB7CA1BDB0B0FB6F894DEBF0FBECDBF56
:1043C00009942A88398848885F846E847D848C8427
:1043D0009B84AA84B984C884DF80EE80FD800C8130
:1043E0001B81AA81B981CE0FD11D0FB6F894DEBF13
:1043F0000FBECDBFED010895CF93DF9382309105BD
:1044000010F482E090E0E091B402F091B50220E077
:1044100030E0C0E0D0E0309711F140815181481781
:104420005907C0F04817590761F48281938120979A
:1044300019F09B838A832BC09093B5028093B402BA
:1044400026C02115310519F04217530718F49A01B7
:10445000BE01DF01EF010280F381E02DDCCF2115E9
:10446000310509F1281B390B2430310590F41296DF
:104470008D919C9113976115710521F0FB01938338
:10448000828304C09093B5028093B402FD013296FA
:1044900044C0FD01E20FF31F819391932250310933
:1044A0002D933C933AC02091B2023091B302232B5A
:1044B00041F420911C0130911D013093B3022093EF
:1044C000B20220911A0130911B012115310541F4EE
:1044D0002DB73EB740911E0150911F01241B350B93
:1044E000E091B202F091B302E217F307A0F42E1BA1
:1044F0003F0B2817390778F0AC014E5F5F4F241748
:10450000350748F04E0F5F1F5093B3024093B2023D
:104510008193919302C0E0E0F0E0CF01DF91CF9171
:1045200008950F931F93CF93DF93009709F48CC0E6
:10453000FC013297138212820091B4021091B502ED
:104540000115110581F420813181820F931F209183
:10455000B2023091B3022817390779F5F093B3020C
:10456000E093B20271C0D80140E050E0AE17BF073F
:1045700050F412962D913C911397AD012115310500
:1045800009F1D901F3CF9D01DA01338322836081E0
:104590007181860F971F8217930769F4EC012881B8
:1045A0003981260F371F2E5F3F4F318320838A8149
:1045B0009B8193838283452B29F4F093B502E0938A
:1045C000B40242C01396FC93EE931297ED01499109
:1045D00059919E01240F351FE217F30771F4808172
:1045E0009181840F951F029611969C938E938281E0
:1045F000938113969C938E931297E0E0F0E0D8019C
:1046000012968D919C911397009719F0F8018C01E7
:10461000F6CF8D919C9198012E5F3F4F820F931F93
:104620002091B2023091B3022817390769F430970C
:1046300029F41092B5021092B40202C013821282C1
:104640001093B3020093B202DF91CF911F910F91AB
:104650000895283008F027E03327DA01990F311D3B
:1046600087FD916000966105710539F432602E5F17
:104670003D9330E32A95E1F708959F3F30F080386D
:104680007105610509F03C5F3C5F3D93913008F096
:104690008068911DDF93CF931F930F93FF92EF924A
:1046A000192F987F9695E92F96959695E90FFF27F4
:1046B000E05AFE4F99273327EE24FF24A701E70194
:1046C00005900894079428F4360FE71EF81E491F3A
:1046D000511D660F771F881F991F0694A1F705903B
:1046E000079428F4E70EF81E491F561FC11D770FC7
:1046F000881F991F661F0694A1F70590079428F458
:10470000F80E491F561FC71FD11D880F991F661F1E
:10471000771F0694A1F70590079420F4490F561FC0
:10472000C71FD81F990F661F771F881F0694A9F708
:1047300084911095177041F0D695C7955795479578
:10474000F794E7941A95C1F7E6E0F1E068941590C4
:10475000159135916591959105907FE27395E118DA
:10476000F10A430B560BC90BD009C0F7E10CF11E3F
:10477000431F561FC91FD01D7EF4703311F48A9554
:10478000E6CFE894015030F0080F0AF40027021732
:1047900008F4202F2395022F7A3328F079E37D93B4
:1047A0002A95E9F710C07D932A9589F60694979586
:1047B0006795379517951794E118F10A430B560B37
:1047C000C90BD00998F023957E9173957A3308F040
:1047D00070E37C932013B8F77E9170617D9330F085
:1047E000839571E37D9370E32A95E1F71124EF90AF
:1047F000FF900F911F91CF91DF91992787FD9095A1
:104800000895FC010590615070400110D8F7809523
:1048100090958E0F9F1F0895FC016150704001908C
:104820000110D8F7809590958E0F9F1F08950F93D4
:104830001F93CF93DF93FB01238121FD03C08FEFF3
:104840009FEF28C022FF16C0468157812481358101
:104850004217530744F4A081B1819D012F5F3F4F60
:10486000318320838C93268137812F5F3F4F37839D
:10487000268310C0EB01092F182F0084F185E02D4D
:104880000995892BE1F68E819F8101969F838E8306
:10489000812F902FDF91CF911F910F910895A0E06C
:1048A000B0E0E5E5F4E20C94D521AE014B5F5F4F3B
:1048B000FA0161917191AF018091B8029091B902B2
:1048C0000E942B1AE2E00C94F1210F931F93CF93D7
:1048D000DF93E091B802F091B902238121FF1BC060
:1048E0008C01D0E0C0E0F80181918F016091B802A5
:1048F0007091B902DB011896ED91FC91199788230C
:1049000031F00995892B79F3DFEFCFEFECCF8AE017
:104910000995892B19F08FEF9FEF02C08D2F9C2FE7
:10492000DF91CF911F910F910895FA01AA272830A6
:1049300051F1203181F1E8946F936E7F6E5F7F4F6C
:104940008F4F9F4FAF4FB1E03ED0B4E03CD0670FE8
:10495000781F891F9A1FA11D680F791F8A1F911D3B
:10496000A11D6A0F711D811D911DA11D20D009F48B
:1049700068943F912AE0269F11243019305D3193CD
:10498000DEF6CF010895462F4770405D4193B3E0B6
:104990000FD0C9F7F6CF462F4F70405D4A3318F05D
:1049A000495D31FD4052419302D0A9F7EACFB4E00E
:1049B000A6959795879577956795BA95C9F70097C6
:1049C0006105710508959B01AC010A2E0694579567
:1049D000479537952795BA95C9F7620F731F841FBE
:0A49E000951FA01D0895F894FFCF65
:1049EA00020103030000000200000000620E000042
:1049FA000000180C041060C080200000BC022000D7
:104A0A005354415254494E472E2E2E004352554973
:104A1A0053494E472E2E2E0049522041564F4944A3
:104A2A00494E472E2E2E00484F4D494E472E2E2EC8
:104A3A0000534F4E41522041564F4944494E472E4A
:104A4A002E2E0057414C4C20464F4C4C4F57494E46
:104A5A00472E2E2E00556E6B6E6F776E2073746123
:104A6A007465210044697374203D20252E33660A3B
:0E4A7A00005374617274696E672E2E2E000058
:00000001FF
