S00C00004C6162362E73726563D3
S11300000C940B030C9428030C9428030C942803DD
S11300100C94830E0C94AC0E0C94D50E0C94FE0E22
S11300200C9428030C94640D0C948D0D0C94B60D53
S11300300C94310E0C94DF0D0C94080E0C945A0E93
S11300400C94E90C0C94120D0C943B0D0C942803A5
S11300500C9428030C9428030C9428030C94280370
S11300600C9428030C9428030C9428030C94280360
S11300700C9428030C9428030C9428030763423639
S1130080B79BD8A71A39685618AEBAAB558C1D3C25
S1130090B7CC5763BD6DEDFD753EF6177231BF00E9
S11300A00000803F08000000BE922449123EABAA23
S11300B0AA2ABECDCCCC4C3E00000080BEABAAAA7E
S11300C0AA3E00000000BF000000803F00000000C6
S11300D000084178D3BB4387D1133D190E3CC3BDFF
S11300E04282AD2B3E68EC8276BED98FE1A93E4CAC
S11300F080EFFFBE01C4FF7F3F00000000006E617F
S11301006E00696E660000407A10F35A00A0724EC9
S113011018090010A5D4E80000E87648170000E4A8
S11301200B54020000CA9A3B000000E1F5050000F0
S113013080969800000040420F000000A086010055
S11301400000102700000000E80300000000640025
S1130150000000000A000000000001000000000090
S11301602C76D888DC674F0823DFC1DFAE59E1B1B4
S1130170B796E5E3E453C63AE651997696E8E6C2C3
S11301808426EB898C9B62ED407C6FFCEFBC9C9FCA
S113019040F2BAA56FA5F490055A2AF75C936B6CEC
S11301A0F9676DC11BFCE0E40D47FEF520E6B500E0
S11301B0D0ED902E0300943577050080841E08004E
S11301C000204E0A000000C80C333333330F986EFE
S11301D012831141EF8D2114893BE65516CFFEE6BB
S11301E0DB18D1844B381BF77C1D901DA4BBE42481
S11301F0203284725E228100C9F124ECA1E53D27FE
S113020016050100000000000000FA000000E000F4
S1130210E00028FE28FE282454FE5448C4C81026B2
S1130220466C92AA44A000A0C0000000384482009A
S1130230008244380028107C102810107C10100014
S11302400A0C00001010101010000606000004082C
S11302501020407C8A92A27C0042FE020042868AE0
S113026092628482A2D28C182848FE08E4A2A2A238
S11302709C3C5292920C808E90A0C06C9292926C94
S11302806092929478006C6C0000006A6C0000101C
S113029028448200282828282800824428104080E6
S11302A08A90604C929E827C7E8888887EFE9292A0
S11302B0926C7C82828244FE82824438FE929292C4
S11302C082FE909090807C8292925EFE101010FECE
S11302D00082FE8200040282FC80FE10284482FE1A
S11302E002020202FE403040FEFE201008FE7C8224
S11302F082827CFE909090607C828A847AFE9098C0
S11303009462629292928C8080FE8080FC0202024F
S1130310FCF8040204F8FC021C02FCC6281028C6DF
S1130320E0100E10E0868A92A2C200FE8282004093
S113033020100804008282FE002040804020020237
S11303400202020080402000042A2A2A1EFE1222F1
S1130350221C1C222222041C222212FE1C2A2A2ACB
S113036018107E908040304A4A4A7CFE1020201E9D
S11303700022BE0200040222BC00FE081422000077
S113038082FE02003E2018201E3E1020201E1C2249
S113039022221C3E28282810102828183E3E10200F
S11303A02010122A2A2A0420FC2202043C020204FD
S11303B03E38040204383C020C023C221408142285
S11303C0300A0A0A3C22262A322200106C820000DB
S11303D000FE000000826C100008101008100000DD
S11303E00000007F8181817F7F8383837F7F878774
S11303F0877F7F8F8F8F7F7F9F9F9F7F7FBFBFBFB1
S11304007F7FFFFFFF7F2040FF40206215171565A7
S113041000FBFB00000000000000C0FF0300E0FF41
S11304200700F0FF0F00F8FF1F0078001E0078009F
S11304301E0078001E0078001E0078001E00780060
S11304401E0078001E0078001E0078001E000000C8
S113045000000000000080FF0300E0FF0700F0FF41
S11304600F00F8FF1F00F83C1F00783C1E00783C8A
S11304701E00783C1E00783C1E00783C1E00783C30
S11304801E00783C1E00783C1E00783C1E00783C20
S11304901E000000000000000000E0FF0300F0FF69
S11304A00700F8FF0F00F8FF1F00783C1E00783C9F
S11304B01E00783C1E00783C1E00783C1E00783CF0
S11304C01E00783C1E00783C1E00783C1E00783CE0
S11304D01E000000000000000000F8FF0300F8FF09
S11304E00F00F8FF1F00F8FF1F0000001E000000AF
S11304F01E0000801F0000F01F0000FF0F00E0FF3F
S11305000700F0FF0000F80F0000F800000078007A
S1130510000078000000F8FF1F00F8FF1F00F0FF44
S11305201F00E0FF1F000000000000000000F8FFB3
S11305301F00F8FF1F00F8FF1F00F8FF1F007800DE
S11305401E00783C1E00783C1E00783C1E00783C5F
S11305501E00783C1E00783C1E00F87E1F00F8FF49
S11305601F00F0FF0F00E0E70300000000000000A0
S11305703800EEFF6C002A8045003A0047FC03FF78
S11305806CFC83FF3900DEFF0B7CD0810BFCD08137
S11305900BC0D0810BFCD0810B7CDEFF0B0082FFF3
S11305A0397002FF6CF83A0047DC2A8045CCEEFF34
S11305B06CCC000038000000000C00001E0C000091
S11305C01E0000001E0000001E0000001E00F8FFB8
S11305D01F00F8FF1F00F8FF1F00F8FF1F000000B6
S11305E01E0000001E0000001E0000001E0000008F
S11305F05E000000400000007C000000400000009D
S1130600400000007C0000003000000010000000EA
S1130610300000007C0011241FBECFEFD8E0DEBF05
S1130620CDBF11E0A0E0B1E0E0E4FFE402C005903A
S11306300D92A038B107D9F722E0A0E8B1E001C0DB
S11306401D92A83AB207E1F70E94A3030C949E27D7
S11306500C9400008FE00E947B0A882311F082E052
S113066003C00E94980381E0992708958FE00E94B7
S1130670890A882319F480E090E0089580917A0033
S1130680806480937A0080917A008295869586951D
S1130690837080FDF8CF20917800809179009927AC
S11306A0982F88273327822B932B0895ECE7F0E0CB
S11306B090819F738295880F880F807C982B9083FC
S11306C00895582F80910001652F77278830D0F442
S11306D040917E0021E030E0F90102C0EE0FFF1FDF
S11306E08A95E2F7CF018095842380937E008091E0
S11306F07E0002C0220F331F6A95E2F7822B80939B
S11307007E000CC020917E0081E090E002C0880F42
S1130710991F6A95E2F7282B20937E0050930001DD
S113072080917C00807E5F71852B80937C0008958E
S11307308FE180937C00EAE7F0E087E080838081AA
S11307408068808308950E94E70C0E94D90C0E945F
S1130750511C80E090E008951F93CF93DF9385E0D0
S11307600E94890A8823D1F060E080E40E94AF04EB
S1130770C0E0D0E060E08C2F0E945A0410E061E0F9
S113078080E00E94AF041F5F1038C9F72196C4307F
S1130790D10581F760E083E00E949D04DF91CF9151
S11307A01F9108950F931F9385E00E947B0A88236D
S11307B011F082E07BC00E94FC04182F0E94FE0A04
S11307C01150123008F06EC08150823008F06AC0B7
S11307D00E94CA0460E08EEA0E94AF0460E082EAEC
S11307E00E94AF0460E080EA0E94AF0400E513ECCD
S11307F0C8010197F1F760E080EC0E94AF0460E06B
S11308008FE20E94AF0460E081E80E94AF0460E0E0
S113081086E10E94AF0460E082E20E94AF04C80156
S11308200197F1F760E08FEA0E94AF0460E086EA86
S11308300E94AF0460E085EA0E94AF0420E030E04B
S1130840E8E8F3E1CF010197F1F72F5F3F4F93E021
S1130850283E3907B9F760E083EB0E94AF0460E0FB
S113086080E40E94AF0460E083E00E945A0460E0E8
S113087083E00E949D0410923E0210924002109266
S11308803F0285E091E09093A5028093A40288E161
S11308900E947C040E94AC0360E084EA0E94AF04DE
S11308A081E004C085E00E946A0A87E099271F91CD
S11308B00F910895FF920F931F93082FF62E85E052
S11308C00E94890A8823A1F01F2D1F77037060E01E
S11308D0802F806B0E94AF0412951F7060E0812FFF
S11308E080610E94AF0460E08F2D8F700E94AF047E
S11308F01F910F91FF9008951F93182F85E00E9478
S1130900890A8823C1F087E00E943F056AE082E0FB
S11309100E949E0561EB82E00E949E05612F1132C8
S113092008F060E282E00E949E0589EE8A95F1F764
S113093087E00E943F051F9108950F931F93082F8E
S1130940162F85E00E94890A882331F003701F77EF
S113095010933C0200933D021F910F9108950F9351
S11309601F93082F162F85E00E94890A882379F0A7
S1130970112319F0113021F402C02B9801C02B9AD5
S113098086E08A95F1F7602F80E00E949E051F9112
S11309900F910895239A089586E00E947B0A882384
S11309A011F082E003C00E94E40481E099270895D5
S11309B01F93182F86E00E94890A882319F0812F3B
S11309C00E94ED041F910895559A569A80E20E9460
S11309D0001080E40E9400100895282F332725FF7B
S11309E004C08BB190E289278BB926FF04C08BB178
S11309F090E489278BB9089582E00E947B0A8823BA
S1130A0011F082E031C00E94AD0565E970E180E03B
S1130A100E9436056DE870E181E00E94360565E8C4
S1130A2070E182E00E94360564E770E186E00E948E
S1130A3036056DE770E183E00E9436056DE770E1ED
S1130A4084E00E9436056DE770E185E00E9436057A
S1130A506DE770E187E00E9436058FEF80934102D5
S1130A6087E00E943F0581E099270895E82FFF273A
S1130A70EE0FFF1FE153FE4F7183608308951F93B0
S1130A80182F82E00E94890A882309F455C0912F07
S1130A90977080914102981709F44EC090934102D7
S1130AA085B1887F892B85B9933051F1943028F42E
S1130AB0913051F09230B0F40EC0953079F1953008
S1130AC030F1963091F515C0E091D101F091D20149
S1130AD0309791F130C0E091CF01F091D00130977F
S1130AE059F129C0E091D301F091D401309721F15B
S1130AF022C0E091DB01F091DC013097E9F01BC0EA
S1130B00E091D501F091D6013097B1F014C0E09195
S1130B10D701F091D801309779F00DC0E091D90157
S1130B20F091DA01309741F006C0E091DD01F091D7
S1130B30DE01309709F009951F9108951F93162F30
S1130B400E943F0582E00E94890A882321F01EBD8D
S1130B500DB407FEFDCF1F910895259A2698279A74
S1130B60209A219A229A08952F923F924F925F924F
S1130B706F927F928F929F92AF92BF92CF92DF92A9
S1130B80EF92FF920F931F93CF93DF93CDB7DEB70E
S1130B9022970FB6F894DEBF0FBECDBF382E962E27
S1130BA0242E290138011C2DBA82A982B82C6B8D00
S1130BB07C8DAD8C81E0981609F1981628F092E0AE
S1130BC0991609F062C039C0B70180E00E94C807D5
S1130BD049E7C42E42E0D42E31E0E32E012F9301E5
S1130BE0A201622D80E00E948308332009F04DC0E9
S1130BF089819A819F938F931F9219C081E00E94EB
S1130C00C80729E7C22E22E0D22E91E0E92E0A2D50
S1130C10298D3A8D4F89588D682D81E00E94830873
S1130C20332099F58E8D9F8D9F938F939F920E9471
S1130C30BF090F900F900F9028C0C7010E94E907C9
S1130C4089E792E09F938F9381E0882EC98CDA8C98
S1130C50EF88F88C0B2D212FA301B201822D0E9465
S1130C6015090F900F90332081F48E8D9F8D9F93E3
S1130C708F9389819A819F938F939F920E94BF093A
S1130C800F900F900F900F900F9022960FB6F8943C
S1130C90DEBF0FBECDBFDF91CF911F910F91FF90AB
S1130CA0EF90DF90CF90BF90AF909F908F907F9008
S1130CB06F905F904F903F902F9008958F929F92E6
S1130CC0AF92BF92CF92DF92EF92FF920F931F9356
S1130CD0CF93DF93CDB7DEB7562F942EAC2DEF858F
S1130CE0F889C988DA886B897C894D898130C1F19A
S1130CF0813030F1823009F04CC0513071F0513004
S1130D0020F0523009F045C011C0B70180E00E94C4
S1130D10C807A801692D80E006C081E00E94C807C9
S1130D20A601682D81E00E944C0733C0C7010E94D0
S1130D30E9079601482DB801892D0E94630729C04F
S1130D408E899F899F938F934F937F936F93DF92A5
S1130D50CF92FF93EF93CA2E492D652F80E00FC0E9
S1130D601F921F924F937F936F93DF92CF92FF93C3
S1130D70EF93AA24BB24CA2E492D652F81E00E943B
S1130D80B4058DB79EB709960FB6F8949EBF0FBEF3
S1130D908DBFDF91CF911F910F91FF90EF90DF9066
S1130DA0CF90BF90AF909F908F90089587E00E945E
S1130DB07B0A882311F082E06DC00E942E0A81E034
S1130DC080937802109242021092430210924502DC
S1130DD01092440210924702109246021092490265
S1130DE01092480210924B0210924A0210924D0245
S1130DF010924C0210924F0210924E021092510225
S1130E001092500210925302109252021092550204
S1130E1010925402109257021092560210925902E4
S1130E201092580210925B0210925A0210926002C1
S1130E301092610210926202109263021092650293
S1130E401092660210926702109268021092690270
S1130E5010926A0210926B0210926D0210926C0250
S1130E6010926F0210926E02109271021092700230
S1130E70109273021092720210925D0210925C0240
S1130E8010925F0210925E02109277021092760224
S1130E901092780299270895EF92FF920F931F936F
S1130EA0182F062F7A0160E00E942408602F812FFA
S1130EB00E940508B701812F0E9439081F910F91E4
S1130EC0FF90EF900895CF92DF92EF92FF920F93ED
S1130ED01F93C82E7B01D42E890160E082E00E941A
S1130EE024086D2D8C2D0E941A08B801C7010E9498
S1130EF065081F910F91FF90EF90DF90CF900895B8
S1130F002EEF8037920714F480E79EEF9C0181E076
S1130F102139380714F020E931E08EEF6037780783
S1130F2014F460E77EEF81E06139780714F060E93A
S1130F3071E091E0909378021092650237FD02C04F
S1130F4090936502809165028927809365021092CF
S1130F50660277FD02C0909366028091660289273B
S1130F6080936602C90137FF03C0909581959F4F16
S1130F70909345028093440277FF03C07095619576
S1130F807F4F70934702609346021092780208954F
S1130F90982F81E08093780283E0693E780710F00F
S1130FA068EE73E0913071F0913018F0923071F482
S1130FB005C070934D0260934C0208C070934D02BB
S1130FC060934C0270934F0260934E021092780229
S1130FD0089521E020937802F89423E0893E920753
S1130FE010F088EE93E090934D0280934C0283E0DE
S1130FF0693E780710F068EE73E070934F026093D7
S11310004E027894109278020895982F81E080938C
S11310107802913051F0913018F0923041F403C0CD
S11310206093650204C06093650260936602109247
S11310307802089591E0909378028093650260931A
S11310406602109278020895982F81E080937802C6
S1131050913051F0913018F0923041F403C0609314
S1131060420204C0609342026093430210927802E9
S11310700895982F81E08093780281E061397807A0
S113108010F060E971E0913061F0913018F0923025
S1131090C9F40EC0F89470934502609344027894A6
S11310A011C0F894709347026093460278940AC082
S11310B0F8947093450260934402709347026093DE
S11310C0460278941092780208959C0181E08093FE
S11310D07802F89481E06139780710F060E971E0F2
S11310E07093470260934602C90121E08139920757
S11310F010F080E991E09093450280934402789443
S11311001092780208958F929F92AF92BF92CF92DD
S1131110DF92EF92FF920F931F93CF93DF93182FD9
S1131120F62E4A015901E60187E00E94890A8823C4
S113113009F46EC061E0812F0E942408A501B40166
S1131140812F0E9487126F2D812F0E940508602F26
S1131150812F0E947212B401812F0E944912CD285E
S113116099F0113049F0113018F0123069F406C0CA
S113117018821092740208C0198204C0188219825D
S11311801092740210927502D0937702C093760283
S1131190EE20B9F580E891E090937702809376028F
S11311A0B501812F0E943908812F0E943412113019
S11311B071F0113018F0123059F512C010928001FC
S11311C01092740280918001882311F5FBCF109254
S11311D0810110927502809181018823C9F4FBCFAB
S11311E01092800110928101109274021092750283
S11311F0809180018823E1F3809181018823C1F3E8
S113120007C0B501812F0E943908812F0E94341232
S1131210DF91CF911F910F91FF90EF90DF90CF90CE
S1131220BF90AF909F908F9008953F924F925F929E
S11312306F927F928F929F92AF92BF92CF92DF92E2
S1131240EF92FF920F931F93CF93DF93CDB7DEB747
S1131250382E2B013A01922EB02E0C891D8987E07D
S11312600E94890A882309F453C061E082E00E9445
S11312702408A301B20180E00E948712A601B701ED
S113128081E00E9487126B2D832D0E941A08692D1C
S113129080E00E9472126A2D81E00E947212B701EE
S11312A0C2010E9464120115110539F0F80110827F
S11312B011821092740210927502109377020093B7
S11312C076028820F1F482E891E09093770280938B
S11312D07602B601C3010E94650882E00E943412BE
S11312E0109282011092830110927402109275027E
S11312F0809182018823E1F3809183018823C1F3E3
S113130007C0B601C3010E94650882E00E9434123E
S1131310DF91CF911F910F91FF90EF90DF90CF90CD
S1131320BF90AF909F908F907F906F905F904F9001
S11313303F9008950F931F93182F062F662349F4A7
S113134060E070E00E94390860E070E0812F0E9444
S1131350491281E080937802113051F0113018F075
S1131360123041F403C00093600204C00093600291
S113137000936102109278021F910F910895CF9209
S1131380DF92EF92FF920F931F93CF93DF93CDB72A
S1131390DEB722970FB6F894DEBF0FBECDBF1D8512
S11313A087E00E94890A882309F449C0113099F022
S11313B0113020F0123009F042C01BC0CE0140961B
S11313C09A838983EE85FF85809179028823E1F3EE
S11313D03097A9F10CC0CE0140969A838983EE859B
S11313E0FF8580917A028823E1F3309741F10995D2
S11313F026C0CE84DF84CE0142969A838983E8880E
S1131400F98800E010E0002351F4809179028823E8
S113141031F0C114D10411F0F601099501E0112352
S113142051F480917A02882331F0E114F10411F02F
S1131430F701099511E0002331F3112321F32296DA
S11314400FB6F894DEBF0FBECDBFDF91CF911F91D1
S11314500F91FF90EF90DF90CF9008953A9A3B9AC6
S11314603C9A3D9A3E9A3F9A88B1837088B9089510
S11314708BE00E947B0A8823A9F489E00E94890AF0
S1131480882369F410927C0210927B0264EC72E16E
S11314908DE00E94270F0E94550A81E004C08BE072
S11314A00E946A0A82E09927089510928000E1E878
S11314B0F0E01082808188608083808181608083F5
S11314C010928500109284001092890088EC809319
S11314D088000895853160F4E82FFF27E95DFD4F0A
S11314E08081882329F0808181508083808101C09C
S11314F08FEF99270895853110F080E008C0E82F18
S1131500FF27E95DFD4F80818F5F8083815099279C
S11315100895853110F080E007C0E82FFF27E95DCA
S1131520FD4F8081811181E0992708951F93182F21
S113153080918501882341F080918C01882399F062
S11315401092850110928C010E94CC0A8093840130
S113155028E230E040E061E086E891E00E94990BE7
S113156081E08093850190918401133018F0133049
S113157079F409C0E12FFF27EF5FFE4F80818923B3
S113158041F081E006C091FF03C0892F817001C042
S113159080E099271F9108950F931F9381E00E9483
S11315A0890A882311F400E024C087E00E943F05E3
S11315B06AE082E00E949E0562EB82E00E949E0542
S11315C018EC812F8A95F1F760E082E00E949D106B
S11315D0082F812F8A95F1F760E082E00E949D1028
S11315E01A95F1F787E00E943F0588E893E1019797
S11315F0F1F7802F99271F910F910895CF93DF93CF
S1131600CDB7DEB723970FB6F894DEBF0FBECDBFBC
S113161081E00E947B0A882311F082E011C00E94BD
S1131620FC048150823040F40E942A0BCE010196C2
S11316300E940C1381E004C081E00E946A0A87E0E2
S1131640992723960FB6F894DEBF0FBECDBFDF9166
S1131650CF910895109292021092910210929402E6
S11316601092930210929602109295021092980290
S11316701092970210929A021092990280E991E0D6
S113168090937E0280937D029093800280937F02E8
S113169090938202809381029093840280938302C8
S11316A0909386028093850284E398E09093880265
S11316B08093870290938A028093890290938C028C
S11316C080938B0290938E0280938D02909390026C
S11316D080938F0208950F931F93CF93DF93CDB719
S11316E0DEB729970FB6F894DEBF0FBECDBF8C01CD
S11316F088E00E94890A882311F491E00DC09801C2
S113170040E061E0CE0101960E94990B982F882356
S113171019F48F818823E9F3892F992729960FB625
S1131720F894DEBF0FBECDBFDF91CF911F910F9113
S11317300895EF92FF920F931F93CF93DF93EC01E1
S1131740F62EE42E890188E00E94890A882311F488
S113175081E026C084E090E00E94BD24FC01892B36
S113176011F482E01DC0F982F0FC1E8281E0E816CB
S113177019F48981846089838981886089831B83C2
S11317800A831D830C83D183C0831382128281E078
S11317908093EF01CF010E94D80B1092EF0180E0FB
S11317A09927DF91CF911F910F91FF90EF900895AA
S11317B0CF92DF92EF92FF920F931F93CF93DF9319
S11317C0EC0180919B02882339F4D0939D02C0934D
S11317D09C020E94871347C0C0909C02D0909D0237
S11317E000E010E0EE24FF2429C0A881B981FD01A6
S11317F064817581F60140815181FA01848195816A
S11318009B01281B390B37FF0AC0861B970B958356
S11318108483DB82CA82012BF1F0F70122C0F60136
S1131820828193812115310581F0FD013583248363
S11318300097B1F00F5F1F4F76016C0180919B02FE
S113184099270817190788F20BC0FD011582148225
S11318509B838A8305C0D0939D02C0939C0203C0DE
S1131860F601D383C28380919B028F5F80939B0296
S1131870DF91CF911F910F91FF90EF90DF90CF9068
S113188008958CE00E947B0A882311F082E01EC038
S11318908BE00E94890A8823A9F40E94380A8130C7
S11318A089F480E00E94491328EE33E0E4EFF1E08C
S11318B0CF010197F1F721503040D1F70E94D60CA7
S11318C081E004C08CE00E946A0A87E099270895A9
S11318D0EF92FF920F931F938CE00E94890A882352
S11318E009F45DC00E94CC12139A81E28A95F1F743
S11318F013980B9881E0E82EF12C012D112D80B165
S113190086958695869580FD34C00894E11CF11C6B
S1131910011D111D80E2E81681EAF80687E0080738
S113192080E0180761F739C00E94D51221E030E049
S113193040E050E080B186958695869580FF26C06C
S11319402F5F3F4F4F4F5F4F203281EA380787E0C8
S1131950480780E05807B9F0EDCF0E94DD1280E21D
S1131960E81681EAF80687E0080780E01807A8F47B
S11319700FC082E48A95F1F780B1869586958695A5
S113198080FDD2CFEACF0E94DD1207C00E94DD1293
S11319900B9A13980E94C71204C00B9A139880E004
S11319A090E01F910F91FF90EF9008950B9A139878
S11319B008950E94F5120E9412100E943A0F0E948C
S11319C06A130E94FC040E94FE0A789408950000A1
S11319D008951F920F920FB60F9211242F933F93E5
S11319E04F935F936F937F938F939F93AF93BF9323
S11319F0EF93FF93E091AF01F091B001309709F0BC
S1131A000995FF91EF91BF91AF919F918F917F9134
S1131A106F915F914F913F912F910F900FBE0F9057
S1131A201F9018951F920F920FB60F9211242F93A7
S1131A303F934F935F936F937F938F939F93AF9352
S1131A40BF93EF93FF93E091B101F091B20130970E
S1131A5009F00995FF91EF91BF91AF919F918F91FB
S1131A607F916F915F914F913F912F910F900FBE96
S1131A700F901F9018951F920F920FB60F9211247A
S1131A802F933F934F935F936F937F938F939F9382
S1131A90AF93BF93EF93FF93E091B301F091B4013F
S1131AA0309709F00995FF91EF91BF91AF919F9104
S1131AB08F917F916F915F914F913F912F910F90F3
S1131AC00FBE0F901F9018951F920F920FB60F9292
S1131AD011242F933F934F935F936F937F938F932F
S1131AE09F93AF93BF93EF93FF93E091A101F09184
S1131AF0A201309709F00995FF91EF91BF91AF9141
S1131B009F918F917F916F915F914F913F912F9111
S1131B100F900FBE0F901F9018951F920F920FB643
S1131B200F9211242F933F934F935F936F937F935F
S1131B308F939F93AF93BF93EF93FF93E091A30190
S1131B40F091A401309709F00995FF91EF91BF91AD
S1131B50AF919F918F917F916F915F914F913F9141
S1131B602F910F900FBE0F901F9018951F920F92F8
S1131B700FB60F9211242F933F934F935F936F935C
S1131B807F938F939F93AF93BF93EF93FF93E091D2
S1131B90A501F091A601309709F00995FF91EF9105
S1131BA0BF91AF919F918F917F916F915F914F9171
S1131BB03F912F910F900FBE0F901F9018951F9279
S1131BC00F920FB60F9211242F933F934F935F936D
S1131BD06F937F938F939F93AF93BF93EF93FF93F1
S1131BE0E091A901F091AA01309709F00995FF91BC
S1131BF0EF91BF91AF919F918F917F916F915F9181
S1131C004F913F912F910F900FBE0F901F901895F9
S1131C101F920F920FB60F9211242F933F934F935D
S1131C205F936F937F938F939F93AF93BF93EF9340
S1131C30FF93E091AB01F091AC01309709F0099565
S1131C40FF91EF91BF91AF919F918F917F916F9190
S1131C505F914F913F912F910F900FBE0F901F9066
S1131C6018951F920F920FB60F9211242F933F9342
S1131C704F935F936F937F938F939F93AF93BF9390
S1131C80EF93FF93E091A701F091A801309709F039
S1131C900995FF91EF91BF91AF919F918F917F91A2
S1131CA06F915F914F913F912F910F900FBE0F90C5
S1131CB01F9018951F920F920FB60F9211242F9315
S1131CC03F934F935F936F937F938F939F93AF93C0
S1131CD0BF93EF93FF93E091AD01F091AE01309784
S1131CE009F00995FF91EF91BF91AF919F918F9169
S1131CF07F916F915F914F913F912F910F900FBE04
S1131D000F901F9018951F920F920FB60F921124E7
S1131D102F933F934F935F936F937F938F939F93EF
S1131D20AF93BF93EF93FF93E0919701F0919801E4
S1131D30309709F00995FF91EF91BF91AF919F9171
S1131D408F917F916F915F914F913F912F910F9060
S1131D500FBE0F901F9018951F920F920FB60F92FF
S1131D6011242F933F934F935F936F937F938F939C
S1131D709F93AF93BF93EF93FF93E0919901F091F9
S1131D809A01309709F00995FF91EF91BF91AF91B6
S1131D909F918F917F916F915F914F913F912F917F
S1131DA00F900FBE0F901F9018951F920F920FB6B1
S1131DB00F9211242F933F934F935F936F937F93CD
S1131DC08F939F93AF93BF93EF93FF93E0919B0106
S1131DD0F0919C01309709F00995FF91EF91BF9123
S1131DE0AF919F918F917F916F915F914F913F91AF
S1131DF02F910F900FBE0F901F9018951F920F9266
S1131E000FB60F9211242F933F934F935F936F93C9
S1131E107F938F939F93AF93BF93EF93FF93E0913F
S1131E209D01F0919E01309709F00995FF91EF9182
S1131E30BF91AF919F918F917F916F915F914F91DE
S1131E403F912F910F900FBE0F901F901895E82F80
S1131E50803268F48051833050F0FF27EE0FFF1F6B
S1131E60E157FE4F8081918171836083089580E002
S1131E7090E0089580E10E947B0A882311F082E0BB
S1131E8009C0EFE8F1E01192119281E0EF3CF8070C
S1131E90D1F781E0992708950F931F93CF93DF9390
S1131EA0082F11278A3091F08B3040F4883091F15B
S1131EB0893020F5873009F049C037C08D3049F0AA
S1131EC08B3181F08C3009F041C006C010923C0285
S1131ED003C010923C027AC080913D0281508093ED
S1131EE03D0274C00E94AC037DC061E080E00E94AA
S1131EF0AF0480913C028F5F80933C0280913C024E
S1131F0087FFF3CF10923C0280913D028150809371
S1131F103D0268C080913C02882309F457C0809137
S1131F203C02865080933C0251C081E00E9485119E
S1131F3024E630E04DE750E064EF71E080E090E0AB
S1131F400E94921181E00E94D61040C060913C0230
S1131F5080913D020E945A04E801CC0FDD1FCC0F92
S1131F60DD1FC00FD11FCD59DE4F10E0FE0184915B
S1131F7061E00E94AF041F5F21961530B9F761E05C
S1131F8080E00E94AF0480913C028A5F80933C020F
S1131F9080913C0299278C3791053CF010923C02C9
S1131FA080913D02815080933D0280913D02837077
S1131FB080933D0280913E028130D9F4E0913F024A
S1131FC0F09140023097A9F0099513C060913C024A
S1131FD080913D020E945A0480913D028370809357
S1131FE03D0207C060913C0280913D020E945A0468
S1131FF0DCCF80E090E0DF91CF911F910F910895A5
S11320001F93182F86E00E94890A882319F0812FD4
S11320100E940C101F910895992785FD5D9886FDF7
S11320205E980895F8940E94711081E00E941B103C
S113203081E090E00895813071F0F894813059F096
S1132040813030F08230C9F0833009F046C01AC0C4
S113205080E090E020C02C9A80E880936100109288
S1132060610080E090E00000019688329105D9F784
S11320701092680010926B00089580E880936100CC
S113208083E004C080E88093610088E0809361006D
S113209026C0000001962DE680369207D1F72C98D1
S11320A080E090E0000001962DE680369207D1F79B
S11320B010927A008FEF80936400809168008160B1
S11320C08093680080916B00846080936B007894A7
S11320D083B7816083BF88950895823008F078942F
S11320E00895249A2C9A089583E58CBD81E08DBDD2
S11320F084EF91E00197F1F7089583E58CBD81E0C9
S11321008DBD8DE08A95F1F7089583E58CBD1DBCE6
S113211084EF91E00197F1F708958FE78CBD1DBC22
S113212084EF91E00197F1F7089583E58CBD81E098
S11321308DBD8DE08A95F1F708951F93162F0E94A7
S11321403F0582E00E94890A882329F01EBD0DB450
S113215007FEFDCF8EB599271F9108958AE00E944E
S11321606A0A882329F481E00E94E8111092E001B0
S1132170089589E00E946A0A8823B9F48091DF01F6
S1132180882311F00E942E1282E00E94E8118091AF
S1132190ED019091EE01009731F00E9452251092CA
S11321A0EE011092ED011092DF010895813029F0C3
S11321B0823029F40E94B91008950E94AE10089547
S11321C0CF92DF92EF92FF920F931F93CF93DF93FF
S11321D080E291E00E94BD24EC019093EE01809393
S11321E0ED01892B11F480E044C0CC24DD24EE24DD
S11321F0FF248701C801B7010E945621D7FE06C0FB
S113220020E030E040E857E40E943B2020E030E04A
S113221040EA51E40E94AC2027EF35E740E05FE359
S11322200E9448229B01AC0160E070E080E291E4EE
S11322300E94B5222DEC3CEC42E851E40E94482275
S11322400E940B222AE030E040E050E00E943A2451
S113225069937993899399930894C11CD11C089428
S1132260E11CF11C011D111D88E4C816D10411F6EE
S113227081E09927DF91CF911F910F91FF90EF900B
S1132280DF90CF9008958AE00E947B0A882311F0A2
S113229082E00AC01092EA011092E90181E00E94F2
S11322A0041281E08093E001992708951F9389E047
S11322B00E947B0A882311F082E024C08BE00E94F4
S11322C0890A8823D9F40E94E010182F813011F074
S11322D086E018C01092E1011092E2011092E3012D
S11322E01092E40166EB73E18DE00E94270F82E017
S11322F00E9404121093DF0181E004C089E00E946F
S11323006A0A87E099271F910895813021F082306D
S113231029F084E005C00E94431102C00E945611B6
S1132320992708956F927F928F929F92AF92BF9256
S1132330CF92DF92EF92FF920F931F93CF93DF938D
S11323403B014C015A01E9018AE00E94890A882371
S113235081F1209741F1B501882777FD8095982F69
S11323609E01C536D10510F024E630E044275527F8
S11323700E943A2424E630E040E050E00E944A24DF
S113238079018A01C401B3010E94B913C7010E94F3
S11323906B0B60E070E080E090E00E94B913C5012F
S11323A08E199F0904C0A114B10419F0C5010E943B
S11323B06B0BDF91CF911F910F91FF90EF90DF9006
S11323C0CF90BF90AF909F908F907F906F90089523
S11323D0823029F4809181008E7F809381008091E6
S11323E0DF01813031F48091E001813011F400008B
S11323F008958091DF01813021F08091E0018130E6
S113240011F45F9857980895982F8091DF018823DD
S113241031F48091E001882311F4579A5F988091F8
S1132420DF018823D1F49230C1F41092800010921D
S11324308100809181008860809381008091810077
S1132440816080938100109285001092840081E065
S11324508093890080E9809388000895EFE6F0E096
S113246080818D7F80830895982F81E08093780206
S1132470913051F0913018F0923041F403C0109231
S1132480600204C0109260021092610210927802FD
S11324900895982F81E080937802913071F0913003
S11324A018F0923071F405C0709355026093540291
S11324B008C070935502609354027093570260935E
S11324C0560210927802089521E0209378029093A6
S11324D055028093540270935702609356021092EF
S11324E078020895982F81E080937802913051F01A
S11324F0913018F0923041F403C06093620204C03A
S113250060936202609363021092780208950F93BD
S11325101F93CF93DF938B01EA01813031F1813036
S113252018F0823061F513C080914C0290914D02F5
S1132530892B11F080E008C01092590210925802C1
S11325401EC0AE01B80181E00E941E1418C0809123
S11325504C0290914D02892B21F080E00E941E14C0
S113256004C0109259021092580280914E02909128
S11325704F02892B31F710925B0210925A02DF91BD
S1132580CF911F910F9108950E949A1308958091FD
S11325907B0290917C02089580917B0290917C0251
S11325A010927C0210927B0208958BE00E94890AAB
S11325B0882311F00E94E91208958BE00E94890A91
S11325C0882311F00E94EF1280917B0290917C028B
S11325D00895EFE6F0E08081826080830895EFE65D
S11325E0F0E080818D7F80830895CF93DF93C0E0F6
S11325F0D0E060E08C2F0E9404132196C531D105F0
S1132600C1F7DF91CF910895853128F4E82FFF2792
S1132610E95DFD4F608308951F93CF93DF93EC0131
S1132620892B99F181E00E94890A882351F187E07E
S11326300E943F0518EC812F8A95F1F76AE082E049
S11326400E949E0564EB82E00E949E05812F8A957C
S1132650F1F760E082E00E949D108883812F8A95C3
S1132660F1F760E082E00E949D1089831A95F1F7EA
S113267060E082E00E949D108A8387E00E943F050B
S113268004C0188219828DE28A83DF91CF911F9151
S113269008951F93182F81E00E94890A8823C1F0AE
S11326A087E00E943F0588EC8A95F1F76AE082E0B2
S11326B00E949E0565EB82E00E949E05612F82E0E8
S11326C00E949E0589EE8A95F1F787E00E943F05F6
S11326D01F91089588E00E947B0A882311F082E00C
S11326E014C010929B0210929D0210929C021092B0
S11326F0EF011092F00169E874E180E10E94A613F1
S11327000E948B130E94941381E09927089581E01D
S11327108093F001089584B5826084BD85B584609A
S113272085BD8EE487BD0895EEE6F0E08081826089
S113273080830895CF93DF93CBE7D2E0888199819A
S1132740019688839983DF91CF910895803218F0A0
S113275080E090E00895E82FFF27EE0FFF1FE15778
S1132760FE4F808191817183608308950E94DD13FF
S11327700895EF92FF920F931F937B018C018AE0DF
S11327800E94890A8823A1F08091E001882381F0C6
S1132790D801C701880F991FAA1FBB1F9093EC0192
S11327A08093EB01E114F1040105110509F45F982C
S11327B01F910F91FF90EF9008958091E101909106
S11327C0E201A091E301B091E4012091E50130918F
S11327D0E6014091E7015091E801820F931FA41F85
S11327E0B51F8093E1019093E201A093E301B093BC
S11327F0E4018091E1019091E201A091E301B091A3
S1132800E4018851964FA040B040BCF08BB1805891
S11328108BB98091E1019091E201A091E301B09123
S1132820E4018851964FA040B0408093E101909319
S1132830E201A093E301B093E4010895EF92FF92C3
S11328400F931F93CF93DF93EB01882321F0813003
S113285009F058C02CC0CA019C0144275527CA015D
S1132860B9010E943A2420914C0230914D02220F6A
S1132870331F442755270E944A2479018A01220FD5
S1132880331F441F551FCE01AA27BB278217930766
S1132890A407B50728F0F0925902E092580232C01A
S11328A0D695C795D0935902C09358022BC0CA013C
S11328B09C0144275527CA01B9010E943A2420915A
S11328C04E0230914F02220F331F442755270E9496
S11328D04A2479018A01220F331F441F551FCE0158
S11328E0AA27BB2782179307A407B50728F0F092FD
S11328F05B02E0925A0206C0D695C795D0935B025C
S1132900C0935A02DF91CF911F910F91FF90EF90E6
S113291008950E9490140E94D1140E94AA1408954C
S113292088E00E94890A882311F484E011C0809110
S1132930F001882311F483E00BC08091EF01882318
S113294011F082E005C00E941C178130E1F380E0A1
S1132950992708958091E001813011F58091E90172
S11329609091EA012091EB013091EC01820F931FC9
S11329709093EA018093E9018091E9019091EA0141
S1132980885E93406CF08BB180588BB98091E901DB
S11329909091EA01885E93409093EA018093E90163
S11329A0089587E00E94890A882309F4AAC08091C7
S11329B04C0290914D02892B09F180917002909103
S11329C0710220914C0230914D02820F931F90931B
S11329D07102809370028091700290917102885EFE
S11329E09340A4F08091700290917102885E9340AC
S11329F0909371028093700241E009C08091440277
S1132A0090914502909349028093480240E080915E
S1132A104E0290914F02892B09F18091720290919C
S1132A20730220914E0230914F02820F931F9093B4
S1132A307302809372028091720290917302885E95
S1132A409340A4F08091720290917302885E934047
S1132A50909373028093720261E009C080914602F0
S1132A609091470290934B0280934A0260E0842F36
S1132A700E94821580916C0290916D02209148020F
S1132A8030914902820F931F90936D0280936C02E0
S1132A9080916C0290916D02885E934014F440E042
S1132AA00BC080916C0290916D02885E934090936C
S1132AB06D0280936C0241E080916E0290916F02EE
S1132AC020914A0230914B02820F931F90936F0220
S1132AD080936E0280916E0290916F02885E9340A3
S1132AE014F460E00BC080916E0290916F02885ED6
S1132AF0934090936F0280936E0261E0842F0E9452
S1132B00C71508958823F1F02091440230914502BD
S1132B108091480290914902281B390B1216130622
S1132B2034F48091480290914902019607C0232B06
S1132B3049F080914802909149020197909349028B
S1132B4080934802662311F1209146023091470296
S1132B5080914A0290914B02281B390B12161306DE
S1132B6054F480914A0290914B02019690934B0247
S1132B7080934A020895232B49F080914A02909150
S1132B804B02019790934B0280934A0208950F934E
S1132B901F93082F162F80917802882309F0E3C031
S1132BA080916002882309F05AC080914802909174
S1132BB04902892BE9F48091F101837E8093F1012C
S1132BC01092690280917402882309F45BC06091B9
S1132BD0620280E00E949A09E0917602F091770205
S1132BE0309709F44FC081E08083109274024AC088
S1132BF080914202813041F48091540290915502B7
S1132C00019711F401E002C00023E1F19091F10178
S1132C10937EE0916702FF27ED5EFE4F8081982B43
S1132C209093F10180916502882321F480916702D9
S1132C308F5F03C080916702815080936702809107
S1132C40670283708093670281E0809369028091B8
S1132C5042028130B9F480E00E94C61613C09091FC
S1132C60F101937EE0916702FF27ED5EFE4F8081C4
S1132C70982B9093F10182E08093690210924902AB
S1132C801092480280916102882309F059C0809112
S1132C904A0290914B02892BE9F48091F1018F71E2
S1132CA08093F10110926A0280917502882309F4DD
S1132CB05AC06091630281E00E949A09E091760211
S1132CC0F0917702309709F44EC081E0818310922D
S1132CD0750249C080914302813041F480915602CB
S1132CE090915702019711F411E002C01123D9F118
S1132CF09091F1019F71E0916802FF27E95EFE4F18
S1132D008081982B9093F10180916602882321F4AD
S1132D10809168028F5F03C0809168028150809324
S1132D2068028091680283708093680281E08093D6
S1132D306A02809143028130B1F40E94C61613C026
S1132D409091F1019F71E0916802FF27E95EFE4FC7
S1132D508081982B9093F10182E080936A02109213
S1132D604B0210924A0280916B02882331F4412F66
S1132D70602F81EF91E00E948B1788B1837090914E
S1132D80F101892B88B91F910F9108951F93182F72
S1132D90882321F0813009F04DC027C0809154026E
S1132DA090915502892B49F08091540290915502DB
S1132DB00197909355028093540280917402882362
S1132DC0C9F5209154023091550280915802909196
S1132DD059022817390771F560E070E080E00E941D
S1132DE0390881E08093740225C080915602909145
S1132DF05702892B49F0809156029091570201970E
S1132E00909357028093560280917502882391F41F
S1132E10209156023091570280915A0290915B02A0
S1132E202817390739F460E070E081E00E9439081E
S1132E30109375021F910895FF920F931F93CF93E0
S1132E40DF9380919B02882309F459C000919C026E
S1132E5010919D02F801C081D1818C819D810197DF
S1132E609D838C83181619060CF449C0898180FF50
S1132E7005C08E81882311F481E08E83898181FFCE
S1132E8003C0EF81F885099580919B028230A8F0F8
S1132E90F8018281938190939D0280939C02138216
S1132EA01282E0910000F09101008481958118164E
S1132EB019063CF081E0F82E05C010929D02109294
S1132EC09C02FF2480919B02815080939B028091FD
S1132ED09B02882311F40E948817898182FF08C00D
S1132EE08A819B819D838C83C8010E94D80B08C072
S1132EF0C8010E94522589818F7E898301C0FF24E5
S1132F008F2D9927DF91CF911F910F91FF900895F5
S1132F101092F0010895FC0180916902823069F4F5
S1132F208091F50191E089278093F501882309F0C8
S1132F303EC08081837E80833AC080914802909114
S1132F404902C397A4F56623D1F020914802309139
S1132F50490280E690E0BC01269FC001279F900DA6
S1132F60369F900D1124880F892F881F990B9093F9
S1132F705D0280935C0281E08093F30118C080912C
S1132F80F3018823A1F080915C0290915D02019786
S1132F9090935D0280935C0280915C0290915D024B
S1132FA0892B29F48081837E80831092F3018091A0
S1132FB06A02823069F48091F40191E08927809358
S1132FC0F401882309F03EC080818F7180830895C5
S1132FD080914A0290914B02C397A4F54423D1F007
S1132FE020914A0230914B0280E690E0AC01249F8C
S1132FF0C001259F900D349F900D1124880F892FB7
S1133000881F990B90935F0280935E0281E0809306
S1133010F20108958091F2018823A1F080915E026B
S113302090915F02019790935F0280935E0280917A
S11330305E0290915F02892B29F480818F718083D5
S11330401092F2010895CF93DF93FC013081209117
S11330501D02321303C02081211125C0EC010E94FE
S1133060AC0388818230A9F038F4882361F0813080
S113307099F48DE291E012C0833041F0843061F420
S113308082E591E00BC081E291E008C089E391E020
S113309005C088E491E002C084E691E00E94102714
S11330A0888180931D02DF91CF910895DC01FB019B
S11330B09C918081981325C011962D913C91129773
S11330C08181928128173907E1F413962D913C915F
S11330D01497838194812817390799F415962D91B3
S11330E03C911697858196812817390751F41796D4
S11330F04D915C9118972781308581E042175307E1
S113310009F080E00895CF93DF93EC019B01809157
S11331101C0281110AC041E061E083E192E00E9457
S1133120990B81E080931C0211C0809119028823BD
S113313069F080E40E94D80480E00E94960A8883A3
S113314081E00E94960A898310921902DF91CF913F
S11331500895CF93DF93EC019B01809112028111BA
S11331600AC041E061E089E092E00E94990B81E0AD
S1133170809312023DC080910F028823C9F180E23E
S11331800E94D80486E00E9461030E943603BC01B9
S113319080E090E00E94542120E030E040EA50E4D6
S11331A00E94482220E030E040E85AE30E9448228E
S11331B06A837B838C839D8384E00E9461030E94E5
S11331C03603BC0180E090E00E94542120E030E00E
S11331D040EA50E40E94482220E030E040E85AE30C
S11331E00E9448226E837F838887998710920F02FA
S11331F0DF91CF910895CF93DF93EC019B018091F0
S1133200080281110AC041E061E08FEF91E00E9461
S1133210990B81E08093080221C0809105028823E4
S1133220E9F084E690E00E946B0B0E94680C9C011C
S1133230AAE0B0E00E946C240E94542127EE3AE3F5
S11332404DE85CE30E9448226A8B7B8B8C8B9D8BC0
S113325084E690E00E946B0B10920502DF91CF91FF
S11332600895CF93DF93EC0180E20E94D80486E0B6
S11332700E9461030E943603BC0180E090E00E943A
S1133280542120E030E040EA50E40E94482220E04B
S113329030E040E85AE30E9448226A877B878C87A3
S11332A09D8784E00E9461030E943603BC0180E094
S11332B090E00E94542120E030E040EA50E40E9473
S11332C0482220E030E040E85AE30E9448226E871A
S11332D07F87888B998BDF91CF910895FC0181E0E2
S11332E0808388EC90E0928381839483838380E954
S11332F091E0968385839087878308954F925F92A8
S11333006F927F928F929F92AF92BF92CF92DF92F1
S1133310EF92FF920F931F93CF93DF93EC013B0146
S1133320FB01D080F1E0DF1253C0E3E09E2E9882CF
S11333300E94AC0388E591E00E94102760E082E0DF
S11333400E949A091F921F921F92DF92F0E94F2E5A
S11333504F921F92A8EC5A2E5F921F928AEF8F937E
S113336088248394A12CB12CC12CB0E9EB2EFF242A
S1133370F39408EC10E02AEF30E041E062E080E0F2
S11333800E945E061F921F921F92DF924F921F921D
S11333905F921F9287E88F9327E830E040E062E075
S11333A080E00E945E06988288EC90E09A8389838C
S11333B09C838B8380E991E09E838D8398878F83A0
S11333C08DB79EB742960FB6F8949EBF0FBE8DBFC1
S11333D0F301D180F1E0DF1254C043E0942E9882CF
S11333E00E94AC0388E591E00E94102760E082E02F
S11333F00E949A091F921F921F92DF9250E9452E54
S11334004F921F9268EC562E5F921F928AEF8F9311
S113341088248394A12CB12CC12C70E9E72EFF24BD
S1133420F39408EC10E02AEF30E041E062E080E041
S11334300E945E061F921F921F92DF924F921F926C
S11334405F921F9287E88F93812C27E830E041E058
S113345062E080E00E945E06988288EC90E09A83A5
S113346089839C838B8380E991E09E838D839887F5
S11334708F838DB79EB742960FB6F8949EBF0FBE4A
S11334808DBFF3018181813009F058C0D080F1E013
S1133490DF1254C083E0782E78820E94AC0388E562
S11334A091E00E94102760E082E00E949A091F9236
S11334B01F921F92DF9290E9992E9F921F9228ECFF
S11334C0622E6F92DF9284EF8F9388248394A12CD1
S11334D0B12CC12C30E9E32EFF24F39408EC10E066
S11334E024EF31E041E062E080E00E945E061F923A
S11334F01F921F92DF929F921F926F921F928FEAE8
S11335008F93812C2FEA30E041E062E080E00E945A
S11335105E06788288EC90E09A8389839C838B830F
S113352080E991E09E838D8398878F838DB79EB7C2
S113353042960FB6F8949EBF0FBE8DBFDF91CF9118
S11335401F910F91FF90EF90DF90CF90BF90AF90BD
S11335509F908F907F906F905F904F9008952F92DF
S11335603F924F925F926F927F928F929F92AF920F
S1133570BF92CF92DF92EF92FF920F931F93CF935C
S1133580DF93CDB7DEB728970FB6F894DEBF0FBE32
S1133590CDBF8C011B01DB011A966D917D918D913C
S11335A09C911D971E962D913D914D915C91519743
S11335B01A968D909D90AD90BC901D971E964D903F
S11335C05D906D907C9051970E943B2020E030E00C
S11335D040E05FE30E9448229B01AC0160E070E0A0
S11335E080EA90E40E943A202DEC3CEC4CE45EE34B
S11335F00E9448226B017C01A3019201C501B40120
S11336000E943B2020E030E040E05FE30E9448223B
S11336109B01AC01C701B6010E943B202B013C0178
S1133620F10162817381848195812285338544858A
S113363055850E943A206B017C01D10116966D914B
S11336407D918D919C9119971E962D913D914D914F
S11336505C9151970E943A204B015C0120E030E0DC
S1133660A9010E94A72087FF03C0812C912C54013B
S113367020E030E0A901C701B6010E94A72087FF1E
S113368003C0C12CD12C7601D1011A968D919D9144
S11336900D90BC91A02D89839A83AB83BC83D10107
S11336A01E968D919D910D90BC91A02D8D839E832E
S11336B0AF83B887F101628173818481958126810A
S11336C03781408551850E943B2020E030E040E076
S11336D05FE30E944822A30192010E940622181669
S11336E00CF055C02D813E814F81588560E070E01B
S11336F080EA90E40E943A209B01AC01C501B40128
S11337000E94AC204B015C0129813A814B815C8190
S113371060E070E080EA90E40E943A209B01AC01F2
S1133720C701B6010E94AC209B01AC01C501B401E4
S11337300E943A206B017C0182E0D8018C9320E046
S113374030E040E85FE3C701B6010E943B2020E07F
S113375030E048E453E40E9448220E941E21F8010C
S113376072836183A701960160E070E080E89FE3C3
S11337700E943A2020E030E048E453E40E944822CA
S11337800E941E21D80114967C936E931397289659
S11337900FB6F894DEBF0FBECDBFDF91CF911F915E
S11337A00F91FF90EF90DF90CF90BF90AF909F90DC
S11337B08F907F906F905F904F903F902F900895DF
S11337C00F931F93CF93DF938C01EB016A897B895D
S11337D08C899D8920E030E0A9010E9406221816F8
S11337E0DCF56A897B898C899D8920E030E04AEF89
S11337F052E40E94A72087FF2FC084E0F801808351
S11338002A893B894C895D8960E070E08AEF92E403
S11338100E943A2020E030E045E253E40E943B203D
S11338200E941E21F801728361832A893B894C8995
S11338305D8960E070E08AEF92E40E943A209B0187
S1133840AC0160E070E085E293E40E943A200E94BB
S11338501E21F80174836383DF91CF911F910F912F
S11338600895CF93DF93EC0166EF71E00E94561840
S1133870811114C06F8178858D819E810E94E90732
S11338806B817C8189819A810E94800789E0FE0195
S1133890A6EFB1E001900D928A95E1F7DF91CF9107
S11338A00895CF93DF93CDB7DEB766970FB6F8943C
S11338B0DEBF0FBECDBF0E94CC040E94D2030E9483
S11338C0D6060E942A0381E00E9456030E94410CFE
S11338D01092200210921F021092220210922102D2
S11338E010922402109223021092260210922502B2
S11338F010921E0283E791E00E94102788EB9BE060
S11339000E946B0BCE0101960E9431190E94AC03F8
S11339106DE770E0CE0101960E9483186AEF70E0B3
S1133920CE0101960E94A9180E94380A6DE770E042
S1133930CE0101960E94FB188EE192E00E946E195E
S1133940BE016F5F7F4F8EE192E00E94AF1ABE010D
S11339506F5F7F4F8EE192E00E94E01BBE016F5FBC
S11339607F4F8EE192E00E947E198EE192E00E94E8
S1133970311C8EE192E00E942318CACFA3E1B0E08B
S1133980E4ECFCE10C9486246C014B012A01FC015B
S113399017821682838181FF43C3AE014F5F5F4F5D
S11339A03A01F6019381F40193FD859193FF81918E
S11339B04F01882309F430C3853239F493FD85918E
S11339C093FF81914F01853239F4B60190E00E9452
S11339D0D82652012501E5CF10E0F12C20E0203259
S11339E0A0F48B3269F030F4803259F0833269F4F8
S11339F020612CC08D3239F0803339F4216026C027
S1133A002260246023C0286021C027FD27C030ED38
S1133A10380F3A3078F426FF06C0FAE01F9F300DC5
S1133A201124132F13C04AE0F49E300D1124F32EF9
S1133A3020620CC08E3221F426FDEEC2206406C042
S1133A408C3611F4206802C0883641F4F40193FDE9
S1133A50859193FF81914F018111C1CF9BEB980F09
S1133A60933018F42061805E06C09BE9980F933070
S1133A7008F071C12F7E26FF16E02F73322E853693
S1133A8019F42064322E08C0863621F4F22FF0682F
S1133A903F2E02C01111115037FE07C01C3350F4E1
S1133AA0EE24E394E10E27E00BC0183038F027E051
S1133AB017E005C027E04CE3E42E02C0212FE12CDF
S1133AC0520144E0A40EB11CF20160817181828133
S1133AD093810E2DA3010E94EA252C01098100FF88
S1133AE002C003FF07C031FC08C032FE09C030E247
S1133AF0232E07C02DE2222E04C09BE2292E01C0F2
S1133B00212C802F8C7019F0211068C2A8C237FEB6
S1133B100FC0E40C04FF04C08A81813309F4EA94E1
S1133B201E1474F5F8E0FE1578F588E0E82E2CC034
S1133B3036FC2AC0812F90E0841595059CF02CEF6B
S1133B4042162FEF520674F0432D4068342E0AC0FB
S1133B50E2E0F0E0EC0FFD1FE10FF11D8081803306
S1133B6019F411501111F4CF37FE0EC0EE24E39472
S1133B70E10E812F90E0481659062CF4141904C064
S1133B80EE24E39401C010E037FE06C014141504BB
S1133B9034F4C201019605C085E090E002C081E0E2
S1133BA090E021100196112331F0212F30E02F5F96
S1133BB03F4F820F931F2F2D30E08217930714F489
S1133BC0F81A01C0F12C832D897049F4FF2039F0D3
S1133BD0B60180E290E00E94D826FA94F7CF222022
S1133BE029F0B601822D90E00E94D82633FC09C04A
S1133BF0FF2039F0B60180E390E00E94D826FA94C1
S1133C00F7CF37FE5AC0942D852D57FE02C090E0A1
S1133C1080E0292E382E20E030E0A2014E1951090F
S1133C205D874C87A201421953095F874E87612F34
S1133C3070E044275527461B570B598B488B5FEF81
S1133C402516350649F4B6018EE290E02A8B3B8BAB
S1133C500E94D8263B892A89421453046CF04C856F
S1133C605D854215530544F4EE85FF85E20FF31F8D
S1133C70E60DF71D818101C080E351E0251A31086A
S1133C802F5F3F4F48895989241635064CF0B601F9
S1133C9090E02A8B3B8B0E94D8262A893B89CFCF80
S1133CA02414350439F49A81963318F4953311F4B5
S1133CB004FF81E3B60190E04BC08A81813309F0AF
S1133CC00F7EB60190E00E94D826111105C034FC85
S1133CD018C085E690E017C0B6018EE290E00E941D
S1133CE0D82682E0EE24E394E80EF301E80FF11DF8
S1133CF08081B60190E00E94D82611508E2D91F754
S1133D00E6CF85E490E0B6010E94D82657FC05C0B2
S1133D104114510439F404FF05C0519441945108ED
S1133D208DE201C08BE2B60190E00E94D82680E3C8
S1133D309AE0491651042CF08F5F5AE0451A510855
S1133D40F7CFB60190E00E94D826B601C201C09612
S1133D500E94D82657C1833631F0833779F08335F2
S1133D6009F058C021C05201E2E0AE0EB11CF201CC
S1133D708081898301E010E0230114C05201F2E044
S1133D80AF0EB11CF2014080518026FF03C0612FA9
S1133D9070E002C06FEF7FEFC2012A8B0E94CD2634
S1133DA08C012A892F7715C05201F2E0AF0EB11CA5
S1133DB0F2014080518026FF03C0612F70E002C0F1
S1133DC06FEF7FEFC2012A8B0E94C2268C012A89E1
S1133DD02068322E23FD1AC08F2D90E00817190792
S1133DE0A8F4B60180E290E00E94D826FA94F4CFB9
S1133DF0F20137FC859137FE81912F01B60190E0E5
S1133E000E94D826F110FA940150110901151105E8
S1133E1079F7F8C0843611F0893659F5520127FF35
S1133E2009C0F4E0AF0EB11CF2016081718182819E
S1133E3093810AC0F2E0AF0EB11CF201608171817E
S1133E40072E000C880B990B2F76322E97FF09C092
S1133E5090958095709561957F4F8F4F9F4F206807
S1133E60322E2AE030E0A3010E944027E82EE61813
S1133E703FC0022F853721F40F7E2AE030E01DC0B9
S1133E80097F8F3691F018F4883559F0C5C0803712
S1133E9019F0883711F0C0C0006104FF09C0046044
S1133EA007C024FF08C0066006C028E030E005C053
S1133EB020E130E002C020E132E0520107FF09C0F6
S1133EC0F4E0AF0EB11CF2016081718182819381B3
S1133ED008C0F2E0AF0EB11CF2016081718180E094
S1133EE090E0A3010E944027E82EE6180F77302EB9
S1133EF036FE0BC0332D3E7FE11650F434FE0AC06B
S1133F0032FC08C0332D3E7E05C00E2D332D03C078
S1133F100E2D01C0012F34FF0CC0FE01EE0DF11D6A
S1133F208081803311F4397E08C032FF05C00E5FF2
S1133F3004C0832F867809F00F5F33FD13C030FF70
S1133F4006C01E2D0F1518F41F0D101B0F2D0F1575
S1133F5068F4B60180E290E03B8B0E94D8260F5FA4
S1133F603B89F5CF0F1510F4F01A01C0F12C34FF82
S1133F7012C0B60180E390E03B8B0E94D8263B89B7
S1133F8032FF17C031FD03C088E790E002C088E526
S1133F9090E0B6010CC0832F867859F031FF02C03F
S1133FA08BE201C080E237FD8DE2B60190E00E9411
S1133FB0D826E11638F4B60180E390E00E94D826B2
S1133FC01150F7CFEA94F301EE0DF11D8081B60193
S1133FD090E00E94D826E110F5CF14C0F4E0FF155C
S1133FE058F584E0F81A33FE1EC0211026C003FFE2
S1133FF02AC00EEF10E0F32DF0713F2EF8018491EA
S1134000811124C0FF2009F4E5CCB60180E290E0E0
S11340100E94D826FA94F6CFF6018681978126C0AD
S11340208FEF9FEF23C0B60180E290E00E94D82674
S1134030FA94F110F8CFD9CFF12CB601822D90E08B
S11340400E94D826D4CF02E011E0D5CF311080529F
S1134050B60190E00E94D8260F5F1F4FCFCF23E018
S11340602F1510F483E0BECFF12CC1CF6396E2E1AB
S11340700C94A2245058BB27AA270E9452200C94C7
S1134080CC210E94BE2138F00E94C52120F039F4D1
S11340909F3F19F426F40C94BB210EF4E095E7FB42
S11340A00C94B521E92F0E94DD2158F3BA17620759
S11340B073078407950720F079F4A6F50C94FF2183
S11340C00EF4E0950B2EBA2FA02D0B01B90190012F
S11340D00C01CA01A0011124FF27591B99F0593F73
S11340E050F4503E68F11A16F040A22F232F342FBB
S11340F04427585FF3CF469537952795A795F04009
S11341005395C9F77EF41F16BA0B620B730B840B1D
S1134110BAF09150A1F0FF0FBB1F661F771F881FD5
S1134120C2F70EC0BA0F621F731F841F48F487952D
S113413077956795B795F7959E3F08F0B0CF93951F
S1134140880F08F09927EE0F9795879508950E9498
S1134150912108F481E008950E94C0200C94CC21A0
S11341600E94C52158F00E94BE2140F029F45F3F0F
S113417029F00C94B52151110C9400220C94BB210C
S11341800E94DD2168F39923B1F3552391F3951B24
S1134190550BBB27AA2762177307840738F09F5F64
S11341A05F4F220F331F441FAA1FA9F335D00E2ED1
S11341B03AF0E0E832D091505040E695001CCAF73E
S11341C02BD0FE2F29D0660F771F881FBB1F261701
S11341D037074807AB07B0E809F0BB0B802DBF01D8
S11341E0FF2793585F4F3AF09E3F510578F00C94A7
S11341F0B5210C9400225F3FE4F3983ED4F38695F6
S113420077956795B795F7959F5FC9F7880F911DC7
S11342109695879597F90895E1E0660F771F881FB3
S1134220BB1F621773078407BA0720F0621B730B66
S1134230840BBA0BEE1F88F7E09508950E942521A0
S11342406894B1110C94002208950E94E52188F02D
S11342509F5798F0B92F9927B751B0F0E1F0660F46
S1134260771F881F991F1AF0BA95C9F714C0B13087
S113427091F00E94FF21B1E008950C94FF21672F73
S1134280782F8827B85F39F0B93FCCF386957795B6
S11342906795B395D9F73EF490958095709561959F
S11342A07F4F8F4F9F4F0895E89409C097FB3EF4CA
S11342B090958095709561957F4F8F4F9F4F99236F
S11342C0A9F0F92F96E9BB279395F69587957795ED
S11342D06795B795F111F8CFFAF4BB0F11F460FFAD
S11342E01BC06F5F7F4F8F4F9F4F16C0882311F005
S11342F096E911C0772321F09EE8872F762F05C019
S1134300662371F096E8862F70E060E02AF09A95B3
S1134310660F771F881FDAF7880F9695879597F9A8
S11343200895990F0008550FAA0BE0E8FEEF161642
S11343301706E807F907C0F012161306E407F50795
S113434098F0621B730B840B950B39F40A2661F009
S1134350232B242B252B21F408950A2609F4A140AC
S1134360A6958FEF811D811D089597F99F6780E8B9
S113437070E060E008959FEF80EC089500240A94B3
S11343801616170618060906089500240A9412162C
S11343901306140605060895092E0394000C11F45F
S11343A0882352F0BB0F40F4BF2B11F460FF04C00C
S11343B06F5F7F4F8F4F9F4F089557FD9058440F65
S11343C0551F59F05F3F71F04795880F97FB991F70
S11343D061F09F3F79F0879508951216130614062D
S11343E0551FF2CF4695F1DF08C0161617061806BA
S11343F0991FF1CF86957105610508940895E89495
S1134400BB2766277727CB0197F908950E9491214E
S113441008F48FEF08950E94E521A8F19E57B0F1AA
S1134420985160F039F1983070F5092E9927660F8C
S1134430771F881F991F0A94D1F71CC0BB27993F87
S11344404CF4B111B1E0B62B672F782F8827985F11
S1134450B1F708C0869577956795B79508F4B1606C
S11344609395C1F7BB0F30F411F460FF03C06F5F85
S11344707F4F8F4F3EF490958095709561957F4F57
S11344808F4F9F4F089568940C9400220C94FF2141
S11344900E945B220C94CC210E94BE2138F00E9421
S11344A0C52120F0952311F00C94B5210C94BB2167
S11344B011240C9400220E94DD2170F3959FC1F316
S11344C0950F50E0551F629FF001729FBB27F00DBE
S11344D0B11D639FAA27F00DB11DAA1F649F662713
S11344E0B00DA11D661F829F2227B00DA11D621F62
S11344F0739FB00DA11D621F839FA00D611D221F1C
S1134500749F3327A00D611D231F849F600D211DFF
S1134510822F762F6A2F11249F5750409AF0F1F082
S113452088234AF0EE0FFF1FBB1F661F771F881FEB
S113453091505040A9F79E3F510580F00C94B5214D
S11345400C9400225F3FE4F3983ED4F3869577956C
S11345506795B795F795E7959F5FC1F7FE2B880F91
S1134560911D9695879597F90895FA01EE0FFF1F0F
S1134570309621053105A1F16115710561F480388A
S1134580BFE39B0749F168949038810561F0803856
S1134590BFEF9B0741F099234AF5FF3FE105310541
S11345A0210519F1E8940894E795D901AA2329F47F
S11345B0AB2FBE2FF85FD0F310C0FF5F70F4A69549
S11345C0E0F7F73950F019F0FF3A38F49F779F93EA
S11345D00DD00F9007FC9058089546F00C94BB2121
S11345E060E070E080E89FE308954FE79F775F9372
S11345F04F933F932F930E94B0232F913F914F915C
S11346005F910E9448220C940D2329F416F00C9417
S1134610B5210C94FF210C94BB210E94E521A8F341
S11346209638A0F707F80F92E8942BE33AEA48EBA0
S11346305FE70E945E220F920F920F924DB75EB712
S11346400F920E94F823ECE7F0E00E943F234F9181
S11346505F91EF91FF91E595EE1FFF1F49F0FE5723
S1134660E0684427EE0F441FFA95E1F74195550B96
S11346700E9472230F9007FE0C9466230895DF9323
S1134680CF931F930F93FF92EF92DF927B018C01E4
S1134690689406C0DA2EEF010E945B22FE01E894C2
S11346A0A5912591359145915591A6F3EF010E946D
S11346B05220FE019701A801DA9469F7DF90EF9088
S11346C0FF900F911F91CF91DF9108959B01AC0151
S11346D060E070E080E89FE30C94AC200C94B5217A
S11346E00C942C240E94E521D8F39923C9F3940F48
S11346F0511DA3F39150504094F059F0882332F0A7
S1134700660F771F881F91505040C1F79E3F510597
S11347102CF7880F911D9695879597F908955F3F1B
S1134720ACF0983E9CF0BB27869577956795B79536
S113473008F4B1609395C1F7BB0F58F711F460FF0B
S1134740E8CF6F5F7F4F8F4F9F4FE3CF0C940022D2
S113475016F00C942C240C94BB2168940C94B52171
S11347600E94E521A8F39923C1F3AEF3DF93CF931D
S11347701F930F93FF92C92FDD2788232AF02197D7
S1134780660F771F881FDAF720E030E040E85FEB20
S11347909FE3883920F0803E38F021968F770E947D
S11347A03B20E4EAF0E004C00E943B20E1EDF0E0AD
S11347B00E943F238B01BE01EC01FB2E6F57710950
S11347C07595771F880B990B0E94562128E132E7D3
S11347D041E35FE30E945B22AF2D9801AE01FF909D
S11347E00F911F91CF91DF910E9452200C94CC2104
S11347F0FA01DC01AA0FBB1F9B01AC01BF5728F4CF
S1134800222733274427507820C0B75190F4AB2F88
S11348100024469537952795011CA395D2F30020D3
S113482071F0220F331F441FB395DAF30ED00C94AA
S11348303A2061307105A0E88A07B94630F49B013B
S1134840AC016627772788279078309621F020835B
S113485031834283538308959F3F31F0915020F474
S1134860879577956795B795880F911D9695879548
S113487097F90895DB018F939F930E947B24BF9146
S1134880AF91A29F800D911DA39F900DB29F900D9B
S113489011240895A1E21A2EAA1BBB1BFD010DC011
S11348A0AA1FBB1FEE1FFF1FA217B307E407F507DC
S11348B020F0A21BB30BE40BF50B661F771F881FB8
S11348C0991F1A9469F760957095809590959B014E
S11348D0AC01BD01CF010895A29FB001B39FC001F7
S11348E0A39F700D811D1124911DB29F700D811D18
S11348F01124911D08950E946C24A59F900DB49FCE
S1134900900DA49F800D911D112408952F923F9224
S11349104F925F926F927F928F929F92AF92BF92CB
S1134920CF92DF92EF92FF920F931F93CF93DF9377
S1134930CDB7DEB7CA1BDB0B0FB6F894DEBF0FBED4
S1134940CDBF09942A88398848885F846E847D8421
S11349508C849B84AA84B984C884DF80EE80FD8023
S11349600C811B81AA81B981CE0FD11D0FB6F89499
S1134970DEBF0FBECDBFED010895CF93DF9382302C
S1134980910510F482E090E0E091A002F091A10280
S113499020E030E0C0E0D0E0309711F14081518157
S11349A048175907C0F04817590761F48281938169
S11349B0209719F09B838A832BC09093A102809344
S11349C0A00226C02115310519F04217530718F427
S11349D09A01BE01DF01EF010280F381E02DDCCFFB
S11349E02115310509F1281B390B2430310590F4C8
S11349F012968D919C9113976115710521F0FB011D
S1134A009383828304C09093A1028093A002FD014A
S1134A10329644C0FD01E20FF31F8193919322501B
S1134A2031092D933C933AC020919E0230919F020C
S1134A30232B41F420911D0130911E0130939F02DC
S1134A4020939E0220911B0130911C0121153105F8
S1134A5041F42DB73EB740911F0150912001241B12
S1134A60350BE0919E02F0919F02E217F307A0F448
S1134A702E1B3F0B2817390778F0AC014E5F5F4FB0
S1134A802417350748F04E0F5F1F50939F02409341
S1134A909E028193919302C0E0E0F0E0CF01DF91A8
S1134AA0CF9108950F931F93CF93DF93009709F449
S1134AB08CC0FC013297138212820091A0021091E3
S1134AC0A1020115110581F420813181820F931F08
S1134AD020919E0230919F022817390779F5F093AF
S1134AE09F02E0939E0271C0D80140E050E0AE17EF
S1134AF0BF0750F412962D913C911397AD012115E7
S1134B00310509F1D901F3CF9D01DA013383228301
S1134B1060817181860F971F8217930769F4EC01F6
S1134B2028813981260F371F2E5F3F4F3183208321
S1134B308A819B8193838283452B29F4F093A1027C
S1134B40E093A00242C01396FC93EE931297ED01FA
S1134B50499159919E01240F351FE217F30771F40F
S1134B6080819181840F951F029611969C938E9358
S1134B708281938113969C938E931297E0E0F0E0E8
S1134B80D80112968D919C911397009719F0F80112
S1134B908C01F6CF8D919C9198012E5F3F4F820F2F
S1134BA0931F20919E0230919F022817390769F4C0
S1134BB0309729F41092A1021092A00202C013822D
S1134BC0128210939F0200939E02DF91CF911F9156
S1134BD00F910895283008F027E03327DA01990F60
S1134BE0311D87FD916000966105710539F43260CD
S1134BF02E5F3D9330E32A95E1F708959F3F30F00F
S1134C0080387105610509F03C5F3C5F3D9391304C
S1134C1008F08068911DDF93CF931F930F93FF9249
S1134C20EF92192F987F9695E92F96959695E90F0F
S1134C30FF27E05AFE4F99273327EE24FF24A701CC
S1134C40E70105900894079428F4360FE71EF81E30
S1134C50491F511D660F771F881F991F0694A1F7DE
S1134C600590079428F4E70EF81E491F561FC11D2E
S1134C70770F881F991F661F0694A1F70590079464
S1134C8028F4F80E491F561FC71FD11D880F991FFE
S1134C90661F771F0694A1F70590079420F4490F27
S1134CA0561FC71FD81F990F661F771F881F0694AA
S1134CB0A9F784911095177041F0D695C79557952B
S1134CC04795F794E7941A95C1F7E6E0F1E0689404
S1134CD01590159135916591959105907FE27395A5
S1134CE0E118F10A430B560BC90BD009C0F7E10CCC
S1134CF0F11E431F561FC91FD01D7EF4703311F4DB
S1134D008A95E6CFE894015030F0080F0AF40027A2
S1134D10021708F4202F2395022F7A3328F079E321
S1134D207D932A95E9F710C07D932A9589F6069418
S1134D3097956795379517951794E118F10A430BE2
S1134D40560BC90BD00998F023957E9173957A334D
S1134D5008F070E37C932013B8F77E9170617D9323
S1134D6030F0839571E37D9370E32A95E1F7112484
S1134D70EF90FF900F911F91CF91DF91992787FDBD
S1134D8090950895FC010590615070400110D8F78A
S1134D90809590958E0F9F1F0895FC01615070407F
S1134DA001900110D8F7809590958E0F9F1F08955C
S1134DB00F931F93CF93DF93FB01238121FD03C046
S1134DC08FEF9FEF28C022FF16C0468157812481B0
S1134DD035814217530744F4A081B1819D012F5FAF
S1134DE03F4F318320838C93268137812F5F3F4F40
S1134DF03783268310C0EB01092F182F0084F18517
S1134E00E02D0995892BE1F68E819F8101969F8380
S1134E108E83812F902FDF91CF911F910F91089551
S1134E200F931F93CF93DF93E091A402F091A50217
S1134E30238121FF1BC08C01D0E0C0E0F8018191E7
S1134E408F016091A4027091A502DB011896ED9187
S1134E50FC911997882331F00995892B79F3DFEFB9
S1134E60CFEFECCF8AE00995892B19F08FEF9FEFF4
S1134E7002C08D2F9C2FDF91CF911F910F91089528
S1134E80FA01AA27283051F1203181F1E8946F9377
S1134E906E7F6E5F7F4F8F4F9F4FAF4FB1E03ED01D
S1134EA0B4E03CD0670F781F891F9A1FA11D680FBB
S1134EB0791F8A1F911DA11D6A0F711D811D911DEE
S1134EC0A11D20D009F468943F912AE0269F112463
S1134ED03019305D3193DEF6CF010895462F4770C7
S1134EE0405D4193B3E00FD0C9F7F6CF462F4F7022
S1134EF0405D4A3318F0495D31FD4052419302D080
S1134F00A9F7EACFB4E0A695979587957795679525
S1134F10BA95C9F700976105710508959B01AC0125
S1134F200A2E06945795479537952795BA95C9F74C
S1134F30620F731F841F951FA01D0895F894FFCF5F
S1134F401F0201030300000002000000004C0F00D8
S1134F50000000180C041060C080200000A802208B
S1134F60005354415254494E472E2E2E004352555D
S1134F704953494E472E2E2E0049522041564F493F
S1134F8044494E472E2E2E00484F4D494E472E2E53
S1134F902E00534F4E41522041564F4944494E47EB
S1134FA02E2E2E00556E6B6E6F776E2073746174A7
S1134FB06521005374617274696E672E2E2E000091
S9030000FC
