:100000000C940B030C9428030C9428030C942803E1
:100010000C94550E0C947E0E0C94A70E0C94D00EDE
:100020000C9428030C94360D0C945F0D0C94880DE1
:100030000C94030E0C94B10D0C94DA0D0C942C0E50
:100040000C94BB0C0C94E40C0C940D0D0C94280334
:100050000C9428030C9428030C9428030C94280374
:100060000C9428030C9428030C9428030C94280364
:100070000C9428030C9428030C942803076342363D
:10008000B79BD8A71A39685618AEBAAB558C1D3C29
:10009000B7CC5763BD6DEDFD753EF6177231BF00ED
:1000A0000000803F08000000BE922449123EABAA27
:1000B000AA2ABECDCCCC4C3E00000080BEABAAAA82
:1000C000AA3E00000000BF000000803F00000000CA
:1000D00000084178D3BB4387D1133D190E3CC3BD03
:1000E0004282AD2B3E68EC8276BED98FE1A93E4CB0
:1000F00080EFFFBE01C4FF7F3F00000000006E6183
:100100006E00696E660000407A10F35A00A0724ECD
:1001100018090010A5D4E80000E87648170000E4AC
:100120000B54020000CA9A3B000000E1F5050000F4
:1001300080969800000040420F000000A086010059
:100140000000102700000000E80300000000640029
:10015000000000000A000000000001000000000094
:100160002C76D888DC674F0823DFC1DFAE59E1B1B8
:10017000B796E5E3E453C63AE651997696E8E6C2C7
:100180008426EB898C9B62ED407C6FFCEFBC9C9FCE
:1001900040F2BAA56FA5F490055A2AF75C936B6CF0
:1001A000F9676DC11BFCE0E40D47FEF520E6B500E4
:1001B000D0ED902E0300943577050080841E080052
:1001C00000204E0A000000C80C333333330F986E02
:1001D00012831141EF8D2114893BE65516CFFEE6BF
:1001E000DB18D1844B381BF77C1D901DA4BBE42485
:1001F000203284725E228100C9F124ECA1E53D2702
:1002000016050100000000000000FA000000E000F8
:10021000E00028FE28FE282454FE5448C4C81026B6
:10022000466C92AA44A000A0C0000000384482009E
:10023000008244380028107C102810107C10100018
:100240000A0C000010101010100006060000040830
:100250001020407C8A92A27C0042FE020042868AE4
:1002600092628482A2D28C182848FE08E4A2A2A23C
:100270009C3C5292920C808E90A0C06C9292926C98
:100280006092929478006C6C0000006A6C00001020
:1002900028448200282828282800824428104080EA
:1002A0008A90604C929E827C7E8888887EFE9292A4
:1002B000926C7C82828244FE82824438FE929292C8
:1002C00082FE909090807C8292925EFE101010FED2
:1002D0000082FE8200040282FC80FE10284482FE1E
:1002E00002020202FE403040FEFE201008FE7C8228
:1002F00082827CFE909090607C828A847AFE9098C4
:100300009462629292928C8080FE8080FC02020253
:10031000FCF8040204F8FC021C02FCC6281028C6E3
:10032000E0100E10E0868A92A2C200FE8282004097
:1003300020100804008282FE00204080402002023B
:100340000202020080402000042A2A2A1EFE1222F5
:10035000221C1C222222041C222212FE1C2A2A2ACF
:1003600018107E908040304A4A4A7CFE1020201EA1
:100370000022BE0200040222BC00FE08142200007B
:1003800082FE02003E2018201E3E1020201E1C224D
:1003900022221C3E28282810102828183E3E102013
:1003A0002010122A2A2A0420FC2202043C02020401
:1003B0003E38040204383C020C023C221408142289
:1003C000300A0A0A3C22262A322200106C820000DF
:1003D00000FE000000826C100008101008100000E1
:1003E0000000007F8181817F7F8383837F7F878778
:1003F000877F7F8F8F8F7F7F9F9F9F7F7FBFBFBFB5
:100400007F7FFFFFFF7F2040FF40206215171565AB
:1004100000FBFB00000000000000C0FF0300E0FF45
:100420000700F0FF0F00F8FF1F0078001E007800A3
:100430001E0078001E0078001E0078001E00780064
:100440001E0078001E0078001E0078001E000000CC
:1004500000000000000080FF0300E0FF0700F0FF45
:100460000F00F8FF1F00F83C1F00783C1E00783C8E
:100470001E00783C1E00783C1E00783C1E00783C34
:100480001E00783C1E00783C1E00783C1E00783C24
:100490001E000000000000000000E0FF0300F0FF6D
:1004A0000700F8FF0F00F8FF1F00783C1E00783CA3
:1004B0001E00783C1E00783C1E00783C1E00783CF4
:1004C0001E00783C1E00783C1E00783C1E00783CE4
:1004D0001E000000000000000000F8FF0300F8FF0D
:1004E0000F00F8FF1F00F8FF1F0000001E000000B3
:1004F0001E0000801F0000F01F0000FF0F00E0FF43
:100500000700F0FF0000F80F0000F800000078007E
:10051000000078000000F8FF1F00F8FF1F00F0FF48
:100520001F00E0FF1F000000000000000000F8FFB7
:100530001F00F8FF1F00F8FF1F00F8FF1F007800E2
:100540001E00783C1E00783C1E00783C1E00783C63
:100550001E00783C1E00783C1E00F87E1F00F8FF4D
:100560001F00F0FF0F00E0E70300000000000000A4
:100570003800EEFF6C002A8045003A0047FC03FF7C
:100580006CFC83FF3900DEFF0B7CD0810BFCD0813B
:100590000BC0D0810BFCD0810B7CDEFF0B0082FFF7
:1005A000397002FF6CF83A0047DC2A8045CCEEFF38
:1005B0006CCC000038000000000C00001E0C000095
:1005C0001E0000001E0000001E0000001E00F8FFBC
:1005D0001F00F8FF1F00F8FF1F00F8FF1F000000BA
:1005E0001E0000001E0000001E0000001E00000093
:1005F0005E000000400000007C00000040000000A1
:10060000400000007C0000003000000010000000EE
:10061000300000007C0011241FBECFEFD8E0DEBF09
:10062000CDBF11E0A0E0B1E0E8E4FFE402C0059036
:100630000D92AC38B107D9F722E0ACE8B1E001C0C7
:100640001D92A43BB207E1F70E949F030C94A227DE
:100650000C9400008FE00E94670A882311F082E06A
:1006600008950E94940381E008958FE00E94740A27
:10067000882319F420E030E013C080917A00806470
:1006800080937A0080917A0086FDFCCF30917800CB
:1006900020917900922F80E0232F30E0282B392BF6
:1006A000C9010895ECE7F0E090818295880F880FEA
:1006B000807C9F73982B90830895582F8091000120
:1006C0008830D8F440917E0021E030E0B90102C0CA
:1006D000660F771F8A95E2F7CB018095842380937C
:1006E0007E0080917E00052E02C0220F331F0A94E7
:1006F000E2F7822B80937E000DC020917E0081E086
:1007000090E0052E02C0880F991F0A94E2F7282B6B
:1007100020937E005093000180917C005F71807E69
:10072000852B80937C0008958FE180937C00EAE71D
:10073000F0E087E0808380818068808308950E9454
:10074000B90C0E94AB0C0E943F1C80E090E0089521
:100750000F931F9385E00E94740A8823C1F080E400
:1007600060E00E94A50400E0802F60E00E94500439
:1007700010E080E061E00E94A5041F5F1038C9F717
:100780000F5F043089F783E060E00E9493041F91BB
:100790000F9108950F931F9385E00E94670A8823A5
:1007A00011F082E07AC00E94F004182F0E94E60A3D
:1007B0001150123008F06DC08150823008F069C0CD
:1007C0000E94C0048EEA60E00E94A50482EA60E014
:1007D0000E94A50480EA60E00E94A50400E513ECF5
:1007E000C8010197F1F780EC60E00E94A5048FE258
:1007F00060E00E94A50481E860E00E94A50486E113
:1008000060E00E94A50482E260E00E94A504C801A5
:100810000197F1F78FEA60E00E94A50486EA60E0A4
:100820000E94A50485EA60E00E94A50480E090E0B3
:1008300028E833E1F9013197F1F7019643E0883E6A
:100840009407C1F783EB60E00E94A50480E460E0B8
:100850000E94A50483E060E00E94500483E060E011
:100860000E94930410924A0210924C0210924B0282
:1008700085E091E09093B1028093B00288E10E94FC
:1008800072040E94A80384EA60E00E94A50481E04B
:1008900004C085E00E94570A87E01F910F910895D8
:1008A000FF920F931F93082FF62E85E00E94740A83
:1008B0008823A1F01F2D1F770370802F806B60E0CD
:1008C0000E94A50412951F70812F806160E00E9434
:1008D000A5048F2D8F7060E00E94A5041F910F91D9
:1008E000FF9008951F93182F85E00E94740A8823B3
:1008F000C1F087E00E94320582E06AE00E94830531
:1009000082E061EB0E948305612F113208F060E202
:1009100082E00E94830589EE8A95F1F787E00E94C4
:1009200032051F9108950F931F93082F162F85E00E
:100930000E94740A882331F003701F7710934802D5
:10094000009349021F910F9108950F931F93082F51
:10095000162F85E00E94740A882379F0112319F07C
:10096000113021F402C02B9801C02B9A86E08A95A1
:10097000F1F780E0602F0E9483051F910F91089589
:10098000239A089586E00E94670A882311F082E086
:1009900008950E94D90481E008951F93182F86E0DE
:1009A0000E94740A882319F0812F0E94E2041F918B
:1009B0000895559A569A80E20E94CB0F80E40E94D7
:1009C000CB0F0895282F85FF04C08BB190E28927B3
:1009D0008BB926FF04C08BB190E489278BB90895A9
:1009E00082E00E94670A882311F082E008950E9445
:1009F000920580E062E570E10E94290581E06AE4E9
:100A000070E10E94290582E062E470E10E942905FC
:100A100086E06AE570E10E94290583E06AE370E1FF
:100A20000E94290584E06AE370E10E94290585E0BF
:100A30006AE370E10E94290587E06AE370E10E94A1
:100A400029058FEF80934D0287E00E94320581E0F7
:100A50000895E82FF0E0EE0FFF1FE552FE4F71837F
:100A6000608308951F93182F82E00E94740A8823E0
:100A700009F447C0912F977080914D02981709F49F
:100A800040C090934D0285B1887F892B85B9933002
:100A900011F1943028F4913051F0923090F40CC060
:100AA000953019F19530E0F0963021F50FC0E091C6
:100AB000DD01F091DE0122C0E091DB01F091DC016B
:100AC0001DC0E091DF01F091E00118C0E091E70165
:100AD000F091E80113C0E091E101F091E2010EC054
:100AE000E091E301F091E40109C0E091E501F091AA
:100AF000E60104C0E091E901F091EA01309709F0C4
:100B000009951F9108951F93162F0E94320582E0C8
:100B10000E94740A882321F01EBD0DB407FEFDCF8C
:100B20001F910895259A2698279A209A219A229A09
:100B300008952F923F924F925F926F927F928F9281
:100B40009F92AF92BF92CF92DF92EF92FF920F935C
:100B50001F93DF93CF930F92CDB7DEB7582E962E0B
:100B6000442E3901C9821501CE88DF88A88CB98C42
:100B70006A8D7B8D81E0981619F1981628F092E025
:100B8000991609F070C03EC080E0B7010E94CA0704
:100B900080E0642DA30198010981EE24E39475E8B7
:100BA000C72E72E0D72E0E948A08552009F05BC03C
:100BB00000D00F92EDB7FEB71182338222821CC0A3
:100BC00081E00E94CA0781E0682DA60195010C8D85
:100BD000EE24E39495E8C92E92E0D92E0E948A086B
:100BE000552009F040C000D00F92EDB7FEB79182BA
:100BF0008D8D9E8D938382830E94C7090F900F90E5
:100C00000F9031C0C7010E94EC0700D085E892E048
:100C1000EDB7FEB792838183842DB301A8012981AA
:100C2000082D76016501AC8C882483940E941D09EF
:100C30000F900F905520B9F400D000D00F92ADB7AF
:100C4000BEB71196EDB7FEB79182FD0132822182C7
:100C50008D8D9E8D948383830E94C7090F900F9082
:100C60000F900F900F900F90CF91DF911F910F91E8
:100C7000FF90EF90DF90CF90BF90AF909F908F90BC
:100C80007F906F905F904F903F902F9008954F927C
:100C90005F927F928F929F92AF92BF92CF92DF929C
:100CA000EF92FF920F931F93DF93CF93CDB7DEB7F1
:100CB000562F942E7C2CAA89BB89CC88DD886E891E
:100CC0007F89988D813009F445C0813030F18230C0
:100CD00009F066C0513071F0513020F0523009F007
:100CE0005FC011C080E0B7010E94CA0780E0692D93
:100CF000A80106C081E00E94CA0781E0682DA60114
:100D00000E9455074DC0C7010E94EC07892DB8010C
:100D1000482D96010E946C0743C0EDB7FEB7399786
:100D20000FB6F894FEBF0FBEEDBF4DB65EB6089489
:100D3000411C511CB283A183F201D382C28275830C
:100D400064839683898D9A8D9087878380E0652F51
:100D5000C72C1CC0EDB7FEB739970FB6F894FEBF8D
:100D60000FBEEDBFADB6BEB60894A11CB11CB283D8
:100D7000A183F501D382C282758364839683108632
:100D8000178281E0652FC72CAA24BB240E949905F5
:100D90008DB79EB709960FB6F8949EBF0FBE8DBF54
:100DA000CF91DF911F910F91FF90EF90DF90CF9047
:100DB000BF90AF909F908F907F905F904F900895DD
:100DC00087E00E94670A882311F082E008950E945C
:100DD0001A0A81E08093840210924E0210924F0210
:100DE000109251021092500210925302109252022D
:100DF000109255021092540210925702109256020D
:100E0000109259021092580210925B0210925A02EC
:100E100010925D0210925C0210925F0210925E02CC
:100E200010926102109260021092630210926202AC
:100E3000109265021092640210926702109266028C
:100E400010926C0210926D0210926E0210926F025C
:100E50001092710210927202109273021092740238
:100E60001092750210927602109277021092790217
:100E70001092780210927B0210927A0210927D02F8
:100E800010927C0210927F0210927E0210926902F0
:100E90001092680210926B0210926A021092830202
:100EA00010928202109284020895EF92FF920F93A3
:100EB0001F93182F062F7A0160E00E942908812FC6
:100EC000602F0E940A08812FB7010E943E081F91DF
:100ED0000F91FF90EF900895CF92DF92EF92FF92E3
:100EE0000F931F93C82E7B01D42E890182E060E00E
:100EF0000E9429088C2D6D2D0E941F08C701B80182
:100F00000E946B081F910F91FF90EF90DF90CF90A0
:100F100008952EEF8037920714F480E79EEFFC01CE
:100F200081E0E139F80714F0E0E9F1E09B018EEF90
:100F30006037780714F420E73EEFA90121E041393A
:100F4000520714F040E951E08F2F881F8827881F2F
:100F5000252F221F2227221F91E090938402809345
:100F6000710220937202CF01F7FF03C09095819523
:100F70009F4F9A0157FF03C0309521953F4F9093A3
:100F800051028093500230935302209352021092E8
:100F900084020895482F81E080938402CB0123E0EE
:100FA000693E720710F088EE93E0413071F04130F5
:100FB00018F0423071F405C09093590280935802A2
:100FC00008C0909359028093580290935B028093DB
:100FD0005A0210928402089521E020938402AC0109
:100FE00083E0493E580710F048EE53E09B0183E050
:100FF000693E780710F028EE33E0F89450935902D8
:101000004093580230935B0220935A0278941092D6
:1010100084020895982F81E080938402913051F0EA
:10102000913018F0923041F403C06093710204C013
:10103000609371026093720210928402089591E0AD
:1010400090938402E1E7F2E081936083109284023E
:101050000895982F81E080938402913051F091306F
:1010600018F0923041F403C060934E0204C06093C4
:101070004E0260934F02109284020895482F81E03F
:1010800080938402CB0121E06139720710F080E97E
:1010900091E0413061F0413018F04230C9F40EC0A7
:1010A000F8949093510280935002789411C0F89470
:1010B000909353028093520278940AC0F8949093CC
:1010C000510280935002909353028093520278947D
:1010D000109284020895AC0181E080938402F89418
:1010E000CB0121E06139720710F080E991E0909323
:1010F0005302809352029A0181E04139580710F05F
:1011000020E931E0309351022093500278941092FC
:10111000840208958F929F92AF92BF92CF92DF92F6
:10112000EF92FF920F931F93CF93DF93182FF62E1A
:101130004A015901E60187E00E94740A882309F4F4
:101140006FC0812F61E00E942908812FB401A501A1
:101150000E943412812F6F2D0E940A08812F602F68
:101160000E941F12812FB4010E94F711C114D104F3
:1011700099F0113049F0113018F0123069F406C0BE
:1011800018821092800208C0198204C01882198245
:101190001092800210928102D0938302C093820247
:1011A000EE20B9F58CE891E090938302809382025F
:1011B000812FB5010E943E08812F0E94E21111305B
:1011C00071F0113018F0123059F512C010928C01E4
:1011D0001092800280918C018823E1F321C010924B
:1011E0008D011092810280918D018823E1F318C056
:1011F00010928C0110928D01109280021092810247
:1012000080918C018823E1F380918D018823C1F3C3
:1012100007C0812FB5010E943E08812F0E94E21174
:10122000DF91CF911F910F91FF90EF90DF90CF90C2
:10123000BF90AF909F908F9008953F924F925F9292
:101240006F927F928F929F92AF92BF92CF92DF92D6
:10125000EF92FF920F931F93DF93CF93CDB7DEB73B
:10126000982E2B013A01322EB02E0C891D8987E071
:101270000E94740A882309F453C082E061E00E944E
:10128000290880E0B201A3010E94341281E0B70175
:10129000A6010E943412892D6B2D0E941F0880E048
:1012A000632D0E941F1281E06A2D0E941F12C2014D
:1012B000B7010E9412120115110539F0F8011082D0
:1012C0001182109280021092810210938302009387
:1012D00082028820F1F48EE891E09093830280935B
:1012E0008202C301B6010E946B0882E00E94E211F3
:1012F00010928E0110928F01109280021092810242
:1013000080918E018823E1F380918F018823C1F3BE
:1013100007C0C301B6010E946B0882E00E94E2117F
:10132000CF91DF911F910F91FF90EF90DF90CF90C1
:10133000BF90AF909F908F907F906F905F904F90F5
:101340003F9008950F931F93182F062F662349F49B
:1013500060E070E00E943E08812F60E070E00E9433
:10136000F71181E080938402113051F0113018F0B0
:10137000123041F403C000936C0204C000936C026D
:1013800000936D02109284021F910F910895CF92E5
:10139000DF92EF92FF920F931F93DF93CF93CDB71E
:1013A000DEB71B8587E00E94740A8823D1F11130D3
:1013B00061F0113018F01230A1F511C0EC85FD85F7
:1013C000809185028823E1F306C0EC85FD8580913C
:1013D00086028823E1F3309721F1099522C0CC845D
:1013E000DD84EE84FF8400E010E0002351F480915E
:1013F0008502882331F0C114D10411F0F60109955A
:1014000001E0112351F480918602882331F0E11428
:10141000F10411F0F701099511E0002331F31123D4
:1014200021F3CF91DF911F910F91FF90EF90DF900B
:10143000CF9008953A9A3B9A3C9A3D9A3E9A3F9AA9
:1014400088B1837088B908958BE00E94670A882369
:1014500011F082E0089589E00E94740A882369F4FB
:1014600010928802109287028DE061E772E10E947B
:10147000F90E0E94420A81E008958BE00E94570A0B
:1014800082E0089510928000E1E8F0E0108280810F
:1014900088608083808181608083109285001092B3
:1014A00084001092890088EC80938800089585312B
:1014B00060F4E82FF0E0ED5CFD4F8081882329F097
:1014C000808181508083808108958FEF08958531D8
:1014D00010F080E00895E82FF0E0ED5CFD4F808192
:1014E0008F5F808381500895853110F080E00895EA
:1014F000E82FF0E0ED5CFD4F8081811181E00895DF
:101500001F93182F80919101882341F080919801B9
:10151000882399F010929101109298010E94B50AC7
:101520008093900182E991E061E040E028E230E0C0
:101530000E94780B81E0809391019091900113308B
:1015400018F0133079F409C0E12FF0E0EF5FFE4F9F
:101550008081892341F081E006C091FF03C0892F7B
:10156000817001C080E01F9108950F931F9381E067
:101570000E94740A882311F400E024C087E00E94CE
:10158000320582E06AE00E94830582E062EB0E94FD
:10159000830518EC812F8A95F1F782E060E00E94C4
:1015A0006310082F812F8A95F1F782E060E00E9496
:1015B00063101A95F1F787E00E94320588E893E1FD
:1015C0000197F1F7802F1F910F910895DF93CF932B
:1015D00000D00F92CDB7DEB781E00E94670A882362
:1015E00011F082E011C00E94F0048150823040F47A
:1015F0000E940A0BCE0101960E94BC1281E004C039
:1016000081E00E94570A87E00F900F900F90CF91D2
:10161000DF91089510929E0210929D021092A002F6
:1016200010929F021092A2021092A1021092A402A4
:101630001092A3021092A6021092A50280E991E0F6
:1016400090938A028093890290938C0280938B02FC
:1016500090938E0280938D029093900280938F02DC
:10166000909392028093910284E398E09093940285
:1016700080939302909396028093950290939802A0
:101680008093970290939A028093990290939C0280
:1016900080939B0208950F931F93DF93CF93CDB751
:1016A000DEB729970FB6F894DEBF0FBECDBF8C0111
:1016B00088E00E94740A882311F491E00DC0CE01E5
:1016C000019661E040E098010E94780B982F8823F2
:1016D00019F48F818823E9F3892F29960FB6F8949E
:1016E000DEBF0FBECDBFCF91DF911F910F91089547
:1016F000EF92FF920F931F93CF93DF93EC01F62E9F
:10170000E42E890188E00E94740A882311F481E0A4
:1017100026C084E090E00E94AB24FC01009711F405
:1017200082E01DC0F982F0FC1E8281E0E81619F407
:101730008981846089838981886089831B830A8386
:101740001D830C83D183C0831382128281E0809336
:10175000FB01CF010E94B60B1092FB0180E0DF91EC
:10176000CF911F910F91FF90EF900895CF92DF924C
:10177000EF92FF920F931F93CF93DF93EC01809131
:10178000A702882339F4D093A902C093A8020E942B
:10179000361347C0C090A802D090A90200E010E024
:1017A000EE24FF2437C0A881B981FD0164817581D1
:1017B000F60140815181FA01848195819B01281BAA
:1017C000390B37FF0FC0861B970B95838483DB8211
:1017D000CA82012B29F4D093A902C093A80221C088
:1017E000F7010CC0F601828193812115310549F47E
:1017F000FD01158214829B838A83F601D383C28301
:1018000010C0FD01358324830097B9F30F5F1F4F8C
:1018100076016C018091A70290E00817190718F271
:10182000ECCF8091A7028F5F8093A702DF91CF91C9
:101830001F910F91FF90EF90DF90CF9008958CE073
:101840000E94670A882311F082E008958BE00E94CD
:10185000740A8823A1F40E94240A813081F480E074
:101860000E94F91288EE93E024EF31E0F9013197FC
:10187000F1F70197D9F70E94A80C81E008958CE058
:101880000E94570A87E00895EF92FF920F931F93EB
:101890008CE00E94740A882309F452C00E947A12D4
:1018A000139A81E28A95F1F713980B98EE24FF249E
:1018B00087010CC0039B0AC082E48A95F1F780B1CE
:1018C00086958695869580FF26C00FC00894E11CFA
:1018D000F11C011D111D80E2E81681EAF80687E07F
:1018E000080780E0180731F722C00E948412EE2416
:1018F000FF24870102C0039B0EC00894E11CF11C69
:10190000011D111D90E2E91691EAF90697E0090719
:1019100090E0190781F70E948C1280E090E2E916AE
:1019200091EAF90697E0090790E0190708F081E0CD
:101930000B9A1398813021F00E9474129C0102C00E
:1019400020E030E0C9011F910F91FF90EF900895C2
:101950000B9A139808950E94A5120E94DC0F0E9412
:101960000D0F0E941A130E94F0040E94E60A789458
:101970000895000008951F920F920FB60F92112440
:101980002F933F934F935F936F937F938F939F9387
:10199000AF93BF93EF93FF93E091BB01F091BC0134
:1019A000309709F00995FF91EF91BF91AF919F9109
:1019B0008F917F916F915F914F913F912F910F90F8
:1019C0000FBE0F901F9018951F920F920FB60F9297
:1019D00011242F933F934F935F936F937F938F9334
:1019E0009F93AF93BF93EF93FF93E091BD01F0916D
:1019F000BE01309709F00995FF91EF91BF91AF912A
:101A00009F918F917F916F915F914F913F912F9116
:101A10000F900FBE0F901F9018951F920F920FB648
:101A20000F9211242F933F934F935F936F937F9364
:101A30008F939F93AF93BF93EF93FF93E091BF0179
:101A4000F091C001309709F00995FF91EF91BF9196
:101A5000AF919F918F917F916F915F914F913F9146
:101A60002F910F900FBE0F901F9018951F920F92FD
:101A70000FB60F9211242F933F934F935F936F9361
:101A80007F938F939F93AF93BF93EF93FF93E091D7
:101A9000AD01F091AE01309709F00995FF91EF91FA
:101AA000BF91AF919F918F917F916F915F914F9176
:101AB0003F912F910F900FBE0F901F9018951F927E
:101AC0000F920FB60F9211242F933F934F935F9372
:101AD0006F937F938F939F93AF93BF93EF93FF93F6
:101AE000E091AF01F091B001309709F00995FF91B5
:101AF000EF91BF91AF919F918F917F916F915F9186
:101B00004F913F912F910F900FBE0F901F901895FE
:101B10001F920F920FB60F9211242F933F934F9362
:101B20005F936F937F938F939F93AF93BF93EF9345
:101B3000FF93E091B101F091B201309709F009955E
:101B4000FF91EF91BF91AF919F918F917F916F9195
:101B50005F914F913F912F910F900FBE0F901F906B
:101B600018951F920F920FB60F9211242F933F9347
:101B70004F935F936F937F938F939F93AF93BF9395
:101B8000EF93FF93E091B501F091B601309709F022
:101B90000995FF91EF91BF91AF919F918F917F91A7
:101BA0006F915F914F913F912F910F900FBE0F90CA
:101BB0001F9018951F920F920FB60F9211242F931A
:101BC0003F934F935F936F937F938F939F93AF93C5
:101BD000BF93EF93FF93E091B701F091B801309775
:101BE00009F00995FF91EF91BF91AF919F918F916E
:101BF0007F916F915F914F913F912F910F900FBE09
:101C00000F901F9018951F920F920FB60F921124EC
:101C10002F933F934F935F936F937F938F939F93F4
:101C2000AF93BF93EF93FF93E091B301F091B401B1
:101C3000309709F00995FF91EF91BF91AF919F9176
:101C40008F917F916F915F914F913F912F910F9065
:101C50000FBE0F901F9018951F920F920FB60F9204
:101C600011242F933F934F935F936F937F938F93A1
:101C70009F93AF93BF93EF93FF93E091B901F091DE
:101C8000BA01309709F00995FF91EF91BF91AF919B
:101C90009F918F917F916F915F914F913F912F9184
:101CA0000F900FBE0F901F9018951F920F920FB6B6
:101CB0000F9211242F933F934F935F936F937F93D2
:101CC0008F939F93AF93BF93EF93FF93E091A30103
:101CD000F091A401309709F00995FF91EF91BF9120
:101CE000AF919F918F917F916F915F914F913F91B4
:101CF0002F910F900FBE0F901F9018951F920F926B
:101D00000FB60F9211242F933F934F935F936F93CE
:101D10007F938F939F93AF93BF93EF93FF93E09144
:101D2000A501F091A601309709F00995FF91EF9177
:101D3000BF91AF919F918F917F916F915F914F91E3
:101D40003F912F910F900FBE0F901F9018951F92EB
:101D50000F920FB60F9211242F933F934F935F93DF
:101D60006F937F938F939F93AF93BF93EF93FF9363
:101D7000E091A701F091A801309709F00995FF9132
:101D8000EF91BF91AF919F918F917F916F915F91F3
:101D90004F913F912F910F900FBE0F901F9018956C
:101DA0001F920F920FB60F9211242F933F934F93D0
:101DB0005F936F937F938F939F93AF93BF93EF93B3
:101DC000FF93E091A901F091AA01309709F00995DC
:101DD000FF91EF91BF91AF919F918F917F916F9103
:101DE0005F914F913F912F910F900FBE0F901F90D9
:101DF0001895E82F803268F48051833050F0F0E07D
:101E0000EE0FFF1FE556FE4F208131817183608305
:101E100002C020E030E0C901089580E10E94670A15
:101E2000882311F082E00895EBE9F1E0119211921C
:101E300081E0EB3DF807D1F781E00895FF920F9321
:101E40001F93CF93DF93F82E8AE0F816B1F08F1529
:101E500048F0E8E0FE16B9F1EF1538F1F7E0FF16AB
:101E600051F43BC08DE0F81659F0EBE1FE1689F015
:101E7000FCE0FF1641F001E041C01092480203C0AF
:101E8000109248023AC080914902815080934902E1
:101E900034C00E94A80314C080E061E00E94A50441
:101EA000809148028F5F809348028091480287FFAB
:101EB000F3CF1092480280914902815080934902E9
:101EC00000E011E01CC0809148028823B1F08091AD
:101ED000480286508093480210C081E00E9434116D
:101EE00064EF71E080E090E04DE750E024E630E000
:101EF0000E94401181E00E949B1000E010E0809160
:101F00004902609148020E945004002351F185E08B
:101F1000F89EC0011124EC01CD59DE4F8C01085907
:101F20001E4FFE01849161E00E94A5042196C01716
:101F3000D107B9F780E061E00E94A50480914802D2
:101F40008A5F809348028091480290E08C37910527
:101F50003CF01092480280914902815080934902DE
:101F600011E080914902837080934902113059F445
:101F700080914A02813039F4E0914B02F0914C0299
:101F8000309709F0099580E090E0DF91CF911F91A3
:101F90000F91FF9008951F93182F86E00E94740AF6
:101FA000882319F0812F0E94D70F1F91089585FD76
:101FB0005D9886FD5E980895F8940E94371081E040
:101FC0000E94E40F81E00895813049F0F894813057
:101FD00020F18230B1F0833009F045C017C02C9A4F
:101FE00080E8809361001092610080E090E0000042
:101FF000019688329105D9F71092680010926B0013
:10200000089580E88093610083E004C080E88093B5
:10201000610088E08093610028C080E090E00000CB
:1020200001962DE680369207D1F72C9880E090E05B
:10203000000001962DE680369207D1F710927A00C3
:102040008FEF8093640080916800816080936800C6
:1020500080916B00846080936B00789483B781607B
:1020600083BF88950895823008F078940895249A63
:102070002C9A089583E58CBD81E08DBD8DE08A9515
:10208000F1F7089583E58CBD1DBC84EF91E00197C5
:10209000F1F708958FE78CBD1DBC84EF91E00197A7
:1020A000F1F7089583E58CBD81E08DBD8DE08A95C3
:1020B000F1F7089583E58CBD81E08DBD84EF91E05B
:1020C0000197F1F708951F93162F0E94320582E0C1
:1020D0000E94740A882329F01EBD0DB407FEFDCFAF
:1020E0008EB51F9108958AE00E94570A882329F42B
:1020F00081E00E9496111092EC01089589E00E94FF
:10210000570A8823B9F48091EB01882311F00E94CB
:10211000DC1182E00E9496118091F9019091FA0100
:10212000009731F00E9440251092FA011092F901B7
:102130001092EB010895813029F0823029F40E9439
:102140007E1008950E94731008950F931F93CF93EC
:10215000DF9380E291E00E94AB249C019093FA010E
:102160008093F901892B11F480E039C08901C0E026
:10217000D0E0BE0180E090E00E94422120E030E00B
:1021800040EA51E40E949A2027EF35E740E05FE300
:102190000E9436229B01AC0160E070E080E291E495
:1021A0000E94A3229B01AC01CA01B9012DEC3CECB9
:1021B00042E851E40E9436220E94F9212AE030E0F0
:1021C00040E050E00E942824F801619371938193CC
:1021D00091938F012196C834D10559F681E0DF91A2
:1021E000CF911F910F9108958AE00E94670A88237A
:1021F00011F082E008951092F6011092F50181E04D
:102200000E94B21181E08093EC0108951F9389E050
:102210000E94670A882311F082E024C08BE00E94AC
:10222000740A8823D9F40E94A510182F813011F068
:1022300086E018C01092ED011092EE011092EF01AD
:102240001092F0018DE066E673E10E94F90E82E0E3
:102250000E94B2111093EB0181E004C089E00E945A
:10226000570A87E01F910895813021F0823029F0CC
:1022700084E008950E94F41008950E9406110895C4
:102280006F927F928F929F92AF92BF92CF92DF9286
:10229000EF92FF920F931F93CF93DF933B014C017B
:1022A0005A01E9018AE00E94740A882381F120978B
:1022B00041F19501442737FD4095542FBE01C536A5
:1022C000D10510F064E670E080E090E00E942824E0
:1022D00024E630E040E050E00E94382479018A0191
:1022E000C401B3010E946913C7010E944B0B60E057
:1022F00070E080E090E00E946913C5018E199F098B
:1023000004C0A114B10419F0C5010E944B0BDF9168
:10231000CF911F910F91FF90EF90DF90CF90BF90E2
:10232000AF909F908F907F906F900895823029F4A6
:10233000809181008E7F809381008091EB018130BC
:1023400031F48091EC01813011F400000895809106
:10235000EB01813021F08091EC01813011F45F9824
:1023600057980895982F8091EB01882331F480913C
:10237000EC01882311F4579A5F988091EB01882330
:10238000D1F49230C1F410928000109281008091BB
:1023900081008860809381008091810081608093BA
:1023A0008100109285001092840081E08093890062
:1023B00080E9809388000895EFE6F0E080818D7FCA
:1023C00080830895982F81E080938402913051F0AA
:1023D000913018F0923041F403C010926C0204C0A6
:1023E00010926C0210926D02109284020895982F40
:1023F00081E080938402913071F0913018F0923036
:1024000071F405C0709361026093600208C070931C
:1024100061026093600270936302609362021092A3
:102420008402089521E020938402E0E6F2E09183A3
:102430008083329671836083109284020895982F6E
:1024400081E080938402913051F0913018F0923005
:1024500041F403C060936E0204C060936E02609307
:102460006F021092840208950F931F93CF93DF930E
:10247000EB018A01813001F1813018F0823061F581
:102480000DC08091580290915902892B11F080E083
:102490001AC010926502109264021EC08091580208
:1024A00090915902892B21F080E00E94CE1304C044
:1024B000109265021092640280915A0290915B0220
:1024C000892B31F081E0BE01A8010E94CE1304C027
:1024D0001092670210926602DF91CF911F910F91C7
:1024E00008950E944913089520918702309188022F
:1024F000C9010895209187023091880210928802C4
:1025000010928702C90108958BE00E94740A882303
:1025100011F00E94991208958BE00E94740A88239A
:1025200011F00E949F122091870230918802C90108
:102530000895EFE6F0E08081826080830895EFE601
:10254000F0E080818D7F80830895CF93DF93C0E09A
:10255000D0E08C2F60E00E94B4122196C531D105E5
:10256000C1F7DF91CF910895853128F4E82FF0E08D
:10257000ED5CFD4F608308951F93CF93DF93EC01D3
:10258000009799F181E00E94740A882351F187E055
:102590000E94320518EC812F8A95F1F782E06AE0FB
:1025A0000E94830582E064EB0E948305812F8A9557
:1025B000F1F782E060E00E9463108883812F8A95A2
:1025C000F1F782E060E00E94631089831A95F1F7C9
:1025D00082E060E00E9463108A8387E00E943205F7
:1025E00004C0188219828DE28A83DF91CF911F91F6
:1025F00008951F93182F81E00E94740A8823C1F068
:1026000087E00E94320588EC8A95F1F782E06AE063
:102610000E94830582E065EB0E94830582E0612FC2
:102620000E94830589EE8A95F1F787E00E943205C2
:102630001F91089588E00E94670A882311F082E0C4
:1026400008951092A7021092A9021092A802109267
:10265000FB011092FC0180E16BE374E10E945513D1
:102660000E943A130E94431381E0089581E0809311
:10267000FC01089584B5826084BD85B5846085BD04
:102680008EE487BD0895EEE6F0E08081826080836D
:102690000895CF93DF93C7E8D2E0888199810196AE
:1026A00088839983DF91CF910895803218F020E0DC
:1026B00030E00AC0E82FF0E0EE0FFF1FE556FE4FB6
:1026C0002081318171836083C90108950E948D1337
:1026D0000895EF92FF920F931F937B018C018AE084
:1026E0000E94740A8823A1F08091EC01882381F074
:1026F000D801C701880F991FAA1FBB1F9093F8012B
:102700008093F701E114F1040105110509F45F98C4
:102710001F910F91FF90EF9008958091ED0190919E
:10272000EE01A091EF01B091F0012091F101309103
:10273000F2014091F3015091F401280F391F4A1F13
:102740005B1F2093ED013093EE014093EF01509316
:10275000F0018091ED019091EE01A091EF01B09117
:10276000F0018851964FA040B040BCF08BB180582A
:102770008BB98091ED019091EE01A091EF01B091A4
:10278000F0018851964FA040B0408093ED019093A6
:10279000EE01A093EF01B093F0010895EF92FF9244
:1027A0000F931F93CF93DF93EB01882321F08130A8
:1027B00009F05AC02DC09A0140E050E0CA01B901A9
:1027C0000E9428242091580230915902220F331F71
:1027D00040E050E00E94382479018A01A801970165
:1027E000220F331F441F551FCE01A0E0B0E0821717
:1027F0009307A407B50728F0F0926502E0926402FF
:1028000033C0D695C795D0936502C09364022CC09F
:102810009A0140E050E0CA01B9010E9428242091A9
:102820005A0230915B02220F331F40E050E00E94B9
:10283000382479018A01A8019701220F331F441F10
:10284000551FCE01A0E0B0E082179307A407B5079B
:1028500028F0F0926702E092660206C0D695C7950E
:10286000D0936702C0936602DF91CF911F910F91C1
:10287000FF90EF9008950E9442140E9482140E94DB
:102880005B14089588E00E94740A882311F484E0A0
:1028900008958091FC01882311F483E008958091CC
:1028A000FB01882311F082E008950E94CF16813049
:1028B000E1F380E008958091EC01813011F5809181
:1028C000F5019091F6012091F7013091F801280F60
:1028D000391F3093F6012093F5018091F501909115
:1028E000F601885E93406CF08BB180588BB9809173
:1028F000F5019091F601885E93409093F6018093E4
:10290000F501089587E00E94740A882309F4AAC09B
:102910008091580290915902892B09F180917C0293
:1029200090917D022091580230915902820F931F9D
:1029300090937D0280937C0280917C0290917D0235
:10294000885E9340A4F080917C0290917D02885E25
:10295000934090937D0280937C0241E009C0809176
:10296000500290915102909355028093540240E09E
:1029700080915A0290915B02892B09F180917E022D
:1029800090917F0220915A0230915B02820F931F37
:1029900090937F0280937E0280917E0290917F02CD
:1029A000885E9340A4F080917E0290917F02885EC1
:1029B000934090937F0280937E0261E009C08091F2
:1029C000520290915302909357028093560260E016
:1029D000842F0E9433158091780290917902209182
:1029E000540230915502280F391F309379022093F9
:1029F00078028091780290917902885E934014F475
:102A000040E00BC08091780290917902885E9340FB
:102A1000909379028093780241E080917A029091BC
:102A20007B022091560230915702280F391F3093B4
:102A30007B0220937A0280917A0290917B02885ED9
:102A4000934014F460E00BC080917A0290917B0275
:102A5000885E934090937B0280937A0261E0842F9A
:102A60000E94781508958823F1F02091500230914A
:102A700051028091540290915502281B390B121675
:102A8000130634F48091540290915502019607C0C8
:102A9000232B49F080915402909155020197909315
:102AA000550280935402662311F120915202309115
:102AB00053028091560290915702281B390B12162F
:102AC000130654F480915602909157020196909308
:102AD0005702809356020895232B49F080915602A5
:102AE0009091570201979093570280935602089550
:102AF0000F931F93182F062F80918402882309F0CB
:102B0000E7C080916C02882309F05AC0809154027A
:102B100090915502892BE9F48091FD01837E809389
:102B2000FD011092750280918002882309F45DC036
:102B300060916E0280E00E94A209E0918202F09111
:102B40008302309709F451C081E0808310928002A3
:102B50004CC080914E02813041F48091600290918E
:102B60006102019711F411E002C01123F1F1E0912B
:102B70007302F0E0ED5EFE4F9091FD01937E808147
:102B8000892B8093FD0180917102882321F480912B
:102B900073028F5F03C08091730281508093730230
:102BA0008091730283708093730281E08093750239
:102BB00080914E028130C9F480E00E947B1615C0DE
:102BC0009091FD01937E9093FD01E0917302F0E0FE
:102BD000ED5EFE4F8081892B8093FD0182E0809322
:102BE0007502109255021092540280916D02882352
:102BF00009F059C08091560290915702892BE9F44F
:102C00008091FD018F718093FD0110927602809179
:102C10008102882309F45CC060916F0281E00E9408
:102C2000A209E0918202F0918302309709F450C02A
:102C300081E08183109281024BC080914F028130EC
:102C400041F48091620290916302019711F401E0D6
:102C500002C00023E9F1E0917402F0E0E95EFE4F6A
:102C60009091FD019F718081892B8093FD0180915E
:102C70007202882321F4809174028F5F03C08091D7
:102C800074028150809374028091740283708093E7
:102C9000740281E08093760280914F028130C1F40A
:102CA0000E947B1615C09091FD019F719093FD01CC
:102CB000E0917402F0E0E95EFE4F8081892B809301
:102CC000FD0182E080937602109257021092560224
:102CD00080917702882331F48DEF91E0612F402FAE
:102CE0000E943D1788B183709091FD01892B88B9AE
:102CF0001F910F910895882321F0813009F04EC073
:102D000027C08091600290916102892B49F08091E7
:102D1000600290916102019790936102809360023A
:102D2000809180028823D1F5209160023091610268
:102D300080916402909165022817390779F580E047
:102D400060E070E00E943E0881E080938002089578
:102D50008091620290916302892B49F08091620216
:102D60009091630201979093630280936202809135
:102D70008102882399F4209162023091630280914C
:102D80006602909167022817390741F481E060E0FC
:102D900070E00E943E0881E0809381020895FF92D6
:102DA0000F931F93CF93DF938091A702882309F499
:102DB00059C00091A8021091A902F801C081D181E7
:102DC0008C819D8101979D838C83181619060CF4C4
:102DD00049C0898180FF05C08E81882311F481E07C
:102DE0008E83898181FF03C0EF81F88509958091E9
:102DF000A7028230A8F0F801828193819093A90202
:102E00008093A80213821282E0910000F0910100E9
:102E100084819581181619063CF0FF24F39405C0AF
:102E20001092A9021092A802FF248091A70281505B
:102E30008093A7028091A702882311F40E943A1779
:102E4000898182FF08C08A819B819D838C83C80110
:102E50000E94B60B08C0C8010E94402589818F7E60
:102E6000898301C0FF248F2DDF91CF911F910F9196
:102E7000FF9008951092FC010895FC018091750265
:102E8000823069F48091010291E0892780930102E8
:102E9000882309F03EC08081837E80833AC0809180
:102EA000540290915502C397A4F56623D1F0209166
:102EB00054023091550280E690E0BC01269FC0018B
:102EC000279F900D369F900D1124880F892F881F02
:102ED000990B909369028093680281E08093FF01CF
:102EE00018C08091FF018823A1F080916802909121
:102EF0006902019790936902809368028091680249
:102F000090916902892B29F48081837E80831092BD
:102F1000FF0180917602823069F48091000291E095
:102F2000892780930002882309F03EC080818F7139
:102F3000808308958091560290915702C397A4F51B
:102F40004423D1F0209156023091570280E690E060
:102F5000AC01249FC001259F900D349F900D11243A
:102F6000880F892F881F990B90936B0280936A02B8
:102F700081E08093FE0108958091FE018823A1F0F5
:102F800080916A0290916B02019790936B028093FB
:102F90006A0280916A0290916B02892B29F48081E8
:102FA0008F7180831092FE010895CF93DF93FC010F
:102FB000308120912902321303C02081211125C0C4
:102FC000EC010E94A80388818230A9F038F488239C
:102FD00061F0813099F48DE291E012C0833041F0CC
:102FE000843061F482E591E00BC081E291E008C099
:102FF00089E391E005C088E491E002C084E691E0B5
:103000000E941427888180932902DF91CF9108952F
:10301000DC01FB019C918081981325C011962D91B4
:103020003C9112978181928128173907E1F4139618
:103030002D913C911497838194812817390799F435
:1030400015962D913C911697858196812817390701
:1030500051F417964D915C9118972781308581E046
:103060004217530709F080E00895CF93DF93EC01F6
:103070009B018091280281110AC041E061E08FE14B
:1030800092E00E94780B81E08093280211C0809129
:103090002502882369F080E40E94CD0480E00E942C
:1030A000800A888381E00E94800A89831092250229
:1030B000DF91CF910895CF93DF93EC019B01809135
:1030C0001E0281110AC041E061E085E192E00E94A8
:1030D000780B81E080931E023DC080911B02882303
:1030E000C9F180E20E94CD0486E00E945D030E9447
:1030F0003503BC0180E090E00E94422120E030E0F6
:1031000040EA50E40E94362220E030E040E85AE3F2
:103110000E9436226A837B838C839D8384E00E9495
:103120005D030E943503BC0180E090E00E944221D3
:1031300020E030E040EA50E40E94362220E030E017
:1031400040E85AE30E9436226E837F8388879987FE
:1031500010921B02DF91CF9108950F931F93CF938D
:10316000DF9300D000D0CDB7DEB78C019B018091FA
:10317000140281110AC041E061E08BE092E00E94FC
:10318000780B81E0809314023CC080911102882367
:10319000C1F184E690E00E944B0B0E94440C9C011C
:1031A000AAE0B0E00E945A240E94422127EE3AE3AE
:1031B0004DE85CE30E943622F801628B738B848BAE
:1031C000958B69837A838B839C830E94A803698192
:1031D0007A818B819C819F938F937F936F9383E7F9
:1031E00091E09F938F930E94FE2684E690E00E94D8
:1031F0004B0B109211020F900F900F900F900F90A9
:103200000F900F900F900F900F90DF91CF911F9123
:103210000F910895CF93DF93EC0180E20E94CD04DB
:1032200086E00E945D030E943503BC0180E090E0CF
:103230000E94422120E030E040EA50E40E94362221
:1032400020E030E040E85AE30E9436226A877B871C
:103250008C879D8784E00E945D030E943503BC013A
:1032600080E090E00E94422120E030E040EA50E41B
:103270000E94362220E030E040E85AE30E943622E5
:103280006E877F87888B998BDF91CF910895FC01A2
:1032900081E0808388EC90E09283818394838383B0
:1032A00080E991E0968385839087878308954F9284
:1032B0005F926F927F928F929F92AF92BF92CF92C6
:1032C000DF92EF92FF920F931F93CF93DF93EC0166
:1032D0003B01FB01D080F1E0DF1253C0E3E09E2E02
:1032E00098820E94A80388E591E00E94142760E07C
:1032F00082E00E94A2091F921F921F92DF92F0E9C2
:103300004F2E4F921F92A8EC5A2E5F921F928AEF77
:103310008F9388248394A12CB12CC12CB0E9EB2E7F
:10332000FF24F39408EC10E02AEF30E041E062E083
:1033300080E00E9447061F921F921F92DF924F92D9
:103340001F925F921F9287E88F9327E830E040E05A
:1033500062E080E00E944706988288EC90E09A83C1
:1033600089839C838B8380E991E09E838D839887FA
:103370008F838DB79EB742960FB6F8949EBF0FBE4F
:103380008DBFF301D180F1E0DF1254C043E0942EF1
:1033900098820E94A80388E591E00E94142760E0CB
:1033A00082E00E94A2091F921F921F92DF9250E9B1
:1033B000452E4F921F9268EC562E5F921F928AEF15
:1033C0008F9388248394A12CB12CC12C70E9E72E13
:1033D000FF24F39408EC10E02AEF30E041E062E0D3
:1033E00080E00E9447061F921F921F92DF924F9229
:1033F0001F925F921F9287E88F93812C27E830E01D
:1034000041E062E080E00E944706988288EC90E00C
:103410009A8389839C838B8380E991E09E838D834B
:1034200098878F838DB79EB742960FB6F8949EBF4C
:103430000FBE8DBFF3018181813009F058C0D0806B
:10344000F1E0DF1254C083E0782E78820E94A80356
:1034500088E591E00E94142760E082E00E94A209C2
:103460001F921F921F92DF9290E9992E9F921F92B6
:1034700028EC622E6F92DF9284EF8F9388248394DE
:10348000A12CB12CC12C30E9E32EFF24F39408ECDD
:1034900010E024EF31E041E062E080E00E94470666
:1034A0001F921F921F92DF929F921F926F921F9204
:1034B0008FEA8F93812C2FEA30E041E062E080E0D8
:1034C0000E944706788288EC90E09A8389839C83E7
:1034D0008B8380E991E09E838D8398878F838DB75E
:1034E0009EB742960FB6F8949EBF0FBE8DBFDF9178
:1034F000CF911F910F91FF90EF90DF90CF90BF90F1
:10350000AF909F908F907F906F905F904F900895B5
:103510002F923F924F925F926F927F928F929F92E3
:10352000AF92BF92CF92DF92EF92FF920F931F93D1
:10353000CF93DF93CDB7DEB728970FB6F894DEBFF1
:103540000FBECDBF8C011B01DB011A966D917D91E1
:103550008D919C911D971E962D913D914D915C9161
:1035600051971A968D909D90AD90BC901D971E9688
:103570004D905D906D907C9051970E94292020E0A5
:1035800030E040E05FE30E9436229B01AC0160E046
:1035900070E080EA90E40E9428202DEC3CEC4CE4A2
:1035A0005EE30E9436226B017C01A3019201C501FA
:1035B000B4010E94292020E030E040E05FE30E9457
:1035C00036229B01AC01C701B6010E9429202B01C4
:1035D0003C01F1016281738184819581228533856B
:1035E000448555850E9428206B017C01D1011696E7
:1035F0006D917D918D919C9119971E962D913D9184
:103600004D915C9151970E9428204B015C0120E074
:1036100030E0A9010E94952087FF03C0812C912CE6
:10362000540120E030E0A901C701B6010E949520B5
:1036300087FF03C0C12CD12C7601D1011A968D9140
:103640009D910D90BC91A02D89839A83AB83BC83FF
:10365000D1011E968D919D910D90BC91A02D8D83D1
:103660009E83AF83B887F1016281738184819581E4
:1036700026813781408551850E94292020E030E055
:1036800040E05FE30E943622A30192010E94F421F0
:1036900018160CF055C02D813E814F81588560E091
:1036A00070E080EA90E40E9428209B01AC01C501F3
:1036B000B4010E949A204B015C0129813A814B811F
:1036C0005C8160E070E080EA90E40E9428209B0129
:1036D000AC01C701B6010E949A209B01AC01C50153
:1036E000B4010E9428206B017C0182E0D8018C93F8
:1036F00020E030E040E85FE3C701B6010E942920E6
:1037000020E030E048E453E40E9436220E940C217D
:10371000F80172836183A701960160E070E080E8A0
:103720009FE30E94282020E030E048E453E40E9418
:1037300036220E940C21D80114967C936E93139725
:1037400028960FB6F894DEBF0FBECDBFDF91CF91A4
:103750001F910F91FF90EF90DF90CF90BF90AF90AF
:103760009F908F907F906F905F904F903F902F90A1
:103770000895CF92DF92EF92FF920F931F93CF9312
:10378000DF93EC018B01FB01628973898489958940
:1037900020E030E0A9010E94F42118160CF046C088
:1037A000F801628973898489958920E030E048ECCA
:1037B00052E40E94952087FF39C084E08883F80195
:1037C000628973898489958920E030E046E953E471
:1037D0000E949A209B01AC0160E070E080E89FE3CA
:1037E0000E9428206B017C0120E030E040E85FE38C
:1037F0000E94292020E030E048E453E40E94362271
:103800000E940C217A836983A701960160E070E031
:1038100080E89FE30E94282020E030E048E453E461
:103820000E9436220E940C217C836B83DF91CF9112
:103830001F910F91FF90EF90DF90CF900895CF935D
:10384000DF93EC0162E072E00E940818811114C05D
:103850006F8178858D819E810E94EC076B817C81D0
:1038600089819A810E94890789E0FE01A2E0B2E085
:1038700001900D928A95E1F7DF91CF910895CF9352
:10388000DF93CDB7DEB766970FB6F894DEBF0FBEF5
:10389000CDBF0E94C2040E94CA030E94E0060E949B
:1038A0002A0381E00E9452030E94240A0E941F0CF6
:1038B00010922C0210922B0210922E0210922D02C6
:1038C0001092300210922F021092320210923102A6
:1038D00010922A0280E891E00E94142788EB9BE076
:1038E0000E944B0BCE0101960E940A190E94A80368
:1038F0006DE770E0CE0101960E9435186AEF70E026
:10390000CE0101960E945B186DE770E0CE01019632
:103910000E94AD188AE292E00E944719BE016F5FD3
:103920007F4F8AE292E00E94881ABE016F5F7F4F4C
:103930008AE292E00E94B91BBE016F5F7F4F8AE26C
:1039400092E00E9457198AE292E00E941F1C8AE2CC
:1039500092E00E94D517CCCFA3E1B0E0E2EBFCE10E
:103960000C9474246C014B012A01FC01178216820D
:10397000838181FF43C3AE014F5F5F4F3A01F60180
:103980009381F40193FD859193FF81914F018823E9
:1039900009F430C3853239F493FD859193FF819109
:1039A0004F01853239F4B60190E00E94C6265201DB
:1039B0002501E5CF10E0F12C20E02032A0F48B327D
:1039C00069F030F4803259F0833269F420612CC000
:1039D0008D3239F0803339F4216026C022602460B2
:1039E00023C0286021C027FD27C030ED380F3A30B2
:1039F00078F426FF06C0FAE01F9F300D1124132F24
:103A000013C04AE0F49E300D1124F32E20620CC046
:103A10008E3221F426FDEEC2206406C08C3611F4ED
:103A2000206802C0883641F4F40193FD859193FF2C
:103A300081914F018111C1CF9BEB980F933018F406
:103A40002061805E06C09BE9980F933008F071C139
:103A50002F7E26FF16E02F73322E853619F4206450
:103A6000322E08C0863621F4F22FF0683F2E02C0B5
:103A70001111115037FE07C01C3350F4EE24E394AB
:103A8000E10E27E00BC0183038F027E017E005C042
:103A900027E04CE3E42E02C0212FE12C520144E048
:103AA000A40EB11CF20160817181828193810E2D7F
:103AB000A3010E94D8252C01098100FF02C003FF49
:103AC00007C031FC08C032FE09C030E2232E07C017
:103AD0002DE2222E04C09BE2292E01C0212C802F32
:103AE0008C7019F0211068C2A8C237FE0FC0E40C18
:103AF00004FF04C08A81813309F4EA941E1474F52A
:103B0000F8E0FE1578F588E0E82E2CC036FC2AC0D7
:103B1000812F90E0841595059CF02CEF42162FEF35
:103B2000520674F0432D4068342E0AC0E2E0F0E003
:103B3000EC0FFD1FE10FF11D8081803319F411504E
:103B40001111F4CF37FE0EC0EE24E394E10E812F65
:103B500090E0481659062CF4141904C0EE24E3949E
:103B600001C010E037FE06C01414150434F4C2017D
:103B7000019605C085E090E002C081E090E0211050
:103B80000196112331F0212F30E02F5F3F4F820F3C
:103B9000931F2F2D30E08217930714F4F81A01C0F9
:103BA000F12C832D897049F4FF2039F0B60180E2B1
:103BB00090E00E94C626FA94F7CF222029F0B601A1
:103BC000822D90E00E94C62633FC09C0FF2039F008
:103BD000B60180E390E00E94C626FA94F7CF37FE44
:103BE0005AC0942D852D57FE02C090E080E0292E0A
:103BF000382E20E030E0A2014E1951095D874C8734
:103C0000A201421953095F874E87612F70E0442754
:103C10005527461B570B598B488B5FEF25163506EA
:103C200049F4B6018EE290E02A8B3B8B0E94C626B7
:103C30003B892A89421453046CF04C855D854215FA
:103C4000530544F4EE85FF85E20FF31FE60DF71DE3
:103C5000818101C080E351E0251A31082F5F3F4F79
:103C600048895989241635064CF0B60190E02A8B14
:103C70003B8B0E94C6262A893B89CFCF241435046A
:103C800039F49A81963318F4953311F404FF81E3E3
:103C9000B60190E04BC08A81813309F00F7EB601F6
:103CA00090E00E94C626111105C034FC18C085E6BC
:103CB00090E017C0B6018EE290E00E94C62682E036
:103CC000EE24E394E80EF301E80FF11D8081B601C4
:103CD00090E00E94C62611508E2D91F7E6CF85E424
:103CE00090E0B6010E94C62657FC05C0411451045D
:103CF00039F404FF05C05194419451088DE201C08C
:103D00008BE2B60190E00E94C62680E39AE0491655
:103D100051042CF08F5F5AE0451A5108F7CFB601D5
:103D200090E00E94C626B601C201C0960E94C62637
:103D300057C1833631F0833779F0833509F058C0A5
:103D400021C05201E2E0AE0EB11CF20180818983F4
:103D500001E010E0230114C05201F2E0AF0EB11CEB
:103D6000F2014080518026FF03C0612F70E002C045
:103D70006FEF7FEFC2012A8B0E94BB268C012A893C
:103D80002F7715C05201F2E0AF0EB11CF201408056
:103D9000518026FF03C0612F70E002C06FEF7FEFFC
:103DA000C2012A8B0E94B0268C012A892068322EFB
:103DB00023FD1AC08F2D90E008171907A8F4B6014B
:103DC00080E290E00E94C626FA94F4CFF20137FC1C
:103DD000859137FE81912F01B60190E00E94C626A1
:103DE000F110FA94015011090115110579F7F8C085
:103DF000843611F0893659F5520127FF09C0F4E0E5
:103E0000AF0EB11CF20160817181828193810AC081
:103E1000F2E0AF0EB11CF20160817181072E000C3F
:103E2000880B990B2F76322E97FF09C090958095BD
:103E3000709561957F4F8F4F9F4F2068322E2AE0FB
:103E400030E0A3010E944427E82EE6183FC0022F6D
:103E5000853721F40F7E2AE030E01DC0097F8F36C0
:103E600091F018F4883559F0C5C0803719F08837BB
:103E700011F0C0C0006104FF09C0046007C024FF46
:103E800008C0066006C028E030E005C020E130E050
:103E900002C020E132E0520107FF09C0F4E0AF0E9A
:103EA000B11CF201608171818281938108C0F2E0CE
:103EB000AF0EB11CF2016081718180E090E0A3013E
:103EC0000E944427E82EE6180F77302E36FE0BC0EE
:103ED000332D3E7FE11650F434FE0AC032FC08C098
:103EE000332D3E7E05C00E2D332D03C00E2D01C097
:103EF000012F34FF0CC0FE01EE0DF11D80818033D7
:103F000011F4397E08C032FF05C00E5F04C0832F54
:103F1000867809F00F5F33FD13C030FF06C01E2DF9
:103F20000F1518F41F0D101B0F2D0F1568F4B60197
:103F300080E290E03B8B0E94C6260F5F3B89F5CF65
:103F40000F1510F4F01A01C0F12C34FF12C0B601A5
:103F500080E390E03B8B0E94C6263B8932FF17C06E
:103F600031FD03C088E790E002C088E590E0B6012B
:103F70000CC0832F867859F031FF02C08BE201C05C
:103F800080E237FD8DE2B60190E00E94C626E11680
:103F900038F4B60180E390E00E94C6261150F7CFB6
:103FA000EA94F301EE0DF11D8081B60190E00E94CC
:103FB000C626E110F5CF14C0F4E0FF1558F584E0F3
:103FC000F81A33FE1EC0211026C003FF2AC00EEFD0
:103FD00010E0F32DF0713F2EF8018491811124C07F
:103FE000FF2009F4E5CCB60180E290E00E94C626ED
:103FF000FA94F6CFF6018681978126C08FEF9FEF66
:1040000023C0B60180E290E00E94C626FA94F11027
:10401000F8CFD9CFF12CB601822D90E00E94C626B0
:10402000D4CF02E011E0D5CF31108052B60190E03C
:104030000E94C6260F5F1F4FCFCF23E02F1510F42D
:1040400083E0BECFF12CC1CF6396E2E10C949024C3
:104050005058BB27AA270E9440200C94BA210E94E6
:10406000AC2138F00E94B32120F039F49F3F19F4BD
:1040700026F40C94A9210EF4E095E7FB0C94A321FF
:10408000E92F0E94CB2158F3BA1762077307840700
:10409000950720F079F4A6F50C94ED210EF4E09547
:1040A0000B2EBA2FA02D0B01B90190010C01CA01F2
:1040B000A0011124FF27591B99F0593F50F4503E9D
:1040C00068F11A16F040A22F232F342F4427585F8F
:1040D000F3CF469537952795A795F0405395C9F7A7
:1040E0007EF41F16BA0B620B730B840BBAF091505F
:1040F000A1F0FF0FBB1F661F771F881FC2F70EC0FE
:10410000BA0F621F731F841F48F4879577956795D0
:10411000B795F7959E3F08F0B0CF9395880F08F0BC
:104120009927EE0F9795879508950E947F2108F4AF
:1041300081E008950E94AE200C94BA210E94B32120
:1041400058F00E94AC2140F029F45F3F29F00C9414
:10415000A32151110C94EE210C94A9210E94CB2192
:1041600068F39923B1F3552391F3951B550BBB27A6
:10417000AA2762177307840738F09F5F5F4F220FEB
:10418000331F441FAA1FA9F335D00E2E3AF0E0E8E2
:1041900032D091505040E695001CCAF72BD0FE2F2C
:1041A00029D0660F771F881FBB1F261737074807C0
:1041B000AB07B0E809F0BB0B802DBF01FF27935878
:1041C0005F4F3AF09E3F510578F00C94A3210C9478
:1041D000EE215F3FE4F3983ED4F38695779567959B
:1041E000B795F7959F5FC9F7880F911D96958795AD
:1041F00097F90895E1E0660F771F881FBB1F6217CC
:1042000073078407BA0720F0621B730B840BBA0B89
:10421000EE1F88F7E09508950E9413216894B1116C
:104220000C94EE2108950E94D32188F09F5798F0B6
:10423000B92F9927B751B0F0E1F0660F771F881FAB
:10424000991F1AF0BA95C9F714C0B13091F00E94C5
:10425000ED21B1E008950C94ED21672F782F882788
:10426000B85F39F0B93FCCF3869577956795B395EC
:10427000D9F73EF490958095709561957F4F8F4F5B
:104280009F4F0895E89409C097FB3EF49095809560
:10429000709561957F4F8F4F9F4F9923A9F0F92F0C
:1042A00096E9BB279395F695879577956795B7958A
:1042B000F111F8CFFAF4BB0F11F460FF1BC06F5F70
:1042C0007F4F8F4F9F4F16C0882311F096E911C082
:1042D000772321F09EE8872F762F05C0662371F0A3
:1042E00096E8862F70E060E02AF09A95660F771FB7
:1042F000881FDAF7880F9695879597F90895990F93
:104300000008550FAA0BE0E8FEEF16161706E8079F
:10431000F907C0F012161306E407F50798F0621BC0
:10432000730B840B950B39F40A2661F0232B242B95
:10433000252B21F408950A2609F4A140A6958FEFB4
:10434000811D811D089597F99F6780E870E060E006
:1043500008959FEF80EC089500240A94161617061E
:1043600018060906089500240A9412161306140666
:1043700005060895092E0394000C11F4882352F0C9
:10438000BB0F40F4BF2B11F460FF04C06F5F7F4F81
:104390008F4F9F4F089557FD9058440F551F59F068
:1043A0005F3F71F04795880F97FB991F61F09F3F22
:1043B00079F087950895121613061406551FF2CF4B
:1043C0004695F1DF08C0161617061806991FF1CF9B
:1043D00086957105610508940895E894BB276627C2
:1043E0007727CB0197F908950E947F2108F48FEF7A
:1043F00008950E94D321A8F19E57B0F1985160F022
:1044000039F1983070F5092E9927660F771F881FAC
:10441000991F0A94D1F71CC0BB27993F4CF4B111E6
:10442000B1E0B62B672F782F8827985FB1F708C0C7
:10443000869577956795B79508F4B1609395C1F720
:10444000BB0F30F411F460FF03C06F5F7F4F8F4FDD
:104450003EF490958095709561957F4F8F4F9F4F5B
:10446000089568940C94EE210C94ED210E94492249
:104470000C94BA210E94AC2138F00E94B32120F0A4
:10448000952311F00C94A3210C94A92111240C94D0
:10449000EE210E94CB2170F3959FC1F3950F50E060
:1044A000551F629FF001729FBB27F00DB11D639FE6
:1044B000AA27F00DB11DAA1F649F6627B00DA11D8C
:1044C000661F829F2227B00DA11D621F739FB00D32
:1044D000A11D621F839FA00D611D221F749F3327A2
:1044E000A00D611D231F849F600D211D822F762F3B
:1044F0006A2F11249F5750409AF0F1F088234AF018
:10450000EE0FFF1FBB1F661F771F881F9150504083
:10451000A9F79E3F510580F00C94A3210C94EE2145
:104520005F3FE4F3983ED4F3869577956795B7950A
:10453000F795E7959F5FC1F7FE2B880F911D969524
:10454000879597F90895FA01EE0FFF1F3096210520
:104550003105A1F16115710561F48038BFE39B0756
:1045600049F168949038810561F08038BFEF9B076E
:1045700041F099234AF5FF3FE1053105210519F185
:10458000E8940894E795D901AA2329F4AB2FBE2F0C
:10459000F85FD0F310C0FF5F70F4A695E0F7F7392D
:1045A00050F019F0FF3A38F49F779F930DD00F9099
:1045B00007FC9058089546F00C94A92160E070E043
:1045C00080E89FE308954FE79F775F934F933F9372
:1045D0002F930E949E232F913F914F915F910E94B4
:1045E00036220C94FB2229F416F00C94A3210C948F
:1045F000ED210C94A9210E94D321A8F39638A0F7AD
:1046000007F80F92E8942BE33AEA48EB5FE70E9441
:104610004C220F920F920F924DB75EB70F920E94ED
:10462000E623ECE7F0E00E942D234F915F91EF919C
:10463000FF91E595EE1FFF1F49F0FE57E068442704
:10464000EE0F441FFA95E1F74195550B0E94602348
:104650000F9007FE0C9454230895DF93CF931F937C
:104660000F93FF92EF92DF927B018C01689406C05A
:10467000DA2EEF010E944922FE01E894A5912591CE
:10468000359145915591A6F3EF010E944020FE011E
:104690009701A801DA9469F7DF90EF90FF900F91EE
:1046A0001F91CF91DF9108959B01AC0160E070E014
:1046B00080E89FE30C949A200C94A3210C941A2474
:1046C0000E94D321D8F39923C9F3940F511DA3F36A
:1046D0009150504094F059F0882332F0660F771FC4
:1046E000881F91505040C1F79E3F51052CF7880F0D
:1046F000911D9695879597F908955F3FACF0983E88
:104700009CF0BB27869577956795B79508F4B160BF
:104710009395C1F7BB0F58F711F460FFE8CF6F5FB7
:104720007F4F8F4F9F4FE3CF0C94EE2116F00C94E8
:104730001A240C94A92168940C94A3210E94D321DB
:10474000A8F39923C1F3AEF3DF93CF931F930F9395
:10475000FF92C92FDD2788232AF02197660F771F44
:10476000881FDAF720E030E040E85FEB9FE388390C
:1047700020F0803E38F021968F770E942920E4EACD
:10478000F0E004C00E942920E1EDF0E00E942D231A
:104790008B01BE01EC01FB2E6F5771097595771FD8
:1047A000880B990B0E94442128E132E741E35FE343
:1047B0000E944922AF2D9801AE01FF900F911F91E9
:1047C000CF91DF910E9440200C94BA21FA01DC01C4
:1047D000AA0FBB1F9B01AC01BF5728F42227332728
:1047E0004427507820C0B75190F4AB2F0024469551
:1047F00037952795011CA395D2F3002071F0220F65
:10480000331F441FB395DAF30ED00C942820613087
:104810007105A0E88A07B94630F49B01AC01662710
:10482000772788279078309621F020833183428340
:10483000538308959F3F31F0915020F487957795E9
:104840006795B795880F911D9695879597F9089567
:10485000DB018F939F930E946924BF91AF91A29F28
:10486000800D911DA39F900DB29F900D112408956E
:10487000A1E21A2EAA1BBB1BFD010DC0AA1FBB1F64
:10488000EE1FFF1FA217B307E407F50720F0A21BD6
:10489000B30BE40BF50B661F771F881F991F1A9443
:1048A00069F760957095809590959B01AC01BD016D
:1048B000CF010895A29FB001B39FC001A39F700DC7
:1048C000811D1124911DB29F700D811D1124911D18
:1048D00008950E945A24A59F900DB49F900DA49F07
:1048E000800D911D112408952F923F924F925F9257
:1048F0006F927F928F929F92AF92BF92CF92DF92F0
:10490000EF92FF920F931F93CF93DF93CDB7DEB754
:10491000CA1BDB0B0FB6F894DEBF0FBECDBF0994E8
:104920002A88398848885F846E847D848C849B843F
:10493000AA84B984C884DF80EE80FD800C811B814D
:10494000AA81B981CE0FD11D0FB6F894DEBF0FBE7C
:10495000CDBFED010895CF93DF938230910510F420
:1049600082E090E0E091AC02F091AD0220E030E016
:10497000C0E0D0E0309711F14081518148175907CC
:10498000C0F04817590761F482819381209719F08C
:104990009B838A832BC09093AD028093AC0226C088
:1049A0002115310519F04217530718F49A01BE0179
:1049B000DF01EF010280F381E02DDCCF211531050D
:1049C00009F1281B390B2430310590F412968D9192
:1049D0009C9113976115710521F0FB0193838283EC
:1049E00004C09093AD028093AC02FD01329644C0A6
:1049F000FD01E20FF31F81939193225031092D9312
:104A00003C933AC02091AA023091AB02232B41F48F
:104A100020911D0130911E013093AB022093AA0218
:104A200020911B0130911C012115310541F42DB756
:104A30003EB740911F0150912001241B350BE0919E
:104A4000AA02F091AB02E217F307A0F42E1B3F0B72
:104A50002817390778F0AC014E5F5F4F24173507F0
:104A600048F04E0F5F1F5093AB024093AA02819310
:104A7000919302C0E0E0F0E0CF01DF91CF91089583
:104A80000F931F93CF93DF93009709F48CC0FC0121
:104A90003297138212820091AC021091AD0201157F
:104AA000110581F420813181820F931F2091AA0288
:104AB0003091AB022817390779F5F093AB02E093F8
:104AC000AA0271C0D80140E050E0AE17BF0750F411
:104AD00012962D913C911397AD012115310509F1E5
:104AE000D901F3CF9D01DA01338322836081718183
:104AF000860F971F8217930769F4EC01288139818B
:104B0000260F371F2E5F3F4F318320838A819B8181
:104B100093838283452B29F4F093AD02E093AC029A
:104B200042C01396FC93EE931297ED01499159916F
:104B30009E01240F351FE217F30771F480819181E4
:104B4000840F951F029611969C938E938281938178
:104B500013969C938E931297E0E0F0E0D8011296A2
:104B60008D919C911397009719F0F8018C01F6CF65
:104B70008D919C9198012E5F3F4F820F931F209142
:104B8000AA023091AB022817390769F4309729F44B
:104B90001092AD021092AC0202C0138212821093E6
:104BA000AB020093AA02DF91CF911F910F9108955C
:104BB000283008F027E03327DA01990F311D87FDEF
:104BC000916000966105710539F432602E5F3D9366
:104BD00030E32A95E1F708959F3F30F08038710562
:104BE000610509F03C5F3C5F3D93913008F08068BF
:104BF000911DDF93CF931F930F93FF92EF92192F85
:104C0000987F9695E92F96959695E90FFF27E05A9C
:104C1000FE4F99273327EE24FF24A701E7010590D3
:104C20000894079428F4360FE71EF81E491F511DFB
:104C3000660F771F881F991F0694A1F705900794A8
:104C400028F4E70EF81E491F561FC11D770F881F55
:104C5000991F661F0694A1F70590079428F4F80E93
:104C6000491F561FC71FD11D880F991F661F771F29
:104C70000694A1F70590079420F4490F561FC71F0B
:104C8000D81F990F661F771F881F0694A9F7849174
:104C90001095177041F0D695C79557954795F7949D
:104CA000E7941A95C1F7E6E0F1E068941590159144
:104CB00035916591959105907FE27395E118F10A20
:104CC000430B560BC90BD009C0F7E10CF11E431F73
:104CD000561FC91FD01D7EF4703311F48A95E6CF9C
:104CE000E894015030F0080F0AF40027021708F486
:104CF000202F2395022F7A3328F079E37D932A958C
:104D0000E9F710C07D932A9589F6069497956795E3
:104D1000379517951794E118F10A430B560BC90BF9
:104D2000D00998F023957E9173957A3308F070E35B
:104D30007C932013B8F77E9170617D9330F083955A
:104D400071E37D9370E32A95E1F71124EF90FF90D2
:104D50000F911F91CF91DF91992787FD909508952D
:104D6000FC010590615070400110D8F78095909536
:104D70008E0F9F1F0895FC0161507040019001103B
:104D8000D8F7809590958E0F9F1F08950F931F93CE
:104D9000CF93DF93FB01238121FD03C08FEF9FEFB2
:104DA00028C022FF16C046815781248135814217D1
:104DB000530744F4A081B1819D012F5F3F4F3183A0
:104DC00020838C93268137812F5F3F4F3783268343
:104DD00010C0EB01092F182F0084F185E02D0995F3
:104DE000892BE1F68E819F8101969F838E83812F8F
:104DF000902FDF91CF911F910F910895A0E0B0E027
:104E0000E4E0F7E20C948424AE014B5F5F4FFA01BB
:104E100061917191AF018091B0029091B1020E94B5
:104E2000AC1CE2E00C94A0240F931F93CF93DF936C
:104E3000E091B002F091B102238121FF1BC08C01EF
:104E4000D0E0C0E0F80181918F016091B0027091D3
:104E5000B102DB011896ED91FC911997882331F08E
:104E60000995892B79F3DFEFCFEFECCF8AE0099535
:104E7000892B19F08FEF9FEF02C08D2F9C2FDF91B0
:104E8000CF911F910F910895FA01AA27283051F16F
:104E9000203181F1E8946F936E7F6E5F7F4F8F4F6B
:104EA0009F4FAF4FB1E03ED0B4E03CD0670F781FCA
:104EB000891F9A1FA11D680F791F8A1F911DA11DAF
:104EC0006A0F711D811D911DA11D20D009F46894E8
:104ED0003F912AE0269F11243019305D3193DEF690
:104EE000CF010895462F4770405D4193B3E00FD046
:104EF000C9F7F6CF462F4F70405D4A3318F0495D31
:104F000031FD4052419302D0A9F7EACFB4E0A69513
:104F10009795879577956795BA95C9F70097610535
:104F2000710508959B01AC010A2E0694579547958B
:104F300037952795BA95C9F7620F731F841F951F80
:084F4000A01D0895F894FFCFB5
:104F48001F0201030300000002000000001E0F0002
:104F5800000000180C041060C080200000B402207B
:104F6800005354415254494E472E2E2E0043525559
:104F78004953494E472E2E2E0049522041564F493B
:104F880044494E472E2E2E00484F4D494E472E2E4F
:104F98002E00534F4E41522041564F4944494E47E7
:104FA8002E2E2E00556E6B6E6F776E2073746174A3
:104FB80065210044697374203D20252E33660A005C
:0C4FC8005374617274696E672E2E2E0007
:00000001FF
